:0400000002006D325B
:01000B0032C2
:0100130032BA
:01001B0032B2
:0100230032AA
:01002B0032A2
:030033000206BA08
:01003B003292
:03004300023F0079
:01004B003282
:03005300023F0069
:01005B003272
:030063000206BED4
:0300EA00020066AB
:050066001200ED80FE18
:0900ED007881760078807600909D
:0E00F600E60B7403F000000000000090E6002E
:0E0104007410F075800175B28175900075B3AE
:0E011200FF75B08075B5A090E67AE0FA440162
:0B012000F012355F90E60174E2F0126F
:0E012B00027890E6097403F000000075890167
:09013900000000788276000876CF
:04014200E178847666
:05014600120876E178CB
:05014B0086761C087619
:04015000E178887654
:0A0154004A0876E1D2E843D8209073
:0E015E00E668E0FA4409F090E65CE0FA443D01
:0E016C00F090E682E4F0D2AF90E680E0FA5424
:05017A00F7F0538EF8C0
:08017F001201C1789EE6600741
:0701870012019D789E760035
:05018E007881E6600429
:0401930078817600F9
:050197001206BE80E32A
:01019C002240
:0A019D0090E680E0FA440AF07A00D0
:0201A700DAFE7E
:0E01A90090E65D74FFF090E65F74FFF05391F6
:0901B700EF90E680E0FA54F7F045
:0101C000221C
:0601C1007880E6700122C7
:0501C700AA08AB097855
:0901CC0096A60208A603788EA68F
:0601D5000B08A60C08A6B1
:0501DB000D08A60E78DE
:0501E00092A60F08A625
:0601E5001008A61108A697
:0601EB00127898A69B7833
:0801F10099A69A789AA69E785F
:0A01F9009BA69D1202FAE582700831
:0802030090E6A0E0FA4401F0CE
:0C020B0090E6A0E0FA4480F078807600D5
:06021700789686080886B7
:0A021D0009788E8602088603088621
:09022700040886058A0B8B0C8C7F
:040230000D8D0E78AA
:0C023400928602088603088604088605EE
:050240008A0F8B108CF9
:04024500118D12788D
:0802490098869B7899869A784B
:070251009A869E789B869DB2
:010258002283
:0E02590090E6837401F07421F07411F074319A
:0E026700F090E6837402F07422F07416F074C6
:0202750036F061
:010277002264
:0E02780090E610E4F000000090E611E4F000C3
:0E028600000090E612E4F000000090E613E4A1
:0D029400F000000090E614E4F0000000907F
:0E02A100E615E4F000000090E618E4F000001E
:0E02AF000090E619E4F000000090E61AE4F07A
:0E02BD0000000090E61BE4F000000090E61048
:0E02CB0074A0F000000090E61174A0F0000096
:0E02D9000090E61274A0F000000090E614748D
:0E02E700E0F000000090E68DE4F00000001250
:0502F500093E020906AC
:0C02FA0090E6B9E0FA24F450030205A7D6
:07030600EA2A2A90030D739F
:07030D000203F402047E026A
:0603140005A702052C0202
:06031A0005A70205A70281
:0603200003310205A702F3
:0603260003DF0203CD021B
:05032C0003A60203BB63
:0A03310090E6BBE0FABA0102800F6B
:05033B00BA020280205F
:05034000BA0602803145
:05034500BA075A8042D6
:09034A00788290E6B308E6F07831
:0B0353008286027B0090E6B4EAF00214
:02035E0005AAEE
:09036000788A90E6B308E6F07813
:0B0369008A86027B0090E6B4EAF002F6
:0203740005AAD8
:09037600788490E6B308E6F07803
:0B037F008486027B0090E6B4EAF002E6
:02038A0005AAC2
:09038C00788C90E6B308E6F078E5
:0B0395008C86027B0090E6B4EAF002C8
:0203A00005AAAC
:0403A200758200223E
:0803A60090E740789DE6F0901D
:0B03AE00E68AE4F090E68B7401F00298
:0203B90005AA93
:0A03BB0090E6BAE0FA789DA602125F
:0603C50002781202590249
:0203CB0005AA81
:0A03CD0090E6BAE0FA789CA602124E
:0603D70002781202590237
:0203DD0005AA6F
:0803DF0090E740789CE6F090E5
:0B03E700E68AE4F090E68B7401F0025F
:0203F20005AA5A
:0A03F40090E6B8E0FABA8002800A31
:0503FE00BA8102801B22
:05040300BA8274802C98
:0A04080090E740E4F090E741F09027
:0A041200E68AF090E68B7402F00217
:02041C0005AA2F
:0A041E0090E740E4F090E741F09011
:0A042800E68AF090E68B7402F00201
:0204320005AA19
:0E04340090E6BCE0FA53027E90E6BCE0FBC30B
:0E04420074809BE433FB4A903C3993FA339567
:0E045000E0FB74A12AFA74E63BFB8A828B83E0
:0E045E00E0FA53020190E740EAF090E741E433
:0C046C00F090E68AF090E68B7402F0023B
:0204780005AAD3
:04047A007582002265
:07047E0090E6B8E0FA600807
:05048500BA0202801222
:03048A0002052840
:0B048D0090E6BAE0FABA01030205AAEB
:040498007582002247
:09049C0090E6BAE06003020524B9
:0E04A50090E6BCE0FA53027E90E6BCE0FBC39A
:0E04B30074809BE433FB4A903C3993FA3395F6
:0E04C100E0FB74A12AFA74E63BFB90E6BCE077
:0E04CF00FC53047E90E6BCE0FDC374809DE407
:0E04DD0033FD4C903C3993FC3395E0FD74A147
:0E04EB002CFC74E63DFD8C828D83E0FC5304F6
:0E04F900FE8A828B83ECF090E6BCE05480FA21
:0E050700C423541FFA90E6BCE0FB740F5B9017
:0D051500E6832AF090E683E0FA4420F0022D
:0205220005AA28
:0405240075820022BA
:0405280075820022B6
:07052C0090E6B8E0FA60055B
:05053300BA026D800E0C
:0A05380090E6BAE0FABA0202806809
:04054200758200229C
:0E05460090E6BCE0FA53027E90E6BCE0FBC3F8
:0E05540074809BE433FB4A903C3993FA339554
:0E056200E0FB74A12AFA74E63BFB90E6BCE0D5
:0E057000FC53047E90E6BCE0FDC374809DE465
:0E057E0033FD4C903C3993FC3395E0FD74A1A5
:0E058C002CFC74E63DFD8C828D83E0FC430464
:09059A00018A828B83ECF08007DA
:0405A300758200223B
:0305A700020B162E
:0305AA0075820156
:0105AD00222B
:0C05AE00C0E0C082C083C00078807601ED
:0905BA005391EF90E65D7401F02D
:0905C300D000D083D082D0E032D8
:0E05CC00C0E0C082C0835391EF90E65D7404DE
:0105DA00F030
:0705DB00D083D082D0E03292
:0E05E200C0E0C082C0835391EF90E65D7402CA
:0105F000F01A
:0705F100D083D082D0E0327C
:0D05F800C0E0C082C083C002C003C0007814
:0A060500888602088603788AA602A0
:0C060F0008A6038A828B83A37402F07893
:0A061B00868602088603788CA6028A
:0E06250008A6038A828B83A37407F05391EF1B
:0606330090E65D7410F07A
:0D063900D000D003D002D083D082D0E032B8
:0C064600C0E0C082C083C0007881760153
:090652005391EF90E65D7408F08D
:09065B00D000D083D082D0E0323F
:0D066400C0E0C082C083C002C003C000908F
:07067100E680E0FA30E72CFF
:0A06780078868602088603788AA6B9
:0D0682000208A6038A828B83A37402F0781D
:0A068F00888602088603788CA60214
:0B06990008A6038A828B83A37407F07D
:0906A4005391EF90E65D7420F023
:0D06AD00D000D003D002D083D082D0E03244
:0306BA0053D8EF23
:0106BD00320A
:053C2500010200000097
:053C2A00010000000094
:053C2F0001000000008F
:053C340001F700000093
:0A3C39000001020203030404050564
:0A00C600789E7600789FE4F608F6B5
:0C00D00008F608F678A3E4F608F608F637
:0800DC0008F678A7E4F608F627
:0706BE00120716E58260142B
:0706C5001206DAE582700D58
:0B06CC0012080A78AC7601758200026B
:0206D700081306
:0106D90022FE
:0706DA0078A9E624F9403184
:0A06E10078A9E625E0269006EB73E9
:0706EB0002070002070302F1
:0606F200070602071202D8
:0606F800070902070C02D5
:0206FE00070FE4
:0307000002099E4D
:03070300020A02E5
:0307060002166870
:03070900022DD8E6
:03070C000236466C
:03070F000222FFC4
:03071200758200ED
:0107150022C1
:05071600E5BA30E1042A
:04071B0075820022C1
:07071F0078AC76007A807BC4
:06072600E78B9A7A807B4C
:0C072C00E77B008A9B90E67BE0FA7B00F4
:050738000ABA00010BEC
:0E073D0090E68DE0FC7D00EAB50406EBB50504
:03074B0002801118
:0B074E0012080A78AC760175820012D8
:0607590008137582002266
:0A075F0090E67BE0FA78A9A602906C
:09076900E67BE0FA78AAA60290F2
:0B077200E67BE0FA78ABA6027582017E
:01077D002259
:08077E001201C1E5BA30E104EB
:04078600750A0022CE
:0C078A0090E780E0FA7B000ABA00010B47
:0E07960090E68DE0FC7D00EAB50406EBB505AB
:0307A400028011BF
:0B07A70012080A78AC7601758200127F
:0607B2000813750AFF2286
:0B07B80090E781E0FA78A9E6B5021393
:0C07C30090E782E0FA78AA748046FBEA16
:0307CF00B503046B
:0407D200750A012281
:0607D60090E781E0700CC9
:0807DC0090E782E0FABA020482
:0407E400750A02226E
:0307E800750AFF90
:0107EB0022EB
:0807EC00AA827B0B7C007D401A
:0E07F40090E67BE0FE8B828C838DF0123B7EC4
:07080200A3AB82AC83DAEB2B
:0108090022CC
:08080A0090E68DE4F00000000F
:0108120022C3
:07081300AA82E5BA30E20100
:01081A0022BB
:07081B007BC07CE78C9D7B94
:08082200C07CE77C008B9E9076
:08082A00E67CEA04F078AC90D2
:07083200E67CE6F07B0B7C85
:05083900007D408A066D
:03083E00EE601752
:0E0841008B828C838DF0123C05FFA3AB82AC42
:09084F008390E67CEFF01E80E6C8
:0A08580090E68F74022AF000000001
:010862002273
:07086300AA82E5BA30E201B0
:01086A00226B
:07086B007BC07CE78C9D7B44
:08087200C07CE77C008B9E9026
:08087A00E67CEA04F078AC9082
:04088200E67CE6F03A
:01088600224F
:05088700E5BA30E201BA
:01088C002249
:08088D0090E7C178ACE6F090A1
:0C089500E7C0E0FA90E68F04F0000000DD
:0108A1002234
:0E08A200AA82AB83ACF090E67BE0FDC002C002
:0E08B00003C004C00512080AD005D004D0030E
:0708BE00D002E5BA30E201AF
:0108C5002210
:0708C6007EC07FE78F9D7EDD
:0808CD00C07FE77F008E9E90C2
:0C08D500E67CED04F090E67CE4F08D067B
:0308E100EE6017AF
:0E08E4008A828B838CF0123C05FFA3AA82ABA4
:0908F2008390E67CEFF01E80E625
:0A08FB0090E68F74022DF00000005B
:0109050022CF
:0E09060090E618E4F000000090E6047480F023
:0E09140000000090E6047402F00000007A0477
:0B09220090E6497482F0000000DAF556
:0E092D0090E604E4F000000090E6A3E4F00081
:02093B000000BA
:01093D002297
:0E093E0090E61AE4F000000090E6047480F0E9
:0D094C0000000090E6047406F0000000902A
:0E095900E604E4F000000090E6A5E4F00000E3
:01096700008F
:01096800226C
:0809690090E680E0FA30E70699
:060971007A007B02800405
:040977007A407B0047
:0E097B0090E624EBF000000090E680E0FA30F9
:02098900E7067F
:06098B007A007B028004EB
:040991007A407B002D
:0809950090E625EAF0000000E5
:01099D002237
:07099E0078AAB602028007EF
:0709A50078AAB6035080059B
:0509AC0012080A804D55
:0A09B1007582041207EC12080AE533
:0809BB000BF4FAE50CF4FBE576
:0A09C3000DF4FCE50EF4FD747B2A30
:0C09CD00FAE43BFBE43CFCE43DFD8A0B3B
:0509D9008B0C8C0D8D5C
:0509DE000E1217EC7879
:0C09E3009FE4F608F608F608F612093E3C
:0B09EF00120906758204120813800430
:0409FA0075820022E0
:0309FE00758201FE
:010A010022D2
:070A020078AAB6020280236E
:070A090078AAB60302803356
:070A100078AAB60402804A37
:070A170078AAB60902806015
:070A1E0078AAB60A028070FD
:070A250078AAB60B75806E84
:070A2C0012080A750B117599
:060A33000C00750D0075BA
:0A0A39000E0075820412081380609D
:0E0A430012080A75B28190E601E0FA4420F034
:0E0A510090E6C274FFF0D2B77582001208134F
:020A5F008042D3
:0E0A610012080AC2B775B20090E601E0FA541E
:0E0A6F00DFF090E6C2E4F075820012081380FA
:010A7D002553
:070A7E0012080A750B007558
:060A85000C20750D007548
:0A0A8B000E00758204120813800E9D
:050A95001214A380090A
:050A9A0012125580045A
:040A9F00758200223A
:030AA30075820158
:010AA600222D
:0A0AA700AA82AB83E508450970013F
:010AB1002222
:070AB200AC14BCE602800554
:050AB9008B05BDE631D4
:080ABE008A068B07AC13AD148E
:0E0AC6008E028F038C828D83E0F88A828B83F0
:060AD400F00EBE00010F50
:050ADA000CBC00010D41
:080ADF00150874FFB5080215AB
:010AE7000905
:060AE800E508450970D885
:010AEE0022E5
:0C0AEF008C9AAC137E008C9B8D9D7B00CC
:050AFB008A9E020B01C0
:010B000022D2
:080B0100A90890E67B0586902F
:040B0900E67C0586FB
:080B0D00E00586F00586D9F829
:010B150022BD
:0A0B160090E6B9E0FABAA202804AA4
:050B2000BAA3028045AC
:060B2500BAE103020DEB32
:060B2B00BAE203020DCB4B
:060B3100BAE303020DCB44
:060B3700BAE403020DAB5D
:060B3D00BAE503020DAB56
:060B4300BAE603020CB645
:060B4900BAE703020CE311
:060B4F00BAE803020D2BC1
:060B5500BAE903020D8B5A
:060B5B00BAEA03020D5A84
:060B6100BAEB03020E0BCB
:030B6700020E2B50
:0B0B6A0090E6BAE0FAA3E0FB8A0B8BD8
:0A0B75000C90E6BEE0FAA3E0FB904E
:090B7F00E6B8E0FCBCC0028003F2
:030B8800020C1B41
:070B8B00EA4B7003020E2F7C
:080B920090E6A0E0FC20E1F870
:080B9A0090E6B9E0FCBCA211D9
:0A0BA200750D00750E00C002C003BF
:070BAC001210C9D003D002B2
:090BB300C3EA9440EB94005006E3
:060BBC008A0D8B0E80067D
:060BC200750D40750E00E8
:080BC80090E6B9E0FCBCA20DAF
:0D0BD000C002C00312101CD003D002801A16
:040BDD00850D0885F5
:030BE1000E09906A
:040BE400E740850B56
:030BE80013850C66
:0C0BEB0014C002C003120AA7D003D002FD
:080BF70090E68AE4F0AC0DADBC
:080BFF000E90E68BECF0EC25F2
:070C07000BFEED350CFF8E22
:0A0C0E000B8F0CEAC39CFAEB9DFB70
:030C1800020B8B41
:0A0C1B0078A7E608467003020CB249
:0C0C250090E6BCE0FCA3E0FD78A7E6B57B
:090C3100040708E6B50502800283
:020C3A008076C2
:080C3C0090E6B8E0FCBC406E3C
:070C4400EA4B7003020E2FC2
:090C4B0090E68AE4F090E68BF0DB
:080C540090E6A0E0FC20E1F8AD
:0A0C5C0090E68BE0FC7D008C0D8D0E
:090C66000E90E6B9E0FCBCA31FEE
:040C6F00850D088562
:030C73000E0985E2
:060C76000B82850C837562
:030C7C00134075AD
:070C7F0014E7C002C00312DC
:080C86000AA7D003D002800B85
:0B0C8E00C002C0031210C9D003D00246
:060C9900AC0DAD0EEC25D0
:070C9F000BFEED350CFF8E8A
:0A0CA6000B8F0CEAC39CFAEB9DFBD8
:020CB000809230
:040CB2007582002225
:0A0CB60090E6B8E0FABAC00280032D
:030CC000020E2FF2
:080CC30090E6A0E0FA20E1F840
:0E0CCB0090E740740AF0A37403F090E68AE408
:0A0CD900F090E68B7402F0020E2F7B
:0A0CE30090E6B8E0FABAC002800300
:030CED00020E2FC5
:080CF00090E6A0E0FA20E1F813
:0E0CF80090E740741DF0A3E4F0A3F0A3F09089
:0B0D0600E744E4F5F0123B7EA3E4128A
:0A0D11003B7EA3E4123B7EA3E41234
:080D1B003B7E90E68AE4F090B3
:080D2300E68B7408F0020E2FAC
:080D2B0090E6B8E0FABA40239B
:090D330090E68AE4F090E68BF0F2
:080D3C0090E6A0E0FA20E1F8C6
:0C0D440090E740E0FAA3E0FB78A7A602CD
:060D500008A603020E2FAD
:040D56007582002280
:080D5A0090E6B8E0FABA40256A
:070D620078A7E60846601EB9
:0C0D690090E6BCE0FAA3E0FB78A7E6B53A
:090D7500020708E6B50302800242
:020D7E008007EC
:070D8000789E7601020E2FA0
:040D8700758200224F
:070D8B00750BF0750C3F75BC
:060D92000D04750E007552
:060D98000FCD7510AB90B9
:070D9E00E6B8E0FABAC00359
:030DA500020E3308
:030DA800020F4CEB
:070DAB00750BE0750C3F75AC
:060DB2000D0C750E00752A
:060DB8000F787510569043
:070DBE00E6B9E0FABAE40314
:030DC500020E33E8
:030DC800020F4CCB
:070DCB00750BC0750C3F75AC
:060DD2000D10750E007506
:060DD8000FCD7510AB9079
:070DDE00E6B9E0FABAE203F6
:030DE500020E33C8
:030DE800020F4CAB
:070DEB00750BA0750C3F75AC
:060DF2000D1C750E0075DA
:060DF8000FCD7510AB9059
:070DFE00E6B8E0FABAC003F9
:030E0500020E33A7
:030E0800020F4C8A
:070E0B00750BF8750C3F7533
:060E12000D02750E0075D3
:060E18000FCD7510AB9038
:070E1E00E6B8E0FABAC003D8
:030E2500020E3387
:030E2800020F4C6A
:040E2B0075820022AA
:030E2F00758201C8
:010E3200229D
:0C0E33007AFF90E6B8E0FBBBC002800430
:040E3F007582002296
:050E4300AB0DAC0E75C3
:0A0E48000D00750E00C002C003C0CB
:0E0E5200041210C9D004D003D00274032BFB8D
:0A0E6000E43CFC8B0D8C0EC0021266
:0A0E6A00101CD002E50D24FDFBE58D
:070E74000E34FFFC8B0D8C16
:0B0E7B000E90E740E0FBA3E0FCEBB5AD
:060E86000F48ECB510441A
:040E8C007A007B006D
:0A0E90007403250DFCE4350EFD8B04
:0A0E9A00067F00C3EE9CEF9D502C74
:0A0EA400EB2440F582E434E7F58307
:0A0EAE00E0FC2AFAEB2440FCE434D7
:0A0EB800E7FD74022B2440F582E4EC
:0C0EC20034E7F583E0FE8C828D83F00B9A
:020ECE0080C0E2
:030ED000EA606471
:040ED300850D0885FC
:030ED7000E099071
:090EDA00E6B9E0FABAE102803445
:050EE300BAE202803DAF
:050EE800BAE4028005E0
:050EED00BAE943801783
:020EF2007A0084
:030EF400BA0C0035
:020EF700503E6B
:0A0EF900EA2440F582E434E7F583B3
:060F03007430F00A80EBDF
:050F090090E7407513A4
:030F0E0057751400
:060F11003C120AA780203B
:050F170090E740751396
:030F1C005B7514EE
:060F1F003C120AA780123B
:050F250090E740751388
:030F2A00777514C4
:060F2D003C120AA780043B
:040F330075820022A1
:0C0F370090E68AE4F000000090E68BE5F4
:080F43000DF0000000758201B1
:010F4B002283
:080F4C0090E6B8E0FABA401C7F
:070F540078A7E608466015CE
:0C0F5B0090E6BCE0FAA3E0FB78A7E6B546
:090F6700020708E6B5030280044C
:040F70007582002264
:090F740090E68AE4F090E68BF0AF
:080F7D0090E6A0E0FA20E1F883
:070F850090E68AE0FA701407
:050F8C00AA0DAB0E9060
:0E0F9100E68BE0FC7D00B50206EDB5030280A4
:010F9F00044D
:040FA0007582002234
:060FA4008A15AD158D0653
:060FAA008E071EEF60251A
:0C0FB000C002C00374022E2440FFE43491
:090FBC00E7FCEE2440F582E43468
:0C0FC500E7F583E0FA8F828C83F0D00304
:040FD100D00280D5F5
:080FD50090E740E50FF0A3E5F1
:050FDD0010F07C407ED5
:0A0FE200E78E9A759B407C007402B4
:030FEC002515FDCB
:090FEF0090E67BE0FE2CFCDDF72E
:0A0FF800740225152440F582E4344C
:0C100200E7F583C3E49CFCF074032AFAB9
:08100E00E43BFB8A0D8B0E127E
:0510160010C975820104
:01101B0022B2
:05101C00E50DFA70046F
:0410210075820122B1
:0810250090E678E0FB20E6F8FC
:0C102D0090E6787480F090E67974A3F0EF
:0810390090E678E0FB30E0F8DE
:0810410090E678E0FB20E27468
:0810490090E678E0FB30E16C59
:03105100BA0108D9
:0810540090E678E0FB4420F077
:07105C0090E679E07B407C87
:06106300E78C9A7B407C43
:05106900E77C008B9BF9
:04106E00DA028026FC
:0810720090E678E0FB30E0F8A5
:08107A0090E678E0FB20E23B68
:03108200BA0108A8
:0810850090E678E0FB4420F046
:0B108D0090E679E0FB90E67BF080D657
:0810980090E678E0FA30E0F880
:0810A00090E678E0FA20E21569
:0E10A80090E678E0FA4440F090E679E0FA90A5
:0710B600E67BF075820122C8
:0B10BD0090E678E0FA4440F0758200F5
:0110C8002205
:0210C900AA0D6E
:0810CB0090E678E0FB20E6F856
:0C10D30090E6787480F090E67974A2F04A
:0810DF0090E678E0FB30E0F838
:0810E70090E678E0FB20E26BCB
:0810EF0090E678E0FB30E163BC
:0310F700EA600E9E
:0710FA007B407CE78C9A7B30
:07110100407CE77C008B9BA2
:021108007B0268
:03110A00EA700385
:03110D00EB603B59
:03111000EB60147D
:03111300BB020814
:0811160090E679E50CF080067B
:06111E0090E679E50BF0FC
:031124001B800A23
:0A11270090E67BE0FC90E679F01AF8
:0811310090E678E0FC30E0F8E4
:0811390090E678E0FC20E219C9
:0811410090E678E0FC20E1C11A
:02114900800F15
:0E114B0090E678E0FA4440F0121166758201D9
:011159002273
:0B115A0090E678E0FA4440F075820057
:011165002267
:0811660090E678E0FA20E6F8BB
:0E116E0090E678E0FA4480F090E67974A2F002
:08117C0090E678E0FA30E0F89B
:0811840090E678E0FA4440F027
:08118C0090E678E0FA20E6F895
:0811940090E678E0FA30E1D2A8
:01119C002230
:08119D0090E678E0FA4440F00E
:0811A50090E678E0FA20E6F87C
:0111AD00221F
:0711AE00AA8290E679EAF045
:0811B50090E678E0FA30E0F862
:0811BD0090E678E0FA20E20858
:0811C50090E678E0FA20E10752
:0711CD0012119D78AC76239E
:0611D40078ACE6B4010056
:0411DA00E433F58283
:0111DE0022EE
:0C11DF00AA8290E6787480F0EA2AFAE513
:0B11EB00164AF5821211AEE582700476
:0411F60078AC762239
:0611FA0078ACE6B4010030
:04120000E433F5825C
:0112040022C7
:091205007516017582510211DF1A
:0C120E00AA82AB83751600758251C002E5
:0D121A00C0031211DFE582D003D002601185
:0E1227008B82C002C0031211AEE582D003D04C
:0312350002700440
:041238007C008002B4
:02123C007C0133
:03123E00EC600B56
:0B1241007B008A821211AEE58270046F
:04124C007A008002A2
:021250007A0121
:021252008A828E
:011254002277
:06125500E4F517F518F5A1
:07125B0008F5097582081275
:0612620007EC12080AACC3
:041268000FAD10AE08
:0A126C0011AF12C3E49C74209DE44E
:051276009EE49F4028EA
:04127B00850B198541
:03127F000C1A85C1
:031282000D1B85BC
:041285000E1CEC252A
:0812890019FCED351AFDEE35EC
:0A1291001BFEEF351CFFC3E49C7444
:08129B00209DE49EE49F500A2F
:0A12A30078AC76097582000208138A
:0912AD00AC19741C251AFDE4358E
:0712B6001BFEE4351CFF8C58
:0412BD000B8D0C8EFB
:0412C1000D8F0E85FA
:0612C5000B82850C831270
:0612CB00120EE582700521
:0512D100F58202081384
:0A12D60012119D758200120813E545
:0412E0000F45104561
:0512E400114512602815
:0A12E9001212057401B50F0EE4B5F2
:0812F300100AE4B51106E4B590
:0412FB001202800259
:0212FF00800865
:0813010090E678E0FC4420F0C6
:0813090090E679E0F50A80038B
:031311007518014B
:04131400E518600771
:07131800E5176003021495C4
:09131F0012077EE4B50A02803FCA
:051328007401B50A0C80
:04132D00E517700848
:0813310075170112080A802E55
:051339007402B50A1C5E
:07133E0012080AE5187022F5
:0C13450090E6A57401F00000007518018E
:0913510078AC760212119D800DAA
:04135A00E51870031F
:03135E0012119DCC
:061361007517000214954F
:04136700E51870A96C
:05136B00E5AA20E5A445
:071370007C007DF88D9D7CDF
:08137700007DF87D008C9E85CD
:03137F000F1D85BA
:03138200101E85B5
:03138500111F85B0
:03138800122090A0
:07138B00E680E0FA30E706FE
:061392007A007B028004DA
:041398007A407B001C
:0C139C00EB3395E0FCFDC3EA951DEB95DA
:0613A8001EEC951FED95FF
:0313AE00205014B8
:0813B10090E680E0FA30E70647
:0613B9007A007B028004B3
:0413BF007A407B00F5
:0213C3008004A4
:0413C500AA0FAB10B0
:0413C9008A088B09FA
:0713CD00E508450970030269
:0213D400148083
:0713D600E51860030214801A
:0813DD0090E678E0FC30E0F836
:0813E50090E678E0FC30E2180C
:0813ED0078AC7623751801901D
:0C13F500E6A57401F0EAC39508FAEB9538
:0414010009FB80C89B
:0A1405007402B50F0EE4B5100AE4FE
:09140F00B51106E4B512028002D9
:0214180080084A
:08141A0090E678E0FC4420F0AC
:0A1422007401B50F0EE4B5100AE4E2
:09142C00B51106E4B512028002BC
:02143500800B2A
:0B143700C002C00312119DD003D002C0
:0A14420090E679E0FC90E67CF015DE
:07144C000874FFB50802154A
:01145300098F
:05145400AC0FAD10AE6D
:0A14590011AF121CBCFF091DBDFFFE
:06146300051EBEFF011F83
:051469008C0F8D108EB8
:0A146E00118F12EC4D4E4F60030287
:0214780013CD92
:06147A007518010213CDFC
:0E14800090E698EBF00000007B0090E699EA01
:07148E00F00000000213143E
:0714950012093EE517600695
:06149C0075820002081336
:0114A2002227
:0714A30075210075220075A0
:0614AA002301E4F508F542
:0814B000097582081207EC1215
:0514B800080AAD0FAEB3
:0414BD0010AF11ACAF
:0C14C10012C3E49D74209EE49FE49C4054
:0114CD001C02
:0A14CE00ED250BFDEE350CFEEF35A9
:0A14D8000DFFEC350EFCC3E49D741B
:0814E200209EE49FE49C500AE7
:0A14EA0078AC760975820002081341
:0B14F400758200120813AC0B741C255D
:0814FF000CFDE4350DFEE4359F
:051507000EFF8C0B8DAE
:04150C000C8E0D8FA5
:041510000EE50F4590
:041514001045114528
:031518001270034B
:03151B0075220135
:04151E00E52260075B
:07152200E5216003021650F1
:0915290012077EE4B50A028035C8
:051532007401B50A0C74
:04153700E521700832
:08153B0075210112080A802449
:051543007402B50A1955
:0715480012080AE5227018E9
:0C154F0090E6A37401F00000007522017A
:06155B0078AC7602800668
:0615610075210002165086
:04156700E52270B356
:05156B00E5AA20E0AE3E
:071570007C007DF08D9A7CE8
:08157700007DF07D008C9B90CB
:0E157F00E690E0FC8C057C0090E691E0FE7F9B
:08158D00002CF508EF3DF50903
:06159500E5084509608332
:07159B00E522600302151EAA
:0415A200E523600CD1
:0715A600850B82850C831206
:0515AD00120E75230081
:0515B20078ACE6700EAC
:0E15B70090E67BE0FCF5821211AEE582700B2F
:0B15C50075220190E6A37401F080C5C0
:0815D000150874FFB5080215AF
:0115D8000909
:0515D900AC0FAD10AEE7
:0715DE0011AF12EC24FFF530
:0A15E50024ED34FFF525EE34FFF588
:0715EF0026EF34FFF527850C
:0315F600240F853A
:0315F90025108535
:0315FC0026118530
:0315FF002712AA06
:041602000BAB0CAC76
:0A1606000DAD0E0ABA00090BBB007F
:06161000050CBC00010DF9
:051616008A0B8B0C8C17
:04161B000D8D0EE53E
:04161F0024452545F4
:051623002645277003BD
:0316280075220127
:06162B00E5084509700608
:0616310090E6497482F00E
:04163700E52270092F
:06163B00E50B543F6003C3
:03164100021595FA
:0716440012119D12116675E1
:05164B002301021595CA
:04165000E523700618
:0616540012119D12116647
:07165A00120906E5216006FC
:061661007582000208136F
:011667002260
:053C4300010200000079
:053C4800010000000076
:053C4D00010000000071
:053C520001F700000075
:043C57000A0150000E
:0E3C5B00582D426F617264000000FDFDFDFDFA
:0E3C6900000075AE9D1D540F1608F87FC000B8
:0E3C7700444F6E62557362000000FDFDFDFDBE
:023C850000003D
:0716680078AAB602028077A8
:07166F0078ABB60002801108
:0B16760012080A78AC760C7582001296
:061681000813758201222E
:0516870078AAE67036B0
:06168C00789FE630E0113A
:0B16920012080A78AC76037582001283
:06169D0008137582012212
:0616A300789FE630E4111F
:0B16A90012080A78AC7603758200126C
:0616B400081375820122FB
:0816BA00789FE64401F680244C
:0516C20078AAB6010842
:0816C700789FE654FEF680173F
:0616CF00789FE620E01107
:0B16D50012080A78AC7604758200123F
:0616E000081375820122CF
:0A16E60078AAE624F450030217D698
:0A16F00078AAE625E0269016FA73AA
:0716FA0002171E02172E0269
:06170100173E0217D6029C
:06170700174B02176402FB
:06170D0017980217CF023D
:0617130017C10217C1021C
:0517190017C80217C112
:0A171E001217DA12080A7582001291
:0617280008137582012286
:0A172E001217EC12080A758200126F
:0617380008137582012276
:0D173E00903C8775F0801208A27582012290
:07174B0012080A750B00757E
:061752000C6A750D18750C
:0C1758000E007582041208137582012235
:0717640090E67BE0FA60044F
:04176B00D2B3800273
:02176F00C2B303
:0717710090E67BE0FA600442
:04177800D2B2800267
:02177C00C2B2F7
:07177E0090E67BE0FA600435
:04178500D2B4800258
:02178900C2B4E8
:0D178B0012080A75820012081375820122EF
:0C17980012080AA2B3E433FA8A0BA2B2D2
:0B17A400E433FA8A0CA2B0E433FA8AA6
:0A17AF000DA2B4E433FA8A0E75822D
:0817B9000412081375820122DD
:0717C100121BA97582012231
:0717C800121FB0758201221F
:0717CF001217F875820122D8
:0317D60075820019
:0117D90022ED
:0E17DA0043B50443B50843B510D2B5C2B2D230
:0317E800B3C2B4D5
:0117EB0022DB
:0B17EC00C2B553B5E3C2B2D2B3C2B421
:0117F70022CF
:053C8700010200000035
:053C8C00010000000032
:053C910001000000002D
:053C960001F700000031
:0B17F8007A007B0090E67BE0FC6004C0
:04180300D2B38002DA
:02180700C2B36A
:0718090090E67BE0FC6004A7
:04181000D2B28002CE
:02181400C2B25E
:0E181600C2B4758204C002C0031207ECD003F6
:0E18240000C00312080A758200120813D003D8
:07183200D002AC0BAD0CAEBF
:041839000DAF0E8C55
:04183D000F8D108E6D
:09184100118F12EC4D4E4F7002A4
:02184A007B0120
:03184C00EB600648
:06184F00EA60030218FD2F
:0D185500C002C00312077ED003D002E4B52C
:041862000A028031C5
:051866007401B50A0F3A
:0E186B007A01C002C00312080AD003D0028026
:011879001D51
:05187A007402B50A1321
:0B187F007B0178AC7602C002C00312AF
:08188A00080AD003D00280051A
:051892007A000218FDC0
:03189700EB70B241
:05189A00AC0BAD0CAE2B
:0A189F000DAF0EC3ED94FEEE9400B1
:0518A900EF9400500661
:0618AE008C088D09800684
:0618B4007508007509FE35
:0818BA00AC08AD09E4FEFFE5F6
:0918C2000BC39CFCE50C9DFDE547
:0818CB000D9EFEE50E9FFF8C4F
:0418D3000B8D0C8EDF
:0818D7000D8F0EC000C001A836
:0418DF0008A9090942
:0E18E300D2B4C2B4D8FAD9F8D001D000EC4D7E
:0718F1004E4F600302184C8A
:0518F8007B0102184C09
:0318FD00EA602975
:07190000E50FC3950BFAE5AA
:0519070010950CFBE54A
:05190C0011950DFCE542
:0519110012950EFD8A95
:041916000B8B0C8C9F
:04191A000D8D0E78A9
:0B191E00ACE64480F67582040208135A
:01192900229B
:0A192A00C001C002A908AA09E96083
:02193400010AA6
:0319360090E67BBD
:0E193900E01392B2D2B4C2B41392B2D2B4C2CE
:0E194700B41392B2D2B4C2B41392B2D2B4C2EC
:0E195500B41392B2D2B4C2B41392B2D2B4C2DE
:0E196300B41392B2D2B4C2B41392B2D2B4C2D0
:09197100B4D9C5DAC3D002D001DB
:01197A00224A
:0A197B00C001C002A908AA09E96032
:02198500010A55
:0A19870090E67B058690E67C05865D
:0E199100E01392B2A2B013D2B4C2B492B2A2CA
:0E199F00B013D2B4C2B492B2A2B013D2B4C28A
:0E19AD00B492B2A2B013D2B4C2B492B2A2B03D
:0E19BB0013D2B4C2B492B2A2B013D2B4C2B46A
:0E19C90092B2A2B013D2B4C2B492B2A2B013C2
:0E19D700D2B4C2B40586F00586D9AFDAADD021
:0319E50002D0012C
:0119E80022DC
:0A19E900C001C002A908AA09E960C4
:0219F300010AE7
:0319F50090E67CFD
:0E19F800A2B0D2B4C2B413A2B0D2B4C2B4131F
:0E1A0600A2B0D2B4C2B413A2B0D2B4C2B41310
:0E1A1400A2B0D2B4C2B413A2B0D2B4C2B41302
:0E1A2200A2B0D2B4C2B413A2B0D2B4C2B413F4
:091A3000F0D9C2DAC0D002D001E5
:011A3900228A
:0A1A3A00C001C002A908AA09E96072
:021A4400010A95
:031A460090E67BAC
:0E1A4900E01392B3D2B4C2B41392B3D2B4C2BB
:0E1A5700B41392B3D2B4C2B41392B3D2B4C2D9
:0E1A6500B41392B3D2B4C2B41392B3D2B4C2CB
:0E1A7300B41392B3D2B4C2B41392B3D2B4C2BD
:091A8100B4D9C5DAC3D002D001CA
:011A8A002239
:0A1A8B00C001C002A908AA09E96021
:021A9500010A44
:0A1A970090E67B058690E67C05864C
:0E1AA100E01392B3A2B013D2B4C2B492B3A2B7
:0E1AAF00B013D2B4C2B492B3A2B013D2B4C278
:0E1ABD00B492B3A2B013D2B4C2B492B3A2B02A
:0E1ACB0013D2B4C2B492B3A2B013D2B4C2B458
:0E1AD90092B3A2B013D2B4C2B492B3A2B013AF
:0E1AE700D2B4C2B40586F00586D9AFDAADD010
:031AF50002D0011B
:011AF80022CB
:0A1AF900C001C002A908AA09E960B3
:021B0300010AD5
:031B050090E67BEC
:0E1B0800E01392B21392B3D2B4C2B41392B2ED
:0E1B16001392B3D2B4C2B41392B21392B3D2EC
:0E1B2400B4C2B41392B21392B3D2B4C2B4D905
:071B3200D5DAD3D002D00187
:011B39002289
:0A1B3A00C001C002A908AA09E96071
:021B4400010A94
:0A1B460090E67B058690E67C05869C
:021B50007C0215
:0E1B5200E01392B21392B3FBE8A2B013F8EBCB
:0E1B6000D2B4C2B41392B21392B3FBE8A2B097
:0E1B6E0013F8EBD2B4C2B41392B21392B3FBCD
:0E1B7C00E8A2B013F8EBD2B4C2B41392B213C5
:0E1B8A0092B3FBE8A2B013F8EBD2B4C2B4DC05
:0E1B9800B9E80586F0058619D9AEDAACD002A0
:021BA600D0016C
:011BA800221A
:071BA900752900752B007582
:071BB0002C0078AAB6082AF8
:081BB70075290190E67BE0F5C1
:081BBF002890E67BE0FE6004C3
:041BC700D2B3800213
:021BCB00C2B3A3
:041BCD00E52860089F
:041BD100752D7B757E
:041BD5002E19805AEB
:041BD900752D2A75C7
:041BDD002E198052EB
:051BE10078AAB60925F9
:0A1BE60075280190E67BE0FC600426
:041BF000D2B38002EA
:021BF400C2B37A
:071BF60090E67BE0FC6004B7
:041BFD00D2B28002DE
:021C0100C2B26D
:041C0300752DE975DD
:041C07002E198028EA
:081C0B0075290190E67BE0F56C
:081C13002890E67BE0FC600470
:041C1B00D2B28002BF
:021C1F00C2B24F
:041C2100E52860084A
:041C2500752D8B7519
:041C29002E1A8006E9
:041C2D00752D3A7562
:021C31002E1A69
:0D1C33007582041207EC12080A7582001277
:041C40000813850BF5
:031C44002F850CDD
:031C470030850DD8
:031C4A0031850ED3
:031C4D0032852FAE
:031C50000F8530CD
:031C5300108531C8
:031C5600118532C3
:0A1C5900127407552FFD7A007B007E
:071C63007C008D2AAA2FE589
:0C1C6A0030C423CAC423541F6ACA541F8C
:0C1C7600CA6ACAFBE531C42354E04BFBF2
:0A1C8200AC31E532C423CCC4235476
:0C1C8C001F6CCC541FCC6CCCFE8A0B8B60
:041C98000C8C0D8E15
:051C9C000EE52A601DA9
:051CA100AA0BAB0CAC26
:0A1CA6000DAE0E0ABA00090BBB00D8
:061CB000050CBC00010E52
:051CB6008A0B8B0C8C71
:031CBB000D8E0E7D
:051CBE00E50F45104593
:051CC300114512700341
:031CC800752B0178
:021CCB00C2B4A1
:041CCD00E52B60079C
:071CD100E52C6003021EC3B5
:071CD80012077EE50A602CF3
:051CDF007401B50A0CC0
:041CE400E52C700873
:081CE800752C0112080A801B93
:051CF0007402B50A10AA
:071CF50012080AE52B700F35
:091CFC0078AC7602752B0180061C
:061D0500752C00021EC354
:041D0B00E529600561
:051D0F00E5AA20E0B987
:041D1400E528600559
:051D1800E5AA20E5B082
:041D1D00E52B70AC96
:041D2100E529600E42
:071D25007A007BF08B9A7A33
:071D2C00007BF07B008A9BA5
:041D3300E528600E31
:071D37007A007BF88B9D7A16
:071D3E00007BF87B008A9E88
:041D4500E529601913
:0E1D490090E690E0FA8A037A0090E691E0FCC2
:0A1D57007E004AF508EE4BF5098006
:011D6100542D
:041D6200850B338535
:031D66000C3485B5
:031D69000D3585B0
:031D6C000E3690A0
:071D6F00E680E0FF30E7060B
:061D76007A007B028004EC
:041D7C007A407B002E
:0C1D80008A07EBFD3395E0FAFBC3EF95FA
:061D8C0033ED9534EA95E9
:061D920035EB95365018F8
:081D980090E680E0FA30E70656
:061DA0007A007B028004C2
:041DA6007A407B0004
:061DAA008A088B09800687
:041DB00085330885EA
:021DB4003409F0
:081DB600AA08AB09E4FCFDE5FD
:091DBE000BC39AFAE50C9BFBE54E
:081DC7000D9CFCE50E9DFD8A58
:041DCF000B8B0C8CE2
:041DD3000D8D0EE57F
:031DD7002A60136C
:051DDA00E50B450C457E
:051DDF000D450E700926
:081DE400150874FFB508021593
:011DEC0009ED
:061DED00E508450960094C
:071DF300852D82852E83126D
:021DFA00006B7C
:071DFC00E52A7003021E8DB1
:051E0300E50B450C4554
:061E08000D450E6003020F
:021E0E001E8D27
:061E1000AA2AE529700B6F
:031E160030B204E3
:041E19007BFF8002C9
:021E1D007B0048
:021E1F0080053C
:051E210090E67BE0FBF0
:051E260078AAB60B1DB7
:021E2B008A0427
:0B1E2D00EBA2E092B3C313FB30B00542
:051E380043038080035C
:031E3D0053037FCD
:061E4000D2B4C2B4DCE7DD
:021E4600801901
:0B1E4800EBA2E092B2C313FB30B00528
:051E5300430380800341
:031E580053037FB2
:061E5B00D2B4C2B4DAE7C4
:041E6100E528601DF3
:0C1E6500AD2A7A007408C39DFDE49AFACF
:071E71008DF005F0EB80028B
:021E7800C31392
:081E7A00D5F0FBFB90E67CF0C3
:071E8200752A000508E4B514
:041E8900080205093D
:041E8D00E5296009DA
:091E910090E6497482F0000000A3
:041E9A00E5286012C5
:0A1E9E0090E698E509F000000090BE
:081EA800E699E508F0000000D6
:051EB000E50B450C45A7
:061EB5000D450E60030262
:021EBB001CCD3C
:061EBD00752B01021CCD93
:071EC30012090612093EE5B9
:041ECA002C70012255
:041ECE00E52A601D84
:051ED200AA0BAB0CACF3
:0A1ED7000DAD0E1ABAFF091BBBFF88
:061EE100051CBCFF011D01
:051EE7008A0B8B0C8C3E
:031EEC000D8D0E4B
:041EEF00850D35E543
:0A1EF3000EC40354F8C535C403C53E
:041EFD00356535C54D
:061F01003554F8C53565FA
:041F070035F536E591
:081F0B000CC40354074535F531
:031F130035850B06
:081F160033E50CC40354F8C5C7
:061F1E0033C403C5336566
:061F240033C53354F8C57B
:041F2A00336533F5F3
:031F2E00348533C4
:031F31000B8534E9
:031F34000C8535E4
:031F37000D8536DF
:091F3A000EAE2AE4FFFAFBEE25CD
:081F430033FEEF3534FFEA35EF
:071F4B0035FAEB3536FB8E81
:041F52000B8F0C8A5B
:041F56000D8B0EE5FC
:091F5A000FC39EFEE5109FFFE598
:081F6300119AFAE5129BFB8EB6
:041F6B000F8F108A3A
:041F6F00118B128E32
:041F73000B8F0C8A3A
:041F77000D8B0EE5DB
:031F7B00296004D6
:041F7E007A808002E3
:021F82007A00E3
:041F8400E5286004E8
:041F88007B40800218
:021F8C007B00D8
:0A1F8E00EB4A78AC46F6E529600442
:041F98007A04800245
:021F9C007A00C9
:041F9E00E5286004CE
:041FA2007B0480023A
:021FA6007B00BE
:071FA800EB2AF58202081389
:011FAF00220F
:071FB000753800753900755A
:071FB7003A0090E67BE0F523
:081FBE00377582041207EC12D2
:091FC600080A7582001208138557
:031FCF000B3D8542
:031FD2000C3E853D
:031FD5000D3F8538
:031FD8000E408533
:031FDB003D0F8532
:031FDE003E10852D
:031FE1003F118528
:031FE4004012E5C3
:041FE7003D453E45F1
:051FEB003F45407003BA
:031FF0007539013F
:0C1FF3007407553DFAE4FDFBFC74032567
:081FFF003DFBE4353EFCE43536
:072007003FFDE43540FE8BB4
:04200E000B8C0C8D9E
:0A2012000DEEF50EC313FEED13FDF5
:0E201C00EC13FCEB13FBEEC313FEED13FDEC17
:0A202A0013FCEB13FB8B0B8C0C8DE9
:042034000D8E0EE51A
:0320380037600806
:04203B00753B3A7542
:04203F003C1B8006C0
:04204300753BF9757B
:022047003C1A41
:02204900C2B41F
:04204B00E53960070C
:07204F00E53A600302224C98
:0B205600C00212077ED002E50A6034D1
:052061007401B50A1036
:04206600E53A700CDB
:0C206A00753A01C00212080AD002801F63
:052076007402B50A141C
:0B207B00C00212080AD002E539700F05
:0920860078AC7602753901800680
:06208F00753A0002224C2C
:05209500E5AA20E0B106
:04209A00E5376005C1
:05209E00E5AA20E5A801
:0420A300E53970A407
:0720A7007D007EF08E9A7DA2
:0820AE00007EF07E008D9BE531
:0320B6003760127E
:0420B900E538700E88
:0720BD007D007EF88E9D7D81
:0720C400007EF87E008D9EF6
:0E20CB0090E690E0FD8D067D0090E691E0FF2E
:0A20D9007B002DF508EB3EF509AB86
:0720E30008AC09E4FDFEE575
:0920EA000BC39BFBE50C9CFCE51B
:0820F3000D9DFDE50E9EFE8B24
:0420FB000B8C0C8DB1
:0620FF000D8E0EEA602CBC
:05210500E50B450C454F
:05210A000D450E7022DE
:0E210F008A03FC74032BFBE43CFCA2E713CB19
:0C211D0013CBA2E713CB13CBFCE508C3E7
:072129009BF508E5099CF598
:0121300009A5
:06213100E5084509600D00
:09213700C002853B82853C831245
:04214000006BD0025E
:06214400EA70030221C94C
:05214A00E50B450C450A
:05214F000D450E707546
:092154007B0090E67BE0FC7D00BD
:05215D00C3ED9A5023C0
:03216200BD0405B4
:0521650090E67BE0FCA8
:0E216A00ECA2E092B2C313FCA2E092B3C31346
:06217800FCEBA2B013FB1A
:07217E00D2B4C2B40D80D8F9
:04218500E537601CBE
:0E2189008A047D007408C39CFCE49DFD8CF06C
:0521970005F0EB8002E1
:02219C00C3136B
:07219E00D5F0FB90E67CF098
:0E21A5008A037C0074032BFBE43CFCA2E713CE
:0C21B300CB13CBA2E713CB13CBFCEB2526
:0521BF0008F508EC35F5
:0521C40009F5097A0095
:0421C900E537606333
:0521CD00E50B450C4587
:0521D2000D450E600444
:0421D700E538605235
:0721DB000508E4B508020548
:0121E20009F3
:0821E300E509C313C50813C58B
:0421EB0008F509E505
:0321EF0038602431
:0821F20090E680E0FB30E706F7
:0621FA007B007C02800462
:042200007B407C00A3
:0C220400ECA2E713CB13CBFCEB2508F594
:0522100008EC3509F5A2
:0122150009BF
:0A22160090E698E509F00000009042
:09222000E699E508F000000075E4
:0422290038008003F6
:03222D0075380100
:0C22300090E6497482F0000000E50B45C8
:04223C000C450D45FB
:062240000E600302204BBA
:0622460075390102204B76
:0C224C00C0021209060012093ED002E593
:042258003A700122B5
:0A225C00E50B25E0FBE50C33FCE583
:0A2266000D33FDE50E33FEEB2BFBFC
:0C227000EC33FCED33FDEE33FE8B0B8CE9
:04227C000C8D0D8E2A
:042280000EEA603DC5
:04228400EA30E21D3D
:05228800AB0BAC0CAD36
:0A228D000DAE0E1BBBFF091CBCFFC9
:06229700051DBDFF011E44
:05229D008B0B8C0C8D81
:0322A2000D8E0E90
:0A22A500E4FBFCFDEA250BFAEB3523
:0822AF000CFBEC350DFCED35D4
:0522B7000EFD8A0B8BF7
:0422BC000C8C0D8DEC
:0122C0000E0F
:0722C100E50FC3950BFAE5E0
:0522C80010950CFBE580
:0522CD0011950DFCE578
:0522D20012950EFD8ACB
:0422D7000F8B108CCD
:0422DB00118D128AC5
:0422DF000B8B0C8CCD
:0422E3000D8D0EE56A
:0322E70037700845
:0522EA00F50FF510F5F1
:0322EF0011F512D4
:0C22F20078ACE644C0F6758208020813C0
:0122FE0022BD
:053C9B00010200000021
:053CA00001000000001E
:053CA500010000000019
:053CAA0001F70000001D
:0600E400754100754200A9
:0722FF0078AAB60202807705
:0723060078ABB60002801164
:0B230D0012080A78AC760C75820012F2
:062318000813758201228A
:05231E0078AAE670360C
:06232300789FE630E41192
:0B23290012080A78AC760375820012DF
:062334000813758201226E
:06233A00789FE630E0117F
:0B23400012080A78AC760375820012C8
:06234B0008137582012257
:08235100789FE64410F6802499
:0523590078AAB601089E
:08235E00789FE654EFF68017AA
:06236600789FE620E4115F
:0B236C0012080A78AC7604758200129B
:062377000813758201222B
:0A237D0078AAE624F7500302243585
:0A23870078AAE625E0269023917362
:072391000223AC0223C2028B
:0623980023D20223DF0244
:06239E0023E90223F30213
:0623A400240A02242102BC
:0223AA00242BE2
:0723AC0075410075420012AB
:0923B300243912080A7582001297
:0623BC00081375820122E6
:0A23C20012244B12080A7582001263
:0623CC00081375820122D6
:0D23D200903CBE75F0801208A275820122B9
:0A23DF0012246812252975820122DC
:0A23E90012080A122529758201224C
:0B23F30090E67BE0FAF58212257F12D5
:0C23FE00080A7582001208137582012283
:0B240A0090E67BE0FAF58212245D12E0
:0C241500080A758200120813758201226B
:0A24210075820112258F75820122D9
:0A242B0075820012258F75820122D0
:03243500758200AD
:012438002281
:0E243900C2B243B504D2B343B508C2B443B532
:0324470010D2B5FB
:01244A00226F
:0E244B00C2B5C2B253B5FBD2B353B5F7C2B49B
:0324590053B5EF89
:01245C00225D
:05245D00E582FA6003B6
:03246200D2B322D0
:02246500C2B300
:012467002252
:0A2468007582041207EC12080A85C1
:032472000B658572
:032475000C66856D
:032478000D678568
:0A247B000E68906BFF75F0DC740230
:0E248500123B19AA82AB83ACF0FD0ABA000923
:092493000BBB00050CBC00010D9F
:05249C008A0B8B0C8C83
:0A24A1000D8D0EC374249AE49BE431
:0524AB009CE49D4004CB
:0424B000754200224F
:0524B400AA0BAB0CAC0B
:0A24B9000DAD0EC374579AE49BE4C6
:0524C3009CE49D4004B3
:0424C8007542012236
:0E24CC00EA24C0FAEB34FFFBEC34FFFCED34E5
:0924DA00FFFD756518E4F566F5D7
:0A24E30067F5688A828B838CF0EDA8
:0E24ED00123B19AA82AB83ACF0FD0ABA0009BB
:0924FB000BBB00050CBC00010D37
:052504008A0B8B0C8C1A
:042509000D8D0E85A1
:03250D000B4685F5
:032510000C4785F0
:032513000D4885EB
:0A2516000E49EB7006EC7003ED6057
:0125200004B6
:042521007542FF22DE
:03252500854642A6
:012528002290
:04252900E542700D0A
:07252D00750B56750C587583
:062534000D14F50E803FBE
:0C253A00E54275F018A4243FFAE435F0E7
:09254600FB8A65F5663395E0F5AA
:0A254F0067F568906BFF75F0DC740F
:0E25590002123B19AA82AB83ACF0FD0ABA0055
:0A256700090BBB00050CBC00010DC0
:052571008A0B8B0C8CAD
:032576000D8D0EBA
:0625790075820402081344
:0A257F00AA8274075AF54130E10307
:03258900D2B422A7
:02258C00C2B4D7
:01258E00222A
:09258F00AA82754B00754C009006
:09259800E67BE0FB90E67BE0F538
:0425A1004AEA600B97
:0825A50075440190E67BE0F5AE
:0325AD0045800C5A
:0725B00090E67BE0F54375A6
:0525B700450175440020
:0E25BC00758204C0031207EC0012080A758233
:0925CA0000120813D003AA0BAFA4
:0425D3000CAE0DAD90
:0425D7000E8A0F8FCA
:0425DB00108E118DC0
:0425DF0012EB600497
:0425E300D2B38002ED
:0225E700C2B37D
:0725E900E542600302268DAC
:0425F000E544603727
:0425F400E545603326
:0525F800E54130E2178F
:0525FD00E54130E0099A
:04260200754D2C7571
:032606004E290258
:0226090026BAEF
:04260B00754D8A750A
:03260F004E29024F
:0226120026BAE6
:05261400E54130E00982
:04261900754D707516
:03261D004E280242
:0226200026BAD8
:04262200754DCE75AF
:032626004E280239
:0226290026BACF
:04262B00E544602FF3
:05262F00E54130E21559
:05263400E54130E00863
:04263900754D9C75CA
:04263D004E2A807928
:04264100754DF67568
:042645004E2A807128
:05264900E54130E0084E
:04264E00754DE87569
:042652004E29806429
:04265600754D427507
:04265A004E2A805C28
:05265E00E54130E2152A
:05266300E54130E00834
:04266800754D067531
:04266C004E2C804A26
:04267000754D6275CD
:042674004E2C804226
:05267800E54130E0081F
:04267D00754D5075D2
:042681004E2B803527
:04268500754DAA7570
:042689004E2B802D27
:05268D00E54130E215FB
:05269200E54130E00805
:04269700754DBE754A
:04269B004E2C801B26
:04269F00754D4475BC
:0426A3004E2D801325
:0526A700E54130E008F0
:0426AC00754D0175F2
:0426B0004E2D800625
:0426B400754D877564
:0226B8004E2DA5
:0426BA00E54B600785
:0726BE00E54C600302280156
:0726C50012077EE50A602CFC
:0526CC007401B50A0CC9
:0426D100E54C70085C
:0826D500754C0112080A801B7C
:0526DD007402B50A10B3
:0726E20012080AE54B700F1E
:0926E90078AC7602754B01800605
:0626F200754C00022801F6
:0426F800E544600550
:0526FC00E5AA20E0B991
:04270100E545600545
:05270500E5AA20E5B08B
:04270A00E54B70AC7F
:04270E00E544600E30
:072712007E007FF08F9A7E2C
:07271900007FF07F008E9BA2
:04272000E545600E1D
:072724007E007FF88F9D7E0F
:07272B00007FF87F008E9E85
:04273200E544601901
:0E27360090E690E0FE8E077E0090E691E0FABD
:0A2744007D004EF508ED4FF5098009
:01274E005337
:04274F00850F4F851E
:032753001050859E
:0327560011518599
:0327590012529089
:07275C00E680E0FC30E70617
:062763007A007B028004F5
:042769007A407B0037
:0C276D008A04EB3395E0FAFDC3EC954FB5
:08277900EB9550EA9551ED9536
:032781005250189B
:0827840090E680E0FA30E70660
:06278C007A007B028004CC
:042792007A407B000E
:062796008A088B09800691
:04279C00854F0885D8
:0227A0005009DE
:0827A200AA08AB09E4FCFDE507
:0927AA000FC39AFAE5109BFBE550
:0827B300119CFCE5129DFD8A5A
:0427BB000F8B108CE4
:0427BF00118D1285E1
:0627C3004D82854E8312D9
:0627C900006BE54460090D
:0927CF0090E6497482F00000005C
:0427D800E545601261
:0A27DC0090E698E509F00000009077
:0827E600E699E508F00000008F
:0527EE00E50F45104558
:0627F30011451260030213
:0227F90026BAFE
:0627FB00754B010226BA35
:04280100E54A600440
:04280500D2B38002C8
:02280900C2B358
:07280B0012090612093EE567
:032812004C605ABD
:07281500E50BC3950FFAE586
:05281C000C9510FBE526
:052821000D9511FCE51E
:052826000E9512FD8A71
:04282B000B8B0C8C7B
:04282F000D8D0E8A73
:042833000F8B108C6B
:04283700118D12E508
:03283B00446004F2
:04283E007A8080021A
:022842007A001A
:04284400E545600402
:042848007B4080024F
:02284C007B000F
:0A284E00EB4A78AC46F6E54460045E
:042858007A0480027C
:02285C007A0000
:04285E00E5456004E8
:042862007B04800271
:022866007B00F5
:07286800EB2AF582020813C0
:01286F002246
:08287000A908AA09E960010AA8
:0E28780090E67BE03392B2B2B4B2B4A2B033B9
:0E28860092B2B2B4B2B4A2B03392B2B2B4B253
:0E289400B4A2B03392B2B2B4B2B4A2B03392D6
:0E28A200B2B2B4B2B4A2B03392B2B2B4B2B415
:0E28B000A2B03392B2B2B4B2B4A2B03392B2BC
:0E28BE00B2B4B2B4A2B03390E67CF0D9ADDA79
:0128CC00AB60
:0128CD0022E8
:0828CE00A908AA09E960010A4A
:0E28D60090E67BE03392B2B2B4A2B033B2B45B
:0E28E40092B2B2B4A2B033B2B492B2B2B4A205
:0E28F200B033B2B492B2B2B4A2B033B2B49268
:0E290000B2B2B4A2B033B2B492B2B2B4A2B0CA
:0E290E0033B2B492B2B2B4A2B033B2B492B249
:0E291C00B2B4A2B033B2B490E67CF0D9ADDA1A
:01292A00AB01
:01292B002289
:08292C00A908AA09E960010AEB
:0E29340090E67BE01392B2B2B4B2B4A2B0133C
:0E29420092B2B2B4B2B4A2B01392B2B2B4B2B6
:0E295000B4A2B01392B2B2B4B2B4A2B0139259
:0E295E00B2B2B4B2B4A2B01392B2B2B4B2B478
:0E296C00A2B01392B2B2B4B2B4A2B01392B23F
:0E297A00B2B4B2B4A2B01390E67CF0D9ADDADC
:01298800ABA3
:01298900222B
:08298A00A908AA09E960010A8D
:0E29920090E67BE01392B2B2B4A2B013B2B4DE
:0E29A00092B2B2B4A2B013B2B492B2B2B4A268
:0E29AE00B013B2B492B2B2B4A2B013B2B492EB
:0E29BC00B2B2B4A2B013B2B492B2B2B4A2B02E
:0E29CA0013B2B492B2B2B4A2B013B2B492B2CD
:0E29D800B2B4A2B013B2B490E67CF0D9ADDA7E
:0129E600AB45
:0129E70022CD
:0829E800A908AA09E960010A2F
:0329F00090E67BF3
:0E29F300E03392B2B2B4B2B4A2B03392B2B238
:0E2A0100B4B2B4A2B03392B2B2B4B2B4A2B0C6
:0E2A0F003392B2B2B4B2B4A2B03392B2B2B447
:0E2A1D00B2B4A2B03392B2B2B4B2B4A2B0332B
:0E2A2B0092B2B2B4B2B4A2B03392B2B2B4B2AC
:082A3900B4A2B033D9B4DAB243
:012A41002272
:082A4200A908AA09E960010AD4
:032A4A0090E67B98
:0E2A4D00E03392B2B2B4A2B033B2B492B2B2DD
:0E2A5B00B4A2B033B2B492B2B2B4A2B033B2ED
:0E2A6900B492B2B2B4A2B033B2B492B2B2B46C
:0E2A7700A2B033B2B492B2B2B4A2B033B2B4D1
:0E2A850092B2B2B4A2B033B2B492B2B2B4A262
:082A9300B033B2B4D9B4DAB2D9
:012A9B002218
:082A9C00A908AA09E960010A7A
:032AA40090E67B3E
:0E2AA700E01392B2B2B4B2B4A2B01392B2B2C3
:0E2AB500B4B2B4A2B01392B2B2B4B2B4A2B032
:0E2AC3001392B2B2B4B2B4A2B01392B2B2B4D3
:0E2AD100B2B4A2B01392B2B2B4B2B4A2B013B7
:0E2ADF0092B2B2B4B2B4A2B01392B2B2B4B218
:082AED00B4A2B013D9B4DAB2AF
:012AF50022BE
:082AF600A908AA09E960010A20
:032AFE0090E67BE4
:0E2B0100E01392B2B2B4A2B013B2B492B2B268
:0E2B0F00B4A2B013B2B492B2B2B4A2B013B278
:0E2B1D00B492B2B2B4A2B013B2B492B2B2B4D7
:0E2B2B00A2B013B2B492B2B2B4A2B013B2B45C
:0E2B390092B2B2B4A2B013B2B492B2B2B4A2CD
:082B4700B013B2B4D9B4DAB244
:012B4F002263
:082B5000A908AA09E960010AC5
:032B580090E67C88
:0E2B5B003392B2B2B4B2B4A2B03392B2B2B4FA
:0E2B6900B2B4A2B03392B2B2B4B2B4A2B033DE
:0E2B770092B2B2B4B2B4A2B03392B2B2B4B25F
:0E2B8500B4A2B03392B2B2B4B2B4A2B03392E2
:0E2B9300B2B2B4B2B4A2B03392B2B2B4B2B421
:082BA100A2B033F0D9B4DAB29E
:012BA9002209
:082BAA00A908AA09E960010A6B
:032BB20090E67C2E
:0C2BB500E5433392B2B2B4A2B033B2B424
:0E2BC10092B2B2B4A2B033B2B492B2B2B4A225
:0E2BCF00B033B2B492B2B2B4A2B033B2B49288
:0E2BDD00B2B2B4A2B033B2B492B2B2B4A2B0EB
:0E2BEB0033B2B492B2B2B4A2B033B2B492B26A
:0C2BF900B2B4A2B033B2B4F0D9B2DAB07A
:012C050022AC
:082C0600A908AA09E960010A0E
:032C0E0090E67CD1
:0C2C1100E5431392B2B2B4B2B4A2B01307
:0E2C1D0092B2B2B4B2B4A2B01392B2B2B4B2D8
:0E2C2B00B4A2B01392B2B2B4B2B4A2B013927B
:0E2C3900B2B2B4B2B4A2B01392B2B2B4B2B49A
:0E2C4700A2B01392B2B2B4B2B4A2B01392B261
:0C2C5500B2B4B2B4A2B013F0D9B2DAB03D
:012C61002250
:082C6200A908AA09E960010AB2
:032C6A0090E67C75
:0C2C6D00E5431392B2B2B4A2B013B2B4AB
:0E2C790092B2B2B4A2B013B2B492B2B2B4A28C
:0E2C8700B013B2B492B2B2B4A2B013B2B4920F
:0E2C9500B2B2B4A2B013B2B492B2B2B4A2B052
:0E2CA30013B2B492B2B2B4A2B013B2B492B2F1
:0C2CB100B2B4A2B013B2B4F0D9B2DAB0E1
:012CBD0022F4
:082CBE00A908AA09E960010A56
:062CC600E544600274FF0A
:082CCC0004FBE545600274FF02
:022CD40004FCFE
:092CD600E543BB000490E67BE03D
:022CDF007D086E
:072CE10013B2B492B2A84245
:082CE800D8FEB2B4A2B0A8426C
:0C2CF000D8FEDDED13BC000490E67CF083
:042CFC00D9D8DAD673
:012D000022B0
:082D0100A908AA09E960010A12
:062D0900E544600274FFC6
:082D0F0004FBE545600274FFBE
:022D170004FCBA
:092D1900E543BB000490E67BE0F9
:022D22007D082A
:072D240033B2B492B2A842E1
:082D2B00D8FEB2B4A2B0A84228
:0C2D3300D8FEDDED33BC000490E67CF01F
:042D3F00D9D8DAD62F
:012D4300226D
:082D4400A908AA09E960010ACF
:062D4C00E544600274FF83
:082D520004FBE545600274FF7B
:022D5A0004FC77
:092D5C00E543BB000490E67BE0B6
:022D65007D08E7
:052D67001392B2A84226
:082D6C00D8FEB2B4A2B0A842E7
:0E2D7400D8FEB2B4DDED13BC000490E67CF096
:042D8200D9D8DAD6EC
:012D8600222A
:082D8700A908AA09E960010A8C
:062D8F00E544600274FF40
:082D950004FBE545600274FF38
:022D9D0004FC34
:092D9F00E543BB000490E67BE073
:022DA8007D08A4
:052DAA003392B2A842C3
:082DAF00D8FEB2B4A2B0A842A4
:0E2DB700D8FEB2B4DDED33BC000490E67CF033
:042DC500D9D8DAD6A9
:012DC90022E7
:053CAF0001020000000D
:053CB40001000000000A
:053CB900010000000005
:053CBE0001F700000009
:0A2DCA00C28CC28D78AD868A78AD08
:032DD40008868CE2
:012DD70022D9
:072DD80078AAB60202806038
:072DDF0078ABB60002801181
:0B2DE60012080A78AC760C758200120F
:062DF100081375820122A7
:052DF70078AAE6701F40
:062DFC00789FE630E211B1
:0B2E020012080A78AC760375820012FB
:062E0D000813758201228A
:082E1300789FE64404F68024D8
:052E1B0078AAB60108D1
:082E2000789FE654FBF68017D1
:062E2800789FE620E21194
:0B2E2E0012080A78AC760475820012CE
:062E39000813758201225E
:0A2E3F0078AAE624F85003022F29B8
:0A2E490078AAE625E026902E5373C8
:072E5300022E6B022E6B0240
:062E5A002E7D022E8A020B
:062E60002F0F022F1702E4
:052E66002F1F022F24C4
:0C2E6B0012080A78ADE4F608F675820043
:062E7700120813022F2DCA
:0D2E7D00903CC875F0801208A275820122F9
:0A2E8A007582041207EC12080A75A5
:062E940065FAE4F566F5A5
:042E9A0067F56885EB
:062E9E000B82850C838508
:052EA4000DF0E50E1227
:0C2EA9003B19AA82AB83ACF0FD8A0B8BB6
:042EB5000C8C0D8DE7
:072EB9000EEC7003ED600C4C
:072EC000750BFF750CFF7597
:052EC7000D00750E0076
:092ECC00E50BF4FAE50CF4FBE55A
:082ED5000DF4FCE50EF4FD789C
:082EDD00ADA60208A603850B57
:032EE50065850CF4
:032EE80066850DEF
:032EEB0067850EEA
:0C2EEE00689000FAE4F5F0123B97AA820D
:0A2EFA00AB83ACF0FD8A0B8B0C8C4F
:072F04000D8D0E7582041211
:042F0B000813801E09
:082F0F007582011232E5801603
:082F17007582001232E5800E04
:052F1F00122FA1800942
:052F24001231208004C1
:042F2900758200228B
:032F2D00758201A9
:012F3000227E
:0E2F310090E6F3E0FA4480F000000090E67BAA
:0C2F3F00E0FA90E6F1F0000000022F81A3
:0E2F4B0090E6F3E0FA547FF000000090E67B81
:0C2F5900E0FA90E6F1F0000000022F8189
:0B2F650090E6F1E0122F81E582600D84
:0D2F700090E6F2E0FA90E67CF07582012216
:032F7D007582005A
:012F8000222E
:052F8100122DCAD28CE4
:052F8600E5BB20E7039C
:032F8B00308DF88E
:052F8E00E5BB30E70483
:042F93007582012220
:092F970090E6F574FFF07582006C
:012FA000220E
:0A2FA100E4FAFBF508F50975820457
:0D2FAB00C002C0031207ECD00300C00312E7
:0D2FB800080A758200120813D003D002AC85
:042FC5000BAD0CAE96
:042FC9000DAF0E8CAE
:042FCD000F8D108EC6
:092FD100118F12EC4D4E4F7002FD
:022FDA007B0179
:032FDC00EB6006A1
:062FDF00EA60030230EC81
:0D2FE500C002C00312077ED003D002E4B585
:042FF2000A0280400F
:052FF6007401B50A1290
:032FFB00EA700F6A
:0E2FFE007A01C002C00312080AD003D002807C
:01300C00299A
:05300D007402B50A1F6A
:0E301200C002C00312080AD003D002EB7016F1
:0C30200090E6A37401F00000007B017832
:05302C00AC76028005F6
:053031007A000230EC02
:03303600EB70A399
:06303900E5084509702ABC
:05303F00E5AA20E025D8
:073044007C007DF08D9A7CF9
:08304B00007DF07D008C9B90DC
:0E305300E690E0FC8C057C0090E691E0FE7FAC
:08306100002CF508EF3DF50914
:07306900E5084509700302B0
:023070002FDC53
:0E307200C002C003122F31E582D003D00270DD
:013080000649
:0630810078AC76058052D8
:0E308700C002C003122F4BE582D003D00270AE
:013095000634
:0630960078AC7606803DD7
:07309C00E50824FEF508E53C
:0630A3000934FFF509AC41
:0430A9000BAD0CAEB1
:0A30AD000DAF0E1CBCFF091DBDFF96
:0630B700051EBEFF011F13
:0530BD008C0B8D0C8E50
:0930C2000D8F0EEC4D4E4F700213
:0230CB007B0187
:0630CD00E508450970064C
:0630D30090E6497482F052
:0830D90078ACB60003022FDC05
:0B30E1007B0190E6A37401F0022FDCDD
:0A30EC00C002120906D002EA6029B2
:0730F600E50FC3950BFAE59D
:0530FD0010950CFBE53D
:0531020011950DFCE534
:0531070012950EFD8A87
:04310C000B8B0C8C91
:043110000D8D0E789B
:0B311400ACE64480F67582040208134C
:01311F00228D
:0A312000E4FAFBF508F509758204D6
:0D312A00C002C0031207ECD00300C0031266
:0D313700080A758200120813D003D002AC04
:043144000BAD0CAE15
:043148000DAF0E8C2D
:04314C000F8D108E45
:09315000118F12EC4D4E4F70027C
:023159007B01F8
:03315B00EB600620
:06315E00EA60030232A545
:0D316400C002C00312077ED003D002E4B504
:043171000A02804688
:053175007401B50A120F
:03317A00EA700FE9
:0E317D007A01C002C00312080AD003D00280FB
:01318B002F14
:05318C007402B50A25E4
:0E319100C002C00312080AD003D002EB701C6B
:0E319F0090E6A37401F000000090E6A5740114
:0931AD00F07B0178AC760280058C
:0531B6007A000232A5C1
:0331BB00EB709D19
:0631BE00E5084509703D23
:0531C400E5AA20E0383F
:0531C900E5AA20E5333A
:0731CE007C007DF08D9A7C6E
:0831D500007DF07D008C9B7C65
:0631DD00007DF88D9D7CD1
:0831E300007DF87D008C9E9038
:0E31EB00E690E0FC8C057C0090E691E0FE7F13
:0831F900002CF508EF3DF5097B
:07320100E508450970030216
:02320800315B38
:0E320A00C002C003122F31E582D003D0027043
:0132180006AF
:0632190078AC7605806A26
:0E321F00C002C003122F65E582D003D00270FA
:01322D00069A
:06322E0078AC7606805525
:08323400150874FFB50802152E
:01323C000988
:05323D00AC0BAD0CAE6E
:0A3242000DAF0E1CBCFF091DBDFFFF
:06324C00051EBEFF011F7C
:053252008C0B8D0C8EB9
:093257000D8F0EEC4D4E4F70027C
:023260007B01F0
:06326200E508450970219A
:0D32680090E690E0FC90E698F000000090E9
:0C327500E691E0FC90E699F0000000906B
:08328100E6497482F000000030
:0832890078ACB6000302315BD2
:0E32910090E6A37401F000000090E6A5740121
:06329F00F07B0102315B2F
:0E32A500C0021209060012093ED002EA603192
:0732B300E50FC3950BFAE5DE
:0532BA0010950CFBE57E
:0532BF0011950DFCE576
:0532C40012950EFD8AC9
:0432C9000F8B108CCB
:0432CD00118D128AC3
:0432D1000B8B0C8CCB
:0432D5000D8D0E78D5
:0B32D900ACE644C0F675820802081342
:0132E40022C7
:0C32E5008582537B007C00C003C00412F3
:0A32F1002F31E582D004D003700DE8
:0B32FB0012080A78AC7605758200020C
:023306000813AA
:0E330800758204C003C0041207ECD00400C09C
:0B3316000412080AD004D003E50B45A8
:043321000C450D4505
:033325000E700225
:023328007C0126
:0A332A0090E6F574FFF090E6CEE5A2
:093334000EF000000090E6CFE568
:09333D000DF000000090E6D0E55F
:093346000CF000000090E6D1E556
:0C334F000BF0C003C004122DCAD004D043
:0A335B000390E6D1E0FDE553601C8D
:0E33650090E6187410F000000090E6D274019B
:07337300F0000000EC7031D6
:07337A00F5BB000000802AF2
:0E338100C003C004C005120969D005D004D0F5
:0E338F000390E61A7408F000000090E6E27465
:08339D0002F0000000EC7006D4
:0633A50075BB06000000EC
:0E33AB00758200C003C004C005120813D005CF
:0433B900D004D00369
:0333BD00EC6006BB
:0633C000EB60030234BBC8
:0E33C600C003C004C00512077ED005D004D09D
:0733D40003E4B50A02806664
:0533DB007401B50A16A3
:0333E000EB70137C
:0E33E3007B01C003C004C00512080AD005D04B
:0533F10004D003804B35
:0533F6007402B50A425B
:0E33FB00C003C004C00512080AD005D004D0DB
:0434090003EC70342C
:05340D0078ACE670043C
:0434120078AC76021A
:04341600E553600812
:08341A0090E6A37401F08006A6
:0634220090E6A57401F024
:08342800000000E5BB20E709EC
:0934300000000090E6F574FFF0C5
:043439007C0180048E
:04343D007B00807A16
:05344100E5BB20E75D82
:0A34460090E6D1E0FEB50502801209
:0E345000C003C004122DCAD004D00390E6D1F0
:04345E00E0FD8024E9
:03346200308D2189
:0834650078AC7606E55360081F
:08346D0090E6A37401F0800653
:0634750090E6A57401F0D1
:0B347B007C0100000090E6F574FFF0FB
:04348600E5536005A5
:05348A00E5AA30E00F8F
:07348F00E55360030233BDA9
:08349600E5AA30E5030233BD95
:05349E00D28C0233BDD9
:0634A300EC60030233BDE2
:0434A900E55370096E
:0934AD0090E6487406F0000000EE
:0534B6007C010233BDA2
:0E34BB00C0031209060012093ED003EB700197
:0134C90022E0
:0C34CA0090E6CEE0FB7C007D007E008BD5
:0534D60057755400755C
:0634DB005500755600903B
:0E34E100E6CFE0FF7A007B008A048F03E4FA56
:0834EF00FF4254EA4255EB4292
:0534F70056EC42579065
:0E34FC00E6D0E0FD7E007A008A038E028D0687
:09350A00E4FD4254EE4255EA4290
:0535130056EB42579049
:0C351800E6D1E0FCE4FFFAFBE5544204BD
:09352400E5554207E5564202E5B7
:09352D00574203E50BC39CFCE5C9
:083536000C9FFFE50D9AFAE578
:06353E000E9BFB8C0B8FBD
:043544000C8A0D8B55
:053548000EE5536004D4
:04354D007A808002FE
:023551007A40BE
:0B35530078ACEA46F67582040208130B
:01355E00224A
:053CC3000102000000F9
:053CC8000100000000F6
:053CCD000100000000F1
:053CD20001F7000000F5
:0D355F0090E60174FAF090E6F574FFF0902C
:0A356C003D7BE493FA90E6F3F09043
:0A3576003D7CE493FA90E6C3F09068
:0A3580003D7DE493FA90E6C1F0905F
:0A358A003D7EE493FA90E6C2F09053
:0A3594003D80E493FA90E6C0F09049
:0D359E003D81E493FA90E6F4F075AF077AF2
:0635AB00D77B3C8B9A7AED
:0A35B100D77B3C7B008A9B759DE4EC
:0535BB00759E007A007E
:0335C000BA8000CE
:0235C300500CAA
:0C35C50090E67BE0FB90E67CF00A80EFD3
:0E35D10090E67174FFF075B4FF90E672E0FAB8
:0E35DF004480F043B68000000090E6C4E4F0A3
:0E35ED0000000090E6C5E4F0903D57E493FA2C
:0B35FB0090E6C6F0903D58E493FA9073
:0A360600E6C7F0903D59E493FA90F6
:0A361000E6C8F0903D5AE493FA90EA
:0A361A00E6C9F0903D5BE493FA90DE
:0A362400E6CAF0903D5CE493FA90D2
:0A362E00E6CBF0903D5DE493FA90C6
:0A363800E6CCF0903D5EE493FA90BA
:03364200E6CDF0E2
:013645002262
:0E3CD70081B90101010101072303020202026B
:0E3CE5000200F7F5F5F5F5F5F5F70000000023
:0E3CF3000000003F0C8A9A3FA5B53F07210351
:0E3D0100030103030500F3F3F2F3F3F1F3F70C
:0E3D0F003F0000000000003F819138010101DB
:0E3D1D0001070101070202020200F7F5F7F7A5
:0E3D2B00F7F7F7F7000075000000003F8191E8
:0E3D390038010101010703030500000000002E
:0E3D4700F3F1F3F3F3F3F3F700006E00000066
:023D5500003F2D
:0E3D570000000000000000000000000000005E
:0E3D6500000000000000000000000000000050
:083D7300000000000000000048
:073D7B00E08000F7FA4E00A2
:0736460078AAB602028060C1
:07364D0078ABB6000280110A
:0B36540012080A78AC760C7582001298
:06365F0008137582012230
:0536650078AAE6701FC9
:06366A00789FE630E31139
:0B36700012080A78AC76037582001285
:06367B0008137582012214
:08368100789FE64408F680245E
:0536890078AAB601085B
:08368E00789FE654F7F680175F
:06369600789FE620E3111D
:0B369C0012080A78AC76047582001258
:0636A700081375820122E8
:0736AD0078AAE624FB403B74
:0A36B40078AAE625E0269036BE73E2
:0736BE000236CD0236CD02F9
:0636C50036D80236E502D2
:0236CB0036EADD
:0B36CD0012080A758200120813801B0F
:0D36D800903D8C75F0801208A275820122D1
:0536E5001236F7800918
:0536EA00123A108004FB
:0436EF0075820022BE
:0336F300758201DC
:0136F60022B1
:0736F70075580075590075BC
:0936FE005A007582081207EC1253
:0B370700080A758200120813C28090AF
:0E371200E618E4F000000090E61AE4F0000073
:0E3720000090E6027468F000000090E630E4CD
:0E372E00F000000090E631E4F090E680E0FD4F
:03373C0030E7066D
:06373F007D007E02800403
:043745007D407E0045
:053749008D5B8E5CAFFA
:04374E000FAB10AA03
:0437520011AC12851F
:033756005B5D8533
:033759005C5E753E
:08375C005F00756000C3EF95EA
:063764005DEB955EEA95A5
:06376A005FEC9560502C9D
:053770008F5B8B5CADD6
:0C3775005C90E63474C04DF00000009041
:07378100E635E55BF0E4F51D
:0437880008F50975C2
:06378C005901750F0075E4
:0637920010007511007526
:043798001200807229
:08379C0090E680E0FD30E71328
:0E37A40090E63474C8F000000090E635E4F0C2
:0537B200000000801280
:0E37B70090E63474C0F000000090E6357440D7
:0437C500F000000010
:0A37C900EFC3955DFFEB955EFBEA90
:0837D300955FFAEC9560FC8F94
:0437DB000F8B108AB6
:0437DF00118C1285B2
:0337E3000F6185EE
:0337E600106285E9
:0337E900116385E4
:0537EC001264C3EF951B
:0637F1005DEB955EEA9518
:0637F7005FEC9560500B31
:0437FD008561088555
:03380100620975E4
:0438040059018006E0
:04380800855B08854F
:02380C005C0955
:0A380E0090E601E0FA4403F0D287CF
:04381800E55A600706
:07381C00E558600302398E3C
:0738230012077EE50A602E8A
:05382A007401B50A0C59
:04382F00E5587008E0
:0838330012080A755801801DFE
:05383B007402B50A1241
:0738400012080AE55A70119D
:0A384700C28778AC7602755A018042
:013851000670
:0638520075580002398EDA
:04385800E55A70BC01
:05385C00E5AA20E05880
:0E38610090E690E0FA8A037A00EB3395E0FCE3
:08386F00FDE50BC39AF561E5CC
:053877000C9BF562E569
:05387C000D9CF563E561
:053881000E9DF56485B9
:03388600610B854E
:03388900620C8549
:03388C00630D8544
:03388F00640E9034
:0C389200E691E0FEE4FFFAFBE561C39E56
:0A389E00FEE5629FFFE5639AFAE57C
:0638A800649BFB8E0B8FF8
:0438AE000C8A0D8BE8
:0738B2000E90E6497402F0DC
:0B38B90090E6A9E0FA20E20302396566
:0E38C40090E6A5E0FA530270BA3003023965AF
:0438D200E55960153F
:0C38D600AA0990E63474C04AF00000001B
:0938E20090E635E508F000000055
:0A38EB0090E698E55CF00000009004
:0938F500E699E55BF00000008596
:0338FE00085B85DF
:03390100095CE579
:05390400084509605CAC
:08390900AA08AB09E4FCFDE58E
:093911000FC39AFAE5109BFBE5D7
:08391A00119CFCE5129DFD8AE1
:043922000F8B108C6B
:04392600118D128568
:03392A000F6185A5
:03392D00106285A0
:033930001163859B
:033933001264908B
:07393600E680E0FE30E70629
:06393D007E007F02800401
:043943007E407F0043
:0B394700EF3395E0FAFBC3E5619EE55D
:06395200629FE5639AE5A7
:04395800649B500913
:04395C00850F088546
:03396000100975D6
:02396300590108
:07396500E55B455C60030215
:02396C00381809
:0B396E0090E6A7E0FA20E20302381800
:05397900E50B450C45C3
:06397E000D450E6003027E
:023984003818F1
:08398600755A01C287023818CE
:0E398E00C28790E601E054FEF0E0FA4402F039
:07399C0012090612093EE5C5
:0339A30058606702
:0539A60078ACE6705C46
:0739AB0090E6ACE0FA701198
:0739B20090E6ABE0FA700A99
:0539B900E50B450C4583
:0539BE000D450E60261E
:0639C300E55B455C6006B7
:0639C90078AC760A80389C
:0739CF0090E6B0E0FA70077A
:0739D60090E6AFE0FA600685
:0639DD0078AC760B80249B
:0639E30078AC7607801E9F
:0639E900E55B455C600691
:0639EF0078AC760880129E
:0739F50090E6AFE0FA700755
:0739FC0090E6B0E0FA600460
:043A030078AC76091C
:063A070075820012081395
:023A0D00D28065
:013A0F002294
:0D3A10007A007B007C00C002C003C00412DD
:0E3A1D00080A758200120813D004D003D002EC
:0E3A2B00C28090E6187410F000000090E61AB9
:0D3A39007408F0000000C002C003C00412B9
:0E3A46000969D004D003D00290E60274E8F0C3
:0E3A540000000090E601E0FD4403F0D28790F0
:0C3A6200E630E4F000000090E631E4F0F3
:033A6E00EA600308
:033A7100EB706394
:0E3A7400C002C003C00412077ED004D003D0ED
:053A820002E50A603CB2
:053A87007401B50A16F0
:033A8C00EA7013CA
:0E3A8F007A01C002C003C00412080AD004D09D
:053A9D0003D0028021AE
:053AA2007402B50A18D2
:0E3AA700C002C003C00412080AD004D003D02D
:043AB50002EB700AA6
:063AB9007C017B0180048A
:043ABF007A008014F5
:033AC300EB70A8FD
:033AC600EA60A50E
:083AC90090E6A7E0FD30E29D4C
:063AD1007B01C287809713
:0E3AD700C28790E601E054FEF0E0FB4402F0EE
:0D3AE500C002C004120906D00400C0041283
:093AF200093ED004D002EA601B79
:033AFB00EC70125A
:073AFE0090E6ABE0FA70074F
:073B050090E6ACE0FA600459
:043B0C0078AC760714
:063B10007582001208138B
:023B1600D2805B
:013B1800228A
:053D8200010200000039
:053D8700010000000036
:053D8C00010000000031
:053D910001F700000035
:0EE1000012010002000000404314070000005E
:04E10E000102000109
:0AE112000A060002000000400100B0
:0EE11C0009022E0001010080FA09040000042F
:0EE12A00FF000000070501024000000705810C
:0EE138000240000007050202000200070586F3
:04E1460002000200D1
:0EE14A0009022E0001010080FA090400000401
:0EE15800FF00000007050102400000070581DE
:0EE16600024000000705020240000007058687
:04E174000240000065
:02E178000000A5
:093F00000205AE000205E2000218
:083F090005CC0002064600028F
:083F110005F80002066400023D
:083F190006BE000206BE000214
:083F210006BE000206BE00020C
:083F290006BE000206BE000204
:083F310006BE000206BE0002FC
:083F390006BE000206BE0002F4
:083F410006BE000206BE0002EC
:083F490006BE000206BE0002E4
:083F510006BE000206BE0002DC
:083F590006BE000206BE0002D4
:083F610006BE000206BE0002CC
:083F690006BE000206BE0002C4
:083F710006BE000206BE0002BC
:083F790006BE000206BE0002B4
:083F810006BE000206BE0002AC
:083F890006BE000206BE0002A4
:083F910006BE000206BE00029C
:083F990006BE000206BE000294
:083FA10006BE000206BE00028C
:083FA90006BE000206BE000284
:073FB10006BE000206BE007F
:083B1900FB7A20E4FCFDFEFF35
:0E3B2100E5822582F582E58333F583E5F033F6
:0B3B2F00F5F0EB33FB4017DAE98042B1
:0E3B3A00E5822582F582E58333F583E5F033DD
:053B4800F5F0EB33FB7A
:0E3B4D00EC33FCED33FDEE33FEEF33FFEC9571
:063B5B0065ED9566EE9594
:083B610067EF95684013EC9535
:083B690065FCED9566FDEE958B
:093B710067FEEF9568FF43820135
:023B7A00DABEB1
:023B7C00EB223A
:06009C00E478FFF6D8FD38
:08007A007900E94400601B7AE3
:0500820000903D96789E
:030087000075A061
:0A008A00E0E493F2A308B8000205B9
:08009400A0D9F4DAF275A0FF17
:0E3B7E0020F71030F6118883A88220F507F694
:053B8C00A88375830011
:013B91002211
:033B9200F280F7C7
:023B9500F0221C
:0C3B9700AAF0FBE5828565F0A4FCADF00F
:0C3BA300E5838565F0A42DFDE435F0FEFF
:0C3BAF00E5828566F0A42DFDE5F03EFEE9
:0C3BBB00E433FFEA8565F0A42EFEE5F07F
:0C3BC7003FFFE5838566F0A42EFEE5F0CC
:0C3BD3003FFFE5828567F0A42EFEE5F0C0
:0B3BDF003FFFEB8565F0A42FFFEA8597
:0A3BEA0066F0A42FFFE5838567F065
:0C3BF400A42FFFE5828568F0A42F8EF05E
:053C00008D838C82227F
:0400A20075A00078CD
:0700A60000E8440060077947
:0600AD0000E4F309D8FC99
:0800B3007800E84400600C79BC
:0B00BB000090E000E4F0A3D8FCD9FAAC
:02006B00E4733C
:03006D0075816832
:0A007000123C21E5826003020066E5
:0E3C050020F71430F6148883A88220F507E615
:063C1300A8837583002266
:033C1900E280F74F
:033C1C00E493220C
:023C1F00E022A1
:043C21007582002286
:00000001FF
