:0400000002006D325B
:01000B0032C2
:0100130032BA
:01001B0032B2
:0100230032AA
:01002B0032A2
:030033000206B40E
:01003B003292
:03004300023F0079
:01004B003282
:03005300023F0069
:01005B003272
:030063000206B8DA
:0300E400020066B1
:050066001200E780FE1E
:0900E700788176007880760090A3
:0E00F000E60B7403F000000000000090E60034
:0E00FE007410F075800175B28175900075B3B5
:0E010C00FF75B00075B50090E67AE0FA440188
:0B011A00F0122A8890E60174E2F01257
:0E012500027290E6097403F000000075890173
:09013300000000788276000876D5
:04013C00E17884766C
:05014000120876E178D1
:0501450086761C08761F
:04014A00E17888765A
:0A014E004A0876E1D2E843D8209079
:0E015800E668E0FA4409F090E65CE0FA443D07
:0E016600F090E682E4F0D2AF90E680E0FA542A
:05017400F7F0538EF8C6
:080179001201BB789EE660074D
:07018100120197789E760041
:050188007881E660042F
:04018D0078817600FF
:050191001206B880E336
:010196002246
:0A01970090E680E0FA440AF07A00D6
:0201A100DAFE84
:0E01A30090E65D74FFF090E65F74FFF05391FC
:0901B100EF90E680E0FA54F7F04B
:0101BA002222
:0601BB007880E6700122CD
:0501C100AA08AB09785B
:0901C60096A60208A603788EA695
:0601CF000B08A60C08A6B7
:0501D5000D08A60E78E4
:0501DA0092A60F08A62B
:0601DF001008A61108A69D
:0601E500127898A69B7839
:0801EB0099A69A789AA69E7865
:0A01F3009BA69D1202F4E58270083D
:0801FD0090E6A0E0FA4401F0D5
:0C02050090E6A0E0FA4480F078807600DB
:06021100789686080886BD
:0A02170009788E8602088603088627
:09022100040886058A0B8B0C8C85
:04022A000D8D0E78B0
:0C022E00928602088603088604088605F4
:05023A008A0F8B108CFF
:04023F00118D127893
:0802430098869B7899869A7851
:07024B009A869E789B869DB8
:010252002289
:0E02530090E6837401F07421F07411F07431A0
:0E026100F090E6837402F07422F07416F074CC
:02026F0036F067
:01027100226A
:0E02720090E610E4F000000090E611E4F000C9
:0E028000000090E612E4F000000090E613E4A7
:0D028E00F000000090E614E4F00000009085
:0E029B00E615E4F000000090E618E4F0000024
:0E02A9000090E619E4F000000090E61AE4F080
:0E02B70000000090E61BE4F000000090E6104E
:0E02C50074A0F000000090E61174A0F000009C
:0E02D3000090E61274A0F000000090E6147493
:0E02E100E0F000000090E68DE4F00000001256
:0502EF0009320208FACB
:0C02F40090E6B9E0FA24F450030205A1E2
:07030000EA2A2A90030773AB
:070307000203EE020478027C
:06030E0005A10205260214
:0603140005A10205A10293
:06031A00032B0205A10205
:0603200003D90203C7022D
:0503260003A00203B575
:0A032B0090E6BBE0FABA0102800F71
:05033500BA0202802065
:05033A00BA060280314B
:05033F00BA075A8042DC
:09034400788290E6B308E6F07837
:0B034D008286027B0090E6B4EAF0021A
:0203580005A4FA
:09035A00788A90E6B308E6F07819
:0B0363008A86027B0090E6B4EAF002FC
:02036E0005A4E4
:09037000788490E6B308E6F07809
:0B0379008486027B0090E6B4EAF002EC
:0203840005A4CE
:09038600788C90E6B308E6F078EB
:0B038F008C86027B0090E6B4EAF002CE
:02039A0005A4B8
:04039C007582002244
:0803A00090E740789DE6F09023
:0B03A800E68AE4F090E68B7401F0029E
:0203B30005A49F
:0A03B50090E6BAE0FA789DA6021265
:0603BF000272120253025B
:0203C50005A48D
:0A03C70090E6BAE0FA789CA6021254
:0603D10002721202530249
:0203D70005A47B
:0803D90090E740789CE6F090EB
:0B03E100E68AE4F090E68B7401F00265
:0203EC0005A466
:0A03EE0090E6B8E0FABA8002800A37
:0503F800BA8102801B28
:0503FD00BA8274802C9F
:0A04020090E740E4F090E741F0902D
:0A040C00E68AF090E68B7402F0021D
:0204160005A43B
:0A04180090E740E4F090E741F09017
:0A042200E68AF090E68B7402F00207
:02042C0005A425
:0E042E0090E6BCE0FA53027E90E6BCE0FBC311
:0E043C0074809BE433FB4A90323793FA339579
:0E044A00E0FB74A12AFA74E63BFB8A828B83E6
:0E045800E0FA53020190E740EAF090E741E439
:0C046600F090E68AF090E68B7402F00241
:0204720005A4DF
:04047400758200226B
:0704780090E6B8E0FA60080D
:05047F00BA0202801228
:030484000205224C
:0B04870090E6BAE0FABA01030205A4F7
:04049200758200224D
:0904960090E6BAE0600302051EC5
:0E049F0090E6BCE0FA53027E90E6BCE0FBC3A0
:0E04AD0074809BE433FB4A90323793FA339508
:0E04BB00E0FB74A12AFA74E63BFB90E6BCE07D
:0E04C900FC53047E90E6BCE0FDC374809DE40D
:0E04D70033FD4C90323793FC3395E0FD74A159
:0E04E5002CFC74E63DFD8C828D83E0FC5304FC
:0E04F300FE8A828B83ECF090E6BCE05480FA27
:0E050100C423541FFA90E6BCE0FB740F5B901D
:0D050F00E6832AF090E683E0FA4420F00233
:02051C0005A434
:04051E0075820022C0
:0405220075820022BC
:0705260090E6B8E0FA600561
:05052D00BA026D800E12
:0A05320090E6BAE0FABA020280680F
:04053C0075820022A2
:0E05400090E6BCE0FA53027E90E6BCE0FBC3FE
:0E054E0074809BE433FB4A90323793FA339566
:0E055C00E0FB74A12AFA74E63BFB90E6BCE0DB
:0E056A00FC53047E90E6BCE0FDC374809DE46B
:0E05780033FD4C90323793FC3395E0FD74A1B7
:0E0586002CFC74E63DFD8C828D83E0FC43046A
:09059400018A828B83ECF08007E0
:04059D007582002241
:0305A100020B2525
:0305A4007582015C
:0105A7002231
:0C05A800C0E0C082C083C00078807601F3
:0905B4005391EF90E65D7401F033
:0905BD00D000D083D082D0E032DE
:0E05C600C0E0C082C0835391EF90E65D7404E4
:0105D400F036
:0705D500D083D082D0E03298
:0E05DC00C0E0C082C0835391EF90E65D7402D0
:0105EA00F020
:0705EB00D083D082D0E03282
:0D05F200C0E0C082C083C002C003C000781A
:0A05FF00888602088603788AA602A7
:0C06090008A6038A828B83A37402F07899
:0A061500868602088603788CA60290
:0E061F0008A6038A828B83A37407F05391EF21
:06062D0090E65D7410F080
:0D063300D000D003D002D083D082D0E032BE
:0C064000C0E0C082C083C0007881760159
:09064C005391EF90E65D7408F093
:09065500D000D083D082D0E03245
:0D065E00C0E0C082C083C002C003C0009095
:07066B00E680E0FA30E72C05
:0A06720078868602088603788AA6BF
:0D067C000208A6038A828B83A37402F07823
:0A068900888602088603788CA6021A
:0B06930008A6038A828B83A37407F083
:09069E005391EF90E65D7420F029
:0D06A700D000D003D002D083D082D0E0324A
:0306B40053D8EF29
:0106B7003210
:0532280001020000009E
:05322D0001000000009B
:05323200010000000096
:0A3237000001020203030404050570
:0A00C600789E7600789FE4F608F6B5
:0C00D00008F608F678A3E4F608F608F637
:0800DC0008F678A7E4F608F627
:0706B80012070AE58260143D
:0706BF001206D4E582700D64
:0B06C6001207FE78AC7601758200027E
:0206D100080718
:0106D3002204
:0706D40078A9E624FA402B8F
:0A06DB0078A9E625E0269006E573F5
:0706E5000206F70206FA020B
:0606EC0006FD02070602F4
:0506F2000700020703F0
:0306F70002099263
:0306FA000209F6FC
:0306FD000216776B
:03070000022301D0
:03070300022B6F57
:03070600758200F9
:0107090022CD
:05070A00E5BA30E10436
:04070F0075820022CD
:0707130078AC76007A807BD0
:06071A00E78B9A7A807B58
:0C072000E77B008A9B90E67BE0FA7B0000
:05072C000ABA00010BF8
:0E07310090E68DE0FC7D00EAB50406EBB50510
:03073F0002801124
:0B0742001207FE78AC760175820012F1
:06074D000807758200227E
:0A07530090E67BE0FA78A9A6029078
:09075D00E67BE0FA78AAA60290FE
:0B076600E67BE0FA78ABA6027582018A
:010771002265
:080772001201BBE5BA30E104FD
:04077A00750A0022DA
:0C077E0090E780E0FA7B000ABA00010B53
:0E078A0090E68DE0FC7D00EAB50406EBB505B7
:03079800028011CB
:0B079B001207FE78AC76017582001298
:0607A6000807750AFF229E
:0B07AC0090E781E0FA78A9E6B502139F
:0C07B70090E782E0FA78AA748046FBEA22
:0307C300B5030477
:0407C600750A01228D
:0607CA0090E781E0700CD5
:0807D00090E782E0FABA02048E
:0407D800750A02227A
:0307DC00750AFF9C
:0107DF0022F7
:0807E000AA827B0B7C007D4026
:0E07E80090E67BE0FE8B828C838DF0123181D7
:0707F600A3AB82AC83DAEB38
:0107FD0022D9
:0807FE0090E68DE4F00000001C
:0108060022CF
:07080700AA82E5BA30E2010C
:01080E0022C7
:07080F007BC07CE78C9D7BA0
:08081600C07CE77C008B9E9082
:08081E00E67CEA04F078AC90DE
:07082600E67CE6F07B0B7C91
:05082D00007D408A0679
:03083200EE60175E
:0E0835008B828C838DF0123208FFA3AB82AC55
:090843008390E67CEFF01E80E6D4
:0A084C0090E68F74022AF00000000D
:01085600227F
:07085700AA82E5BA30E201BC
:01085E002277
:07085F007BC07CE78C9D7B50
:08086600C07CE77C008B9E9032
:08086E00E67CEA04F078AC908E
:04087600E67CE6F046
:01087A00225B
:05087B00E5BA30E201C6
:010880002255
:0808810090E7C178ACE6F090AD
:0C088900E7C0E0FA90E68F04F0000000E9
:010895002240
:0E089600AA82AB83ACF090E67BE0FDC002C00E
:0E08A40003C004C0051207FED005D004D00327
:0708B200D002E5BA30E201BB
:0108B900221C
:0708BA007EC07FE78F9D7EE9
:0808C100C07FE77F008E9E90CE
:0C08C900E67CED04F090E67CE4F08D0687
:0308D500EE6017BB
:0E08D8008A828B838CF0123208FFA3AA82ABB7
:0908E6008390E67CEFF01E80E631
:0A08EF0090E68F74022DF000000067
:0108F90022DC
:0E08FA0090E618E4F000000090E6047480F030
:0E09080000000090E6047402F00000007A0483
:0B09160090E6497482F0000000DAF562
:0E09210090E604E4F000000090E6A3E4F0008D
:02092F000000C6
:0109310022A3
:0E09320090E61AE4F000000090E6047480F0F5
:0D09400000000090E6047406F00000009036
:0E094D00E604E4F000000090E6A5E4F00000EF
:01095B00009B
:01095C002278
:08095D0090E680E0FA30E706A5
:060965007A007B02800411
:04096B007A407B0053
:0E096F0090E624EBF000000090E680E0FA3005
:02097D00E7068B
:06097F007A007B028004F7
:040985007A407B0039
:0809890090E625EAF0000000F1
:010991002243
:0709920078AAB602028007FB
:0709990078AAB603508005A7
:0509A0001207FE804D6E
:0A09A5007582041207E01207FEE558
:0809AF000BF4FAE50CF4FBE582
:0A09B7000DF4FCE50EF4FD747B2A3C
:0C09C100FAE43BFBE43CFCE43DFD8A0B47
:0509CD008B0C8C0D8D68
:0509D2000E1217E2788F
:0C09D7009FE4F608F608F608F612093254
:0B09E3001208FA758204120807800455
:0409EE0075820022EC
:0309F2007582010A
:0109F50022DF
:0A09F60078AAE624EF5003020AAECF
:0C0A000078AAE6240983C0E0E6241483F1
:030A0C00C0E02225
:020A0F00AEAE89
:020A110031AE04
:020A1300AEAE85
:020A150048AEE9
:020A17009C67DA
:020A19007E83DA
:020A1B00AE88A3
:020A1D00928DB8
:010A1F00973F
:020A20000A0AC0
:020A22000A0ABE
:020A24000A0ABC
:020A26000A0ABA
:020A28000A0AB8
:020A2A000A0AB6
:020A2C000A0AB4
:020A2E000A0AB2
:010A30000ABB
:070A31001207FE750B7A7538
:060A38000C00750D0075B5
:0A0A3E000E00758204120807806A9A
:0A0A48007582011207E01207FEE5B7
:030A52000B60072F
:070A550043B502C2B18003AA
:030A5C0053B5FD92
:080A5F00758200120807804BAC
:070A67001207FE750B00757C
:060A6E000C20750D00755F
:0A0A74000E0075820412080780349A
:050A7E001214B2802FEC
:050A8300121264802A3C
:050A8800123042802540
:050A8D0012305780202B
:050A92001230CA801BB8
:050A97001230918016F1
:0C0A9C001207FEA2B7E433FA8A0B758241
:060AA800011208078004A2
:040AAE00758200222B
:030AB20075820149
:010AB500221E
:0A0AB600AA82AB83E5084509700130
:010AC0002213
:070AC100AC14BCE602800545
:050AC8008B05BDE631C5
:080ACD008A068B07AC13AD147F
:0E0AD5008E028F038C828D83E0F88A828B83E1
:060AE300F00EBE00010F41
:050AE9000CBC00010D32
:080AEE00150874FFB50802159C
:010AF60009F6
:060AF700E508450970D876
:010AFD0022D6
:0C0AFE008C9AAC137E008C9B8D9D7B00BD
:050B0A008A9E020B10A1
:010B0F0022C3
:080B1000A90890E67B05869020
:040B1800E67C0586EC
:080B1C00E00586F00586D9F81A
:010B240022AE
:0A0B250090E6B9E0FABAA202804A95
:050B2F00BAA30280459D
:060B3400BAE103020DFA14
:060B3A00BAE203020DDA2D
:060B4000BAE303020DDA26
:060B4600BAE403020DBA3F
:060B4C00BAE503020DBA38
:060B5200BAE603020CC527
:060B5800BAE703020CF2F3
:060B5E00BAE803020D3AA3
:060B6400BAE903020D9A3C
:060B6A00BAEA03020D6966
:060B7000BAEB03020E1AAD
:030B7600020E3A32
:0B0B790090E6BAE0FAA3E0FB8A0B8BC9
:0A0B84000C90E6BEE0FAA3E0FB903F
:090B8E00E6B8E0FCBCC0028003E3
:030B9700020C2A23
:070B9A00EA4B7003020E3E5E
:080BA10090E6A0E0FC20E1F861
:080BA90090E6B9E0FCBCA211CA
:0A0BB100750D00750E00C002C003B0
:070BBB001210D8D003D00294
:090BC200C3EA9440EB94005006D4
:060BCB008A0D8B0E80066E
:060BD100750D40750E00D9
:080BD70090E6B9E0FCBCA20DA0
:0D0BDF00C002C00312102BD003D002801AF8
:040BEC00850D0885E6
:030BF0000E09905B
:040BF300E740850B47
:030BF70013850C57
:0C0BFA0014C002C003120AB6D003D002DF
:080C060090E68AE4F0AC0DADAC
:080C0E000E90E68BECF0EC25E2
:070C16000BFEED350CFF8E13
:0A0C1D000B8F0CEAC39CFAEB9DFB61
:030C2700020B9A23
:0A0C2A0078A7E608467003020CC12B
:0C0C340090E6BCE0FCA3E0FD78A7E6B56C
:090C4000040708E6B50502800274
:020C49008076B3
:080C4B0090E6B8E0FCBC406E2D
:070C5300EA4B7003020E3EA4
:090C5A0090E68AE4F090E68BF0CC
:080C630090E6A0E0FC20E1F89E
:0A0C6B0090E68BE0FC7D008C0D8DFF
:090C75000E90E6B9E0FCBCA31FDF
:040C7E00850D088553
:030C82000E0985D3
:060C85000B82850C837553
:030C8B001340759E
:070C8E0014E7C002C00312CD
:080C95000AB6D003D002800B67
:0B0C9D00C002C0031210D8D003D00228
:060CA800AC0DAD0EEC25C1
:070CAE000BFEED350CFF8E7B
:0A0CB5000B8F0CEAC39CFAEB9DFBC9
:020CBF00809221
:040CC1007582002216
:0A0CC50090E6B8E0FABAC00280031E
:030CCF00020E3ED4
:080CD20090E6A0E0FA20E1F831
:0E0CDA0090E740740AF0A37403F090E68AE4F9
:0A0CE800F090E68B7402F0020E3E5D
:0A0CF20090E6B8E0FABAC0028003F1
:030CFC00020E3EA7
:080CFF0090E6A0E0FA20E1F804
:0E0D070090E740740DF0A3E4F0A3F0A3F09089
:0B0D1500E744E4F5F0123181A3E41282
:0A0D20003181A3E4123181A3E41233
:080D2A00318190E68AE4F090AB
:080D3200E68B7408F0020E3E8E
:080D3A0090E6B8E0FABA40238C
:090D420090E68AE4F090E68BF0E3
:080D4B0090E6A0E0FA20E1F8B7
:0C0D530090E740E0FAA3E0FB78A7A602BE
:060D5F0008A603020E3E8F
:040D65007582002271
:080D690090E6B8E0FABA40255B
:070D710078A7E60846601EAA
:0C0D780090E6BCE0FAA3E0FB78A7E6B52B
:090D8400020708E6B50302800233
:020D8D008007DD
:070D8F00789E7601020E3E82
:040D96007582002240
:070D9A00750BF0750C3F75AD
:060DA1000D04750E007543
:060DA7000FCD7510AB90AA
:070DAD00E6B8E0FABAC0034A
:030DB400020E42EA
:030DB700020F5BCD
:070DBA00750BE0750C3F759D
:060DC1000D0C750E00751B
:060DC7000F787510569034
:070DCD00E6B9E0FABAE40305
:030DD400020E42CA
:030DD700020F5BAD
:070DDA00750BC0750C3F759D
:060DE1000D10750E0075F7
:060DE7000FCD7510AB906A
:070DED00E6B9E0FABAE203E7
:030DF400020E42AA
:030DF700020F5B8D
:070DFA00750BA0750C3F759D
:060E01000D1C750E0075CA
:060E07000FCD7510AB9049
:070E0D00E6B8E0FABAC003E9
:030E1400020E4289
:030E1700020F5B6C
:070E1A00750BF8750C3F7524
:060E21000D02750E0075C4
:060E27000FCD7510AB9029
:070E2D00E6B8E0FABAC003C9
:030E3400020E4269
:030E3700020F5B4C
:040E3A00758200229B
:030E3E00758201B9
:010E4100228E
:0C0E42007AFF90E6B8E0FBBBC002800421
:040E4E007582002287
:050E5200AB0DAC0E75B4
:0A0E57000D00750E00C002C003C0BC
:0E0E6100041210D8D004D003D00274032BFB6F
:0A0E6F00E43CFC8B0D8C0EC0021257
:0A0E7900102BD002E50D24FDFBE56F
:070E83000E34FFFC8B0D8C07
:0B0E8A000E90E740E0FBA3E0FCEBB59E
:060E95000F48ECB510440B
:040E9B007A007B005E
:0A0E9F007403250DFCE4350EFD8BF5
:0A0EA900067F00C3EE9CEF9D502C65
:0A0EB300EB2440F582E434E7F583F8
:0A0EBD00E0FC2AFAEB2440FCE434C8
:0A0EC700E7FD74022B2440F582E4DD
:0C0ED10034E7F583E0FE8C828D83F00B8B
:020EDD0080C0D3
:030EDF00EA606462
:040EE200850D0885ED
:030EE6000E099062
:090EE900E6B9E0FABAE102803436
:050EF200BAE202803DA0
:050EF700BAE4028005D1
:050EFC00BAE943801774
:020F01007A0074
:030F0300BA0C0025
:020F0600503E5B
:0A0F0800EA2440F582E434E7F583A3
:060F12007430F00A80EBD0
:050F180090E740751395
:030F1D00507514F8
:060F200032120AB6802027
:050F260090E740751387
:030F2B00547514E6
:060F2E0032120AB6801227
:050F340090E740751379
:030F3900707514BC
:060F3C0032120AB6800427
:040F42007582002292
:0C0F460090E68AE4F000000090E68BE5E5
:080F52000DF0000000758201A2
:010F5A002274
:080F5B0090E6B8E0FABA401C70
:070F630078A7E608466015BF
:0C0F6A0090E6BCE0FAA3E0FB78A7E6B537
:090F7600020708E6B5030280043D
:040F7F007582002255
:090F830090E68AE4F090E68BF0A0
:080F8C0090E6A0E0FA20E1F874
:070F940090E68AE0FA7014F8
:050F9B00AA0DAB0E9051
:0E0FA000E68BE0FC7D00B50206EDB503028095
:010FAE00043E
:040FAF007582002225
:060FB3008A15AD158D0644
:060FB9008E071EEF60250B
:0C0FBF00C002C00374022E2440FFE43482
:090FCB00E7FCEE2440F582E43459
:0C0FD400E7F583E0FA8F828C83F0D003F5
:040FE000D00280D5E6
:080FE40090E740E50FF0A3E5E2
:050FEC0010F07C407EC6
:0A0FF100E78E9A759B407C007402A5
:030FFB002515FDBC
:090FFE0090E67BE0FE2CFCDDF71F
:0A100700740225152440F582E4343C
:0C101100E7F583C3E49CFCF074032AFAAA
:08101D00E43BFB8A0D8B0E126F
:0510250010D8758201E6
:01102A0022A3
:05102B00E50DFA700460
:0410300075820122A2
:0810340090E678E0FB20E6F8ED
:0C103C0090E6787480F090E67974A3F0E0
:0810480090E678E0FB30E0F8CF
:0810500090E678E0FB20E27459
:0810580090E678E0FB30E16C4A
:03106000BA0108CA
:0810630090E678E0FB4420F068
:07106B0090E679E07B407C78
:06107200E78C9A7B407C34
:05107800E77C008B9BEA
:04107D00DA028026ED
:0810810090E678E0FB30E0F896
:0810890090E678E0FB20E23B59
:03109100BA010899
:0810940090E678E0FB4420F037
:0B109C0090E679E0FB90E67BF080D648
:0810A70090E678E0FA30E0F871
:0810AF0090E678E0FA20E2155A
:0E10B70090E678E0FA4440F090E679E0FA9096
:0710C500E67BF075820122B9
:0B10CC0090E678E0FA4440F0758200E6
:0110D70022F6
:0210D800AA0D5F
:0810DA0090E678E0FB20E6F847
:0C10E20090E6787480F090E67974A2F03B
:0810EE0090E678E0FB30E0F829
:0810F60090E678E0FB20E26BBC
:0810FE0090E678E0FB30E163AD
:03110600EA600E8E
:071109007B407CE78C9A7B20
:07111000407CE77C008B9B93
:021117007B0259
:03111900EA700376
:03111C00EB603B4A
:03111F00EB60146E
:03112200BB020805
:0811250090E679E50CF080066C
:06112D0090E679E50BF0ED
:031133001B800A14
:0A11360090E67BE0FC90E679F01AE9
:0811400090E678E0FC30E0F8D5
:0811480090E678E0FC20E219BA
:0811500090E678E0FC20E1C10B
:02115800800F06
:0E115A0090E678E0FA4440F0121175758201BB
:011168002264
:0B11690090E678E0FA4440F075820048
:011174002258
:0811750090E678E0FA20E6F8AC
:0E117D0090E678E0FA4480F090E67974A2F0F3
:08118B0090E678E0FA30E0F88C
:0811930090E678E0FA4440F018
:08119B0090E678E0FA20E6F886
:0811A30090E678E0FA30E1D299
:0111AB002221
:0811AC0090E678E0FA4440F0FF
:0811B40090E678E0FA20E6F86D
:0111BC002210
:0711BD00AA8290E679EAF036
:0811C40090E678E0FA30E0F853
:0811CC0090E678E0FA20E20849
:0811D40090E678E0FA20E10743
:0711DC001211AC78AC762380
:0611E30078ACE6B4010047
:0411E900E433F58274
:0111ED0022DF
:0C11EE00AA8290E6787480F0EA2AFAE504
:0B11FA00164AF5821211BDE582700458
:0412050078AC762229
:0612090078ACE6B4010020
:04120F00E433F5824D
:0112130022B8
:091214007516017582510211EEFC
:0C121D00AA82AB83751600758251C002D6
:0D122900C0031211EEE582D003D002601167
:0E1236008B82C002C0031211BDE582D003D02E
:0312440002700431
:041247007C008002A5
:02124B007C0124
:03124D00EC600B47
:0B1250007B008A821211BDE582700451
:04125B007A00800293
:02125F007A0112
:021261008A827F
:011263002268
:06126400E4F517F518F592
:07126A0008F5097582081266
:0612710007E01207FEACCD
:041277000FAD10AEF9
:0A127B0011AF12C3E49C74209DE43F
:051285009EE49F4028DB
:04128A00850B198532
:03128E000C1A85B2
:031291000D1B85AD
:041294000E1CEC251B
:0812980019FCED351AFDEE35DD
:0A12A0001BFEEF351CFFC3E49C7435
:0812AA00209DE49EE49F500A20
:0A12B20078AC760975820002080787
:0912BC00AC19741C251AFDE4357F
:0712C5001BFEE4351CFF8C49
:0412CC000B8D0C8EEC
:0412D0000D8F0E85EB
:0612D4000B82850C831261
:0612DA00121DE582700503
:0512E000F58202080781
:0A12E5001211AC758200120807E533
:0412EF000F45104552
:0512F300114512602806
:0A12F8001212147401B50F0EE4B5D4
:08130200100AE4B51106E4B580
:04130A001202800249
:02130E00800855
:0813100090E678E0FC4420F0B7
:0813180090E679E0F50A80037C
:031320007518013C
:04132300E518600762
:07132700E51760030214A4A6
:09132E00120772E4B50A02803FC7
:051337007401B50A0C71
:04133C00E517700839
:081340007517011207FE802E53
:051348007402B50A1C4F
:07134D001207FEE5187022F3
:0C13540090E6A57401F00000007518017F
:0913600078AC76021211AC800D8C
:04136900E518700310
:03136D001211ACAE
:061370007517000214A431
:04137600E51870A95D
:05137A00E5AA20E5A436
:07137F007C007DF88D9D7CD0
:08138600007DF87D008C9E85BE
:03138E000F1D85AB
:03139100101E85A6
:03139400111F85A1
:0313970012209091
:07139A00E680E0FA30E706EF
:0613A1007A007B028004CB
:0413A7007A407B000D
:0C13AB00EB3395E0FCFDC3EA951DEB95CB
:0613B7001EEC951FED95F0
:0313BD00205014A9
:0813C00090E680E0FA30E70638
:0613C8007A007B028004A4
:0413CE007A407B00E6
:0213D200800495
:0413D400AA0FAB10A1
:0413D8008A088B09EB
:0713DC00E50845097003025A
:0213E300148F65
:0713E500E518600302148FFC
:0813EC0090E678E0FC30E0F827
:0813F40090E678E0FC30E218FD
:0813FC0078AC7623751801900E
:0C140400E6A57401F0EAC39508FAEB9528
:0414100009FB80C88C
:0A1414007402B50F0EE4B5100AE4EF
:09141E00B51106E4B512028002CA
:0214270080083B
:0814290090E678E0FC4420F09D
:0A1431007401B50F0EE4B5100AE4D3
:09143B00B51106E4B512028002AD
:02144400800B1B
:0B144600C002C0031211ACD003D002A2
:0A14510090E679E0FC90E67CF015CF
:07145B000874FFB50802153B
:011462000980
:05146300AC0FAD10AE5E
:0A14680011AF121CBCFF091DBDFFEF
:06147200051EBEFF011F74
:051478008C0F8D108EA9
:0A147D00118F12EC4D4E4F60030278
:0214870013DC74
:061489007518010213DCDE
:0E148F0090E698EBF00000007B0090E699EAF2
:07149D00F000000002132320
:0714A400120932E517600692
:0614AB0075820002080733
:0114B1002218
:0714B2007521007522007591
:0614B9002301E4F508F533
:0814BF00097582081207E01212
:0514C70007FEAD0FAEB1
:0414CC0010AF11ACA0
:0C14D00012C3E49D74209EE49FE49C4045
:0114DC001CF3
:0A14DD00ED250BFDEE350CFEEF359A
:0A14E7000DFFEC350EFCC3E49D740C
:0814F100209EE49FE49C500AD8
:0A14F90078AC76097582000208073E
:0B150300758200120807AC0B741C2559
:08150E000CFDE4350DFEE4358F
:051516000EFF8C0B8D9F
:04151B000C8E0D8F96
:04151F000EE50F4581
:041523001045114519
:031527001270033C
:03152A0075220126
:04152D00E52260074C
:07153100E521600302165FD3
:09153800120772E4B50A028035C5
:051541007401B50A0C65
:04154600E521700823
:08154A007521011207FE802447
:051552007402B50A1946
:071557001207FEE5227018E7
:0C155E0090E6A37401F00000007522016B
:06156A0078AC7602800659
:0615700075210002165F68
:04157600E52270B347
:05157A00E5AA20E0AE2F
:07157F007C007DF08D9A7CD9
:08158600007DF07D008C9B90BC
:0E158E00E690E0FC8C057C0090E691E0FE7F8C
:08159C00002CF508EF3DF509F4
:0615A400E5084509608323
:0715AA00E522600302152D8C
:0415B100E523600CC2
:0715B500850B82850C8312F7
:0515BC00121D75230063
:0515C10078ACE6700E9D
:0E15C60090E67BE0FCF5821211BDE582700B11
:0B15D40075220190E6A37401F080C5B1
:0815DF00150874FFB5080215A0
:0115E70009FA
:0515E800AC0FAD10AED8
:0715ED0011AF12EC24FFF521
:0A15F40024ED34FFF525EE34FFF579
:0715FE0026EF34FFF52785FD
:03160500240F852A
:0316080025108525
:03160B0026118520
:03160E002712AAF6
:041611000BAB0CAC67
:0A1615000DAD0E0ABA00090BBB0070
:06161F00050CBC00010DEA
:051625008A0B8B0C8C08
:04162A000D8D0EE52F
:04162E0024452545E5
:051632002645277003AE
:0316370075220118
:06163A00E50845097006F9
:0616400090E6497482F0FF
:04164600E522700920
:06164A00E50B543F6003B4
:031650000215A4DC
:071653001211AC12117575B4
:05165A0023010215A4AC
:04165F00E523700609
:061663001211AC1211751A
:071669001208FAE5216006FA
:061670007582000208076C
:011676002251
:05324100010200000085
:05324600010000000082
:05324B0001000000007D
:043250000D0000006D
:0E3254004F6E626F617264205553420000009D
:0E326200FDFDFDFD000000000000B6C79C56FB
:0E327000444F6E62557362000000FDFDFDFDCF
:02327E0000004E
:0716770078AAB602028060B0
:07167E0078ABB600028011F9
:0B1685001207FE78AC760C7582001294
:061690000807758201222B
:0516960078AAE6701FB8
:06169B00789FE630E0112B
:0B16A1001207FE78AC76037582001281
:0616AC000807758201220F
:0816B200789FE64401F6802454
:0516BA0078AAB601084A
:0816BF00789FE654FEF6801747
:0616C700789FE620E0110F
:0B16CD001207FE78AC76047582001254
:0616D800080775820122E3
:0A16DE0078AAE624F450030217CEA8
:0A16E80078AAE625E0269016F273BA
:0716F2000217160217260281
:0616F90017360217CE02B5
:0616FF00174302175C0214
:0617050017900217C70255
:06170B0017B90217B90234
:0517110017C00217B92A
:0A1716001217D21207FE75820012AE
:061720000807758201229A
:0A1726001217E21207FE758200128E
:061730000807758201228A
:0D17360090328075F08012089675820122B5
:071743001207FE750B007593
:06174A000C6A750D187514
:0C1750000E007582041208077582012249
:07175C0090E67BE0FA600457
:04176300D2B380027B
:02176700C2B30B
:0717690090E67BE0FA60044A
:04177000D2B280026F
:02177400C2B2FF
:0717760090E67BE0FA60043D
:04177D00D2B4800260
:02178100C2B4F0
:0D1783001207FE7582001208077582012210
:0C1790001207FEA2B3E433FA8A0BA2B2E7
:0B179C00E433FA8A0CA2B0E433FA8AAE
:0A17A7000DA2B4E433FA8A0E758235
:0817B1000412080775820122F1
:0717B900121B9D7582012245
:0717C000121FA47582012233
:0717C7001217EC75820122EC
:0317CE0075820021
:0117D10022F5
:0E17D20043B50443B50843B510C2B2D2B3C24A
:0117E000B454
:0117E10022E5
:0917E20053B5E3C2B2D2B3C2B4A4
:0117EB0022DB
:05328000010200000046
:05328500010000000043
:05328A0001000000003E
:0B17EC007A007B0090E67BE0FC6004CC
:0417F700D2B38002E7
:0217FB00C2B377
:0717FD0090E67BE0FC6004B4
:04180400D2B28002DA
:02180800C2B26A
:0E180A00C2B4758204C002C0031207E0D0030E
:0E18180000C0031207FE758200120807D003FD
:07182600D002AC0BAD0CAECB
:04182D000DAF0E8C61
:041831000F8D108E79
:09183500118F12EC4D4E4F7002B0
:02183E007B012C
:03184000EB600654
:06184300EA60030218F147
:0D184900C002C003120772D003D002E4B544
:041856000A028031D1
:05185A007401B50A0F46
:0E185F007A01C002C0031207FED003D002803F
:01186D001D5D
:05186E007402B50A132D
:0B1873007B0178AC7602C002C00312BB
:08187E0007FED003D002800533
:051886007A000218F1D8
:03188B00EB70B24D
:05188E00AC0BAD0CAE37
:0A1893000DAF0EC3ED94FEEE9400BD
:05189D00EF940050066D
:0618A2008C088D09800690
:0618A8007508007509FE41
:0818AE00AC08AD09E4FEFFE502
:0918B6000BC39CFCE50C9DFDE553
:0818BF000D9EFEE50E9FFF8C5B
:0418C7000B8D0C8EEB
:0818CB000D8F0EC000C001A842
:0418D30008A909094E
:0E18D700D2B4C2B4D8FAD9F8D001D000EC4D8A
:0718E5004E4F6003021840A2
:0518EC007B0102184021
:0318F100EA602981
:0718F400E50FC3950BFAE5B7
:0518FB0010950CFBE557
:0519000011950DFCE54E
:0519050012950EFD8AA1
:04190A000B8B0C8CAB
:04190E000D8D0E78B5
:0B191200ACE64480F675820402080772
:01191D0022A7
:0A191E00C001C002A908AA09E9608F
:02192800010AB2
:03192A0090E67BC9
:0E192D00E01392B2D2B4C2B41392B2D2B4C2DA
:0E193B00B41392B2D2B4C2B41392B2D2B4C2F8
:0E194900B41392B2D2B4C2B41392B2D2B4C2EA
:0E195700B41392B2D2B4C2B41392B2D2B4C2DC
:09196500B4D9C5DAC3D002D001E7
:01196E002256
:0A196F00C001C002A908AA09E9603E
:02197900010A61
:0A197B0090E67B058690E67C058669
:0E198500E01392B2A2B013D2B4C2B492B2A2D6
:0E199300B013D2B4C2B492B2A2B013D2B4C296
:0E19A100B492B2A2B013D2B4C2B492B2A2B049
:0E19AF0013D2B4C2B492B2A2B013D2B4C2B476
:0E19BD0092B2A2B013D2B4C2B492B2A2B013CE
:0E19CB00D2B4C2B40586F00586D9AFDAADD02D
:0319D90002D00138
:0119DC0022E8
:0A19DD00C001C002A908AA09E960D0
:0219E700010AF3
:0319E90090E67C09
:0E19EC00A2B0D2B4C2B413A2B0D2B4C2B4132B
:0E19FA00A2B0D2B4C2B413A2B0D2B4C2B4131D
:0E1A0800A2B0D2B4C2B413A2B0D2B4C2B4130E
:0E1A1600A2B0D2B4C2B413A2B0D2B4C2B41300
:091A2400F0D9C2DAC0D002D001F1
:011A2D002296
:0A1A2E00C001C002A908AA09E9607E
:021A3800010AA1
:031A3A0090E67BB8
:0E1A3D00E01392B3D2B4C2B41392B3D2B4C2C7
:0E1A4B00B41392B3D2B4C2B41392B3D2B4C2E5
:0E1A5900B41392B3D2B4C2B41392B3D2B4C2D7
:0E1A6700B41392B3D2B4C2B41392B3D2B4C2C9
:091A7500B4D9C5DAC3D002D001D6
:011A7E002245
:0A1A7F00C001C002A908AA09E9602D
:021A8900010A50
:0A1A8B0090E67B058690E67C058658
:0E1A9500E01392B3A2B013D2B4C2B492B3A2C3
:0E1AA300B013D2B4C2B492B3A2B013D2B4C284
:0E1AB100B492B3A2B013D2B4C2B492B3A2B036
:0E1ABF0013D2B4C2B492B3A2B013D2B4C2B464
:0E1ACD0092B3A2B013D2B4C2B492B3A2B013BB
:0E1ADB00D2B4C2B40586F00586D9AFDAADD01C
:031AE90002D00127
:011AEC0022D7
:0A1AED00C001C002A908AA09E960BF
:021AF700010AE2
:031AF90090E67BF9
:0E1AFC00E01392B21392B3D2B4C2B41392B2FA
:0E1B0A001392B3D2B4C2B41392B21392B3D2F8
:0E1B1800B4C2B41392B21392B3D2B4C2B4D911
:071B2600D5DAD3D002D00193
:011B2D002295
:0A1B2E00C001C002A908AA09E9607D
:021B3800010AA0
:0A1B3A0090E67B058690E67C0586A8
:021B44007C0221
:0E1B4600E01392B21392B3FBE8A2B013F8EBD7
:0E1B5400D2B4C2B41392B21392B3FBE8A2B0A3
:0E1B620013F8EBD2B4C2B41392B21392B3FBD9
:0E1B7000E8A2B013F8EBD2B4C2B41392B213D1
:0E1B7E0092B3FBE8A2B013F8EBD2B4C2B4DC11
:0E1B8C00B9E80586F0058619D9AEDAACD002AC
:021B9A00D00178
:011B9C002226
:071B9D00752900752B00758E
:071BA4002C0078AAB6082A04
:081BAB0075290190E67BE0F5CD
:081BB3002890E67BE0FE6004CF
:041BBB00D2B380021F
:021BBF00C2B3AF
:041BC100E5286008AB
:041BC500752D6F7596
:041BC9002E19805AF7
:041BCD00752D1E75DF
:041BD1002E198052F7
:051BD50078AAB6092505
:0A1BDA0075280190E67BE0FC600432
:041BE400D2B38002F6
:021BE800C2B386
:071BEA0090E67BE0FC6004C3
:041BF100D2B28002EA
:021BF500C2B27A
:041BF700752DDD75F6
:041BFB002E198028F7
:081BFF0075290190E67BE0F579
:081C07002890E67BE0FC60047C
:041C0F00D2B28002CB
:021C1300C2B25B
:041C1500E528600856
:041C1900752D7F7531
:041C1D002E1A8006F5
:041C2100752D2E757A
:021C25002E1A75
:0D1C27007582041207E01207FE758200129C
:041C34000807850B0D
:031C38002F850CE9
:031C3B0030850DE4
:031C3E0031850EDF
:031C410032852FBA
:031C44000F8530D9
:031C4700108531D4
:031C4A00118532CF
:0A1C4D00127407552FFD7A007B008A
:071C57007C008D2AAA2FE595
:0C1C5E0030C423CAC423541F6ACA541F98
:0C1C6A00CA6ACAFBE531C42354E04BFBFE
:0A1C7600AC31E532C423CCC4235482
:0C1C80001F6CCC541FCC6CCCFE8A0B8B6C
:041C8C000C8C0D8E21
:051C90000EE52A601DB5
:051C9500AA0BAB0CAC32
:0A1C9A000DAE0E0ABA00090BBB00E4
:061CA400050CBC00010E5E
:051CAA008A0B8B0C8C7D
:031CAF000D8E0E89
:051CB200E50F4510459F
:051CB70011451270034D
:031CBC00752B0184
:021CBF00C2B4AD
:041CC100E52B6007A8
:071CC500E52C6003021EB7CD
:071CCC00120772E50A602C0B
:051CD3007401B50A0CCC
:041CD800E52C70087F
:081CDC00752C011207FE801BAC
:051CE4007402B50A10B6
:071CE9001207FEE52B700F4E
:091CF00078AC7602752B01800628
:061CF900752C00021EB76D
:041CFF00E52960056E
:051D0300E5AA20E0B993
:041D0800E528600565
:051D0C00E5AA20E5B08E
:041D1100E52B70ACA2
:041D1500E529600E4E
:071D19007A007BF08B9A7A3F
:071D2000007BF07B008A9BB1
:041D2700E528600E3D
:071D2B007A007BF88B9D7A22
:071D3200007BF87B008A9E94
:041D3900E52960191F
:0E1D3D0090E690E0FA8A037A0090E691E0FCCE
:0A1D4B007E004AF508EE4BF5098012
:011D55005439
:041D5600850B338541
:031D5A000C3485C1
:031D5D000D3585BC
:031D60000E3690AC
:071D6300E680E0FF30E70617
:061D6A007A007B028004F8
:041D70007A407B003A
:0C1D74008A07EBFD3395E0FAFBC3EF9506
:061D800033ED9534EA95F5
:061D860035EB9536501804
:081D8C0090E680E0FA30E70662
:061D94007A007B028004CE
:041D9A007A407B0010
:061D9E008A088B09800693
:041DA40085330885F6
:021DA8003409FC
:081DAA00AA08AB09E4FCFDE509
:091DB2000BC39AFAE50C9BFBE55A
:081DBB000D9CFCE50E9DFD8A64
:041DC3000B8B0C8CEE
:041DC7000D8D0EE58B
:031DCB002A601378
:051DCE00E50B450C458A
:051DD3000D450E700932
:081DD800150874FFB50802159F
:011DE00009F9
:061DE100E5084509600958
:071DE700852D82852E831279
:021DEE00006B88
:071DF000E52A7003021E81C9
:051DF700E50B450C4561
:061DFC000D450E6003021C
:021E02001E813F
:061E0400AA2AE529700B7B
:031E0A0030B204EF
:041E0D007BFF8002D5
:021E11007B0054
:021E1300800548
:051E150090E67BE0FBFC
:051E1A0078AAB60B1DC3
:021E1F008A0433
:0B1E2100EBA2E092B3C313FB30B0054E
:051E2C00430380800368
:031E310053037FD9
:061E3400D2B4C2B4DCE7E9
:021E3A0080190D
:0B1E3C00EBA2E092B2C313FB30B00534
:051E470043038080034D
:031E4C0053037FBE
:061E4F00D2B4C2B4DAE7D0
:041E5500E528601DFF
:0C1E5900AD2A7A007408C39DFDE49AFADB
:071E65008DF005F0EB800297
:021E6C00C3139E
:081E6E00D5F0FBFB90E67CF0CF
:071E7600752A000508E4B520
:041E7D000802050949
:041E8100E5296009E6
:091E850090E6497482F0000000AF
:041E8E00E5286012D1
:0A1E920090E698E509F000000090CA
:081E9C00E699E508F0000000E2
:051EA400E50B450C45B3
:061EA9000D450E6003026E
:021EAF001CC154
:061EB100752B01021CC1AB
:071EB7001208FA120932E5DE
:041EBE002C70012261
:041EC200E52A601D90
:051EC600AA0BAB0CACFF
:0A1ECB000DAD0E1ABAFF091BBBFF94
:061ED500051CBCFF011D0D
:051EDB008A0B8B0C8C4A
:031EE0000D8D0E57
:041EE300850D35E54F
:0A1EE7000EC40354F8C535C403C54A
:041EF100356535C559
:061EF5003554F8C5356507
:041EFB0035F536E59E
:081EFF000CC40354074535F53E
:031F070035850B12
:081F0A0033E50CC40354F8C5D3
:061F120033C403C5336572
:061F180033C53354F8C587
:041F1E00336533F5FF
:031F2200348533D0
:031F25000B8534F5
:031F28000C8535F0
:031F2B000D8536EB
:091F2E000EAE2AE4FFFAFBEE25D9
:081F370033FEEF3534FFEA35FB
:071F3F0035FAEB3536FB8E8D
:041F46000B8F0C8A67
:041F4A000D8B0EE508
:091F4E000FC39EFEE5109FFFE5A4
:081F5700119AFAE5129BFB8EC2
:041F5F000F8F108A46
:041F6300118B128E3E
:041F67000B8F0C8A46
:041F6B000D8B0EE5E7
:031F6F00296004E2
:041F72007A808002EF
:021F76007A00EF
:041F7800E5286004F4
:041F7C007B40800224
:021F80007B00E4
:0A1F8200EB4A78AC46F6E52960044E
:041F8C007A04800251
:021F90007A00D5
:041F9200E5286004DA
:041F96007B04800246
:021F9A007B00CA
:071F9C00EB2AF582020807A1
:011FA300221B
:071FA4007538007539007566
:071FAB003A0090E67BE0F52F
:081FB200377582041207E012EA
:091FBA0007FE758200120807857C
:031FC3000B3D854E
:031FC6000C3E8549
:031FC9000D3F8544
:031FCC000E40853F
:031FCF003D0F853E
:031FD2003E108539
:031FD5003F118534
:031FD8004012E5CF
:041FDB003D453E45FD
:051FDF003F45407003C6
:031FE4007539014B
:0C1FE7007407553DFAE4FDFBFC74032573
:081FF3003DFBE4353EFCE43542
:071FFB003FFDE43540FE8BC1
:042002000B8C0C8DAA
:0A2006000DEEF50EC313FEED13FD01
:0E201000EC13FCEB13FBEEC313FEED13FDEC23
:0A201E0013FCEB13FB8B0B8C0C8DF5
:042028000D8E0EE526
:03202C0037600812
:04202F00753B2E755A
:042033003C1B8006CC
:04203700753BED7593
:02203B003C1A4D
:02203D00C2B42B
:04203F00E539600718
:07204300E53A6003022240B0
:0B204A00C002120772D002E50A6034E9
:052055007401B50A1042
:04205A00E53A700CE7
:0C205E00753A01C0021207FED002801F7C
:05206A007402B50A1428
:0B206F00C0021207FED002E539700F1E
:09207A0078AC760275390180068C
:06208300753A0002224044
:05208900E5AA20E0B112
:04208E00E5376005CD
:05209200E5AA20E5A80D
:04209700E53970A413
:07209B007D007EF08E9A7DAE
:0820A200007EF07E008D9BE53D
:0320AA003760128A
:0420AD00E538700E94
:0720B1007D007EF88E9D7D8D
:0720B800007EF87E008D9E02
:0E20BF0090E690E0FD8D067D0090E691E0FF3A
:0A20CD007B002DF508EB3EF509AB92
:0720D70008AC09E4FDFEE581
:0920DE000BC39BFBE50C9CFCE527
:0820E7000D9DFDE50E9EFE8B30
:0420EF000B8C0C8DBD
:0620F3000D8E0EEA602CC8
:0520F900E50B450C455C
:0520FE000D450E7022EB
:0E2103008A03FC74032BFBE43CFCA2E713CB25
:0C21110013CBA2E713CB13CBFCE508C3F3
:07211D009BF508E5099CF5A4
:0121240009B1
:06212500E5084509600D0C
:09212B00C002853B82853C831251
:04213400006BD0026A
:06213800EA70030221BD64
:05213E00E50B450C4516
:052143000D450E707552
:092148007B0090E67BE0FC7D00C9
:05215100C3ED9A5023CC
:03215600BD0405C0
:0521590090E67BE0FCB4
:0E215E00ECA2E092B2C313FCA2E092B3C31352
:06216C00FCEBA2B013FB26
:07217200D2B4C2B40D80D805
:04217900E537601CCA
:0E217D008A047D007408C39CFCE49DFD8CF078
:05218B0005F0EB8002ED
:02219000C31377
:07219200D5F0FB90E67CF0A4
:0E2199008A037C0074032BFBE43CFCA2E713DA
:0C21A700CB13CBA2E713CB13CBFCEB2532
:0521B30008F508EC3501
:0521B80009F5097A00A1
:0421BD00E53760633F
:0521C100E50B450C4593
:0521C6000D450E600450
:0421CB00E538605241
:0721CF000508E4B508020554
:0121D60009FF
:0821D700E509C313C50813C597
:0421DF0008F509E511
:0321E3003860243D
:0821E60090E680E0FB30E70603
:0621EE007B007C0280046E
:0421F4007B407C00B0
:0C21F800ECA2E713CB13CBFCEB2508F5A1
:0522040008EC3509F5AE
:0122090009CB
:0A220A0090E698E509F0000000904E
:09221400E699E508F000000075F0
:04221D003800800302
:032221007538010C
:0C22240090E6497482F0000000E50B45D4
:042230000C450D4507
:062234000E600302203FD2
:06223A0075390102203F8E
:0C224000C0021208FA00120932D002E5B8
:04224C003A700122C1
:0A225000E50B25E0FBE50C33FCE58F
:0A225A000D33FDE50E33FEEB2BFB08
:0C226400EC33FCED33FDEE33FE8B0B8CF5
:042270000C8D0D8E36
:042274000EEA603DD1
:04227800EA30E21D49
:05227C00AB0BAC0CAD42
:0A2281000DAE0E1BBBFF091CBCFFD5
:06228B00051DBDFF011E50
:052291008B0B8C0C8D8D
:032296000D8E0E9C
:0A229900E4FBFCFDEA250BFAEB352F
:0822A3000CFBEC350DFCED35E0
:0522AB000EFD8A0B8B03
:0422B0000C8C0D8DF8
:0122B4000E1B
:0722B500E50FC3950BFAE5EC
:0522BC0010950CFBE58C
:0522C10011950DFCE584
:0522C60012950EFD8AD7
:0422CB000F8B108CD9
:0422CF00118D128AD1
:0422D3000B8B0C8CD9
:0422D7000D8D0EE576
:0322DB0037700851
:0522DE00F50FF510F5FD
:0322E30011F512E0
:0C22E60078ACE644C0F6758208020807D8
:0122F20022C9
:05328F00010200000037
:05329400010000000034
:0532990001000000002F
:0A22F300C28CC28D78AD868A78ADEA
:0322FD0008868CC4
:0123000022BA
:0723010078AAB60202806019
:0723080078ABB60002801162
:0B230F001207FE78AC760C75820012FD
:06231A0008077582012294
:0523200078AAE6701F21
:06232500789FE630E21192
:0B232B001207FE78AC760375820012EA
:0623360008077582012278
:08233C00789FE64404F68024BA
:0523440078AAB60108B3
:08234900789FE654FBF68017B3
:06235100789FE620E21176
:0B2357001207FE78AC760475820012BD
:062362000807758201224C
:0A23680078AAE624F850030224527C
:0A23720078AAE625E02690237C738C
:07237C0002239402239402E6
:0623830023A60223B302B1
:062389002438022440028A
:05238F00244802244D6A
:0C2394001207FE78ADE4F608F675820032
:0623A0001208070224569A
:0D23A6009032A375F0801208967582012216
:0A23B3007582041207E01207FE75A0
:0623BD0053FAE4F554F5AB
:0423C30055F55685F1
:0623C7000B82850C8385EA
:0523CD000DF0E50E1209
:0C23D200311CAA82AB83ACF0FD8A0B8B9F
:0423DE000C8C0D8DC9
:0723E2000EEC7003ED600C2E
:0723E900750BFF750CFF7579
:0523F0000D00750E0058
:0923F500E50BF4FAE50CF4FBE53C
:0823FE000DF4FCE50EF4FD787E
:08240600ADA60208A603850B38
:03240E0053850CE7
:0324110054850DE2
:0324140055850EDD
:0C241700569000FAE4F5F012319AAA8207
:0A242300AB83ACF0FD8A0B8B0C8C30
:07242D000D8D0E75820412F3
:042434000807801EF7
:0824380075820112280E8016C6
:0824400075820012280E800EC7
:052448001224CA800906
:05244D00122649800485
:04245200758200226D
:032456007582018B
:012459002260
:0E245A0090E6F3E0FA4480F000000090E67B8C
:0C246800E0FA90E6F1F00000000224AA67
:0E24740090E6F3E0FA547FF000000090E67B63
:0C248200E0FA90E6F1F00000000224AA4D
:0B248E0090E6F1E01224AAE582600D48
:0D24990090E6F2E0FA90E67CF075820122F8
:0324A6007582003C
:0124A9002210
:0524AA001222F3D28CA8
:0524AF00E5BB20E7037E
:0324B400308DF870
:0524B700E5BB30E70465
:0424BC007582012202
:0924C00090E6F574FFF07582004E
:0124C90022F0
:0A24CA00E4FAFBF508F50975820439
:0D24D400C002C0031207E0D00300C00312D5
:0D24E10007FE758200120807D003D002AC80
:0424EE000BAD0CAE78
:0424F2000DAF0E8C90
:0424F6000F8D108EA8
:0924FA00118F12EC4D4E4F7002DF
:022503007B015A
:03250500EB600682
:06250800EA600302261543
:0D250E00C002C003120772D003D002E4B572
:04251B000A028040F0
:05251F007401B50A1271
:03252400EA700F4B
:0E2527007A01C002C0031207FED003D002806A
:01253500297C
:052536007402B50A1F4C
:0E253B00C002C0031207FED003D002EB7016E0
:0C25490090E6A37401F00000007B017814
:05255500AC76028005D8
:05255A007A00022615C5
:03255F00EB70A37B
:06256200E5084509702A9E
:05256800E5AA20E025BA
:07256D007C007DF08D9A7CDB
:08257400007DF07D008C9B90BE
:0E257C00E690E0FC8C057C0090E691E0FE7F8E
:08258A00002CF508EF3DF509F6
:07259200E508450970030292
:02259900250516
:0E259B00C002C00312245AE582D003D00270A1
:0125A900062B
:0625AA0078AC76058052BA
:0E25B000C002C003122474E582D003D0027072
:0125BE000616
:0625BF0078AC7606803DB9
:0725C500E50824FEF508E51E
:0625CC000934FFF509AC23
:0425D2000BAD0CAE93
:0A25D6000DAF0E1CBCFF091DBDFF78
:0625E000051EBEFF011FF5
:0525E6008C0B8D0C8E32
:0925EB000D8F0EEC4D4E4F7002F5
:0225F4007B0169
:0625F600E508450970062E
:0625FC0090E6497482F034
:0826020078ACB60003022505C7
:0B260A007B0190E6A37401F00225059F
:0A261500C0021208FAD002EA6029A0
:07261F00E50FC3950BFAE57E
:0526260010950CFBE51E
:05262B0011950DFCE516
:0526300012950EFD8A69
:042635000B8B0C8C73
:042639000D8D0E787D
:0B263D00ACE64480F67582040208073A
:01264800226F
:0A264900E4FAFBF508F509758204B8
:0D265300C002C0031207E0D00300C0031254
:0D26600007FE758200120807D003D002ACFF
:04266D000BAD0CAEF7
:042671000DAF0E8C0F
:042675000F8D108E27
:09267900118F12EC4D4E4F70025E
:022682007B01DA
:03268400EB600602
:06268700EA60030227CE09
:0D268D00C002C003120772D003D002E4B5F2
:04269A000A0280466A
:05269E007401B50A12F1
:0326A300EA700FCB
:0E26A6007A01C002C0031207FED003D00280EA
:0126B4002FF6
:0526B5007402B50A25C6
:0E26BA00C002C0031207FED003D002EB701C5A
:0E26C80090E6A37401F000000090E6A57401F6
:0926D600F07B0178AC760280056E
:0526DF007A000227CE85
:0326E400EB709DFB
:0626E700E5084509703D05
:0526ED00E5AA20E03821
:0526F200E5AA20E5331C
:0726F7007C007DF08D9A7C50
:0826FE00007DF07D008C9B7C47
:06270600007DF88D9D7CB2
:08270C00007DF87D008C9E9019
:0E271400E690E0FC8C057C0090E691E0FE7FF4
:08272200002CF508EF3DF5095C
:07272A00E5084509700302F8
:022731002684FC
:0E273300C002C00312245AE582D003D0027007
:012741000691
:0627420078AC7605806A08
:0E274800C002C00312248EE582D003D00270BE
:01275600067C
:0627570078AC7606805507
:08275D00150874FFB508021510
:01276500096A
:05276600AC0BAD0CAE50
:0A276B000DAF0E1CBCFF091DBDFFE1
:06277500051EBEFF011F5E
:05277B008C0B8D0C8E9B
:092780000D8F0EEC4D4E4F70025E
:022789007B01D2
:06278B00E508450970217C
:0D27910090E690E0FC90E698F000000090CB
:0C279E00E691E0FC90E699F0000000904D
:0827AA00E6497482F000000012
:0827B20078ACB6000302268496
:0E27BA0090E6A37401F000000090E6A5740103
:0627C800F07B01022684F3
:0E27CE00C0021208FA00120932D002EA60318D
:0727DC00E50FC3950BFAE5C0
:0527E30010950CFBE560
:0527E80011950DFCE558
:0527ED0012950EFD8AAB
:0427F2000F8B108CAD
:0427F600118D128AA5
:0427FA000B8B0C8CAD
:0427FE000D8D0E78B7
:0B280200ACE644C0F67582080208072F
:01280D0022A8
:0C280E008582417B007C00C003C00412E6
:0A281A00245AE582D004D003700DAB
:0B2824001207FE78AC760575820002FA
:02282F00080798
:0E283100758204C003C0041207E0D00400C08A
:0B283F00041207FED004D003E50B4597
:04284A000C450D45E7
:03284E000E700207
:022851007C0108
:0A28530090E6F574FFF090E6CEE584
:09285D000EF000000090E6CFE54A
:092866000DF000000090E6D0E541
:09286F000CF000000090E6D1E538
:0C2878000BF0C003C0041222F3D004D007
:0A2884000390E6D1E0FDE541601C81
:0E288E0090E6187410F000000090E6D274017D
:07289C00F0000000EC7031B8
:0728A300F5BB000000802AD4
:0E28AA00C003C004C00512095DD005D004D0E3
:0E28B8000390E61A7408F000000090E6E27447
:0828C60002F0000000EC7006B6
:0628CE0075BB06000000CE
:0E28D400758200C003C004C005120807D005BD
:0428E200D004D0034B
:0328E600EC60069D
:0628E900EB60030229E48C
:0E28EF00C003C004C005120772D005D004D08B
:0728FD0003E4B50A02806646
:052904007401B50A1684
:03290900EB70135D
:0E290C007B01C003C004C0051207FED005D039
:05291A0004D003804B16
:05291F007402B50A423C
:0E292400C003C004C0051207FED005D004D0C9
:0429320003EC70340E
:0529360078ACE670041E
:04293B0078AC7602FC
:04293F00E541600806
:0829430090E6A37401F0800688
:06294B0090E6A57401F006
:08295100000000E5BB20E709CE
:0929590000000090E6F574FFF0A7
:042962007C01800470
:042966007B00807AF8
:05296A00E5BB20E75D64
:0A296F0090E6D1E0FEB505028012EB
:0E297900C003C0041222F3D004D00390E6D1B4
:04298700E0FD8024CB
:03298B00308D216B
:08298E0078AC7606E541600813
:0829960090E6A37401F0800635
:06299E0090E6A57401F0B3
:0B29A4007C0100000090E6F574FFF0DD
:0429AF00E541600599
:0529B300E5AA30E00F71
:0729B800E54160030228E67F
:0829BF00E5AA30E5030228E659
:0529C700D28C0228E69D
:0629CC00EC60030228E6A6
:0429D200E541700962
:0929D60090E6487406F0000000D0
:0529DF007C010228E666
:0E29E400C0031208FA00120932D003EB700192
:0129F20022C2
:0C29F30090E6CEE0FB7C007D007E008BB7
:0529FF00457542007562
:062A040043007544009040
:0E2A0A00E6CFE0FF7A007B008A048F03E4FA37
:082A1800FF4242EA4243EB4297
:052A200044EC4245906A
:0E2A2500E6D0E0FD7E007A008A038E028D0668
:092A3300E4FD4242EE4243EA4296
:052A3C0044EB4245904F
:0C2A4100E6D1E0FCE4FFFAFBE5424204B1
:092A4D00E5434207E5444202E5BD
:092A5600454203E50BC39CFCE5BD
:082A5F000C9FFFE50D9AFAE55A
:062A67000E9BFB8C0B8F9F
:042A6D000C8A0D8B37
:052A71000EE5416004C8
:042A76007A808002E0
:022A7A007A40A0
:0B2A7C0078ACEA46F6758204020807F9
:012A8700222C
:05329E00010200000028
:0532A300010000000025
:0532A800010000000020
:0D2A880090E60174FAF090E6F574FFF0900E
:0A2A95003351E493FA90E6F3F09059
:0A2A9F003352E493FA90E6C3F0907E
:0A2AA9003353E493FA90E6C1F09075
:0A2AB3003354E493FA90E6C2F09069
:0A2ABD003356E493FA90E6C0F0905F
:0D2AC7003357E493FA90E6F4F075AF077A08
:062AD400AD7B328B9A7A03
:0A2ADA00AD7B327B008A9B759DE402
:052AE400759E007A0060
:032AE900BA8000B0
:022AEC00500C8C
:0C2AEE0090E67BE0FB90E67CF00A80EFB5
:0E2AFA0090E67174FFF075B4FF90E672E0FA9A
:0E2B08004480F043B68000000090E6C4E4F084
:0E2B160000000090E6C5E4F090332DE493FA41
:0B2B240090E6C6F090332EE493FA9088
:0A2B2F00E6C7F090332FE493FA900C
:0A2B3900E6C8F0903330E493FA9000
:0A2B4300E6C9F0903331E493FA90F4
:0A2B4D00E6CAF0903332E493FA90E8
:0A2B5700E6CBF0903333E493FA90DC
:0A2B6100E6CCF0903334E493FA90D0
:032B6B00E6CDF0C4
:012B6E002244
:0E32AD0081B90101010101072303020202029F
:0E32BB000200F7F5F5F5F5F5F5F70000000057
:0E32C9000000003F0C8A9A3FA5B53F07210385
:0E32D700030103030500F3F3F2F3F3F1F3F741
:0E32E5003F0000000000003F81913801010110
:0E32F30001070101070202020200F7F5F7F7DA
:0E330100F7F7F7F7000075000000003F81911C
:0E330F00380101010107030305000000000062
:0E331D00F3F1F3F3F3F3F3F700006E0000009A
:02332B00003F61
:0E332D00000000000000000000000000000092
:0E333B00000000000000000000000000000084
:0833490000000000000000007C
:07335100E08000F7FA4E00D6
:072B6F0078AAB602028060A3
:072B760078ABB600028011EC
:0B2B7D001207FE78AC760C7582001287
:062B88000807758201221E
:052B8E0078AAE6701FAB
:062B9300789FE630E3111B
:0B2B99001207FE78AC76037582001274
:062BA40008077582012202
:082BAA00789FE64408F6802440
:052BB20078AAB601083D
:082BB700789FE654F7F6801741
:062BBF00789FE620E311FF
:0B2BC5001207FE78AC76047582001247
:062BD000080775820122D6
:072BD60078AAE624FB403B56
:0A2BDD0078AAE625E026902BE773A6
:072BE700022BF6022BF6029F
:062BEE002C01022C0E0276
:022BF4002C13A0
:0B2BF6001207FE758200120807801B0A
:0D2C010090336275F08012089675820122F2
:052C0E00122C208009DA
:052C1300122F398004BE
:042C1800758200229F
:032C1C00758201BD
:012C1F002292
:072C200075460075470075C1
:092C270048007582081207E01252
:0B2C300007FE758200120807C28090AA
:0E2C3B00E618E4F000000090E61AE4F0000055
:0E2C49000090E6027468F000000090E630E4AF
:0E2C5700F000000090E631E4F090E680E0FD31
:032C650030E7064F
:062C68007D007E028004E5
:042C6E007D407E0027
:052C72008D498E4AAF00
:042C77000FAB10AAE5
:042C7B0011AC128501
:032C7F00494B8539
:032C82004A4C7544
:082C85004D00754E00C3EF95F0
:062C8D004BEB954CEA95AB
:062C93004DEC954E502CA3
:052C99008F498B4AADDC
:0C2C9E004A90E63474C04DF00000009035
:072CAA00E635E549F0E4F511
:042CB10008F50975A4
:062CB5004701750F0075D8
:062CBB0010007511007508
:042CC100120080720B
:082CC50090E680E0FD30E7130A
:0E2CCD0090E63474C8F000000090E635E4F0A4
:052CDB00000000801262
:0E2CE00090E63474C0F000000090E6357440B9
:042CEE00F0000000F2
:0A2CF200EFC3954BFFEB954CFBEA96
:082CFC00954DFAEC954EFC8F9A
:042D04000F8B108A97
:042D0800118C128593
:032D0C000F4F85E1
:032D0F00105085DC
:032D1200115185D7
:052D15001252C3EF950E
:062D1A004BEB954CEA951D
:062D20004DEC954E500B36
:042D2600854F088548
:032D2A00500975D8
:042D2D0047018006D4
:042D31008549088543
:022D35004A0949
:0A2D370090E601E0FA4403F0D287B1
:042D4100E5486007FA
:072D4500E5466003022EB712
:072D4C00120772E50A602E78
:052D53007401B50A0C3B
:042D5800E5467008D4
:082D5C001207FE754601801DFF
:052D64007402B50A1223
:072D69001207FEE54870119E
:0A2D7000C28778AC76027548018036
:012D7A000652
:062D7B00754600022EB7B0
:042D8100E54870BCF5
:052D8500E5AA20E05862
:0E2D8A0090E690E0FA8A037A00EB3395E0FCC5
:082D9800FDE50BC39AF54FE5C0
:052DA0000C9BF550E55D
:052DA5000D9CF551E555
:052DAA000E9DF55285AD
:032DAF004F0B8542
:032DB200500C853D
:032DB500510D8538
:032DB800520E9028
:0C2DBB00E691E0FEE4FFFAFBE54FC39E4A
:0A2DC700FEE5509FFFE5519AFAE582
:062DD100529BFB8E0B8FEC
:042DD7000C8A0D8BCA
:072DDB000E90E6497402F0BE
:0B2DE20090E6A9E0FA20E203022E8E2A
:0E2DED0090E6A5E0FA530270BA3003022E8E73
:042DFB00E547601533
:0C2DFF00AA0990E63474C04AF0000000FD
:092E0B0090E635E508F000000036
:0A2E140090E698E54AF000000090F7
:092E1E00E699E549F00000008589
:032E2700084985D2
:032E2A00094AE56D
:052E2D00084509605C8E
:082E3200AA08AB09E4FCFDE570
:092E3A000FC39AFAE5109BFBE5B9
:082E4300119CFCE5129DFD8AC3
:042E4B000F8B108C4D
:042E4F00118D12854A
:032E53000F4F8599
:032E560010508594
:032E59001151858F
:032E5C001252907F
:072E5F00E680E0FE30E7060B
:062E66007E007F028004E3
:042E6C007E407F0025
:0B2E7000EF3395E0FAFBC3E54F9EE551
:062E7B00509FE5519AE5AD
:042E8100529B500907
:042E8500850F088528
:032E8900100975B8
:022E8C004701FC
:072E8E00E549454A6003021B
:022E95002D41CD
:0B2E970090E6A7E0FA20E203022D41C4
:052EA200E50B450C45A5
:062EA7000D450E60030260
:022EAD002D41B5
:082EAF00754801C287022D41A4
:0E2EB700C28790E601E054FEF0E0FA4402F01B
:072EC5001208FA120932E5C0
:032ECC00466067F6
:052ECF0078ACE6705C28
:072ED40090E6ACE0FA70117A
:072EDB0090E6ABE0FA700A7B
:052EE200E50B450C4565
:052EE7000D450E602600
:062EEC00E549454A6006BD
:062EF20078AC760A80387E
:072EF80090E6B0E0FA70075C
:072EFF0090E6AFE0FA600667
:062F060078AC760B80247C
:062F0C0078AC7607801E80
:062F1200E549454A600696
:062F180078AC760880127F
:072F1E0090E6AFE0FA700736
:072F250090E6B0E0FA600441
:042F2C0078AC7609FE
:062F300075820012080783
:022F3600D28047
:012F38002276
:0D2F39007A007B007C00C002C003C00412BF
:0E2F460007FE758200120807D004D003D002E7
:0E2F5400C28090E6187410F000000090E61A9B
:0D2F62007408F0000000C002C003C004129B
:0E2F6F00095DD004D003D00290E60274E8F0B1
:0E2F7D0000000090E601E0FD4403F0D28790D2
:0C2F8B00E630E4F000000090E631E4F0D5
:032F9700EA6003EA
:032F9A00EB706376
:0E2F9D00C002C003C004120772D004D003D0DB
:052FAB0002E50A603C94
:052FB0007401B50A16D2
:032FB500EA7013AC
:0E2FB8007A01C002C003C0041207FED004D08C
:052FC60003D002802190
:052FCB007402B50A18B4
:0E2FD000C002C003C0041207FED004D003D01C
:042FDE0002EB700A88
:062FE2007C017B0180046C
:042FE8007A008014D7
:032FEC00EB70A8DF
:032FEF00EA60A5F0
:082FF20090E6A7E0FD30E29D2E
:062FFA007B01C2878097F5
:0E300000C28790E601E054FEF0E0FB4402F0CF
:0D300E00C002C0041208FAD00400C0041271
:09301B000932D004D002EA601B66
:03302400EC70123B
:0730270090E6ABE0FA700730
:07302E0090E6ACE0FA60043B
:0430350078AC7607F6
:0630390075820012080779
:02303F00D2803D
:01304100226C
:0533580001020000006D
:05335D0001000000006A
:05336200010000000065
:073042001207FE750B01757A
:063049000C00750D00757E
:08304F000E007582040208075F
:0A3057007582011207E01207FEE582
:033061000B600AF7
:0A30640078AC760C758200020807B4
:0B306E00758210120857750810E4F579
:01307900094D
:0A307A0090E67CE4F0150874FFB541
:043084000802150920
:06308800E508450970ECAB
:03308E0002087BBA
:0A3091007582011207E01207FEE548
:03309B000B600ABD
:0A309E0078AC760C7582000208077A
:0B30A800758220120857750810E4F52F
:0430B300097AC07B5B
:0930B700E78A828B83A3A3751341
:0330C0007675140E
:0530C30033120AB60201
:0230C800087B83
:0A30CA007582011207E01207FEE50F
:0330D4000B600A84
:0A30D70078AC760C75820002080741
:0B30E100758214120857750810E4F502
:0130EC0009DA
:0A30ED0090E67CE4F0150874FFB5CE
:0430F70008021509AD
:0630FB00E508450970EC38
:06310100750B0120B5066C
:063107007402450BF50BFC
:0C310D0090E67CE50BF0E4F0E4F0E4F068
:0331190002087B2E
:0533670001020000005E
:05336C0001000000005B
:05337100010000000056
:0E337600504F57455220474F4F440000000073
:0233840000FD4A
:0EE1000012010002000000404314070000005E
:04E10E000102000109
:0AE112000A060002000000400100B0
:0EE11C0009022E0001010080FA09040000042F
:0EE12A00FF000000070501024000000705810C
:0EE138000240000007050202000200070586F3
:04E1460002000200D1
:0EE14A0009022E0001010080FA090400000401
:0EE15800FF00000007050102400000070581DE
:0EE16600024000000705020240000007058687
:04E174000240000065
:02E178000000A5
:093F00000205A8000205DC000224
:083F090005C60002064000029B
:083F110005F20002065E000249
:083F190006B8000206B8000220
:083F210006B8000206B8000218
:083F290006B8000206B8000210
:083F310006B8000206B8000208
:083F390006B8000206B8000200
:083F410006B8000206B80002F8
:083F490006B8000206B80002F0
:083F510006B8000206B80002E8
:083F590006B8000206B80002E0
:083F610006B8000206B80002D8
:083F690006B8000206B80002D0
:083F710006B8000206B80002C8
:083F790006B8000206B80002C0
:083F810006B8000206B80002B8
:083F890006B8000206B80002B0
:083F910006B8000206B80002A8
:083F990006B8000206B80002A0
:083FA10006B8000206B8000298
:083FA90006B8000206B8000290
:073FB10006B8000206B8008B
:08311C00FB7A20E4FCFDFEFF3C
:0E312400E5822582F582E58333F583E5F033FD
:0B313200F5F0EB33FB4017DAE98042B8
:0E313D00E5822582F582E58333F583E5F033E4
:05314B00F5F0EB33FB81
:0E315000EC33FCED33FDEE33FEEF33FFEC9578
:06315E0053ED9554EE95BF
:0831640055EF95564013EC9560
:08316C0053FCED9554FDEE95B6
:0931740055FEEF9556FF43820160
:02317D00DABEB8
:02317F00EB2241
:06009C00E478FFF6D8FD38
:08007A007900E94400601B7AE3
:050082000090338678B8
:030087000075A061
:0A008A00E0E493F2A308B8000205B9
:08009400A0D9F4DAF275A0FF17
:0E31810020F71030F6118883A88220F507F69B
:05318F00A88375830018
:013194002218
:03319500F280F7CE
:02319800F02223
:0C319A00AAF0FBE5828553F0A4FCADF028
:0C31A600E5838553F0A42DFDE435F0FE18
:0C31B200E5828554F0A42DFDE5F03EFE02
:0C31BE00E433FFEA8553F0A42EFEE5F098
:0C31CA003FFFE5838554F0A42EFEE5F0E5
:0C31D6003FFFE5828555F0A42EFEE5F0D9
:0B31E2003FFFEB8553F0A42FFFEA85B0
:0A31ED0054F0A42FFFE5838555F090
:0C31F700A42FFFE5828556F0A42F8EF077
:053203008D838C822286
:0400A20075A00078CD
:0700A60000E8440060077947
:0600AD0000E4F309D8FC99
:0800B3007800E84400600C79BC
:0B00BB000090E000E4F0A3D8FCD9FAAC
:02006B00E4733C
:03006D0075815644
:0A007000123224E5826003020066EC
:0E32080020F71430F6148883A88220F507E61C
:06321600A883758300226D
:03321C00E280F756
:03321F00E4932213
:02322200E022A8
:04322400758200228D
:00000001FF
