:0400000002006D325B
:01000B0032C2
:0100130032BA
:01001B0032B2
:0100230032AA
:01002B0032A2
:030033000206B30F
:01003B003292
:03004300023F0079
:01004B003282
:03005300023F0069
:01005B003272
:030063000206B7DB
:0300E400020066B1
:050066001200E780FE1E
:0900E700788176007880760090A3
:0E00F000E60B7403F000000000000090E60034
:0E00FE007410F075800175B28175900075B3B5
:0E010C00FF75B00075B58090E67AE0FA440108
:0B011A00F090E60174E0F0120271901A
:0E012500E6097403F000000075890100000077
:06013300788276000876D8
:04013900E17884766F
:05013D00120876E178D4
:0501420086761C087622
:04014700E17888765D
:0A014B004A0876E1D2E843D820907C
:0E015500E668E0FA4409F090E65CE0FA443D0A
:0E016300F090E682E4F0D2AF90E680E0FA542D
:05017100F7F0538EF8C9
:080176001201BA789EE6600751
:07017E00120196789E760045
:050185007881E6600630
:06018A0078817600C2B787
:050190001206B780E13A
:010195002247
:0A01960090E680E0FA440AF07A00D7
:0201A000DAFE85
:0E01A20090E65D74FFF090E65F74FFF05391FD
:0901B000EF90E680E0FA54F7F04C
:0101B9002223
:0601BA007880E6700122CE
:0501C000AA08AB09785C
:0901C50096A60208A603788EA696
:0601CE000B08A60C08A6B8
:0501D4000D08A60E78E5
:0501D90092A60F08A62C
:0601DE001008A61108A69E
:0601E400127898A69B783A
:0801EA0099A69A789AA69E7866
:0A01F2009BA69D1202F3E58270083F
:0801FC0090E6A0E0FA4401F0D6
:0C02040090E6A0E0FA4480F078807600DC
:06021000789686080886BE
:0A02160009788E8602088603088628
:09022000040886058A0B8B0C8C86
:040229000D8D0E78B1
:0C022D00928602088603088604088605F5
:050239008A0F8B108C00
:04023E00118D127894
:0802420098869B7899869A7852
:07024A009A869E789B869DB9
:01025100228A
:0E02520090E6837401F07421F07411F07431A1
:0E026000F090E6837402F07422F07416F074CD
:02026E0036F068
:01027000226B
:0E02710090E610E4F000000090E611E4F000CA
:0E027F00000090E612E4F000000090E613E4A8
:0D028D00F000000090E614E4F00000009086
:0E029A00E615E4F000000090E618E4F0000025
:0E02A8000090E619E4F000000090E61AE4F081
:0E02B60000000090E61BE4F000000090E6104F
:0E02C40074A0F000000090E61174A0F000009D
:0E02D2000090E61274A0F000000090E6147494
:0E02E000E0F000000090E68DE4F00000001257
:0502EE0009310208F9CE
:0C02F30090E6B9E0FA24F450030205A0E4
:0702FF00EA2A2A90030673AE
:070306000203ED020477027F
:06030D0005A00205250217
:0603130005A00205A00296
:06031900032A0205A00208
:06031F0003D80203C60230
:05032500039F0203B478
:0A032A0090E6BBE0FABA0102800F72
:05033400BA0202802066
:05033900BA060280314C
:05033E00BA075A8042DD
:09034300788290E6B308E6F07838
:0B034C008286027B0090E6B4EAF0021B
:0203570005A3FC
:09035900788A90E6B308E6F0781A
:0B0362008A86027B0090E6B4EAF002FD
:02036D0005A3E6
:09036F00788490E6B308E6F0780A
:0B0378008486027B0090E6B4EAF002ED
:0203830005A3D0
:09038500788C90E6B308E6F078EC
:0B038E008C86027B0090E6B4EAF002CF
:0203990005A3BA
:04039B007582002245
:08039F0090E740789DE6F09024
:0B03A700E68AE4F090E68B7401F0029F
:0203B20005A3A1
:0A03B40090E6BAE0FA789DA6021266
:0603BE000271120252025E
:0203C40005A38F
:0A03C60090E6BAE0FA789CA6021255
:0603D0000271120252024C
:0203D60005A37D
:0803D80090E740789CE6F090EC
:0B03E000E68AE4F090E68B7401F00266
:0203EB0005A368
:0A03ED0090E6B8E0FABA8002800A38
:0503F700BA8102801B29
:0503FC00BA8274802CA0
:0A04010090E740E4F090E741F0902E
:0A040B00E68AF090E68B7402F0021E
:0204150005A33D
:0A04170090E740E4F090E741F09018
:0A042100E68AF090E68B7402F00208
:02042B0005A327
:0E042D0090E6BCE0FA53027E90E6BCE0FBC312
:0E043B0074809BE433FB4A90312493FA33958E
:0E044900E0FB74A12AFA74E63BFB8A828B83E7
:0E045700E0FA53020190E740EAF090E741E43A
:0C046500F090E68AF090E68B7402F00242
:0204710005A3E1
:04047300758200226C
:0704770090E6B8E0FA60080E
:05047E00BA0202801229
:030483000205214E
:0B04860090E6BAE0FABA01030205A3F9
:04049100758200224E
:0904950090E6BAE0600302051DC7
:0E049E0090E6BCE0FA53027E90E6BCE0FBC3A1
:0E04AC0074809BE433FB4A90312493FA33951D
:0E04BA00E0FB74A12AFA74E63BFB90E6BCE07E
:0E04C800FC53047E90E6BCE0FDC374809DE40E
:0E04D60033FD4C90312493FC3395E0FD74A16E
:0E04E4002CFC74E63DFD8C828D83E0FC5304FD
:0E04F200FE8A828B83ECF090E6BCE05480FA28
:0E050000C423541FFA90E6BCE0FB740F5B901E
:0D050E00E6832AF090E683E0FA4420F00234
:02051B0005A336
:04051D0075820022C1
:0405210075820022BD
:0705250090E6B8E0FA600562
:05052C00BA026D800E13
:0A05310090E6BAE0FABA0202806810
:04053B0075820022A3
:0E053F0090E6BCE0FA53027E90E6BCE0FBC3FF
:0E054D0074809BE433FB4A90312493FA33957B
:0E055B00E0FB74A12AFA74E63BFB90E6BCE0DC
:0E056900FC53047E90E6BCE0FDC374809DE46C
:0E05770033FD4C90312493FC3395E0FD74A1CC
:0E0585002CFC74E63DFD8C828D83E0FC43046B
:09059300018A828B83ECF08007E1
:04059C007582002242
:0305A000020AE864
:0305A3007582015D
:0105A6002232
:0C05A700C0E0C082C083C00078807601F4
:0905B3005391EF90E65D7401F034
:0905BC00D000D083D082D0E032DF
:0E05C500C0E0C082C0835391EF90E65D7404E5
:0105D300F037
:0705D400D083D082D0E03299
:0E05DB00C0E0C082C0835391EF90E65D7402D1
:0105E900F021
:0705EA00D083D082D0E03283
:0D05F100C0E0C082C083C002C003C000781B
:0A05FE00888602088603788AA602A8
:0C06080008A6038A828B83A37402F0789A
:0A061400868602088603788CA60291
:0E061E0008A6038A828B83A37407F05391EF22
:06062C0090E65D7410F081
:0D063200D000D003D002D083D082D0E032BF
:0C063F00C0E0C082C083C000788176015A
:09064B005391EF90E65D7408F094
:09065400D000D083D082D0E03246
:0D065D00C0E0C082C083C002C003C0009096
:07066A00E680E0FA30E72C06
:0A06710078868602088603788AA6C0
:0D067B000208A6038A828B83A37402F07824
:0A068800888602088603788CA6021B
:0B06920008A6038A828B83A37407F084
:09069D005391EF90E65D7420F02A
:0D06A600D000D003D002D083D082D0E0324B
:0306B30053D8EF2A
:0106B6003211
:05311500010200008032
:05311A0001000000802F
:05311F0001000000802A
:0A3124000001020203030404050584
:0A00C600789E7600789FE4F608F6B5
:0C00D00008F608F678A3E4F608F608F637
:0800DC0008F678A7E4F608F627
:0706B700120709E58260143F
:0706BE001206D3E582700D66
:0B06C5001207FD78AC76017582000280
:0206D00008061A
:0106D2002205
:0706D30078A9E624FA402B90
:0A06DA0078A9E625E0269006E473F7
:0706E4000206F60206F9020E
:0606EB0006FC02070502F7
:0506F10006FF020702F4
:0306F60002099165
:0306F9000209F5FE
:0306FC0002163AA9
:0306FF000222C80C
:03070200022B3691
:03070500758200FA
:0107080022CE
:05070900E5BA30E10437
:04070E0075820022CE
:0707120078AC76007A807BD1
:06071900E78B9A7A807B59
:0C071F00E77B008A9B90E67BE0FA7B0001
:05072B000ABA00010BF9
:0E07300090E68DE0FC7D00EAB50406EBB50511
:03073E0002801125
:0B0741001207FD78AC760175820012F3
:06074C0008067582002280
:0A07520090E67BE0FA78A9A6029079
:09075C00E67BE0FA78AAA60290FF
:0B076500E67BE0FA78ABA6027582018B
:010770002266
:080771001201BAE5BA30E104FF
:04077900750A0022DB
:0C077D0090E780E0FA7B000ABA00010B54
:0E07890090E68DE0FC7D00EAB50406EBB505B8
:03079700028011CC
:0B079A001207FD78AC7601758200129A
:0607A5000806750AFF22A0
:0B07AB0090E781E0FA78A9E6B50213A0
:0C07B60090E782E0FA78AA748046FBEA23
:0307C200B5030478
:0407C500750A01228E
:0607C90090E781E0700CD6
:0807CF0090E782E0FABA02048F
:0407D700750A02227B
:0307DB00750AFF9D
:0107DE0022F8
:0807DF00AA827B0B7C007D4027
:0E07E70090E67BE0FE8B828C838DF012306EEC
:0707F500A3AB82AC83DAEB39
:0107FC0022DA
:0807FD0090E68DE4F00000001D
:0108050022D0
:07080600AA82E5BA30E2010D
:01080D0022C8
:07080E007BC07CE78C9D7BA1
:08081500C07CE77C008B9E9083
:08081D00E67CEA04F078AC90DF
:07082500E67CE6F07B0B7C92
:05082C00007D408A067A
:03083100EE60175F
:0E0834008B828C838DF01230F5FFA3AB82AC6B
:090842008390E67CEFF01E80E6D5
:0A084B0090E68F74022AF00000000E
:010855002280
:07085600AA82E5BA30E201BD
:01085D002278
:07085E007BC07CE78C9D7B51
:08086500C07CE77C008B9E9033
:08086D00E67CEA04F078AC908F
:04087500E67CE6F047
:01087900225C
:05087A00E5BA30E201C7
:01087F002256
:0808800090E7C178ACE6F090AE
:0C088800E7C0E0FA90E68F04F0000000EA
:010894002241
:0E089500AA82AB83ACF090E67BE0FDC002C00F
:0E08A30003C004C0051207FDD005D004D00329
:0708B100D002E5BA30E201BC
:0108B800221D
:0708B9007EC07FE78F9D7EEA
:0808C000C07FE77F008E9E90CF
:0C08C800E67CED04F090E67CE4F08D0688
:0308D400EE6017BC
:0E08D7008A828B838CF01230F5FFA3AA82ABCD
:0908E5008390E67CEFF01E80E632
:0A08EE0090E68F74022DF000000068
:0108F80022DD
:0E08F90090E618E4F000000090E6047480F031
:0E09070000000090E6047402F00000007A0484
:0B09150090E6497482F0000000DAF563
:0E09200090E604E4F000000090E6A3E4F0008E
:02092E000000C7
:0109300022A4
:0E09310090E61AE4F000000090E6047480F0F6
:0D093F0000000090E6047406F00000009037
:0E094C00E604E4F000000090E6A5E4F00000F0
:01095A00009C
:01095B002279
:08095C0090E680E0FA30E706A6
:060964007A007B02800412
:04096A007A407B0054
:0E096E0090E624EBF000000090E680E0FA3006
:02097C00E7068C
:06097E007A007B028004F8
:040984007A407B003A
:0809880090E625EAF0000000F2
:010990002244
:0709910078AAB602028007FC
:0709980078AAB603508005A8
:05099F001207FD804D70
:0A09A4007582041207DF1207FDE55B
:0809AE000BF4FAE50CF4FBE583
:0A09B6000DF4FCE50EF4FD747B2A3D
:0C09C000FAE43BFBE43CFCE43DFD8A0B48
:0509CC008B0C8C0D8D69
:0509D1000E1217A778CB
:0C09D6009FE4F608F608F608F612093156
:0B09E2001208F9758204120806800458
:0409ED0075820022ED
:0309F1007582010B
:0109F40022E0
:0709F50078AAB6020280237C
:0709FC0078AAB60302803364
:070A030078AAB60402803955
:070A0A0078AAB60902803F43
:070A110078AAB60A02804F2B
:070A180078AAB60B54804DD3
:070A1F001207FD750B1175B4
:060A26000C00750D0075C7
:0A0A2C000E00758204120806803FD8
:0D0A36001207FDD2B775820012080680324B
:0D0A43001207FDC2B775820012080680255B
:070A50001207FD750B007594
:060A57000C20750D007576
:0A0A5D000E00758204120806800ED8
:050A6700121475800966
:050A6C001212278004B6
:040A71007582002268
:030A750075820186
:010A7800225B
:0A0A7900AA82AB83E508450970016D
:010A83002250
:070A8400AC14BCE602800582
:050A8B008B05BDE63102
:080A90008A068B07AC13AD14BC
:0E0A98008E028F038C828D83E0F88A828B831E
:060AA600F00EBE00010F7E
:050AAC000CBC00010D6F
:080AB100150874FFB5080215D9
:010AB9000933
:060ABA00E508450970D8B3
:010AC0002213
:0C0AC1008C9AAC137E008C9B8D9D7B00FA
:050ACD008A9E020AD31D
:010AD2002201
:080AD300A90890E67B0586905E
:040ADB00E67C05862A
:080ADF00E00586F00586D9F858
:010AE70022EC
:0A0AE80090E6B9E0FABAA202804AD3
:050AF200BAA3028045DB
:060AF700BAE103020DBD8F
:060AFD00BAE203020D9DA8
:060B0300BAE303020D9DA0
:060B0900BAE403020D7DB9
:060B0F00BAE503020D7DB2
:060B1500BAE603020C88A1
:060B1B00BAE703020CB56D
:060B2100BAE803020CFD1E
:060B2700BAE903020D5DB6
:060B2D00BAEA03020D2CE0
:060B3300BAEB03020DDD28
:030B3900020DFDAD
:0B0B3C0090E6BAE0FAA3E0FB8A0B8B06
:0A0B47000C90E6BEE0FAA3E0FB907C
:090B5100E6B8E0FCBCC002800320
:030B5A00020BED9E
:070B5D00EA4B7003020E01D8
:080B640090E6A0E0FC20E1F89E
:080B6C0090E6B9E0FCBCA21107
:0A0B7400750D00750E00C002C003ED
:070B7E0012109BD003D0020E
:090B8500C3EA9440EB9400500611
:060B8E008A0D8B0E8006AB
:060B9400750D40750E0016
:080B9A0090E6B9E0FCBCA20DDD
:0D0BA200C002C003120FEED003D002801A73
:040BAF00850D088523
:030BB3000E099098
:040BB600E740850B84
:030BBA0013850C94
:0C0BBD0014C002C003120A79D003D00259
:080BC90090E68AE4F0AC0DADEA
:080BD1000E90E68BECF0EC2520
:070BD9000BFEED350CFF8E51
:0A0BE0000B8F0CEAC39CFAEB9DFB9F
:030BEA00020B5D9E
:0A0BED0078A7E608467003020C84A6
:0C0BF70090E6BCE0FCA3E0FD78A7E6B5AA
:090C0300040708E6B505028002B1
:020C0C008076F0
:080C0E0090E6B8E0FCBC406E6A
:070C1600EA4B7003020E011E
:090C1D0090E68AE4F090E68BF009
:080C260090E6A0E0FC20E1F8DB
:0A0C2E0090E68BE0FC7D008C0D8D3C
:090C38000E90E6B9E0FCBCA31F1C
:040C4100850D088590
:030C45000E098510
:060C48000B82850C837590
:030C4E00134075DB
:070C510014E7C002C003120A
:080C58000A79D003D002800BE1
:0B0C6000C002C00312109BD003D002A2
:060C6B00AC0DAD0EEC25FE
:070C71000BFEED350CFF8EB8
:0A0C78000B8F0CEAC39CFAEB9DFB06
:020C820080925E
:040C84007582002253
:0A0C880090E6B8E0FABAC00280035B
:030C9200020E014E
:080C950090E6A0E0FA20E1F86E
:0E0C9D0090E740740AF0A37403F090E68AE436
:0A0CAB00F090E68B7402F0020E01D7
:0A0CB50090E6B8E0FABAC00280032E
:030CBF00020E0121
:080CC20090E6A0E0FA20E1F841
:0E0CCA0090E740E4F0A3F0A3F0A3F090E7441D
:0E0CD80075F000740D12306EA3E412306EA39E
:0A0CE600E412306EA3E412306E90A9
:0B0CF000E68AE4F090E68B7408F00246
:020CFB000E01E8
:080CFD0090E6B8E0FABA4023CA
:090D050090E68AE4F090E68BF020
:080D0E0090E6A0E0FA20E1F8F4
:0C0D160090E740E0FAA3E0FB78A7A602FB
:060D220008A603020E0109
:040D280075820022AE
:080D2C0090E6B8E0FABA402598
:070D340078A7E60846601EE7
:0C0D3B0090E6BCE0FAA3E0FB78A7E6B568
:090D4700020708E6B50302800270
:020D500080071A
:070D5200789E7601020E01FC
:040D5900758200227D
:070D5D00750BF0750C3F75EA
:060D64000D04750E007580
:060D6A000FCD7510AB90E7
:070D7000E6B8E0FABAC00387
:030D7700020E0564
:030D7A00020F1E47
:070D7D00750BE0750C3F75DA
:060D84000D0C750E007558
:060D8A000F787510569071
:070D9000E6B9E0FABAE40342
:030D9700020E0544
:030D9A00020F1E27
:070D9D00750BC0750C3F75DA
:060DA4000D10750E007534
:060DAA000FCD7510AB90A7
:070DB000E6B9E0FABAE20324
:030DB700020E0524
:030DBA00020F1E07
:070DBD00750BA0750C3F75DA
:060DC4000D1C750E007508
:060DCA000FCD7510AB9087
:070DD000E6B8E0FABAC00327
:030DD700020E0504
:030DDA00020F1EE7
:070DDD00750BF8750C3F7562
:060DE4000D02750E007502
:060DEA000FCD7510AB9067
:070DF000E6B8E0FABAC00307
:030DF700020E05E4
:030DFA00020F1EC7
:040DFD0075820022D9
:030E0100758201F6
:010E040022CB
:0C0E05007AFF90E6B8E0FBBBC00280045E
:040E110075820022C4
:050E1500AB0DAC0E75F1
:0A0E1A000D00750E00C002C003C0F9
:0E0E24000412109BD004D003D00274032BFBE9
:0A0E3200E43CFC8B0D8C0EC0021294
:0A0E3C000FEED002E50D24FDFBE5EA
:070E46000E34FFFC8B0D8C44
:0B0E4D000E90E740E0FBA3E0FCEBB5DB
:060E58000F48ECB5104448
:040E5E007A007B009B
:0A0E62007403250DFCE4350EFD8B32
:0A0E6C00067F00C3EE9CEF9D502CA2
:0A0E7600EB2440F582E434E7F58335
:0A0E8000E0FC2AFAEB2440FCE43405
:0A0E8A00E7FD74022B2440F582E41A
:0C0E940034E7F583E0FE8C828D83F00BC8
:020EA00080C010
:030EA200EA60649F
:040EA500850D08852A
:030EA9000E09909F
:090EAC00E6B9E0FABAE102803473
:050EB500BAE202803DDD
:050EBA00BAE40280050E
:050EBF00BAE9438017B1
:020EC4007A00B2
:030EC600BA0C0063
:020EC900503E99
:0A0ECB00EA2440F582E434E7F583E1
:060ED5007430F00A80EB0E
:050EDB0090E7407513D3
:030EE0003D751449
:060EE30031120A798020A3
:050EE90090E7407513C5
:030EEE0041751437
:060EF10031120A798012A3
:050EF70090E7407513B7
:030EFC005D75140D
:060EFF0031120A798004A3
:040F050075820022CF
:0C0F090090E68AE4F000000090E68BE522
:080F15000DF0000000758201DF
:010F1D0022B1
:080F1E0090E6B8E0FABA401CAD
:070F260078A7E608466015FC
:0C0F2D0090E6BCE0FAA3E0FB78A7E6B574
:090F3900020708E6B5030280047A
:040F42007582002292
:090F460090E68AE4F090E68BF0DD
:080F4F0090E6A0E0FA20E1F8B1
:070F570090E68AE0FA701435
:050F5E00AA0DAB0E908E
:0E0F6300E68BE0FC7D00B50206EDB5030280D2
:010F7100047B
:040F72007582002262
:060F76008A15AD158D0681
:060F7C008E071EEF602548
:0C0F8200C002C00374022E2440FFE434BF
:090F8E00E7FCEE2440F582E43496
:0C0F9700E7F583E0FA8F828C83F0D00332
:040FA300D00280D523
:080FA70090E740E50FF0A3E51F
:050FAF0010F07C407E03
:0A0FB400E78E9A759B407C007402E2
:030FBE002515FDF9
:090FC10090E67BE0FE2CFCDDF75C
:0A0FCA00740225152440F582E4347A
:0C0FD400E7F583C3E49CFCF074032AFAE8
:080FE000E43BFB8A0D8B0E12AD
:050FE800109B75820161
:010FED0022E1
:050FEE00E50DFA70049E
:040FF30075820122E0
:080FF70090E678E0FB20E6F82B
:0C0FFF0090E6787480F090E67974A3F01E
:08100B0090E678E0FB30E0F80C
:0810130090E678E0FB20E27496
:08101B0090E678E0FB30E16C87
:03102300BA010807
:0810260090E678E0FB4420F0A5
:07102E0090E679E07B407CB5
:06103500E78C9A7B407C71
:05103B00E77C008B9B27
:04104000DA0280262A
:0810440090E678E0FB30E0F8D3
:08104C0090E678E0FB20E23B96
:03105400BA0108D6
:0810570090E678E0FB4420F074
:0B105F0090E679E0FB90E67BF080D685
:08106A0090E678E0FA30E0F8AE
:0810720090E678E0FA20E21597
:0E107A0090E678E0FA4440F090E679E0FA90D3
:07108800E67BF075820122F6
:0B108F0090E678E0FA4440F075820023
:01109A002233
:02109B00AA0D9C
:08109D0090E678E0FB20E6F884
:0C10A50090E6787480F090E67974A2F078
:0810B10090E678E0FB30E0F866
:0810B90090E678E0FB20E26BF9
:0810C10090E678E0FB30E163EA
:0310C900EA600ECC
:0710CC007B407CE78C9A7B5E
:0710D300407CE77C008B9BD1
:0210DA007B0297
:0310DC00EA7003B4
:0310DF00EB603B88
:0310E200EB6014AC
:0310E500BB020843
:0810E80090E679E50CF08006AA
:0610F00090E679E50BF02B
:0310F6001B800A52
:0A10F90090E67BE0FC90E679F01A27
:0811030090E678E0FC30E0F812
:08110B0090E678E0FC20E219F7
:0811130090E678E0FC20E1C148
:02111B00800F43
:0E111D0090E678E0FA4440F012113875820135
:01112B0022A1
:0B112C0090E678E0FA4440F075820085
:011137002295
:0811380090E678E0FA20E6F8E9
:0E11400090E678E0FA4480F090E67974A2F030
:08114E0090E678E0FA30E0F8C9
:0811560090E678E0FA4440F055
:08115E0090E678E0FA20E6F8C3
:0811660090E678E0FA30E1D2D6
:01116E00225E
:08116F0090E678E0FA4440F03C
:0811770090E678E0FA20E6F8AA
:01117F00224D
:07118000AA8290E679EAF073
:0811870090E678E0FA30E0F890
:08118F0090E678E0FA20E20886
:0811970090E678E0FA20E10780
:07119F0012116F78AC7623FA
:0611A60078ACE6B4010084
:0411AC00E433F582B1
:0111B000221C
:0C11B100AA8290E6787480F0EA2AFAE541
:0B11BD00164AF582121180E5827004D2
:0411C80078AC762267
:0611CC0078ACE6B401005E
:0411D200E433F5828B
:0111D60022F6
:0911D7007516017582510211B177
:0C11E000AA82AB83751600758251C00214
:0D11EC00C0031211B1E582D003D0026011E2
:0E11F9008B82C002C003121180E582D003D0A9
:031207000270046E
:04120A007C008002E2
:02120E007C0161
:03121000EC600B84
:0B1213007B008A82121180E5827004CB
:04121E007A008002D0
:021222007A014F
:021224008A82BC
:0112260022A5
:06122700E4F517F518F5CF
:07122D0008F50975820812A3
:0612340007DF1207FDAC0C
:04123A000FAD10AE36
:0A123E0011AF12C3E49C74209DE47C
:051248009EE49F402818
:04124D00850B19856F
:031251000C1A85EF
:031254000D1B85EA
:041257000E1CEC2558
:08125B0019FCED351AFDEE351A
:0A1263001BFEEF351CFFC3E49C7472
:08126D00209DE49EE49F500A5D
:0A12750078AC7609758200020806C5
:09127F00AC19741C251AFDE435BC
:071288001BFEE4351CFF8C86
:04128F000B8D0C8E29
:041293000D8F0E8528
:061297000B82850C83129E
:06129D0011E0E58270057E
:0512A300F582020806BF
:0A12A80012116F758200120806E5AE
:0412B2000F4510458F
:0512B600114512602843
:0A12BB001211D77401B50F0EE4B54F
:0812C500100AE4B51106E4B5BE
:0412CD001202800287
:0212D100800893
:0812D30090E678E0FC4420F0F5
:0812DB0090E679E0F50A8003BA
:0312E3007518017A
:0412E600E5186007A0
:0712EA00E517600302146721
:0912F100120771E4B50A02803F06
:0512FA007401B50A0CAF
:0412FF00E517700877
:081303007517011207FD802E91
:05130B007402B50A1C8C
:071310001207FDE518702231
:0C13170090E6A57401F0000000751801BC
:0913230078AC760212116F800D06
:04132C00E51870034D
:0313300012116F28
:06133300751700021467AB
:04133900E51870A99A
:05133D00E5AA20E5A473
:071342007C007DF88D9D7C0D
:08134900007DF87D008C9E85FB
:031351000F1D85E8
:03135400101E85E3
:03135700111F85DE
:03135A00122090CE
:07135D00E680E0FA30E7062C
:061364007A007B02800408
:04136A007A407B004A
:0C136E00EB3395E0FCFDC3EA951DEB9508
:06137A001EEC951FED952D
:03138000205014E6
:0813830090E680E0FA30E70675
:06138B007A007B028004E1
:041391007A407B0023
:021395008004D2
:04139700AA0FAB10DE
:04139B008A088B0928
:07139F00E508450970030297
:0213A6001452DF
:0713A800E518600302145276
:0813AF0090E678E0FC30E0F864
:0813B70090E678E0FC30E2183A
:0813BF0078AC7623751801904B
:0C13C700E6A57401F0EAC39508FAEB9566
:0413D30009FB80C8CA
:0A13D7007402B50F0EE4B5100AE42D
:0913E100B51106E4B51202800208
:0213EA00800879
:0813EC0090E678E0FC4420F0DB
:0A13F4007401B50F0EE4B5100AE411
:0913FE00B51106E4B512028002EB
:02140700800B58
:0B140900C002C00312116FD003D0021C
:0A14140090E679E0FC90E67CF0150C
:07141E000874FFB508021578
:0114250009BD
:05142600AC0FAD10AE9B
:0A142B0011AF121CBCFF091DBDFF2C
:06143500051EBEFF011FB1
:05143B008C0F8D108EE6
:0A144000118F12EC4D4E4F600302B5
:02144A00139FEE
:06144C0075180102139F58
:0E14520090E698EBF00000007B0090E699EA2F
:07146000F00000000212E69B
:07146700120931E5176006D0
:06146E0075820002080671
:011474002255
:0714750075210075220075CE
:06147C002301E4F508F570
:08148200097582081207DF1250
:05148A0007FDAD0FAEEF
:04148F0010AF11ACDD
:0C14930012C3E49D74209EE49FE49C4082
:01149F001C30
:0A14A000ED250BFDEE350CFEEF35D7
:0A14AA000DFFEC350EFCC3E49D7449
:0814B400209EE49FE49C500A15
:0A14BC0078AC76097582000208067C
:0B14C600758200120806AC0B741C2598
:0814D1000CFDE4350DFEE435CD
:0514D9000EFF8C0B8DDD
:0414DE000C8E0D8FD4
:0414E2000EE50F45BF
:0414E6001045114557
:0314EA001270037A
:0314ED0075220164
:0414F000E52260078A
:0714F400E52160030216224E
:0914FB00120771E4B50A02803504
:051504007401B50A0CA2
:04150900E521700860
:08150D007521011207FD802485
:051515007402B50A1983
:07151A001207FDE522701825
:0C15210090E6A37401F0000000752201A8
:06152D0078AC7602800696
:06153300752100021622E2
:04153900E52270B384
:05153D00E5AA20E0AE6C
:071542007C007DF08D9A7C16
:08154900007DF07D008C9B90F9
:0E155100E690E0FC8C057C0090E691E0FE7FC9
:08155F00002CF508EF3DF50931
:06156700E5084509608360
:07156D00E52260030214F007
:04157400E523600CFF
:07157800850B82850C831234
:05157F0011E0752300DE
:0515840078ACE6700EDA
:0E15890090E67BE0FCF582121180E582700B8B
:0B15970075220190E6A37401F080C5EE
:0815A200150874FFB5080215DD
:0115AA000937
:0515AB00AC0FAD10AE15
:0715B00011AF12EC24FFF55E
:0A15B70024ED34FFF525EE34FFF5B6
:0715C10026EF34FFF527853A
:0315C800240F8568
:0315CB0025108563
:0315CE002611855E
:0315D1002712AA34
:0415D4000BAB0CACA5
:0A15D8000DAD0E0ABA00090BBB00AE
:0615E200050CBC00010D28
:0515E8008A0B8B0C8C46
:0415ED000D8D0EE56D
:0415F1002445254523
:0515F5002645277003EC
:0315FA0075220156
:0615FD00E5084509700637
:0616030090E6497482F03C
:04160900E52270095D
:06160D00E50B543F6003F1
:0316130002156756
:0716160012116F121138756B
:05161D00230102156726
:04162200E523700646
:0616260012116F121138D1
:07162C001208F9E521600638
:06163300758200020806AA
:01163900228E
:05312E00010200008019
:05313300010000008016
:05313800010000008011
:04313D000B00104033
:0E314100454578706C6F726572000000FDFDF0
:0E314F00FDFDB5D8326574EE1608F064C100BF
:0E315D00454578706C6F726572000000FDFDD4
:02316B00FDFD68
:07163A0078AAB602028060ED
:0716410078ABB60002801136
:0B1648001207FD78AC760C75820012D2
:0616530008067582012269
:0516590078AAE6701FF5
:06165E00789FE630E01168
:0B1664001207FD78AC760375820012BF
:06166F000806758201224D
:08167500789FE64401F6802491
:05167D0078AAB6010887
:08168200789FE654FEF6801784
:06168A00789FE620E0114C
:0B1690001207FD78AC76047582001292
:06169B0008067582012221
:0A16A10078AAE624F4500302179122
:0A16AB0078AAE625E0269016B57334
:0716B5000216D90216E9023A
:0616BC0016F9021791026D
:0616C200170602171F02CB
:0616C800175302178A020D
:0616CE00177C02177C02EC
:0516D400178302177CE2
:0A16D9001217951207FD758200122A
:0616E300080675820122D9
:0A16E9001217A71207FD7582001208
:0616F300080675820122C9
:0D16F90090316D75F0801208957582012208
:071706001207FD750B0075D1
:06170D000C6A750D187551
:0C1713000E007582041208067582012287
:07171F0090E67BE0FA600494
:04172600D2B38002B8
:02172A00C2B348
:07172C0090E67BE0FA600487
:04173300D2B28002AC
:02173700C2B23C
:0717390090E67BE0FA60047A
:04174000D2B480029D
:02174400C2B42D
:0D1746001207FD758200120806758201224F
:0C1753001207FDA2B3E433FA8A0BA2B225
:0B175F00E433FA8A0CA2B0E433FA8AEB
:0A176A000DA2B4E433FA8A0E758272
:0817740004120806758201222F
:07177C00121B6475820122BB
:07178300121F6B75820122A9
:07178A001217B37582012262
:031791007582005E
:011794002232
:0E17950043B50443B50843B510D2B5C2B2D275
:0317A300B3C2B41A
:0117A6002220
:0B17A700C2B553B5E3C2B2D2B3C2B466
:0117B2002214
:05316D000102000080DA
:053172000100000080D7
:053177000100000080D2
:0B17B3007A007B0090E67BE0FC600405
:0417BE00D2B3800220
:0217C200C2B3B0
:0717C40090E67BE0FC6004ED
:0417CB00D2B2800214
:0217CF00C2B2A4
:0E17D100C2B4758204C002C0031207DFD00349
:0E17DF0000C0031207FD758200120806D00339
:0717ED00D002AC0BAD0CAE05
:0417F4000DAF0E8C9B
:0417F8000F8D108EB3
:0917FC00118F12EC4D4E4F7002EA
:021805007B0165
:03180700EB60068D
:06180A00EA60030218B8B9
:0D181000C002C003120771D003D002E4B57E
:04181D000A0280310A
:051821007401B50A0F7F
:0E1826007A01C002C0031207FDD003D0028079
:011834001D96
:051835007402B50A1366
:0B183A007B0178AC7602C002C00312F4
:0818450007FDD003D00280056D
:05184D007A000218B84A
:03185200EB70B286
:05185500AC0BAD0CAE70
:0A185A000DAF0EC3ED94FEEE9400F6
:05186400EF94005006A6
:061869008C088D098006C9
:06186F007508007509FE7A
:08187500AC08AD09E4FEFFE53B
:09187D000BC39CFCE50C9DFDE58C
:081886000D9EFEE50E9FFF8C94
:04188E000B8D0C8E24
:081892000D8F0EC000C001A87B
:04189A0008A9090987
:0E189E00D2B4C2B4D8FAD9F8D001D000EC4DC3
:0718AC004E4F600302180714
:0518B3007B0102180793
:0318B800EA6029BA
:0718BB00E50FC3950BFAE5F0
:0518C20010950CFBE590
:0518C70011950DFCE588
:0518CC0012950EFD8ADB
:0418D1000B8B0C8CE5
:0418D5000D8D0E78EF
:0B18D900ACE64480F6758204020806AD
:0118E40022E1
:0A18E500C001C002A908AA09E960C9
:0218EF00010AEC
:0318F10090E67B03
:0E18F400E01392B2D2B4C2B41392B2D2B4C214
:0E190200B41392B2D2B4C2B41392B2D2B4C231
:0E191000B41392B2D2B4C2B41392B2D2B4C223
:0E191E00B41392B2D2B4C2B41392B2D2B4C215
:09192C00B4D9C5DAC3D002D00120
:01193500228F
:0A193600C001C002A908AA09E96077
:02194000010A9A
:0A19420090E67B058690E67C0586A2
:0E194C00E01392B2A2B013D2B4C2B492B2A20F
:0E195A00B013D2B4C2B492B2A2B013D2B4C2CF
:0E196800B492B2A2B013D2B4C2B492B2A2B082
:0E19760013D2B4C2B492B2A2B013D2B4C2B4AF
:0E19840092B2A2B013D2B4C2B492B2A2B01307
:0E199200D2B4C2B40586F00586D9AFDAADD066
:0319A00002D00171
:0119A3002221
:0A19A400C001C002A908AA09E96009
:0219AE00010A2C
:0319B00090E67C42
:0E19B300A2B0D2B4C2B413A2B0D2B4C2B41364
:0E19C100A2B0D2B4C2B413A2B0D2B4C2B41356
:0E19CF00A2B0D2B4C2B413A2B0D2B4C2B41348
:0E19DD00A2B0D2B4C2B413A2B0D2B4C2B4133A
:0919EB00F0D9C2DAC0D002D0012B
:0119F40022D0
:0A19F500C001C002A908AA09E960B8
:0219FF00010ADB
:031A010090E67BF1
:0E1A0400E01392B3D2B4C2B41392B3D2B4C200
:0E1A1200B41392B3D2B4C2B41392B3D2B4C21E
:0E1A2000B41392B3D2B4C2B41392B3D2B4C210
:0E1A2E00B41392B3D2B4C2B41392B3D2B4C202
:091A3C00B4D9C5DAC3D002D0010F
:011A4500227E
:0A1A4600C001C002A908AA09E96066
:021A5000010A89
:0A1A520090E67B058690E67C058691
:0E1A5C00E01392B3A2B013D2B4C2B492B3A2FC
:0E1A6A00B013D2B4C2B492B3A2B013D2B4C2BD
:0E1A7800B492B3A2B013D2B4C2B492B3A2B06F
:0E1A860013D2B4C2B492B3A2B013D2B4C2B49D
:0E1A940092B3A2B013D2B4C2B492B3A2B013F4
:0E1AA200D2B4C2B40586F00586D9AFDAADD055
:031AB00002D00160
:011AB3002210
:0A1AB400C001C002A908AA09E960F8
:021ABE00010A1B
:031AC00090E67B32
:0E1AC300E01392B21392B3D2B4C2B41392B233
:0E1AD1001392B3D2B4C2B41392B21392B3D232
:0E1ADF00B4C2B41392B21392B3D2B4C2B4D94B
:071AED00D5DAD3D002D001CD
:011AF40022CF
:0A1AF500C001C002A908AA09E960B7
:021AFF00010ADA
:0A1B010090E67B058690E67C0586E1
:021B0B007C025A
:0E1B0D00E01392B21392B3FBE8A2B013F8EB10
:0E1B1B00D2B4C2B41392B21392B3FBE8A2B0DC
:0E1B290013F8EBD2B4C2B41392B21392B3FB12
:0E1B3700E8A2B013F8EBD2B4C2B41392B2130A
:0E1B450092B3FBE8A2B013F8EBD2B4C2B4DC4A
:0E1B5300B9E80586F0058619D9AEDAACD002E5
:021B6100D001B1
:011B6300225F
:071B6400752900752B0075C7
:071B6B002C0078AAB6082A3D
:081B720075290190E67BE0F506
:081B7A002890E67BE0FE600408
:041B8200D2B3800258
:021B8600C2B3E8
:041B8800E5286008E4
:041B8C00752D367508
:041B90002E19805A30
:041B9400752DE57551
:041B98002E18805231
:051B9C0078AAB609253E
:0A1BA10075280190E67BE0FC60046B
:041BAB00D2B380022F
:021BAF00C2B3BF
:071BB10090E67BE0FC6004FC
:041BB800D2B2800223
:021BBC00C2B2B3
:041BBE00752DA47568
:041BC2002E19802830
:081BC60075290190E67BE0F5B2
:081BCE002890E67BE0FC6004B6
:041BD600D2B2800205
:021BDA00C2B295
:041BDC00E528600890
:041BE000752D4675A4
:041BE4002E1A80062F
:041BE800752DF575ED
:021BEC002E19B0
:0D1BEE007582041207DF1207FD75820012D8
:041BFB000806850B48
:031BFF002F850C23
:031C020030850D1D
:031C050031850E18
:031C080032852FF3
:031C0B000F853012
:031C0E001085310D
:031C110011853208
:0A1C1400127407552FFD7A007B00C3
:071C1E007C008D2AAA2FE5CE
:0C1C250030C423CAC423541F6ACA541FD1
:0C1C3100CA6ACAFBE531C42354E04BFB37
:0A1C3D00AC31E532C423CCC42354BB
:0C1C47001F6CCC541FCC6CCCFE8A0B8BA5
:041C53000C8C0D8E5A
:051C57000EE52A601DEE
:051C5C00AA0BAB0CAC6B
:0A1C61000DAE0E0ABA00090BBB001D
:061C6B00050CBC00010E97
:051C71008A0B8B0C8CB6
:031C76000D8E0EC2
:051C7900E50F451045D8
:051C7E00114512700386
:031C8300752B01BD
:021C8600C2B4E6
:041C8800E52B6007E1
:071C8C00E52C6003021E7E3F
:071C9300120771E50A602C45
:051C9A007401B50A0C05
:041C9F00E52C7008B8
:081CA300752C011207FD801BE6
:051CAB007402B50A10EF
:071CB0001207FDE52B700F88
:091CB70078AC7602752B01800661
:061CC000752C00021E7EDF
:041CC600E5296005A7
:051CCA00E5AA20E0B9CD
:041CCF00E52860059F
:051CD300E5AA20E5B0C8
:041CD800E52B70ACDC
:041CDC00E529600E88
:071CE0007A007BF08B9A7A79
:071CE700007BF07B008A9BEB
:041CEE00E528600E77
:071CF2007A007BF88B9D7A5C
:071CF900007BF87B008A9ECE
:041D0000E529601958
:0E1D040090E690E0FA8A037A0090E691E0FC07
:0A1D12007E004AF508EE4BF509804B
:011D1C005472
:041D1D00850B33857A
:031D21000C3485FA
:031D24000D3585F5
:031D27000E3690E5
:071D2A00E680E0FF30E70650
:061D31007A007B02800431
:041D37007A407B0073
:0C1D3B008A07EBFD3395E0FAFBC3EF953F
:061D470033ED9534EA952E
:061D4D0035EB953650183D
:081D530090E680E0FA30E7069B
:061D5B007A007B02800407
:041D61007A407B0049
:061D65008A088B098006CC
:041D6B00853308852F
:021D6F00340935
:081D7100AA08AB09E4FCFDE542
:091D79000BC39AFAE50C9BFBE593
:081D82000D9CFCE50E9DFD8A9D
:041D8A000B8B0C8C27
:041D8E000D8D0EE5C4
:031D92002A6013B1
:051D9500E50B450C45C3
:051D9A000D450E70096B
:081D9F00150874FFB5080215D8
:011DA7000932
:061DA800E5084509600991
:071DAE00852D82852E8312B2
:021DB500006BC1
:071DB700E52A7003021E483B
:051DBE00E50B450C459A
:061DC3000D450E60030255
:021DC9001E48B2
:061DCB00AA2AE529700BB5
:031DD10030B20429
:041DD4007BFF80020F
:021DD8007B008E
:021DDA00800582
:051DDC0090E67BE0FB36
:051DE10078AAB60B1DFD
:021DE6008A046D
:0B1DE800EBA2E092B3C313FB30B00588
:051DF3004303808003A2
:031DF80053037F13
:061DFB00D2B4C2B4DCE723
:021E0100801946
:0B1E0300EBA2E092B2C313FB30B0056D
:051E0E00430380800386
:031E130053037FF7
:061E1600D2B4C2B4DAE709
:041E1C00E528601D38
:0C1E2000AD2A7A007408C39DFDE49AFA14
:071E2C008DF005F0EB8002D0
:021E3300C313D7
:081E3500D5F0FBFB90E67CF008
:071E3D00752A000508E4B559
:041E44000802050982
:041E4800E52960091F
:091E4C0090E6497482F0000000E8
:041E5500E52860120A
:0A1E590090E698E509F00000009003
:081E6300E699E508F00000001B
:051E6B00E50B450C45EC
:061E70000D450E600302A7
:021E76001C88C6
:061E7800752B01021C881D
:071E7E001208F9120931E519
:041E85002C7001229A
:041E8900E52A601DC9
:051E8D00AA0BAB0CAC38
:0A1E92000DAD0E1ABAFF091BBBFFCD
:061E9C00051CBCFF011D46
:051EA2008A0B8B0C8C83
:031EA7000D8D0E90
:041EAA00850D35E588
:0A1EAE000EC40354F8C535C403C583
:041EB800356535C592
:061EBC003554F8C5356540
:041EC20035F536E5D7
:081EC6000CC40354074535F577
:031ECE0035850B4C
:081ED10033E50CC40354F8C50D
:061ED90033C403C53365AC
:061EDF0033C53354F8C5C1
:041EE500336533F539
:031EE9003485330A
:031EEC000B85342F
:031EEF000C85352A
:031EF2000D853625
:091EF5000EAE2AE4FFFAFBEE2513
:081EFE0033FEEF3534FFEA3535
:071F060035FAEB3536FB8EC6
:041F0D000B8F0C8AA0
:041F11000D8B0EE541
:091F15000FC39EFEE5109FFFE5DD
:081F1E00119AFAE5129BFB8EFB
:041F26000F8F108A7F
:041F2A00118B128E77
:041F2E000B8F0C8A7F
:041F32000D8B0EE520
:031F36002960041B
:041F39007A80800228
:021F3D007A0028
:041F3F00E52860042D
:041F43007B4080025D
:021F47007B001D
:0A1F4900EB4A78AC46F6E529600487
:041F53007A0480028A
:021F57007A000E
:041F5900E528600413
:041F5D007B0480027F
:021F61007B0003
:071F6300EB2AF582020806DB
:011F6A002254
:071F6B00753800753900759F
:071F72003A0090E67BE0F568
:081F7900377582041207DF1224
:091F810007FD75820012080685B7
:031F8A000B3D8587
:031F8D000C3E8582
:031F90000D3F857D
:031F93000E408578
:031F96003D0F8577
:031F99003E108572
:031F9C003F11856D
:031F9F004012E508
:041FA2003D453E4536
:051FA6003F45407003FF
:031FAB0075390184
:0C1FAE007407553DFAE4FDFBFC740325AC
:081FBA003DFBE4353EFCE4357B
:071FC2003FFDE43540FE8BFA
:041FC9000B8C0C8DE4
:0A1FCD000DEEF50EC313FEED13FD3B
:0E1FD700EC13FCEB13FBEEC313FEED13FDEC5D
:0A1FE50013FCEB13FB8B0B8C0C8D2F
:041FEF000D8E0EE560
:031FF3003760084C
:041FF600753BF575CD
:041FFA003C1A800607
:041FFE00753BB47506
:022002003C1A86
:02200400C2B464
:04200600E539600751
:07200A00E53A600302220722
:0B201100C002120771D002E50A603423
:05201C007401B50A107B
:04202100E53A700C20
:0C202500753A01C0021207FDD002801FB6
:052031007402B50A1461
:0B203600C0021207FDD002E539700F58
:0920410078AC76027539018006C5
:06204A00753A00022207B6
:05205000E5AA20E0B14B
:04205500E537600506
:05205900E5AA20E5A846
:04205E00E53970A44C
:072062007D007EF08E9A7DE7
:08206900007EF07E008D9BE576
:03207100376012C3
:04207400E538700ECD
:072078007D007EF88E9D7DC6
:07207F00007EF87E008D9E3B
:0E20860090E690E0FD8D067D0090E691E0FF73
:0A2094007B002DF508EB3EF509ABCB
:07209E0008AC09E4FDFEE5BA
:0920A5000BC39BFBE50C9CFCE560
:0820AE000D9DFDE50E9EFE8B69
:0420B6000B8C0C8DF6
:0620BA000D8E0EEA602C01
:0520C000E50B450C4595
:0520C5000D450E702224
:0E20CA008A03FC74032BFBE43CFCA2E713CB5F
:0C20D80013CBA2E713CB13CBFCE508C32D
:0720E4009BF508E5099CF5DE
:0120EB0009EB
:0620EC00E5084509600D46
:0920F200C002853B82853C83128B
:0420FB00006BD002A4
:0620FF00EA7003022184D7
:05210500E50B450C454F
:05210A000D450E70758B
:09210F007B0090E67BE0FC7D0002
:05211800C3ED9A502305
:03211D00BD0405F9
:0521200090E67BE0FCED
:0E212500ECA2E092B2C313FCA2E092B3C3138B
:06213300FCEBA2B013FB5F
:07213900D2B4C2B40D80D83E
:04214000E537601C03
:0E2144008A047D007408C39CFCE49DFD8CF0B1
:0521520005F0EB800226
:02215700C313B0
:07215900D5F0FB90E67CF0DD
:0E2160008A037C0074032BFBE43CFCA2E71313
:0C216E00CB13CBA2E713CB13CBFCEB256B
:05217A0008F508EC353A
:05217F0009F5097A00DA
:04218400E537606378
:05218800E50B450C45CC
:05218D000D450E600489
:04219200E53860527A
:072196000508E4B50802058D
:01219D000938
:08219E00E509C313C50813C5D0
:0421A60008F509E54A
:0321AA0038602476
:0821AD0090E680E0FB30E7063C
:0621B5007B007C028004A7
:0421BB007B407C00E9
:0C21BF00ECA2E713CB13CBFCEB2508F5DA
:0521CB0008EC3509F5E8
:0121D0000905
:0A21D10090E698E509F00000009088
:0921DB00E699E508F0000000752A
:0421E400380080033C
:0321E80075380146
:0C21EB0090E6497482F0000000E50B450E
:0421F7000C450D4541
:0621FB000E600302200645
:0622010075390102200600
:0C220700C0021208F900120931D002E5F3
:042213003A700122FA
:0A221700E50B25E0FBE50C33FCE5C8
:0A2221000D33FDE50E33FEEB2BFB41
:0C222B00EC33FCED33FDEE33FE8B0B8C2E
:042237000C8D0D8E6F
:04223B000EEA603D0A
:04223F00EA30E21D82
:05224300AB0BAC0CAD7B
:0A2248000DAE0E1BBBFF091CBCFF0E
:06225200051DBDFF011E89
:052258008B0B8C0C8DC6
:03225D000D8E0ED5
:0A226000E4FBFCFDEA250BFAEB3568
:08226A000CFBEC350DFCED3519
:052272000EFD8A0B8B3C
:042277000C8C0D8D31
:01227B000E54
:07227C00E50FC3950BFAE525
:0522830010950CFBE5C5
:0522880011950DFCE5BD
:05228D0012950EFD8A10
:042292000F8B108C12
:04229600118D128A0A
:04229A000B8B0C8C12
:04229E000D8D0EE5AF
:0322A2003770088A
:0522A500F50FF510F536
:0322AA0011F51219
:0C22AD0078ACE644C0F675820802080612
:0122B9002202
:05317C000102000080CB
:053181000100000080C8
:053186000100000080C3
:0A22BA00C28CC28D78AD868A78AD23
:0322C40008868CFD
:0122C70022F4
:0722C80078AAB60202806053
:0722CF0078ABB6000280119C
:0B22D6001207FD78AC760C7582001238
:0622E100080675820122CF
:0522E70078AAE6701F5B
:0622EC00789FE630E211CC
:0B22F2001207FD78AC76037582001225
:0622FD00080675820122B3
:08230300789FE64404F68024F3
:05230B0078AAB60108EC
:08231000789FE654FBF68017EC
:06231800789FE620E211AF
:0B231E001207FD78AC760475820012F7
:0623290008067582012286
:0A232F0078AAE624F85003022419EE
:0A23390078AAE625E02690234373FE
:0723430002235B02235B0291
:06234A00236D02237A025C
:0623500023FF0224070236
:05235600240F02241415
:0C235B001207FD78ADE4F608F67582006C
:0623670012080602241D0D
:0D236D0090319075F0801208957582012264
:0A237A007582041207DF1207FD75DB
:0623840053FAE4F554F5E4
:04238A0055F556852A
:06238E000B82850C838523
:052394000DF0E50E1242
:0C2399003009AA82AB83ACF0FD8A0B8BEC
:0423A5000C8C0D8D02
:0723A9000EEC7003ED600C67
:0723B000750BFF750CFF75B2
:0523B7000D00750E0091
:0923BC00E50BF4FAE50CF4FBE575
:0823C5000DF4FCE50EF4FD78B7
:0823CD00ADA60208A603850B72
:0323D50053850C21
:0323D80054850D1C
:0323DB0055850E17
:0C23DE00569000FAE4F5F0123087AA8255
:0A23EA00AB83ACF0FD8A0B8B0C8C6A
:0723F4000D8D0E758204122D
:0423FB000806801E32
:0823FF007582011227D580163A
:082407007582001227D5800E3A
:05240F00122491800978
:052414001226108004F7
:0424190075820022A6
:03241D00758201C4
:012420002299
:0E24210090E6F3E0FA4480F000000090E67BC5
:0C242F00E0FA90E6F1F0000000022471D9
:0E243B0090E6F3E0FA547FF000000090E67B9C
:0C244900E0FA90E6F1F0000000022471BF
:0B24550090E6F1E0122471E582600DBA
:0D24600090E6F2E0FA90E67CF07582012231
:03246D0075820075
:012470002249
:052471001222BAD28C1A
:05247600E5BB20E703B7
:03247B00308DF8A9
:05247E00E5BB30E7049E
:04248300758201223B
:0924870090E6F574FFF075820087
:012490002229
:0A249100E4FAFBF508F50975820472
:0D249B00C002C0031207DFD00300C003120F
:0D24A80007FD758200120806D003D002ACBB
:0424B5000BAD0CAEB1
:0424B9000DAF0E8CC9
:0424BD000F8D108EE1
:0924C100118F12EC4D4E4F700218
:0224CA007B0194
:0324CC00EB6006BC
:0624CF00EA60030225DCB7
:0D24D500C002C003120771D003D002E4B5AD
:0424E2000A0280402A
:0524E6007401B50A12AB
:0324EB00EA700F85
:0E24EE007A01C002C0031207FDD003D00280A5
:0124FC0029B6
:0524FD007402B50A1F86
:0E250200C002C0031207FDD003D002EB70161A
:0C25100090E6A37401F00000007B01784D
:05251C00AC7602800511
:052521007A000225DC38
:03252600EB70A3B4
:06252900E5084509702AD7
:05252F00E5AA20E025F3
:072534007C007DF08D9A7C14
:08253B00007DF07D008C9B90F7
:0E254300E690E0FC8C057C0090E691E0FE7FC7
:08255100002CF508EF3DF5092F
:07255900E5084509700302CB
:0225600024CC89
:0E256200C002C003122421E582D003D0027013
:012570000664
:0625710078AC76058052F3
:0E257700C002C00312243BE582D003D00270E4
:01258500064F
:0625860078AC7606803DF2
:07258C00E50824FEF508E557
:062593000934FFF509AC5C
:042599000BAD0CAECC
:0A259D000DAF0E1CBCFF091DBDFFB1
:0625A700051EBEFF011F2E
:0525AD008C0B8D0C8E6B
:0925B2000D8F0EEC4D4E4F70022E
:0225BB007B01A2
:0625BD00E5084509700667
:0625C30090E6497482F06D
:0825C90078ACB600030224CC3B
:0B25D1007B0190E6A37401F00224CC13
:0A25DC00C0021208F9D002EA6029DB
:0725E600E50FC3950BFAE5B8
:0525ED0010950CFBE558
:0525F20011950DFCE550
:0525F70012950EFD8AA3
:0425FC000B8B0C8CAD
:042600000D8D0E78B6
:0B260400ACE64480F675820402080674
:01260F0022A8
:0A261000E4FAFBF508F509758204F1
:0D261A00C002C0031207DFD00300C003128E
:0D26270007FD758200120806D003D002AC3A
:042634000BAD0CAE30
:042638000DAF0E8C48
:04263C000F8D108E60
:09264000118F12EC4D4E4F700297
:022649007B0113
:03264B00EB60063B
:06264E00EA60030227957B
:0D265400C002C003120771D003D002E4B52C
:042661000A028046A3
:052665007401B50A122A
:03266A00EA700F04
:0E266D007A01C002C0031207FDD003D0028024
:01267B002F2F
:05267C007402B50A25FF
:0E268100C002C0031207FDD003D002EB701C94
:0E268F0090E6A37401F000000090E6A574012F
:09269D00F07B0178AC76028005A7
:0526A6007A00022795F7
:0326AB00EB709D34
:0626AE00E5084509703D3E
:0526B400E5AA20E0385A
:0526B900E5AA20E53355
:0726BE007C007DF08D9A7C89
:0826C500007DF07D008C9B7C80
:0626CD00007DF88D9D7CEC
:0826D300007DF87D008C9E9053
:0E26DB00E690E0FC8C057C0090E691E0FE7F2E
:0826E900002CF508EF3DF50996
:0726F100E508450970030232
:0226F800264B6F
:0E26FA00C002C003122421E582D003D002707A
:0127080006CA
:0627090078AC7605806A41
:0E270F00C002C003122455E582D003D0027030
:01271D0006B5
:06271E0078AC7606805540
:08272400150874FFB508021549
:01272C0009A3
:05272D00AC0BAD0CAE89
:0A2732000DAF0E1CBCFF091DBDFF1A
:06273C00051EBEFF011F97
:052742008C0B8D0C8ED4
:092747000D8F0EEC4D4E4F700297
:022750007B010B
:06275200E50845097021B5
:0D27580090E690E0FC90E698F00000009004
:0C276500E691E0FC90E699F00000009086
:08277100E6497482F00000004B
:0827790078ACB6000302264B08
:0E27810090E6A37401F000000090E6A574013C
:06278F00F07B0102264B65
:0E279500C0021208F900120931D002EA6031C8
:0727A300E50FC3950BFAE5F9
:0527AA0010950CFBE599
:0527AF0011950DFCE591
:0527B40012950EFD8AE4
:0427B9000F8B108CE6
:0427BD00118D128ADE
:0427C1000B8B0C8CE6
:0427C5000D8D0E78F0
:0B27C900ACE644C0F67582080208066A
:0127D40022E2
:0C27D5008582417B007C00C003C0041220
:0A27E1002421E582D004D003700D1E
:0B27EB001207FD78AC76057582000235
:0227F6000806D3
:0E27F800758204C003C0041207DFD00400C0C5
:0B280600041207FDD004D003E50B45D1
:042811000C450D4520
:032815000E700240
:022818007C0141
:0A281A0090E6F574FFF090E6CEE5BD
:092824000EF000000090E6CFE583
:09282D000DF000000090E6D0E57A
:092836000CF000000090E6D1E571
:0C283F000BF0C003C0041222BAD004D079
:0A284B000390E6D1E0FDE541601CBA
:0E28550090E6187410F000000090E6D27401B6
:07286300F0000000EC7031F1
:07286A00F5BB000000802A0D
:0E287100C003C004C00512095CD005D004D01D
:0E287F000390E61A7408F000000090E6E27480
:08288D0002F0000000EC7006EF
:0628950075BB0600000007
:0E289B00758200C003C004C005120806D005F7
:0428A900D004D00384
:0328AD00EC6006D6
:0628B000EB60030229ABFE
:0E28B600C003C004C005120771D005D004D0C5
:0728C40003E4B50A0280667F
:0528CB007401B50A16BE
:0328D000EB701397
:0E28D3007B01C003C004C0051207FDD005D074
:0528E10004D003804B50
:0528E6007402B50A4276
:0E28EB00C003C004C0051207FDD005D004D004
:0428F90003EC703448
:0528FD0078ACE6700458
:0429020078AC760235
:04290600E54160083F
:08290A0090E6A37401F08006C1
:0629120090E6A57401F03F
:08291800000000E5BB20E70907
:0929200000000090E6F574FFF0E0
:042929007C018004A9
:04292D007B00807A31
:05293100E5BB20E75D9D
:0A29360090E6D1E0FEB50502801224
:0E294000C003C0041222BAD004D00390E6D126
:04294E00E0FD802404
:03295200308D21A4
:0829550078AC7606E54160084C
:08295D0090E6A37401F080066E
:0629650090E6A57401F0EC
:0B296B007C0100000090E6F574FFF016
:04297600E5416005D2
:05297A00E5AA30E00FAA
:07297F00E54160030228ADF1
:08298600E5AA30E5030228ADCB
:05298E00D28C0228AD0F
:06299300EC60030228AD18
:04299900E54170099B
:09299D0090E6487406F000000009
:0529A6007C010228ADD8
:0E29AB00C0031208F900120931D003EB7001CD
:0129B90022FB
:0C29BA0090E6CEE0FB7C007D007E008BF0
:0529C60045754200759B
:0629CB004300754400907A
:0E29D100E6CFE0FF7A007B008A048F03E4FA71
:0829DF00FF4242EA4243EB42D1
:0529E70044EC424590A4
:0E29EC00E6D0E0FD7E007A008A038E028D06A2
:0929FA00E4FD4242EE4243EA42D0
:052A030044EB42459088
:0C2A0800E6D1E0FCE4FFFAFBE5424204EA
:092A1400E5434207E5444202E5F6
:092A1D00454203E50BC39CFCE5F6
:082A26000C9FFFE50D9AFAE593
:062A2E000E9BFB8C0B8FD8
:042A34000C8A0D8B70
:052A38000EE541600401
:042A3D007A80800219
:022A41007A40D9
:0B2A430078ACEA46F675820402080633
:012A4E002265
:05318B000102000080BC
:053190000100000080B9
:053195000100000080B4
:0D2A4F0090E60174FAF090E6F574FFF09047
:0A2A5C00323EE493FA90E6F3F090A6
:0A2A6600323FE493FA90E6C3F090CB
:0A2A70003240E493FA90E6C1F090C2
:0A2A7A003241E493FA90E6C2F090B6
:0A2A84003243E493FA90E6C0F090AC
:0D2A8E003244E493FA90E6F4F075AF077A55
:062A9B009A7B318B9A7A50
:0A2AA1009A7B317B008A9B759DE44F
:052AAB00759E007A0099
:032AB000BA8000E9
:022AB300500CC5
:0C2AB50090E67BE0FB90E67CF00A80EFEE
:0E2AC10090E67174FFF075B4FF90E672E0FAD3
:0E2ACF004480F043B68000000090E6C4E4F0BE
:0E2ADD0000000090E6C5E4F090321AE493FA8F
:0B2AEB0090E6C6F090321BE493FA90D6
:0A2AF600E6C7F090321CE493FA905A
:0A2B0000E6C8F090321DE493FA904D
:0A2B0A00E6C9F090321EE493FA9041
:0A2B1400E6CAF090321FE493FA9035
:0A2B1E00E6CBF0903220E493FA9029
:0A2B2800E6CCF0903221E493FA901D
:032B3200E6CDF0FD
:012B3500227D
:0E319A0081B9010101010107230302020202B3
:0E31A8000200F7F5F5F5F5F5F5F7000000006B
:0E31B6000000003F0C8A9A3FA5B53F07210399
:0E31C400030103030500F3F3F2F3F3F1F3F755
:0E31D2003F0000000000003F81913801010124
:0E31E00001070101070202020200F7F5F7F7EE
:0E31EE00F7F7F7F7000075000000003F819131
:0E31FC00380101010107030305000000000077
:0E320A00F3F1F3F3F3F3F3F700006E000000AE
:02321800003F75
:0E321A000000000000000000000000000000A6
:0E322800000000000000000000000000000098
:08323600000000000000000090
:07323E00E08000F7FA4E00EA
:072B360078AAB602028060DC
:072B3D0078ABB60002801125
:0B2B44001207FD78AC760C75820012C1
:062B4F0008067582012258
:052B550078AAE6701FE4
:062B5A00789FE630E31154
:0B2B60001207FD78AC760375820012AE
:062B6B000806758201223C
:082B7100789FE64408F6802479
:052B790078AAB6010876
:082B7E00789FE654F7F680177A
:062B8600789FE620E31138
:0B2B8C001207FD78AC76047582001281
:062B970008067582012210
:072B9D0078AAE624FB403B8F
:0A2BA40078AAE625E026902BAE7318
:072BAE00022BBD022BBD024A
:062BB5002BC8022BD50223
:022BBB002BDA13
:0B2BBD001207FD758200120806801B45
:0D2BC80090324F75F0801208957582012241
:052BD500122BE780094E
:052BDA00122F00800431
:042BDF0075820022D9
:032BE300758201F7
:012BE60022CC
:072BE70075460075470075FB
:092BEE0048007582081207DF128D
:0B2BF70007FD758200120806C28090E6
:0E2C0200E618E4F000000090E61AE4F000008E
:0E2C10000090E6027468F000000090E630E4E8
:0E2C1E00F000000090E631E4F090E680E0FD6A
:032C2C0030E70688
:062C2F007D007E0280041E
:042C35007D407E0060
:052C39008D498E4AAF39
:042C3E000FAB10AA1E
:042C420011AC12853A
:032C4600494B8572
:032C49004A4C757D
:082C4C004D00754E00C3EF9529
:062C54004BEB954CEA95E4
:062C5A004DEC954E502CDC
:052C60008F498B4AAD15
:0C2C65004A90E63474C04DF0000000906E
:072C7100E635E549F0E4F54A
:042C780008F50975DD
:062C7C004701750F007511
:062C820010007511007541
:042C88001200807244
:082C8C0090E680E0FD30E71343
:0E2C940090E63474C8F000000090E635E4F0DD
:052CA20000000080129B
:0E2CA70090E63474C0F000000090E6357440F2
:042CB500F00000002B
:0A2CB900EFC3954BFFEB954CFBEACF
:082CC300954DFAEC954EFC8FD3
:042CCB000F8B108AD1
:042CCF00118C1285CD
:032CD3000F4F851B
:032CD60010508516
:032CD90011518511
:052CDC001252C3EF9548
:062CE1004BEB954CEA9557
:062CE7004DEC954E500B70
:042CED00854F088582
:032CF10050097512
:042CF400470180060E
:042CF800854908857D
:022CFC004A0983
:0A2CFE0090E601E0FA4403F0D287EB
:042D0800E548600733
:072D0C00E5466003022E7E84
:072D1300120771E50A602EB2
:052D1A007401B50A0C74
:042D1F00E54670080D
:082D23001207FD754601801D39
:052D2B007402B50A125C
:072D30001207FDE5487011D8
:0A2D3700C28778AC7602754801806F
:012D4100068B
:062D4200754600022E7E22
:042D4800E54870BC2E
:052D4C00E5AA20E0589B
:0E2D510090E690E0FA8A037A00EB3395E0FCFE
:082D5F00FDE50BC39AF54FE5F9
:052D67000C9BF550E596
:052D6C000D9CF551E58E
:052D71000E9DF55285E6
:032D76004F0B857B
:032D7900500C8576
:032D7C00510D8571
:032D7F00520E9061
:0C2D8200E691E0FEE4FFFAFBE54FC39E83
:0A2D8E00FEE5509FFFE5519AFAE5BB
:062D9800529BFB8E0B8F25
:042D9E000C8A0D8B03
:072DA2000E90E6497402F0F7
:0B2DA90090E6A9E0FA20E203022E559C
:0E2DB40090E6A5E0FA530270BA3003022E55E5
:042DC200E54760156C
:0C2DC600AA0990E63474C04AF000000036
:092DD20090E635E508F000000070
:0A2DDB0090E698E54AF00000009031
:092DE500E699E549F000000085C3
:032DEE000849850C
:032DF100094AE5A7
:052DF400084509605CC8
:082DF900AA08AB09E4FCFDE5AA
:092E01000FC39AFAE5109BFBE5F2
:082E0A00119CFCE5129DFD8AFC
:042E12000F8B108C86
:042E1600118D128583
:032E1A000F4F85D2
:032E1D00105085CD
:032E2000115185C8
:032E2300125290B8
:072E2600E680E0FE30E70644
:062E2D007E007F0280041C
:042E33007E407F005E
:0B2E3700EF3395E0FAFBC3E54F9EE58A
:062E4200509FE5519AE5E6
:042E4800529B500940
:042E4C00850F088561
:032E5000100975F1
:022E5300470135
:072E5500E549454A60030254
:022E5C002D083F
:0B2E5E0090E6A7E0FA20E203022D0836
:052E6900E50B450C45DE
:062E6E000D450E60030299
:022E74002D0827
:082E7600754801C287022D0816
:0E2E7E00C28790E601E054FEF0E0FA4402F054
:072E8C001208F9120931E5FB
:032E93004660672F
:052E960078ACE6705C61
:072E9B0090E6ACE0FA7011B3
:072EA20090E6ABE0FA700AB4
:052EA900E50B450C459E
:052EAE000D450E602639
:062EB300E549454A6006F6
:062EB90078AC760A8038B7
:072EBF0090E6B0E0FA700795
:072EC60090E6AFE0FA6006A0
:062ECD0078AC760B8024B6
:062ED30078AC7607801EBA
:062ED900E549454A6006D0
:062EDF0078AC76088012B9
:072EE50090E6AFE0FA700770
:072EEC0090E6B0E0FA60047B
:042EF30078AC760938
:062EF700758200120806BE
:022EFD00D28081
:012EFF0022B0
:0D2F00007A007B007C00C002C003C00412F8
:0E2F0D0007FD758200120806D004D003D00222
:0E2F1B00C28090E6187410F000000090E61AD4
:0D2F29007408F0000000C002C003C00412D4
:0E2F3600095CD004D003D00290E60274E8F0EB
:0E2F440000000090E601E0FD4403F0D287900B
:0C2F5200E630E4F000000090E631E4F00E
:032F5E00EA600323
:032F6100EB7063AF
:0E2F6400C002C003C004120771D004D003D015
:052F720002E50A603CCD
:052F77007401B50A160B
:032F7C00EA7013E5
:0E2F7F007A01C002C003C0041207FDD004D0C6
:052F8D0003D0028021C9
:052F92007402B50A18ED
:0E2F9700C002C003C0041207FDD004D003D056
:042FA50002EB700AC1
:062FA9007C017B018004A5
:042FAF007A00801410
:032FB300EB70A818
:032FB600EA60A529
:082FB90090E6A7E0FD30E29D67
:062FC1007B01C28780972E
:0E2FC700C28790E601E054FEF0E0FB4402F009
:0D2FD500C002C0041208F9D00400C00412AC
:092FE2000931D004D002EA601BA1
:032FEB00EC701275
:072FEE0090E6ABE0FA70076A
:072FF50090E6ACE0FA600475
:042FFC0078AC760730
:06300000758200120806B3
:02300600D28076
:0130080022A5
:05324500010200008001
:05324A000100000080FE
:05324F000100000080F9
:0EE1000012010002000000404314070000005E
:04E10E000102000109
:0AE112000A060002000000400100B0
:0EE11C0009022E0001010080FA09040000042F
:0EE12A00FF000000070501024000000705810C
:0EE138000240000007050202000200070586F3
:04E1460002000200D1
:0EE14A0009022E0001010080FA090400000401
:0EE15800FF00000007050102400000070581DE
:0EE16600024000000705020240000007058687
:04E174000240000065
:02E178000000A5
:093F00000205A7000205DB000226
:083F090005C50002063F00029D
:083F110005F10002065D00024B
:083F190006B7000206B7000222
:083F210006B7000206B700021A
:083F290006B7000206B7000212
:083F310006B7000206B700020A
:083F390006B7000206B7000202
:083F410006B7000206B70002FA
:083F490006B7000206B70002F2
:083F510006B7000206B70002EA
:083F590006B7000206B70002E2
:083F610006B7000206B70002DA
:083F690006B7000206B70002D2
:083F710006B7000206B70002CA
:083F790006B7000206B70002C2
:083F810006B7000206B70002BA
:083F890006B7000206B70002B2
:083F910006B7000206B70002AA
:083F990006B7000206B70002A2
:083FA10006B7000206B700029A
:083FA90006B7000206B7000292
:073FB10006B7000206B7008D
:08300900FB7A20E4FCFDFEFF50
:0E301100E5822582F582E58333F583E5F03311
:0B301F00F5F0EB33FB4017DAE98042CC
:0E302A00E5822582F582E58333F583E5F033F8
:05303800F5F0EB33FB95
:0E303D00EC33FCED33FDEE33FEEF33FFEC958C
:06304B0053ED9554EE95D3
:0830510055EF95564013EC9574
:0830590053FCED9554FDEE95CA
:0930610055FEEF9556FF43820174
:02306A00DABECC
:02306C00EB2255
:06009C00E478FFF6D8FD38
:08007A007900E94400601B7AE3
:050082000090325478EB
:030087000075A061
:0A008A00E0E493F2A308B8000205B9
:08009400A0D9F4DAF275A0FF17
:0E306E0020F71030F6118883A88220F507F6AF
:05307C00A8837583002C
:01308100222C
:03308200F280F7E2
:02308500F02237
:0C308700AAF0FBE5828553F0A4FCADF03C
:0C309300E5838553F0A42DFDE435F0FE2C
:0C309F00E5828554F0A42DFDE5F03EFE16
:0C30AB00E433FFEA8553F0A42EFEE5F0AC
:0C30B7003FFFE5838554F0A42EFEE5F0F9
:0C30C3003FFFE5828555F0A42EFEE5F0ED
:0B30CF003FFFEB8553F0A42FFFEA85C4
:0A30DA0054F0A42FFFE5838555F0A4
:0C30E400A42FFFE5828556F0A42F8EF08B
:0530F0008D838C82229B
:0400A20075A00078CD
:0700A60000E8440060077947
:0600AD0000E4F309D8FC99
:0800B3007800E84400600C79BC
:0B00BB000090E000E4F0A3D8FCD9FAAC
:02006B00E4733C
:03006D0075815644
:0A007000123111E582600302006600
:0E30F50020F71430F6148883A88220F507E631
:06310300A8837583002281
:03310900E280F76A
:03310C00E4932227
:02310F00E022BC
:0431110075820022A1
:00000001FF
