:0400000002006D325B
:01000B0032C2
:0100130032BA
:01001B0032B2
:0100230032AA
:01002B0032A2
:030033000206B40E
:01003B003292
:03004300023F0079
:01004B003282
:03005300023F0069
:01005B003272
:030063000206B8DA
:0300E400020066B1
:050066001200E780FE1E
:0900E700788176007880760090A3
:0E00F000E60B7403F000000000000090E60034
:0E00FE007410F075800175B28175900075B3B5
:0E010C00FF75B00075B50090E67AE0FA440188
:0B011A00F0122A9590E60174E2F0124A
:0E012500027290E6097403F000000075890173
:09013300000000788276000876D5
:04013C00E17884766C
:05014000120876E178D1
:0501450086761C08761F
:04014A00E17888765A
:0A014E004A0876E1D2E843D8209079
:0E015800E668E0FA4409F090E65CE0FA443D07
:0E016600F090E682E4F0D2AF90E680E0FA542A
:05017400F7F0538EF8C6
:080179001201BB789EE660074D
:07018100120197789E760041
:050188007881E660042F
:04018D0078817600FF
:050191001206B880E336
:010196002246
:0A01970090E680E0FA440AF07A00D6
:0201A100DAFE84
:0E01A30090E65D74FFF090E65F74FFF05391FC
:0901B100EF90E680E0FA54F7F04B
:0101BA002222
:0601BB007880E6700122CD
:0501C100AA08AB09785B
:0901C60096A60208A603788EA695
:0601CF000B08A60C08A6B7
:0501D5000D08A60E78E4
:0501DA0092A60F08A62B
:0601DF001008A61108A69D
:0601E500127898A69B7839
:0801EB0099A69A789AA69E7865
:0A01F3009BA69D1202F4E58270083D
:0801FD0090E6A0E0FA4401F0D5
:0C02050090E6A0E0FA4480F078807600DB
:06021100789686080886BD
:0A02170009788E8602088603088627
:09022100040886058A0B8B0C8C85
:04022A000D8D0E78B0
:0C022E00928602088603088604088605F4
:05023A008A0F8B108CFF
:04023F00118D127893
:0802430098869B7899869A7851
:07024B009A869E789B869DB8
:010252002289
:0E02530090E6837401F07421F07411F07431A0
:0E026100F090E6837402F07422F07416F074CC
:02026F0036F067
:01027100226A
:0E02720090E610E4F000000090E611E4F000C9
:0E028000000090E612E4F000000090E613E4A7
:0D028E00F000000090E614E4F00000009085
:0E029B00E615E4F000000090E618E4F0000024
:0E02A9000090E619E4F000000090E61AE4F080
:0E02B70000000090E61BE4F000000090E6104E
:0E02C50074A0F000000090E61174A0F000009C
:0E02D3000090E61274A0F000000090E6147493
:0E02E100E0F000000090E68DE4F00000001256
:0502EF0009320208FACB
:0C02F40090E6B9E0FA24F450030205A1E2
:07030000EA2A2A90030773AB
:070307000203EE020478027C
:06030E0005A10205260214
:0603140005A10205A10293
:06031A00032B0205A10205
:0603200003D90203C7022D
:0503260003A00203B575
:0A032B0090E6BBE0FABA0102800F71
:05033500BA0202802065
:05033A00BA060280314B
:05033F00BA075A8042DC
:09034400788290E6B308E6F07837
:0B034D008286027B0090E6B4EAF0021A
:0203580005A4FA
:09035A00788A90E6B308E6F07819
:0B0363008A86027B0090E6B4EAF002FC
:02036E0005A4E4
:09037000788490E6B308E6F07809
:0B0379008486027B0090E6B4EAF002EC
:0203840005A4CE
:09038600788C90E6B308E6F078EB
:0B038F008C86027B0090E6B4EAF002CE
:02039A0005A4B8
:04039C007582002244
:0803A00090E740789DE6F09023
:0B03A800E68AE4F090E68B7401F0029E
:0203B30005A49F
:0A03B50090E6BAE0FA789DA6021265
:0603BF000272120253025B
:0203C50005A48D
:0A03C70090E6BAE0FA789CA6021254
:0603D10002721202530249
:0203D70005A47B
:0803D90090E740789CE6F090EB
:0B03E100E68AE4F090E68B7401F00265
:0203EC0005A466
:0A03EE0090E6B8E0FABA8002800A37
:0503F800BA8102801B28
:0503FD00BA8274802C9F
:0A04020090E740E4F090E741F0902D
:0A040C00E68AF090E68B7402F0021D
:0204160005A43B
:0A04180090E740E4F090E741F09017
:0A042200E68AF090E68B7402F00207
:02042C0005A425
:0E042E0090E6BCE0FA53027E90E6BCE0FBC311
:0E043C0074809BE433FB4A90341F93FA33958F
:0E044A00E0FB74A12AFA74E63BFB8A828B83E6
:0E045800E0FA53020190E740EAF090E741E439
:0C046600F090E68AF090E68B7402F00241
:0204720005A4DF
:04047400758200226B
:0704780090E6B8E0FA60080D
:05047F00BA0202801228
:030484000205224C
:0B04870090E6BAE0FABA01030205A4F7
:04049200758200224D
:0904960090E6BAE0600302051EC5
:0E049F0090E6BCE0FA53027E90E6BCE0FBC3A0
:0E04AD0074809BE433FB4A90341F93FA33951E
:0E04BB00E0FB74A12AFA74E63BFB90E6BCE07D
:0E04C900FC53047E90E6BCE0FDC374809DE40D
:0E04D70033FD4C90341F93FC3395E0FD74A16F
:0E04E5002CFC74E63DFD8C828D83E0FC5304FC
:0E04F300FE8A828B83ECF090E6BCE05480FA27
:0E050100C423541FFA90E6BCE0FB740F5B901D
:0D050F00E6832AF090E683E0FA4420F00233
:02051C0005A434
:04051E0075820022C0
:0405220075820022BC
:0705260090E6B8E0FA600561
:05052D00BA026D800E12
:0A05320090E6BAE0FABA020280680F
:04053C0075820022A2
:0E05400090E6BCE0FA53027E90E6BCE0FBC3FE
:0E054E0074809BE433FB4A90341F93FA33957C
:0E055C00E0FB74A12AFA74E63BFB90E6BCE0DB
:0E056A00FC53047E90E6BCE0FDC374809DE46B
:0E05780033FD4C90341F93FC3395E0FD74A1CD
:0E0586002CFC74E63DFD8C828D83E0FC43046A
:09059400018A828B83ECF08007E0
:04059D007582002241
:0305A100020B3218
:0305A4007582015C
:0105A7002231
:0C05A800C0E0C082C083C00078807601F3
:0905B4005391EF90E65D7401F033
:0905BD00D000D083D082D0E032DE
:0E05C600C0E0C082C0835391EF90E65D7404E4
:0105D400F036
:0705D500D083D082D0E03298
:0E05DC00C0E0C082C0835391EF90E65D7402D0
:0105EA00F020
:0705EB00D083D082D0E03282
:0D05F200C0E0C082C083C002C003C000781A
:0A05FF00888602088603788AA602A7
:0C06090008A6038A828B83A37402F07899
:0A061500868602088603788CA60290
:0E061F0008A6038A828B83A37407F05391EF21
:06062D0090E65D7410F080
:0D063300D000D003D002D083D082D0E032BE
:0C064000C0E0C082C083C0007881760159
:09064C005391EF90E65D7408F093
:09065500D000D083D082D0E03245
:0D065E00C0E0C082C083C002C003C0009095
:07066B00E680E0FA30E72C05
:0A06720078868602088603788AA6BF
:0D067C000208A6038A828B83A37402F07823
:0A068900888602088603788CA6021A
:0B06930008A6038A828B83A37407F083
:09069E005391EF90E65D7420F029
:0D06A700D000D003D002D083D082D0E0324A
:0306B40053D8EF29
:0106B7003210
:053410000102000000B4
:053415000100000000B1
:05341A000100000000AC
:0A341F000001020203030404050586
:0A00C600789E7600789FE4F608F6B5
:0C00D00008F608F678A3E4F608F608F637
:0800DC0008F678A7E4F608F627
:0706B80012070AE58260143D
:0706BF001206D4E582700D64
:0B06C6001207FE78AC7601758200027E
:0206D100080718
:0106D3002204
:0706D40078A9E624FA402B8F
:0A06DB0078A9E625E0269006E573F5
:0706E5000206F70206FA020B
:0606EC0006FD02070602F4
:0506F2000700020703F0
:0306F70002099263
:0306FA000209F6FC
:0306FD000216845E
:0307000002230EC3
:03070300022B7C4A
:03070600758200F9
:0107090022CD
:05070A00E5BA30E10436
:04070F0075820022CD
:0707130078AC76007A807BD0
:06071A00E78B9A7A807B58
:0C072000E77B008A9B90E67BE0FA7B0000
:05072C000ABA00010BF8
:0E07310090E68DE0FC7D00EAB50406EBB50510
:03073F0002801124
:0B0742001207FE78AC760175820012F1
:06074D000807758200227E
:0A07530090E67BE0FA78A9A6029078
:09075D00E67BE0FA78AAA60290FE
:0B076600E67BE0FA78ABA6027582018A
:010771002265
:080772001201BBE5BA30E104FD
:04077A00750A0022DA
:0C077E0090E780E0FA7B000ABA00010B53
:0E078A0090E68DE0FC7D00EAB50406EBB505B7
:03079800028011CB
:0B079B001207FE78AC76017582001298
:0607A6000807750AFF229E
:0B07AC0090E781E0FA78A9E6B502139F
:0C07B70090E782E0FA78AA748046FBEA22
:0307C300B5030477
:0407C600750A01228D
:0607CA0090E781E0700CD5
:0807D00090E782E0FABA02048E
:0407D800750A02227A
:0307DC00750AFF9C
:0107DF0022F7
:0807E000AA827B0B7C007D4026
:0E07E80090E67BE0FE8B828C838DF0123369ED
:0707F600A3AB82AC83DAEB38
:0107FD0022D9
:0807FE0090E68DE4F00000001C
:0108060022CF
:07080700AA82E5BA30E2010C
:01080E0022C7
:07080F007BC07CE78C9D7BA0
:08081600C07CE77C008B9E9082
:08081E00E67CEA04F078AC90DE
:07082600E67CE6F07B0B7C91
:05082D00007D408A0679
:03083200EE60175E
:0E0835008B828C838DF01233F0FFA3AB82AC6C
:090843008390E67CEFF01E80E6D4
:0A084C0090E68F74022AF00000000D
:01085600227F
:07085700AA82E5BA30E201BC
:01085E002277
:07085F007BC07CE78C9D7B50
:08086600C07CE77C008B9E9032
:08086E00E67CEA04F078AC908E
:04087600E67CE6F046
:01087A00225B
:05087B00E5BA30E201C6
:010880002255
:0808810090E7C178ACE6F090AD
:0C088900E7C0E0FA90E68F04F0000000E9
:010895002240
:0E089600AA82AB83ACF090E67BE0FDC002C00E
:0E08A40003C004C0051207FED005D004D00327
:0708B200D002E5BA30E201BB
:0108B900221C
:0708BA007EC07FE78F9D7EE9
:0808C100C07FE77F008E9E90CE
:0C08C900E67CED04F090E67CE4F08D0687
:0308D500EE6017BB
:0E08D8008A828B838CF01233F0FFA3AA82ABCE
:0908E6008390E67CEFF01E80E631
:0A08EF0090E68F74022DF000000067
:0108F90022DC
:0E08FA0090E618E4F000000090E6047480F030
:0E09080000000090E6047402F00000007A0483
:0B09160090E6497482F0000000DAF562
:0E09210090E604E4F000000090E6A3E4F0008D
:02092F000000C6
:0109310022A3
:0E09320090E61AE4F000000090E6047480F0F5
:0D09400000000090E6047406F00000009036
:0E094D00E604E4F000000090E6A5E4F00000EF
:01095B00009B
:01095C002278
:08095D0090E680E0FA30E706A5
:060965007A007B02800411
:04096B007A407B0053
:0E096F0090E624EBF000000090E680E0FA3005
:02097D00E7068B
:06097F007A007B028004F7
:040985007A407B0039
:0809890090E625EAF0000000F1
:010991002243
:0709920078AAB602028007FB
:0709990078AAB603508005A7
:0509A0001207FE804D6E
:0A09A5007582041207E01207FEE558
:0809AF000BF4FAE50CF4FBE582
:0A09B7000DF4FCE50EF4FD747B2A3C
:0C09C100FAE43BFBE43CFCE43DFD8A0B47
:0509CD008B0C8C0D8D68
:0509D2000E1217EF7882
:0C09D7009FE4F608F608F608F612093254
:0B09E3001208FA758204120807800455
:0409EE0075820022EC
:0309F2007582010A
:0109F50022DF
:0A09F60078AAE624EF5003020ABBC2
:0C0A000078AAE6240983C0E0E6241483F1
:030A0C00C0E02225
:020A0F00BBBB6F
:020A110031BBF7
:020A1300BBBB6B
:020A1500486730
:020A1700BB869C
:020A19009DA29C
:020A1B00BBA777
:020A1D00B1AC7A
:010A1F00B620
:020A20000A0AC0
:020A22000A0ABE
:020A24000A0ABC
:020A26000A0ABA
:020A28000A0AB8
:020A2A000A0AB6
:020A2C000A0AB4
:020A2E000A0AB2
:010A30000ABB
:070A31001207FE750B56755C
:060A38000C00750D0075B5
:0A0A3E000E0075820412080780778D
:0A0A48007582011207E01207FEE5B7
:030A52000B60072F
:070A550043B502C2B18003AA
:030A5C0053B5FD92
:080A5F0075820012080780589F
:0A0A67007582011207E01207FEE598
:030A71000B600710
:070A740043B540C2B6800348
:030A7B0053B5BFB1
:080A7E0075820012080780399F
:070A86001207FE750B00755D
:060A8D000C20750D007540
:0A0A93000E0075820412080780228D
:050A9D001214BF801DD2
:050AA200121271801822
:050AA70012304F801326
:050AAC00123064800E11
:050AB10012315B800919
:050AB60012310F800465
:040ABB00758200221E
:030ABF007582013C
:010AC2002211
:0A0AC300AA82AB83E5084509700123
:010ACD002206
:070ACE00AC14BCE602800538
:050AD5008B05BDE631B8
:080ADA008A068B07AC13AD1472
:0E0AE2008E028F038C828D83E0F88A828B83D4
:060AF000F00EBE00010F34
:050AF6000CBC00010D25
:080AFB00150874FFB50802158F
:010B030009E8
:060B0400E508450970D868
:010B0A0022C8
:0C0B0B008C9AAC137E008C9B8D9D7B00AF
:050B17008A9E020B1D87
:010B1C0022B6
:080B1D00A90890E67B05869013
:040B2500E67C0586DF
:080B2900E00586F00586D9F80D
:010B310022A1
:0A0B320090E6B9E0FABAA202804A88
:050B3C00BAA302804590
:060B4100BAE103020E07F9
:060B4700BAE203020DE713
:060B4D00BAE303020DE70C
:060B5300BAE403020DC725
:060B5900BAE503020DC71E
:060B5F00BAE603020CD20D
:060B6500BAE703020CFFD9
:060B6B00BAE803020D4789
:060B7100BAE903020DA722
:060B7700BAEA03020D764C
:060B7D00BAEB03020E2793
:030B8300020E4718
:0B0B860090E6BAE0FAA3E0FB8A0B8BBC
:0A0B91000C90E6BEE0FAA3E0FB9032
:090B9B00E6B8E0FCBCC0028003D6
:030BA400020C3709
:070BA700EA4B7003020E4B44
:080BAE0090E6A0E0FC20E1F854
:080BB60090E6B9E0FCBCA211BD
:0A0BBE00750D00750E00C002C003A3
:070BC8001210E5D003D0027A
:090BCF00C3EA9440EB94005006C7
:060BD8008A0D8B0E800661
:060BDE00750D40750E00CC
:080BE40090E6B9E0FCBCA20D93
:0D0BEC00C002C003121038D003D002801ADE
:040BF900850D0885D9
:030BFD000E09904E
:040C0000E740850B39
:030C040013850C49
:0C0C070014C002C003120AC3D003D002C4
:080C130090E68AE4F0AC0DAD9F
:080C1B000E90E68BECF0EC25D5
:070C23000BFEED350CFF8E06
:0A0C2A000B8F0CEAC39CFAEB9DFB54
:030C3400020BA709
:0A0C370078A7E608467003020CCE11
:0C0C410090E6BCE0FCA3E0FD78A7E6B55F
:090C4D00040708E6B50502800267
:020C56008076A6
:080C580090E6B8E0FCBC406E20
:070C6000EA4B7003020E4B8A
:090C670090E68AE4F090E68BF0BF
:080C700090E6A0E0FC20E1F891
:0A0C780090E68BE0FC7D008C0D8DF2
:090C82000E90E6B9E0FCBCA31FD2
:040C8B00850D088546
:030C8F000E0985C6
:060C92000B82850C837546
:030C980013407591
:070C9B0014E7C002C00312C0
:080CA2000AC3D003D002800B4D
:0B0CAA00C002C0031210E5D003D0020E
:060CB500AC0DAD0EEC25B4
:070CBB000BFEED350CFF8E6E
:0A0CC2000B8F0CEAC39CFAEB9DFBBC
:020CCC00809214
:040CCE007582002209
:0A0CD20090E6B8E0FABAC002800311
:030CDC00020E4BBA
:080CDF0090E6A0E0FA20E1F824
:0E0CE70090E740740AF0A37403F090E68AE4EC
:0A0CF500F090E68B7402F0020E4B43
:0A0CFF0090E6B8E0FABAC0028003E4
:030D0900020E4B8C
:080D0C0090E6A0E0FA20E1F8F6
:0E0D140090E740740DF0A3E4F0A3F0A3F0907C
:0B0D2200E744E4F5F0123369A3E4128B
:0A0D2D003369A3E4123369A3E41252
:080D3700336990E68AE4F090B4
:080D3F00E68B7408F0020E4B74
:080D470090E6B8E0FABA40237F
:090D4F0090E68AE4F090E68BF0D6
:080D580090E6A0E0FA20E1F8AA
:0C0D600090E740E0FAA3E0FB78A7A602B1
:060D6C0008A603020E4B75
:040D72007582002264
:080D760090E6B8E0FABA40254E
:070D7E0078A7E60846601E9D
:0C0D850090E6BCE0FAA3E0FB78A7E6B51E
:090D9100020708E6B50302800226
:020D9A008007D0
:070D9C00789E7601020E4B68
:040DA3007582002233
:070DA700750BF0750C3F75A0
:060DAE000D04750E007536
:060DB4000FCD7510AB909D
:070DBA00E6B8E0FABAC0033D
:030DC100020E4FD0
:030DC400020F68B3
:070DC700750BE0750C3F7590
:060DCE000D0C750E00750E
:060DD4000F787510569027
:070DDA00E6B9E0FABAE403F8
:030DE100020E4FB0
:030DE400020F6893
:070DE700750BC0750C3F7590
:060DEE000D10750E0075EA
:060DF4000FCD7510AB905D
:070DFA00E6B9E0FABAE203DA
:030E0100020E4F8F
:030E0400020F6872
:070E0700750BA0750C3F758F
:060E0E000D1C750E0075BD
:060E14000FCD7510AB903C
:070E1A00E6B8E0FABAC003DC
:030E2100020E4F6F
:030E2400020F6852
:070E2700750BF8750C3F7517
:060E2E000D02750E0075B7
:060E34000FCD7510AB901C
:070E3A00E6B8E0FABAC003BC
:030E4100020E4F4F
:030E4400020F6832
:040E4700758200228E
:030E4B00758201AC
:010E4E002281
:0C0E4F007AFF90E6B8E0FBBBC002800414
:040E5B00758200227A
:050E5F00AB0DAC0E75A7
:0A0E64000D00750E00C002C003C0AF
:0E0E6E00041210E5D004D003D00274032BFB55
:0A0E7C00E43CFC8B0D8C0EC002124A
:0A0E86001038D002E50D24FDFBE555
:070E90000E34FFFC8B0D8CFA
:0B0E97000E90E740E0FBA3E0FCEBB591
:060EA2000F48ECB51044FE
:040EA8007A007B0051
:0A0EAC007403250DFCE4350EFD8BE8
:0A0EB600067F00C3EE9CEF9D502C58
:0A0EC000EB2440F582E434E7F583EB
:0A0ECA00E0FC2AFAEB2440FCE434BB
:0A0ED400E7FD74022B2440F582E4D0
:0C0EDE0034E7F583E0FE8C828D83F00B7E
:020EEA0080C0C6
:030EEC00EA606455
:040EEF00850D0885E0
:030EF3000E099055
:090EF600E6B9E0FABAE102803429
:050EFF00BAE202803D93
:050F0400BAE4028005C3
:050F0900BAE943801766
:020F0E007A0067
:030F1000BA0C0018
:020F1300503E4E
:0A0F1500EA2440F582E434E7F58396
:060F1F007430F00A80EBC3
:050F250090E740751388
:030F2A0038751403
:060F2D0034120AC380200B
:050F330090E74075137A
:030F38003C7514F1
:060F3B0034120AC380120B
:050F410090E74075136C
:030F4600587514C7
:060F490034120AC380040B
:040F4F007582002285
:0C0F530090E68AE4F000000090E68BE5D8
:080F5F000DF000000075820195
:010F67002267
:080F680090E6B8E0FABA401C63
:070F700078A7E608466015B2
:0C0F770090E6BCE0FAA3E0FB78A7E6B52A
:090F8300020708E6B50302800430
:040F8C007582002248
:090F900090E68AE4F090E68BF093
:080F990090E6A0E0FA20E1F867
:070FA10090E68AE0FA7014EB
:050FA800AA0DAB0E9044
:0E0FAD00E68BE0FC7D00B50206EDB503028088
:010FBB000431
:040FBC007582002218
:060FC0008A15AD158D0637
:060FC6008E071EEF6025FE
:0C0FCC00C002C00374022E2440FFE43475
:090FD800E7FCEE2440F582E4344C
:0C0FE100E7F583E0FA8F828C83F0D003E8
:040FED00D00280D5D9
:080FF10090E740E50FF0A3E5D5
:050FF90010F07C407EB9
:0A0FFE00E78E9A759B407C00740298
:031008002515FDAE
:09100B0090E67BE0FE2CFCDDF711
:0A101400740225152440F582E4342F
:0C101E00E7F583C3E49CFCF074032AFA9D
:08102A00E43BFB8A0D8B0E1262
:0510320010E5758201CC
:011037002296
:05103800E50DFA700453
:04103D007582012295
:0810410090E678E0FB20E6F8E0
:0C10490090E6787480F090E67974A3F0D3
:0810550090E678E0FB30E0F8C2
:08105D0090E678E0FB20E2744C
:0810650090E678E0FB30E16C3D
:03106D00BA0108BD
:0810700090E678E0FB4420F05B
:0710780090E679E07B407C6B
:06107F00E78C9A7B407C27
:05108500E77C008B9BDD
:04108A00DA028026E0
:08108E0090E678E0FB30E0F889
:0810960090E678E0FB20E23B4C
:03109E00BA01088C
:0810A10090E678E0FB4420F02A
:0B10A90090E679E0FB90E67BF080D63B
:0810B40090E678E0FA30E0F864
:0810BC0090E678E0FA20E2154D
:0E10C40090E678E0FA4440F090E679E0FA9089
:0710D200E67BF075820122AC
:0B10D90090E678E0FA4440F0758200D9
:0110E40022E9
:0210E500AA0D52
:0810E70090E678E0FB20E6F83A
:0C10EF0090E6787480F090E67974A2F02E
:0810FB0090E678E0FB30E0F81C
:0811030090E678E0FB20E26BAE
:08110B0090E678E0FB30E1639F
:03111300EA600E81
:071116007B407CE78C9A7B13
:07111D00407CE77C008B9B86
:021124007B024C
:03112600EA700369
:03112900EB603B3D
:03112C00EB601461
:03112F00BB0208F8
:0811320090E679E50CF080065F
:06113A0090E679E50BF0E0
:031140001B800A07
:0A11430090E67BE0FC90E679F01ADC
:08114D0090E678E0FC30E0F8C8
:0811550090E678E0FC20E219AD
:08115D0090E678E0FC20E1C1FE
:02116500800FF9
:0E11670090E678E0FA4440F0121182758201A1
:011175002257
:0B11760090E678E0FA4440F07582003B
:01118100224B
:0811820090E678E0FA20E6F89F
:0E118A0090E678E0FA4480F090E67974A2F0E6
:0811980090E678E0FA30E0F87F
:0811A00090E678E0FA4440F00B
:0811A80090E678E0FA20E6F879
:0811B00090E678E0FA30E1D28C
:0111B8002214
:0811B90090E678E0FA4440F0F2
:0811C10090E678E0FA20E6F860
:0111C9002203
:0711CA00AA8290E679EAF029
:0811D10090E678E0FA30E0F846
:0811D90090E678E0FA20E2083C
:0811E10090E678E0FA20E10736
:0711E9001211B978AC762366
:0611F00078ACE6B401003A
:0411F600E433F58267
:0111FA0022D2
:0C11FB00AA8290E6787480F0EA2AFAE5F7
:0B120700164AF5821211CAE58270043D
:0412120078AC76221C
:0612160078ACE6B4010013
:04121C00E433F58240
:0112200022AB
:091221007516017582510211FBE2
:0C122A00AA82AB83751600758251C002C9
:0D123600C0031211FBE582D003D00260114D
:0E1243008B82C002C0031211CAE582D003D014
:0312510002700424
:041254007C00800298
:021258007C0117
:03125A00EC600B3A
:0B125D007B008A821211CAE582700437
:041268007A00800286
:02126C007A0105
:02126E008A8272
:01127000225B
:06127100E4F517F518F585
:0712770008F5097582081259
:06127E0007E01207FEACC0
:041284000FAD10AEEC
:0A12880011AF12C3E49C74209DE432
:051292009EE49F4028CE
:04129700850B198525
:03129B000C1A85A5
:03129E000D1B85A0
:0412A1000E1CEC250E
:0812A50019FCED351AFDEE35D0
:0A12AD001BFEEF351CFFC3E49C7428
:0812B700209DE49EE49F500A13
:0A12BF0078AC76097582000208077A
:0912C900AC19741C251AFDE43572
:0712D2001BFEE4351CFF8C3C
:0412D9000B8D0C8EDF
:0412DD000D8F0E85DE
:0612E1000B82850C831254
:0612E700122AE5827005E9
:0512ED00F58202080774
:0A12F2001211B9758200120807E519
:0412FC000F45104545
:051300001145126028F8
:0A1305001212217401B50F0EE4B5B9
:08130F00100AE4B51106E4B573
:04131700120280023C
:02131B00800848
:08131D0090E678E0FC4420F0AA
:0813250090E679E0F50A80036F
:03132D007518012F
:04133000E518600755
:07133400E51760030214B18C
:09133B00120772E4B50A02803FBA
:051344007401B50A0C64
:04134900E51770082C
:08134D007517011207FE802E46
:051355007402B50A1C42
:07135A001207FEE5187022E6
:0C13610090E6A57401F000000075180172
:09136D0078AC76021211B9800D72
:04137600E518700303
:03137A001211B994
:06137D007517000214B117
:04138300E51870A950
:05138700E5AA20E5A429
:07138C007C007DF88D9D7CC3
:08139300007DF87D008C9E85B1
:03139B000F1D859E
:03139E00101E8599
:0313A100111F8594
:0313A40012209084
:0713A700E680E0FA30E706E2
:0613AE007A007B028004BE
:0413B4007A407B0000
:0C13B800EB3395E0FCFDC3EA951DEB95BE
:0613C4001EEC951FED95E3
:0313CA002050149C
:0813CD0090E680E0FA30E7062B
:0613D5007A007B02800497
:0413DB007A407B00D9
:0213DF00800488
:0413E100AA0FAB1094
:0413E5008A088B09DE
:0713E900E50845097003024D
:0213F000149C4B
:0713F200E518600302149CE2
:0813F90090E678E0FC30E0F81A
:0814010090E678E0FC30E218EF
:0814090078AC76237518019000
:0C141100E6A57401F0EAC39508FAEB951B
:04141D0009FB80C87F
:0A1421007402B50F0EE4B5100AE4E2
:09142B00B51106E4B512028002BD
:0214340080082E
:0814360090E678E0FC4420F090
:0A143E007401B50F0EE4B5100AE4C6
:09144800B51106E4B512028002A0
:02145100800B0E
:0B145300C002C0031211B9D003D00288
:0A145E0090E679E0FC90E67CF015C2
:071468000874FFB50802152E
:01146F000973
:05147000AC0FAD10AE51
:0A14750011AF121CBCFF091DBDFFE2
:06147F00051EBEFF011F67
:051485008C0F8D108E9C
:0A148A00118F12EC4D4E4F6003026B
:0214940013E95A
:061496007518010213E9C4
:0E149C0090E698EBF00000007B0090E699EAE5
:0714AA00F000000002133006
:0714B100120932E517600685
:0614B80075820002080726
:0114BE00220B
:0714BF007521007522007584
:0614C6002301E4F508F526
:0814CC00097582081207E01205
:0514D40007FEAD0FAEA4
:0414D90010AF11AC93
:0C14DD0012C3E49D74209EE49FE49C4038
:0114E9001CE6
:0A14EA00ED250BFDEE350CFEEF358D
:0A14F4000DFFEC350EFCC3E49D74FF
:0814FE00209EE49FE49C500ACB
:0A15060078AC760975820002080730
:0B151000758200120807AC0B741C254C
:08151B000CFDE4350DFEE43582
:051523000EFF8C0B8D92
:041528000C8E0D8F89
:04152C000EE50F4574
:04153000104511450C
:031534001270032F
:0315370075220119
:04153A00E52260073F
:07153E00E521600302166CB9
:09154500120772E4B50A028035B8
:05154E007401B50A0C58
:04155300E521700816
:081557007521011207FE80243A
:05155F007402B50A1939
:071564001207FEE5227018DA
:0C156B0090E6A37401F00000007522015E
:0615770078AC760280064C
:06157D0075210002166C4E
:04158300E52270B33A
:05158700E5AA20E0AE22
:07158C007C007DF08D9A7CCC
:08159300007DF07D008C9B90AF
:0E159B00E690E0FC8C057C0090E691E0FE7F7F
:0815A900002CF508EF3DF509E7
:0615B100E5084509608316
:0715B700E522600302153A72
:0415BE00E523600CB5
:0715C200850B82850C8312EA
:0515C900122A75230049
:0515CE0078ACE6700E90
:0E15D30090E67BE0FCF5821211CAE582700BF7
:0B15E10075220190E6A37401F080C5A4
:0815EC00150874FFB508021593
:0115F40009ED
:0515F500AC0FAD10AECB
:0715FA0011AF12EC24FFF514
:0A16010024ED34FFF525EE34FFF56B
:07160B0026EF34FFF52785EF
:03161200240F851D
:0316150025108518
:0316180026118513
:03161B002712AAE9
:04161E000BAB0CAC5A
:0A1622000DAD0E0ABA00090BBB0063
:06162C00050CBC00010DDD
:051632008A0B8B0C8CFB
:041637000D8D0EE522
:04163B0024452545D8
:05163F002645277003A1
:031644007522010B
:06164700E50845097006EC
:06164D0090E6497482F0F2
:04165300E522700913
:06165700E50B543F6003A7
:03165D000215B1C2
:071660001211B9121182758D
:0516670023010215B192
:04166C00E5237006FC
:061670001211B9121182F3
:071676001208FAE5216006ED
:06167D007582000208075F
:011683002244
:0534290001020000009B
:05342E00010000000098
:05343300010000000093
:043438000800000088
:0E343C004F6E626F617264205553422038005B
:0E344A000000FDFDFDFD00000000202899049B
:0E345800444F6E62557362000000FDFDFDFDE5
:02346600000064
:0716840078AAB602028060A3
:07168B0078ABB600028011EC
:0B1692001207FE78AC760C7582001287
:06169D000807758201221E
:0516A30078AAE6701FAB
:0616A800789FE630E0111E
:0B16AE001207FE78AC76037582001274
:0616B90008077582012202
:0816BF00789FE64401F6802447
:0516C70078AAB601083D
:0816CC00789FE654FEF680173A
:0616D400789FE620E01102
:0B16DA001207FE78AC76047582001247
:0616E500080775820122D6
:0A16EB0078AAE624F450030217DB8E
:0A16F50078AAE625E0269016FF73A0
:0716FF00021723021733025A
:0617060017430217DB028D
:06170C00175002176902EC
:06171200179D0217D4022E
:0617180017C60217C6020D
:05171E0017CD0217C603
:0A1723001217DF1207FE7582001294
:06172D000807758201228D
:0A1733001217EF1207FE7582001274
:06173D000807758201227D
:0D17430090346875F08012089675820122BE
:071750001207FE750B007586
:061757000C6A750D187507
:0C175D000E00758204120807758201223C
:0717690090E67BE0FA60044A
:04177000D2B380026E
:02177400C2B3FE
:0717760090E67BE0FA60043D
:04177D00D2B2800262
:02178100C2B2F2
:0717830090E67BE0FA600430
:04178A00D2B4800253
:02178E00C2B4E3
:0D1790001207FE7582001208077582012203
:0C179D001207FEA2B3E433FA8A0BA2B2DA
:0B17A900E433FA8A0CA2B0E433FA8AA1
:0A17B4000DA2B4E433FA8A0E758228
:0817BE000412080775820122E4
:0717C600121BAA758201222B
:0717CD00121FB17582012219
:0717D4001217F975820122D2
:0317DB0075820014
:0117DE0022E8
:0E17DF0043B50443B50843B510C2B2D2B3C23D
:0117ED00B447
:0117EE0022D8
:0917EF0053B5E3C2B2D2B3C2B497
:0117F80022CE
:0534680001020000005C
:05346D00010000000059
:05347200010000000054
:0B17F9007A007B0090E67BE0FC6004BF
:04180400D2B38002D9
:02180800C2B369
:07180A0090E67BE0FC6004A6
:04181100D2B28002CD
:02181500C2B25D
:0E181700C2B4758204C002C0031207E0D00301
:0E18250000C0031207FE758200120807D003F0
:07183300D002AC0BAD0CAEBE
:04183A000DAF0E8C54
:04183E000F8D108E6C
:09184200118F12EC4D4E4F7002A3
:02184B007B011F
:03184D00EB600647
:06185000EA60030218FE2D
:0D185600C002C003120772D003D002E4B537
:041863000A028031C4
:051867007401B50A0F39
:0E186C007A01C002C0031207FED003D0028032
:01187A001D50
:05187B007402B50A1320
:0B1880007B0178AC7602C002C00312AE
:08188B0007FED003D002800526
:051893007A000218FEBE
:03189800EB70B240
:05189B00AC0BAD0CAE2A
:0A18A0000DAF0EC3ED94FEEE9400B0
:0518AA00EF9400500660
:0618AF008C088D09800683
:0618B5007508007509FE34
:0818BB00AC08AD09E4FEFFE5F5
:0918C3000BC39CFCE50C9DFDE546
:0818CC000D9EFEE50E9FFF8C4E
:0418D4000B8D0C8EDE
:0818D8000D8F0EC000C001A835
:0418E00008A9090941
:0E18E400D2B4C2B4D8FAD9F8D001D000EC4D7D
:0718F2004E4F600302184D88
:0518F9007B0102184D07
:0318FE00EA602974
:07190100E50FC3950BFAE5A9
:0519080010950CFBE549
:05190D0011950DFCE541
:0519120012950EFD8A94
:041917000B8B0C8C9E
:04191B000D8D0E78A8
:0B191F00ACE64480F675820402080765
:01192A00229A
:0A192B00C001C002A908AA09E96082
:02193500010AA5
:0319370090E67BBC
:0E193A00E01392B2D2B4C2B41392B2D2B4C2CD
:0E194800B41392B2D2B4C2B41392B2D2B4C2EB
:0E195600B41392B2D2B4C2B41392B2D2B4C2DD
:0E196400B41392B2D2B4C2B41392B2D2B4C2CF
:09197200B4D9C5DAC3D002D001DA
:01197B002249
:0A197C00C001C002A908AA09E96031
:02198600010A54
:0A19880090E67B058690E67C05865C
:0E199200E01392B2A2B013D2B4C2B492B2A2C9
:0E19A000B013D2B4C2B492B2A2B013D2B4C289
:0E19AE00B492B2A2B013D2B4C2B492B2A2B03C
:0E19BC0013D2B4C2B492B2A2B013D2B4C2B469
:0E19CA0092B2A2B013D2B4C2B492B2A2B013C1
:0E19D800D2B4C2B40586F00586D9AFDAADD020
:0319E60002D0012B
:0119E90022DB
:0A19EA00C001C002A908AA09E960C3
:0219F400010AE6
:0319F60090E67CFC
:0E19F900A2B0D2B4C2B413A2B0D2B4C2B4131E
:0E1A0700A2B0D2B4C2B413A2B0D2B4C2B4130F
:0E1A1500A2B0D2B4C2B413A2B0D2B4C2B41301
:0E1A2300A2B0D2B4C2B413A2B0D2B4C2B413F3
:091A3100F0D9C2DAC0D002D001E4
:011A3A002289
:0A1A3B00C001C002A908AA09E96071
:021A4500010A94
:031A470090E67BAB
:0E1A4A00E01392B3D2B4C2B41392B3D2B4C2BA
:0E1A5800B41392B3D2B4C2B41392B3D2B4C2D8
:0E1A6600B41392B3D2B4C2B41392B3D2B4C2CA
:0E1A7400B41392B3D2B4C2B41392B3D2B4C2BC
:091A8200B4D9C5DAC3D002D001C9
:011A8B002238
:0A1A8C00C001C002A908AA09E96020
:021A9600010A43
:0A1A980090E67B058690E67C05864B
:0E1AA200E01392B3A2B013D2B4C2B492B3A2B6
:0E1AB000B013D2B4C2B492B3A2B013D2B4C277
:0E1ABE00B492B3A2B013D2B4C2B492B3A2B029
:0E1ACC0013D2B4C2B492B3A2B013D2B4C2B457
:0E1ADA0092B3A2B013D2B4C2B492B3A2B013AE
:0E1AE800D2B4C2B40586F00586D9AFDAADD00F
:031AF60002D0011A
:011AF90022CA
:0A1AFA00C001C002A908AA09E960B2
:021B0400010AD4
:031B060090E67BEB
:0E1B0900E01392B21392B3D2B4C2B41392B2EC
:0E1B17001392B3D2B4C2B41392B21392B3D2EB
:0E1B2500B4C2B41392B21392B3D2B4C2B4D904
:071B3300D5DAD3D002D00186
:011B3A002288
:0A1B3B00C001C002A908AA09E96070
:021B4500010A93
:0A1B470090E67B058690E67C05869B
:021B51007C0214
:0E1B5300E01392B21392B3FBE8A2B013F8EBCA
:0E1B6100D2B4C2B41392B21392B3FBE8A2B096
:0E1B6F0013F8EBD2B4C2B41392B21392B3FBCC
:0E1B7D00E8A2B013F8EBD2B4C2B41392B213C4
:0E1B8B0092B3FBE8A2B013F8EBD2B4C2B4DC04
:0E1B9900B9E80586F0058619D9AEDAACD0029F
:021BA700D0016B
:011BA9002219
:071BAA00752900752B007581
:071BB1002C0078AAB6082AF7
:081BB80075290190E67BE0F5C0
:081BC0002890E67BE0FE6004C2
:041BC800D2B3800212
:021BCC00C2B3A2
:041BCE00E52860089E
:041BD200752D7C757C
:041BD6002E19805AEA
:041BDA00752D2B75C5
:041BDE002E198052EA
:051BE20078AAB60925F8
:0A1BE70075280190E67BE0FC600425
:041BF100D2B38002E9
:021BF500C2B379
:071BF70090E67BE0FC6004B6
:041BFE00D2B28002DD
:021C0200C2B26C
:041C0400752DEA75DB
:041C08002E198028E9
:081C0C0075290190E67BE0F56B
:081C14002890E67BE0FC60046F
:041C1C00D2B28002BE
:021C2000C2B24E
:041C2200E528600849
:041C2600752D8C7517
:041C2A002E1A8006E8
:041C2E00752D3B7560
:021C32002E1A68
:0D1C34007582041207E01207FE758200128F
:041C41000807850B00
:031C45002F850CDC
:031C480030850DD7
:031C4B0031850ED2
:031C4E0032852FAD
:031C51000F8530CC
:031C5400108531C7
:031C5700118532C2
:0A1C5A00127407552FFD7A007B007D
:071C64007C008D2AAA2FE588
:0C1C6B0030C423CAC423541F6ACA541F8B
:0C1C7700CA6ACAFBE531C42354E04BFBF1
:0A1C8300AC31E532C423CCC4235475
:0C1C8D001F6CCC541FCC6CCCFE8A0B8B5F
:041C99000C8C0D8E14
:051C9D000EE52A601DA8
:051CA200AA0BAB0CAC25
:0A1CA7000DAE0E0ABA00090BBB00D7
:061CB100050CBC00010E51
:051CB7008A0B8B0C8C70
:031CBC000D8E0E7C
:051CBF00E50F45104592
:051CC400114512700340
:031CC900752B0177
:021CCC00C2B4A0
:041CCE00E52B60079B
:071CD200E52C6003021EC4B3
:071CD900120772E50A602CFE
:051CE0007401B50A0CBF
:041CE500E52C700872
:081CE900752C011207FE801B9F
:051CF1007402B50A10A9
:071CF6001207FEE52B700F41
:091CFD0078AC7602752B0180061B
:061D0600752C00021EC452
:041D0C00E529600560
:051D1000E5AA20E0B986
:041D1500E528600558
:051D1900E5AA20E5B081
:041D1E00E52B70AC95
:041D2200E529600E41
:071D26007A007BF08B9A7A32
:071D2D00007BF07B008A9BA4
:041D3400E528600E30
:071D38007A007BF88B9D7A15
:071D3F00007BF87B008A9E87
:041D4600E529601912
:0E1D4A0090E690E0FA8A037A0090E691E0FCC1
:0A1D58007E004AF508EE4BF5098005
:011D6200542C
:041D6300850B338534
:031D67000C3485B4
:031D6A000D3585AF
:031D6D000E36909F
:071D7000E680E0FF30E7060A
:061D77007A007B028004EB
:041D7D007A407B002D
:0C1D81008A07EBFD3395E0FAFBC3EF95F9
:061D8D0033ED9534EA95E8
:061D930035EB95365018F7
:081D990090E680E0FA30E70655
:061DA1007A007B028004C1
:041DA7007A407B0003
:061DAB008A088B09800686
:041DB10085330885E9
:021DB5003409EF
:081DB700AA08AB09E4FCFDE5FC
:091DBF000BC39AFAE50C9BFBE54D
:081DC8000D9CFCE50E9DFD8A57
:041DD0000B8B0C8CE1
:041DD4000D8D0EE57E
:031DD8002A60136B
:051DDB00E50B450C457D
:051DE0000D450E700925
:081DE500150874FFB508021592
:011DED0009EC
:061DEE00E508450960094B
:071DF400852D82852E83126C
:021DFB00006B7B
:071DFD00E52A7003021E8EAF
:051E0400E50B450C4553
:061E09000D450E6003020E
:021E0F001E8E25
:061E1100AA2AE529700B6E
:031E170030B204E2
:041E1A007BFF8002C8
:021E1E007B0047
:021E200080053B
:051E220090E67BE0FBEF
:051E270078AAB60B1DB6
:021E2C008A0426
:0B1E2E00EBA2E092B3C313FB30B00541
:051E390043038080035B
:031E3E0053037FCC
:061E4100D2B4C2B4DCE7DC
:021E4700801900
:0B1E4900EBA2E092B2C313FB30B00527
:051E5400430380800340
:031E590053037FB1
:061E5C00D2B4C2B4DAE7C3
:041E6200E528601DF2
:0C1E6600AD2A7A007408C39DFDE49AFACE
:071E72008DF005F0EB80028A
:021E7900C31391
:081E7B00D5F0FBFB90E67CF0C2
:071E8300752A000508E4B513
:041E8A00080205093C
:041E8E00E5296009D9
:091E920090E6497482F0000000A2
:041E9B00E5286012C4
:0A1E9F0090E698E509F000000090BD
:081EA900E699E508F0000000D5
:051EB100E50B450C45A6
:061EB6000D450E60030261
:021EBC001CCE3A
:061EBE00752B01021CCE91
:071EC4001208FA120932E5D1
:041ECB002C70012254
:041ECF00E52A601D83
:051ED300AA0BAB0CACF2
:0A1ED8000DAD0E1ABAFF091BBBFF87
:061EE200051CBCFF011D00
:051EE8008A0B8B0C8C3D
:031EED000D8D0E4A
:041EF000850D35E542
:0A1EF4000EC40354F8C535C403C53D
:041EFE00356535C54C
:061F02003554F8C53565F9
:041F080035F536E590
:081F0C000CC40354074535F530
:031F140035850B05
:081F170033E50CC40354F8C5C6
:061F1F0033C403C5336565
:061F250033C53354F8C57A
:041F2B00336533F5F2
:031F2F00348533C3
:031F32000B8534E8
:031F35000C8535E3
:031F38000D8536DE
:091F3B000EAE2AE4FFFAFBEE25CC
:081F440033FEEF3534FFEA35EE
:071F4C0035FAEB3536FB8E80
:041F53000B8F0C8A5A
:041F57000D8B0EE5FB
:091F5B000FC39EFEE5109FFFE597
:081F6400119AFAE5129BFB8EB5
:041F6C000F8F108A39
:041F7000118B128E31
:041F74000B8F0C8A39
:041F78000D8B0EE5DA
:031F7C00296004D5
:041F7F007A808002E2
:021F83007A00E2
:041F8500E5286004E7
:041F89007B40800217
:021F8D007B00D7
:0A1F8F00EB4A78AC46F6E529600441
:041F99007A04800244
:021F9D007A00C8
:041F9F00E5286004CD
:041FA3007B04800239
:021FA7007B00BD
:071FA900EB2AF58202080794
:011FB000220E
:071FB1007538007539007559
:071FB8003A0090E67BE0F522
:081FBF00377582041207E012DD
:091FC70007FE758200120807856F
:031FD0000B3D8541
:031FD3000C3E853C
:031FD6000D3F8537
:031FD9000E408532
:031FDC003D0F8531
:031FDF003E10852C
:031FE2003F118527
:031FE5004012E5C2
:041FE8003D453E45F0
:051FEC003F45407003B9
:031FF1007539013E
:0C1FF4007407553DFAE4FDFBFC74032566
:082000003DFBE4353EFCE43534
:072008003FFDE43540FE8BB3
:04200F000B8C0C8D9D
:0A2013000DEEF50EC313FEED13FDF4
:0E201D00EC13FCEB13FBEEC313FEED13FDEC16
:0A202B0013FCEB13FB8B0B8C0C8DE8
:042035000D8E0EE519
:0320390037600805
:04203C00753B3B7540
:042040003C1B8006BF
:04204400753BFA7579
:022048003C1A40
:02204A00C2B41E
:04204C00E53960070B
:07205000E53A600302224D96
:0B205700C002120772D002E50A6034DC
:052062007401B50A1035
:04206700E53A700CDA
:0C206B00753A01C0021207FED002801F6F
:052077007402B50A141B
:0B207C00C0021207FED002E539700F11
:0920870078AC760275390180067F
:06209000753A0002224D2A
:05209600E5AA20E0B105
:04209B00E5376005C0
:05209F00E5AA20E5A800
:0420A400E53970A406
:0720A8007D007EF08E9A7DA1
:0820AF00007EF07E008D9BE530
:0320B7003760127D
:0420BA00E538700E87
:0720BE007D007EF88E9D7D80
:0720C500007EF87E008D9EF5
:0E20CC0090E690E0FD8D067D0090E691E0FF2D
:0A20DA007B002DF508EB3EF509AB85
:0720E40008AC09E4FDFEE574
:0920EB000BC39BFBE50C9CFCE51A
:0820F4000D9DFDE50E9EFE8B23
:0420FC000B8C0C8DB0
:062100000D8E0EEA602CBA
:05210600E50B450C454E
:05210B000D450E7022DD
:0E2110008A03FC74032BFBE43CFCA2E713CB18
:0C211E0013CBA2E713CB13CBFCE508C3E6
:07212A009BF508E5099CF597
:0121310009A4
:06213200E5084509600DFF
:09213800C002853B82853C831244
:04214100006BD0025D
:06214500EA70030221CA4A
:05214B00E50B450C4509
:052150000D450E707545
:092155007B0090E67BE0FC7D00BC
:05215E00C3ED9A5023BF
:03216300BD0405B3
:0521660090E67BE0FCA7
:0E216B00ECA2E092B2C313FCA2E092B3C31345
:06217900FCEBA2B013FB19
:07217F00D2B4C2B40D80D8F8
:04218600E537601CBD
:0E218A008A047D007408C39CFCE49DFD8CF06B
:0521980005F0EB8002E0
:02219D00C3136A
:07219F00D5F0FB90E67CF097
:0E21A6008A037C0074032BFBE43CFCA2E713CD
:0C21B400CB13CBA2E713CB13CBFCEB2525
:0521C00008F508EC35F4
:0521C50009F5097A0094
:0421CA00E537606332
:0521CE00E50B450C4586
:0521D3000D450E600443
:0421D800E538605234
:0721DC000508E4B508020547
:0121E30009F2
:0821E400E509C313C50813C58A
:0421EC0008F509E504
:0321F00038602430
:0821F30090E680E0FB30E706F6
:0621FB007B007C02800461
:042201007B407C00A2
:0C220500ECA2E713CB13CBFCEB2508F593
:0522110008EC3509F5A1
:0122160009BE
:0A22170090E698E509F00000009041
:09222100E699E508F000000075E3
:04222A0038008003F5
:03222E00753801FF
:0C22310090E6497482F0000000E50B45C7
:04223D000C450D45FA
:062241000E600302204CB8
:0622470075390102204C74
:0C224D00C0021208FA00120932D002E5AB
:042259003A700122B4
:0A225D00E50B25E0FBE50C33FCE582
:0A2267000D33FDE50E33FEEB2BFBFB
:0C227100EC33FCED33FDEE33FE8B0B8CE8
:04227D000C8D0D8E29
:042281000EEA603DC4
:04228500EA30E21D3C
:05228900AB0BAC0CAD35
:0A228E000DAE0E1BBBFF091CBCFFC8
:06229800051DBDFF011E43
:05229E008B0B8C0C8D80
:0322A3000D8E0E8F
:0A22A600E4FBFCFDEA250BFAEB3522
:0822B0000CFBEC350DFCED35D3
:0522B8000EFD8A0B8BF6
:0422BD000C8C0D8DEB
:0122C1000E0E
:0722C200E50FC3950BFAE5DF
:0522C90010950CFBE57F
:0522CE0011950DFCE577
:0522D30012950EFD8ACA
:0422D8000F8B108CCC
:0422DC00118D128AC4
:0422E0000B8B0C8CCC
:0422E4000D8D0EE569
:0322E80037700844
:0522EB00F50FF510F5F0
:0322F00011F512D3
:0C22F30078ACE644C0F6758208020807CB
:0122FF0022BC
:0534770001020000004D
:05347C0001000000004A
:05348100010000000045
:0A230000C28CC28D78AD868A78ADDC
:03230A0008868CB6
:01230D0022AD
:07230E0078AAB6020280600C
:0723150078ABB60002801155
:0B231C001207FE78AC760C75820012F0
:0623270008077582012287
:05232D0078AAE6701F14
:06233200789FE630E21185
:0B2338001207FE78AC760375820012DD
:062343000807758201226B
:08234900789FE64404F68024AD
:0523510078AAB60108A6
:08235600789FE654FBF68017A6
:06235E00789FE620E21169
:0B2364001207FE78AC760475820012B0
:06236F000807758201223F
:0A23750078AAE624F8500302245F62
:0A237F0078AAE625E0269023897372
:072389000223A10223A102BF
:0623900023B30223C0028A
:06239600244502244D0263
:05239C00245502245A43
:0C23A1001207FE78ADE4F608F675820025
:0623AD0012080702246380
:0D23B30090348B75F080120896758201221F
:0A23C0007582041207E01207FE7593
:0623CA0053FAE4F554F59E
:0423D00055F55685E4
:0623D4000B82850C8385DD
:0523DA000DF0E50E12FC
:0C23DF003304AA82AB83ACF0FD8A0B8BA8
:0423EB000C8C0D8DBC
:0723EF000EEC7003ED600C21
:0723F600750BFF750CFF756C
:0523FD000D00750E004B
:09240200E50BF4FAE50CF4FBE52E
:08240B000DF4FCE50EF4FD7870
:08241300ADA60208A603850B2B
:03241B0053850CDA
:03241E0054850DD5
:0324210055850ED0
:0C242400569000FAE4F5F0123382AA8210
:0A243000AB83ACF0FD8A0B8B0C8C23
:07243A000D8D0E75820412E6
:042441000807801EEA
:0824450075820112281B8016AC
:08244D0075820012281B800EAD
:052455001224D78009EC
:05245A0012265680046B
:04245F007582002260
:032463007582017E
:012466002253
:0E24670090E6F3E0FA4480F000000090E67B7F
:0C247500E0FA90E6F1F00000000224B74D
:0E24810090E6F3E0FA547FF000000090E67B56
:0C248F00E0FA90E6F1F00000000224B733
:0B249B0090E6F1E01224B7E582600D2E
:0D24A60090E6F2E0FA90E67CF075820122EB
:0324B3007582002F
:0124B6002203
:0524B700122300D28C8D
:0524BC00E5BB20E70371
:0324C100308DF863
:0524C400E5BB30E70458
:0424C90075820122F5
:0924CD0090E6F574FFF075820041
:0124D60022E3
:0A24D700E4FAFBF508F5097582042C
:0D24E100C002C0031207E0D00300C00312C8
:0D24EE0007FE758200120807D003D002AC73
:0424FB000BAD0CAE6B
:0424FF000DAF0E8C83
:042503000F8D108E9A
:09250700118F12EC4D4E4F7002D1
:022510007B014D
:03251200EB600675
:06251500EA600302262229
:0D251B00C002C003120772D003D002E4B565
:042528000A028040E3
:05252C007401B50A1264
:03253100EA700F3E
:0E2534007A01C002C0031207FED003D002805D
:01254200296F
:052543007402B50A1F3F
:0E254800C002C0031207FED003D002EB7016D3
:0C25560090E6A37401F00000007B017807
:05256200AC76028005CB
:052567007A00022622AB
:03256C00EB70A36E
:06256F00E5084509702A91
:05257500E5AA20E025AD
:07257A007C007DF08D9A7CCE
:08258100007DF07D008C9B90B1
:0E258900E690E0FC8C057C0090E691E0FE7F81
:08259700002CF508EF3DF509E9
:07259F00E508450970030285
:0225A6002512FC
:0E25A800C002C003122467E582D003D0027087
:0125B600061E
:0625B70078AC76058052AD
:0E25BD00C002C003122481E582D003D0027058
:0125CB000609
:0625CC0078AC7606803DAC
:0725D200E50824FEF508E511
:0625D9000934FFF509AC16
:0425DF000BAD0CAE86
:0A25E3000DAF0E1CBCFF091DBDFF6B
:0625ED00051EBEFF011FE8
:0525F3008C0B8D0C8E25
:0925F8000D8F0EEC4D4E4F7002E8
:022601007B015B
:06260300E5084509700620
:0626090090E6497482F026
:08260F0078ACB60003022512AD
:0B2617007B0190E6A37401F002251285
:0A262200C0021208FAD002EA602993
:07262C00E50FC3950BFAE571
:0526330010950CFBE511
:0526380011950DFCE509
:05263D0012950EFD8A5C
:042642000B8B0C8C66
:042646000D8D0E7870
:0B264A00ACE64480F67582040208072D
:012655002262
:0A265600E4FAFBF508F509758204AB
:0D266000C002C0031207E0D00300C0031247
:0D266D0007FE758200120807D003D002ACF2
:04267A000BAD0CAEEA
:04267E000DAF0E8C02
:042682000F8D108E1A
:09268600118F12EC4D4E4F700251
:02268F007B01CD
:03269100EB6006F5
:06269400EA60030227DBEF
:0D269A00C002C003120772D003D002E4B5E5
:0426A7000A0280465D
:0526AB007401B50A12E4
:0326B000EA700FBE
:0E26B3007A01C002C0031207FED003D00280DD
:0126C1002FE9
:0526C2007402B50A25B9
:0E26C700C002C0031207FED003D002EB701C4D
:0E26D50090E6A37401F000000090E6A57401E9
:0926E300F07B0178AC7602800561
:0526EC007A000227DB6B
:0326F100EB709DEE
:0626F400E5084509703DF8
:0526FA00E5AA20E03814
:0526FF00E5AA20E5330F
:072704007C007DF08D9A7C42
:08270B00007DF07D008C9B7C39
:06271300007DF88D9D7CA5
:08271900007DF87D008C9E900C
:0E272100E690E0FC8C057C0090E691E0FE7FE7
:08272F00002CF508EF3DF5094F
:07273700E5084509700302EB
:02273E002691E2
:0E274000C002C003122467E582D003D00270ED
:01274E000684
:06274F0078AC7605806AFB
:0E275500C002C00312249BE582D003D00270A4
:01276300066F
:0627640078AC76068055FA
:08276A00150874FFB508021503
:01277200095D
:05277300AC0BAD0CAE43
:0A2778000DAF0E1CBCFF091DBDFFD4
:06278200051EBEFF011F51
:052788008C0B8D0C8E8E
:09278D000D8F0EEC4D4E4F700251
:022796007B01C5
:06279800E508450970216F
:0D279E0090E690E0FC90E698F000000090BE
:0C27AB00E691E0FC90E699F00000009040
:0827B700E6497482F000000005
:0827BF0078ACB600030226917C
:0E27C70090E6A37401F000000090E6A57401F6
:0627D500F07B01022691D9
:0E27DB00C0021208FA00120932D002EA603180
:0727E900E50FC3950BFAE5B3
:0527F00010950CFBE553
:0527F50011950DFCE54B
:0527FA0012950EFD8A9E
:0427FF000F8B108CA0
:04280300118D128A97
:042807000B8B0C8C9F
:04280B000D8D0E78A9
:0B280F00ACE644C0F675820802080722
:01281A00229B
:0C281B008582417B007C00C003C00412D9
:0A2827002467E582D004D003700D91
:0B2831001207FE78AC760575820002ED
:02283C0008078B
:0E283E00758204C003C0041207E0D00400C07D
:0B284C00041207FED004D003E50B458A
:042857000C450D45DA
:03285B000E7002FA
:02285E007C01FB
:0A28600090E6F574FFF090E6CEE577
:09286A000EF000000090E6CFE53D
:092873000DF000000090E6D0E534
:09287C000CF000000090E6D1E52B
:0C2885000BF0C003C004122300D004D0EC
:0A2891000390E6D1E0FDE541601C74
:0E289B0090E6187410F000000090E6D2740170
:0728A900F0000000EC7031AB
:0728B000F5BB000000802AC7
:0E28B700C003C004C00512095DD005D004D0D6
:0E28C5000390E61A7408F000000090E6E2743A
:0828D30002F0000000EC7006A9
:0628DB0075BB06000000C1
:0E28E100758200C003C004C005120807D005B0
:0428EF00D004D0033E
:0328F300EC600690
:0628F600EB60030229F172
:0E28FC00C003C004C005120772D005D004D07E
:07290A0003E4B50A02806638
:052911007401B50A1677
:03291600EB701350
:0E2919007B01C003C004C0051207FED005D02C
:0529270004D003804B09
:05292C007402B50A422F
:0E293100C003C004C0051207FED005D004D0BC
:04293F0003EC703401
:0529430078ACE6700411
:0429480078AC7602EF
:04294C00E5416008F9
:0829500090E6A37401F080067B
:0629580090E6A57401F0F9
:08295E00000000E5BB20E709C1
:0929660000000090E6F574FFF09A
:04296F007C01800463
:042973007B00807AEB
:05297700E5BB20E75D57
:0A297C0090E6D1E0FEB505028012DE
:0E298600C003C004122300D004D00390E6D199
:04299400E0FD8024BE
:03299800308D215E
:08299B0078AC7606E541600806
:0829A30090E6A37401F0800628
:0629AB0090E6A57401F0A6
:0B29B1007C0100000090E6F574FFF0D0
:0429BC00E54160058C
:0529C000E5AA30E00F64
:0729C500E54160030228F365
:0829CC00E5AA30E5030228F33F
:0529D400D28C0228F383
:0629D900EC60030228F38C
:0429DF00E541700955
:0929E30090E6487406F0000000C3
:0529EC007C010228F34C
:0E29F100C0031208FA00120932D003EB700185
:0129FF0022B5
:0C2A000090E6CEE0FB7C007D007E008BA9
:052A0C00457542007554
:062A110043007544009033
:0E2A1700E6CFE0FF7A007B008A048F03E4FA2A
:082A2500FF4242EA4243EB428A
:052A2D0044EC4245905D
:0E2A3200E6D0E0FD7E007A008A038E028D065B
:092A4000E4FD4242EE4243EA4289
:052A490044EB42459042
:0C2A4E00E6D1E0FCE4FFFAFBE5424204A4
:092A5A00E5434207E5444202E5B0
:092A6300454203E50BC39CFCE5B0
:082A6C000C9FFFE50D9AFAE54D
:062A74000E9BFB8C0B8F92
:042A7A000C8A0D8B2A
:052A7E000EE5416004BB
:042A83007A808002D3
:022A87007A4093
:0B2A890078ACEA46F6758204020807EC
:012A9400221F
:0534860001020000003E
:05348B0001000000003B
:05349000010000000036
:0D2A950090E60174FAF090E6F574FFF09001
:0A2AA2003539E493FA90E6F3F09062
:0A2AAC00353AE493FA90E6C3F09087
:0A2AB600353BE493FA90E6C1F0907E
:0A2AC000353CE493FA90E6C2F09072
:0A2ACA00353EE493FA90E6C0F09068
:0D2AD400353FE493FA90E6F4F075AF077A11
:062AE100957B348B9A7A0C
:0A2AE700957B347B008A9B759DE40B
:052AF100759E007A0053
:032AF600BA8000A3
:022AF900500C7F
:0C2AFB0090E67BE0FB90E67CF00A80EFA8
:0E2B070090E67174FFF075B4FF90E672E0FA8C
:0E2B15004480F043B68000000090E6C4E4F077
:0E2B230000000090E6C5E4F0903515E493FA4A
:0B2B310090E6C6F0903516E493FA9091
:0A2B3C00E6C7F0903517E493FA9015
:0A2B4600E6C8F0903518E493FA9009
:0A2B5000E6C9F0903519E493FA90FD
:0A2B5A00E6CAF090351AE493FA90F1
:0A2B6400E6CBF090351BE493FA90E5
:0A2B6E00E6CCF090351CE493FA90D9
:032B7800E6CDF0B7
:012B7B002237
:0E34950081B9010101010107230302020202B5
:0E34A3000200F7F5F5F5F5F5F5F7000000006D
:0E34B1000000003F0C8A9A3FA5B53F0721039B
:0E34BF00030103030500F3F3F2F3F3F1F3F757
:0E34CD003F0000000000003F81913801010126
:0E34DB0001070101070202020200F7F5F7F7F0
:0E34E900F7F7F7F7000075000000003F819133
:0E34F700380101010107030305000000000079
:0E350500F3F1F3F3F3F3F3F700006E000000B0
:02351300003F77
:0E3515000000000000000000000000000000A8
:0E35230000000000000000000000000000009A
:08353100000000000000000092
:07353900E08000F7FA4E00EC
:072B7C0078AAB60202806096
:072B830078ABB600028011DF
:0B2B8A001207FE78AC760C758200127A
:062B950008077582012211
:052B9B0078AAE6701F9E
:062BA000789FE630E3110E
:0B2BA6001207FE78AC76037582001267
:062BB100080775820122F5
:082BB700789FE64408F6802433
:052BBF0078AAB6010830
:082BC400789FE654F7F6801734
:062BCC00789FE620E311F2
:0B2BD2001207FE78AC7604758200123A
:062BDD00080775820122C9
:072BE30078AAE624FB403B49
:0A2BEA0078AAE625E026902BF4738C
:072BF400022C03022C030276
:062BFB002C0E022C1B024F
:022C01002C2085
:0B2C03001207FE758200120807801BFC
:0D2C0E0090354A75F08012089675820122FB
:052C1B00122C2D8009C0
:052C2000122F468004A4
:042C25007582002292
:032C2900758201B0
:012C2C002285
:072C2D0075460075470075B4
:092C340048007582081207E01245
:0B2C3D0007FE758200120807C280909D
:0E2C4800E618E4F000000090E61AE4F0000048
:0E2C56000090E6027468F000000090E630E4A2
:0E2C6400F000000090E631E4F090E680E0FD24
:032C720030E70642
:062C75007D007E028004D8
:042C7B007D407E001A
:052C7F008D498E4AAFF3
:042C84000FAB10AAD8
:042C880011AC1285F4
:032C8C00494B852C
:032C8F004A4C7537
:082C92004D00754E00C3EF95E3
:062C9A004BEB954CEA959E
:062CA0004DEC954E502C96
:052CA6008F498B4AADCF
:0C2CAB004A90E63474C04DF00000009028
:072CB700E635E549F0E4F504
:042CBE0008F5097597
:062CC2004701750F0075CB
:062CC800100075110075FB
:042CCE0012008072FE
:082CD20090E680E0FD30E713FD
:0E2CDA0090E63474C8F000000090E635E4F097
:052CE800000000801255
:0E2CED0090E63474C0F000000090E6357440AC
:042CFB00F0000000E5
:0A2CFF00EFC3954BFFEB954CFBEA89
:082D0900954DFAEC954EFC8F8C
:042D11000F8B108A8A
:042D1500118C128586
:032D19000F4F85D4
:032D1C00105085CF
:032D1F00115185CA
:052D22001252C3EF9501
:062D27004BEB954CEA9510
:062D2D004DEC954E500B29
:042D3300854F08853B
:032D3700500975CB
:042D3A0047018006C7
:042D3E008549088536
:022D42004A093C
:0A2D440090E601E0FA4403F0D287A4
:042D4E00E5486007ED
:072D5200E5466003022EC4F8
:072D5900120772E50A602E6B
:052D60007401B50A0C2E
:042D6500E5467008C7
:082D69001207FE754601801DF2
:052D71007402B50A1216
:072D76001207FEE548701191
:0A2D7D00C28778AC76027548018029
:012D87000645
:062D8800754600022EC496
:042D8E00E54870BCE8
:052D9200E5AA20E05855
:0E2D970090E690E0FA8A037A00EB3395E0FCB8
:082DA500FDE50BC39AF54FE5B3
:052DAD000C9BF550E550
:052DB2000D9CF551E548
:052DB7000E9DF55285A0
:032DBC004F0B8535
:032DBF00500C8530
:032DC200510D852B
:032DC500520E901B
:0C2DC800E691E0FEE4FFFAFBE54FC39E3D
:0A2DD400FEE5509FFFE5519AFAE575
:062DDE00529BFB8E0B8FDF
:042DE4000C8A0D8BBD
:072DE8000E90E6497402F0B1
:0B2DEF0090E6A9E0FA20E203022E9B10
:0E2DFA0090E6A5E0FA530270BA3003022E9B59
:042E0800E547601525
:0C2E0C00AA0990E63474C04AF0000000EF
:092E180090E635E508F000000029
:0A2E210090E698E54AF000000090EA
:092E2B00E699E549F0000000857C
:032E3400084985C5
:032E3700094AE560
:052E3A00084509605C81
:082E3F00AA08AB09E4FCFDE563
:092E47000FC39AFAE5109BFBE5AC
:082E5000119CFCE5129DFD8AB6
:042E58000F8B108C40
:042E5C00118D12853D
:032E60000F4F858C
:032E630010508587
:032E660011518582
:032E690012529072
:072E6C00E680E0FE30E706FE
:062E73007E007F028004D6
:042E79007E407F0018
:0B2E7D00EF3395E0FAFBC3E54F9EE544
:062E8800509FE5519AE5A0
:042E8E00529B5009FA
:042E9200850F08851B
:032E9600100975AB
:022E99004701EF
:072E9B00E549454A6003020E
:022EA2002D4EB3
:0B2EA40090E6A7E0FA20E203022D4EAA
:052EAF00E50B450C4598
:062EB4000D450E60030253
:022EBA002D4E9B
:082EBC00754801C287022D4E8A
:0E2EC400C28790E601E054FEF0E0FA4402F00E
:072ED2001208FA120932E5B3
:032ED900466067E9
:052EDC0078ACE6705C1B
:072EE10090E6ACE0FA70116D
:072EE80090E6ABE0FA700A6E
:052EEF00E50B450C4558
:052EF4000D450E6026F3
:062EF900E549454A6006B0
:062EFF0078AC760A803871
:072F050090E6B0E0FA70074E
:072F0C0090E6AFE0FA600659
:062F130078AC760B80246F
:062F190078AC7607801E73
:062F1F00E549454A600689
:062F250078AC7608801272
:072F2B0090E6AFE0FA700729
:072F320090E6B0E0FA600434
:042F390078AC7609F1
:062F3D0075820012080776
:022F4300D2803A
:012F45002269
:0D2F46007A007B007C00C002C003C00412B2
:0E2F530007FE758200120807D004D003D002DA
:0E2F6100C28090E6187410F000000090E61A8E
:0D2F6F007408F0000000C002C003C004128E
:0E2F7C00095DD004D003D00290E60274E8F0A4
:0E2F8A0000000090E601E0FD4403F0D28790C5
:0C2F9800E630E4F000000090E631E4F0C8
:032FA400EA6003DD
:032FA700EB706369
:0E2FAA00C002C003C004120772D004D003D0CE
:052FB80002E50A603C87
:052FBD007401B50A16C5
:032FC200EA70139F
:0E2FC5007A01C002C003C0041207FED004D07F
:052FD30003D002802183
:052FD8007402B50A18A7
:0E2FDD00C002C003C0041207FED004D003D00F
:042FEB0002EB700A7B
:062FEF007C017B0180045F
:042FF5007A008014CA
:032FF900EB70A8D2
:032FFC00EA60A5E3
:082FFF0090E6A7E0FD30E29D21
:063007007B01C2878097E7
:0E300D00C28790E601E054FEF0E0FB4402F0C2
:0D301B00C002C0041208FAD00400C0041264
:093028000932D004D002EA601B59
:03303100EC70122E
:0730340090E6ABE0FA700723
:07303B0090E6ACE0FA60042E
:0430420078AC7607E9
:063046007582001208076C
:02304C00D28030
:01304E00225F
:05354000010200000083
:05354500010000000080
:05354A0001000000007B
:07304F001207FE750B04756A
:063056000C00750D007571
:08305C000E0075820402080752
:0A3064007582011207E01207FEAAB0
:0C306E000B8A037C00EB54FC7003EC6048
:01307A00074E
:07307B0078AC760C0231096C
:0830820090E678E0FB20E6F87F
:0B308A0090E6787480F078ACE6700AE5
:0A309500430240EA2AF5821232B825
:05309F0078ACE67005AD
:0530A400F5821232B8B4
:0530A90078ACE67006A2
:0630AE0075823F1232B8EA
:0530B40078ACE6700697
:0630B9007582FF1232B81F
:0C30BF0090E678E0FA4440F078ACE6704F
:0130CB003DC7
:0E30CC0075821012085790E67C74A0F0740F05
:0E30DA00F0E4F0E4F090E67C74D0F07407F0BF
:0A30E800E4F0E4F0750808E4F509CF
:0A30F20090E67CE4F0150874FFB5C9
:0430FC0008021509A8
:06310000E508450970EC32
:0331060002087B41
:06310900758200020807B8
:0A310F007582011207E01207FEAA04
:0B3119000B7B00EA54FC7003EB600A23
:0A31240078AC7602758200020807FD
:0B312E00758220120857750820E4F598
:04313900097AC07BD4
:0A313D00E78A828B83A3A3E50BC48D
:0A3147000354F8245EFAE43435FB6B
:053151008A138B14122B
:053156000AC302087B22
:0A315B007582011207E01207FEAAB8
:0B3165000B7B00EA54FC7003EB600AD7
:0A31700078AC760C758200020807A7
:0C317A007582141208577440450B25E0C4
:07318600FA8A0F750B0075BA
:06318D000C00750D007539
:063193000E007510027829
:04319900ACE670032D
:03319D00123220CB
:0A31A000AA0BE50CC423CAC4235493
:0C31AA001F6ACA541FCA6ACAFB8A0B8B3A
:0531B6000C90E67CE531
:0631BB000BF0E50CF0E54D
:0631C1000DF0E50EF075B3
:0631C7000B00750C007501
:0631CD000D00750E0075F7
:0731D300100178ACE6700367
:0331DA001232208E
:0531DD00E50C30E706DF
:0631E200750DFF750EFFE4
:0731E80090E67CE50BF0E529
:0631EF000CF0E50DF0E517
:0731F5000EF0750808E4F577
:0131FC0009C9
:0A31FD0090E67CE4F0150874FFB5BD
:04320700080215099B
:06320B00E508450970EC26
:0D32110090E67C7401F0E4F0E4F0E4F002DB
:02321E00087B2B
:0832200090E678E0FA20E6F8E0
:0B32280090E6787480F078ACE6700649
:06323300850F821232B883
:0532390078ACE6700610
:06323E008510821232B877
:0532440078ACE6700803
:0832490090E678E0FA4440F041
:0832510000000078ACE67008F3
:0832590090E678E0FA20E6F8A7
:0532610078ACE67006E8
:0632660090E6787480F090
:05326C0078ACE67009DA
:093271007401450FF5821232B818
:05327A0078ACE67009CC
:09327F0090000C75F0401232DBE6
:0532880078ACE67008BF
:08328D0090E678E0FA4420F01D
:0532950078ACE67009B1
:09329A0090000C75F0401232DBCB
:0C32A30090E678E0FA4440F078ACE67069
:0132AF000717
:0732B00090E679E0FA8A0BB9
:0132B70022F4
:0632B800E58290E679F0CA
:0832BE0090E678E0FA30E0F838
:0832C60090E678E0FA20E2082E
:0832CE0090E678E0FA20E1042B
:0432D60078AC762337
:0132DA0022D1
:0E32DB00AA82AB83ACF090E679E0FD8A828B8C
:0632E900838CF012336932
:0832EF0090E678E0FA30E0F807
:0832F70090E678E0FA30E204F1
:0432FF0078AC76230E
:0133030022A7
:05354F00010200000074
:05355400010000000071
:0535590001000000006C
:0E355E00332E335600000000312E3856000088
:0E356C000000312E305600000000322E355681
:04357A00000000004D
:0EE1000012010002000000404314070000005E
:04E10E000102000109
:0AE112000A060002000000400100B0
:0EE11C0009022E0001010080FA09040000042F
:0EE12A00FF000000070501024000000705810C
:0EE138000240000007050202000200070586F3
:04E1460002000200D1
:0EE14A0009022E0001010080FA090400000401
:0EE15800FF00000007050102400000070581DE
:0EE16600024000000705020240000007058687
:04E174000240000065
:02E178000000A5
:093F00000205A8000205DC000224
:083F090005C60002064000029B
:083F110005F20002065E000249
:083F190006B8000206B8000220
:083F210006B8000206B8000218
:083F290006B8000206B8000210
:083F310006B8000206B8000208
:083F390006B8000206B8000200
:083F410006B8000206B80002F8
:083F490006B8000206B80002F0
:083F510006B8000206B80002E8
:083F590006B8000206B80002E0
:083F610006B8000206B80002D8
:083F690006B8000206B80002D0
:083F710006B8000206B80002C8
:083F790006B8000206B80002C0
:083F810006B8000206B80002B8
:083F890006B8000206B80002B0
:083F910006B8000206B80002A8
:083F990006B8000206B80002A0
:083FA10006B8000206B8000298
:083FA90006B8000206B8000290
:073FB10006B8000206B8008B
:08330400FB7A20E4FCFDFEFF52
:0E330C00E5822582F582E58333F583E5F03313
:0B331A00F5F0EB33FB4017DAE98042CE
:0E332500E5822582F582E58333F583E5F033FA
:05333300F5F0EB33FB97
:0E333800EC33FCED33FDEE33FEEF33FFEC958E
:0633460053ED9554EE95D5
:08334C0055EF95564013EC9576
:0833540053FCED9554FDEE95CC
:09335C0055FEEF9556FF43820176
:02336500DABECE
:02336700EB2257
:06009C00E478FFF6D8FD38
:08007A007900E94400601B7AE3
:050082000090357E78BE
:030087000075A061
:0A008A00E0E493F2A308B8000205B9
:08009400A0D9F4DAF275A0FF17
:0E33690020F71030F6118883A88220F507F6B1
:05337700A8837583002E
:01337C00222E
:03337D00F280F7E4
:02338000F02239
:0C338200AAF0FBE5828553F0A4FCADF03E
:0C338E00E5838553F0A42DFDE435F0FE2E
:0C339A00E5828554F0A42DFDE5F03EFE18
:0C33A600E433FFEA8553F0A42EFEE5F0AE
:0C33B2003FFFE5838554F0A42EFEE5F0FB
:0C33BE003FFFE5828555F0A42EFEE5F0EF
:0B33CA003FFFEB8553F0A42FFFEA85C6
:0A33D50054F0A42FFFE5838555F0A6
:0C33DF00A42FFFE5828556F0A42F8EF08D
:0533EB008D838C82229D
:0400A20075A00078CD
:0700A60000E8440060077947
:0600AD0000E4F309D8FC99
:0800B3007800E84400600C79BC
:0B00BB000090E000E4F0A3D8FCD9FAAC
:02006B00E4733C
:03006D0075815644
:0A00700012340CE582600302006602
:0E33F00020F71430F6148883A88220F507E633
:0633FE00A8837583002284
:03340400E280F76C
:03340700E4932229
:02340A00E022BE
:04340C0075820022A3
:00000001FF
