:0400000002006D325B
:01000B0032C2
:0100130032BA
:01001B0032B2
:0100230032AA
:01002B0032A2
:030033000206B111
:01003B003292
:03004300021F0099
:01004B003282
:03005300021F0089
:01005B003272
:030063000206B5DD
:0300E400020066B1
:050066001200E780FE1E
:0900E700788176007880760090A3
:0E00F000E60B7403F000000000000090E60034
:0E00FE007410F075802075B2EF75900075B328
:0E010C00FF75B00075B5FF90E67AE0FA440189
:0B011A00F090E60174E0F012026F901C
:0E012500E6097403F000000075890100000077
:06013300788276000876D8
:04013900E17884766F
:05013D00120876E178D4
:0501420086761C087622
:04014700E17888765D
:0A014B004A0876E1D2E843D820907C
:0E015500E668E0FA4409F090E65CE0FA443D0A
:0E016300F090E682E4F0D2AF90E680E0FA542D
:05017100F7F0538EF8C9
:080176001201B8789EE6600753
:07017E00120194789E760047
:050185007881E6600432
:04018A007881760002
:05018E001206B580E33C
:010193002249
:0A01940090E680E0FA440AF07A00D9
:02019E00DAFE87
:0E01A00090E65D74FFF090E65F74FFF05391FF
:0901AE00EF90E680E0FA54F7F04E
:0101B7002225
:0601B8007880E6700122D0
:0501BE00AA08AB09785E
:0901C30096A60208A603788EA698
:0601CC000B08A60C08A6BA
:0501D2000D08A60E78E7
:0501D70092A60F08A62E
:0601DC001008A61108A6A0
:0601E200127898A69B783C
:0801E80099A69A789AA69E7868
:0A01F0009BA69D1202F1E582700843
:0801FA0090E6A0E0FA4401F0D8
:0C02020090E6A0E0FA4480F078807600DE
:06020E00789686080886C0
:0A02140009788E860208860308862A
:09021E00040886058A0B8B0C8C88
:040227000D8D0E78B3
:0C022B00928602088603088604088605F7
:050237008A0F8B108C02
:04023C00118D127896
:0802400098869B7899869A7854
:070248009A869E789B869DBB
:01024F00228C
:0E02500090E6837401F07421F07411F07431A3
:0E025E00F090E6837402F07422F07416F074CF
:02026C0036F06A
:01026E00226D
:0E026F0090E610E4F000000090E611E4F000CC
:0E027D00000090E612E4F000000090E613E4AA
:0D028B00F000000090E614E4F00000009088
:0E029800E615E4F000000090E618E4F0000027
:0E02A6000090E619E4F000000090E61AE4F083
:0E02B40000000090E61BE4F000000090E61051
:0E02C20074A0F000000090E61174A0F000009F
:0E02D0000090E61274A0F000000090E6147496
:0E02DE00E0F000000090E68DE4F00000001259
:0502EC00091B0208E3FC
:0C02F10090E6B9E0FA24F4500302059EE8
:0702FD00EA2A2A90030473B2
:070304000203EB0204750285
:06030B00059E020523021D
:06031100059E02059E029C
:06031700032802059E020E
:06031D0003D60203C40236
:05032300039D0203B27E
:0A03280090E6BBE0FABA0102800F74
:05033200BA0202802068
:05033700BA060280314E
:05033C00BA075A8042DF
:09034100788290E6B308E6F0783A
:0B034A008286027B0090E6B4EAF0021D
:0203550005A100
:09035700788A90E6B308E6F0781C
:0B0360008A86027B0090E6B4EAF002FF
:02036B0005A1EA
:09036D00788490E6B308E6F0780C
:0B0376008486027B0090E6B4EAF002EF
:0203810005A1D4
:09038300788C90E6B308E6F078EE
:0B038C008C86027B0090E6B4EAF002D1
:0203970005A1BE
:040399007582002247
:08039D0090E740789DE6F09026
:0B03A500E68AE4F090E68B7401F002A1
:0203B00005A1A5
:0A03B20090E6BAE0FA789DA6021268
:0603BC00026F1202500264
:0203C20005A193
:0A03C40090E6BAE0FA789CA6021257
:0603CE00026F1202500252
:0203D40005A181
:0803D60090E740789CE6F090EE
:0B03DE00E68AE4F090E68B7401F00268
:0203E90005A16C
:0A03EB0090E6B8E0FABA8002800A3A
:0503F500BA8102801B2B
:0503FA00BA8274802CA2
:0A03FF0090E740E4F090E741F09031
:0A040900E68AF090E68B7402F00220
:0204130005A141
:0A04150090E740E4F090E741F0901A
:0A041F00E68AF090E68B7402F0020A
:0204290005A12B
:0E042B0090E6BCE0FA53027E90E6BCE0FBC314
:0E04390074809BE433FB4A901DD293FA3395F6
:0E044700E0FB74A12AFA74E63BFB8A828B83E9
:0E045500E0FA53020190E740EAF090E741E43C
:0C046300F090E68AF090E68B7402F00244
:02046F0005A1E5
:04047100758200226E
:0704750090E6B8E0FA600810
:05047C00BA020280122B
:0304810002051F52
:0B04840090E6BAE0FABA01030205A1FD
:04048F007582002250
:0904930090E6BAE0600302051BCB
:0E049C0090E6BCE0FA53027E90E6BCE0FBC3A3
:0E04AA0074809BE433FB4A901DD293FA339585
:0E04B800E0FB74A12AFA74E63BFB90E6BCE080
:0E04C600FC53047E90E6BCE0FDC374809DE410
:0E04D40033FD4C901DD293FC3395E0FD74A1D6
:0E04E2002CFC74E63DFD8C828D83E0FC5304FF
:0E04F000FE8A828B83ECF090E6BCE05480FA2A
:0E04FE00C423541FFA90E6BCE0FB740F5B9021
:0D050C00E6832AF090E683E0FA4420F00236
:0205190005A13A
:04051B0075820022C3
:04051F0075820022BF
:0705230090E6B8E0FA600564
:05052A00BA026D800E15
:0A052F0090E6BAE0FABA0202806812
:0405390075820022A5
:0E053D0090E6BCE0FA53027E90E6BCE0FBC301
:0E054B0074809BE433FB4A901DD293FA3395E3
:0E055900E0FB74A12AFA74E63BFB90E6BCE0DE
:0E056700FC53047E90E6BCE0FDC374809DE46E
:0E05750033FD4C901DD293FC3395E0FD74A134
:0E0583002CFC74E63DFD8C828D83E0FC43046D
:09059100018A828B83ECF08007E3
:04059A007582002244
:03059E00020A72DC
:0305A1007582015F
:0105A4002234
:0C05A500C0E0C082C083C00078807601F6
:0905B1005391EF90E65D7401F036
:0905BA00D000D083D082D0E032E1
:0E05C300C0E0C082C0835391EF90E65D7404E7
:0105D100F039
:0705D200D083D082D0E0329B
:0E05D900C0E0C082C0835391EF90E65D7402D3
:0105E700F023
:0705E800D083D082D0E03285
:0D05EF00C0E0C082C083C002C003C000781D
:0A05FC00888602088603788AA602AA
:0C06060008A6038A828B83A37402F0789C
:0A061200868602088603788CA60293
:0E061C0008A6038A828B83A37407F05391EF24
:06062A0090E65D7410F083
:0D063000D000D003D002D083D082D0E032C1
:0C063D00C0E0C082C083C000788176015C
:090649005391EF90E65D7408F096
:09065200D000D083D082D0E03248
:0D065B00C0E0C082C083C002C003C0009098
:07066800E680E0FA30E72C08
:0A066F0078868602088603788AA6C2
:0D0679000208A6038A828B83A37402F07826
:0A068600888602088603788CA6021D
:0B06900008A6038A828B83A37407F086
:09069B005391EF90E65D7420F02C
:0D06A400D000D003D002D083D082D0E0324D
:0306B10053D8EF2C
:0106B4003213
:051DCD0001020000000E
:0A1DD20000010202030304040505EA
:0A00C600789E7600789FE4F608F6B5
:0C00D00008F608F678A3E4F608F608F637
:0800DC0008F678A7E4F608F627
:0706B5001206F3E582601458
:0706BC001206D1E582700D6A
:0B06C3001207E778AC76017582000298
:0206CE0007F033
:0106D0002207
:0706D10078A9B60002800EBB
:0706D80078A9B60102800AB7
:0706DF0078A9B6020B8006AA
:0306E60002097B8B
:0306E9000209DF24
:0306EC000210F900
:0306EF0075820011
:0106F20022E5
:0506F300E5BA30E1044E
:0406F80075820022E5
:0706FC0078AC76007A807BE8
:06070300E78B9A7A807B6F
:0C070900E77B008A9B90E67BE0FA7B0017
:050715000ABA00010B0F
:0E071A0090E68DE0FC7D00EAB50406EBB50527
:030728000280113B
:0B072B001207E778AC7601758200121F
:0607360007F075820022AD
:0A073C0090E67BE0FA78A9A602908F
:09074600E67BE0FA78AAA6029015
:0B074F00E67BE0FA78ABA602758201A1
:01075A00227C
:08075B001201B8E5BA30E10417
:04076300750A0022F1
:0C07670090E780E0FA7B000ABA00010B6A
:0E07730090E68DE0FC7D00EAB50406EBB505CE
:03078100028011E2
:0B0784001207E778AC760175820012C6
:06078F0007F0750AFF22CD
:0B07950090E781E0FA78A9E6B50213B6
:0C07A00090E782E0FA78AA748046FBEA39
:0307AC00B503048E
:0407AF00750A0122A4
:0607B30090E781E0700CEC
:0807B90090E782E0FABA0204A5
:0407C100750A022291
:0307C500750AFFB3
:0107C800220E
:0807C900AA827B0B7C007D403D
:0E07D10090E67BE0FE8B828C838DF0121D94EF
:0707DF00A3AB82AC83DAEB4F
:0107E60022F0
:0807E70090E68DE4F000000033
:0107EF0022E7
:0707F000AA82E5BA30E20124
:0107F70022DF
:0707F8007BC07CE78C9D7BB8
:0807FF00C07CE77C008B9E909A
:08080700E67CEA04F078AC90F5
:07080F00E67CE6F07B0B7CA8
:05081600007D408A0690
:03081B00EE601775
:0E081E008B828C838DF0121DADFFA3AB82ACDC
:09082C008390E67CEFF01E80E6EB
:0A08350090E68F74022AF000000024
:01083F002296
:07084000AA82E5BA30E201D3
:01084700228E
:070848007BC07CE78C9D7B67
:08084F00C07CE77C008B9E9049
:08085700E67CEA04F078AC90A5
:04085F00E67CE6F05D
:010863002272
:05086400E5BA30E201DD
:01086900226C
:08086A0090E7C178ACE6F090C4
:0C087200E7C0E0FA90E68F04F000000000
:01087E002257
:0E087F00AA82AB83ACF090E67BE0FDC002C025
:0E088D0003C004C0051207E7D005D004D00355
:07089B00D002E5BA30E201D2
:0108A2002233
:0708A3007EC07FE78F9D7E00
:0808AA00C07FE77F008E9E90E5
:0C08B200E67CED04F090E67CE4F08D069E
:0308BE00EE6017D2
:0E08C1008A828B838CF0121DADFFA3AA82AB3E
:0908CF008390E67CEFF01E80E648
:0A08D80090E68F74022DF00000007E
:0108E20022F3
:0E08E30090E618E4F000000090E6047480F047
:0E08F10000000090E6047402F00000007A049B
:0B08FF0090E6497482F0000000DAF57A
:0E090A0090E604E4F000000090E6A3E4F000A4
:020918000000DD
:01091A0022BA
:0E091B0090E61AE4F000000090E6047480F00C
:0D09290000000090E6047406F0000000904D
:0E093600E604E4F000000090E6A5E4F0000006
:0109440000B2
:01094500228F
:0809460090E680E0FA30E706BC
:06094E007A007B02800428
:040954007A407B006A
:0E09580090E624EBF000000090E680E0FA301C
:02096600E706A2
:060968007A007B0280040E
:04096E007A407B0050
:0809720090E625EAF000000008
:01097A00225A
:07097B0078AAB60202800712
:0709820078AAB603508005BE
:050989001207E7804D9C
:0A098E007582041207C91207E7E59D
:080998000BF4FAE50CF4FBE599
:0A09A0000DF4FCE50EF4FD747B2A53
:0C09AA00FAE43BFBE43CFCE43DFD8A0B5E
:0509B6008B0C8C0D8D7F
:0509BB000E12125F782E
:0C09C0009FE4F608F608F608F612091B82
:0B09CC001208E37582041207F080049B
:0409D7007582002203
:0309DB0075820121
:0109DE0022F6
:0509DF0078AAB6021722
:0709E4001207E7750B007517
:0609EB000C00750D007503
:0A09F1000E007582041207F0800466
:0409FB0075820022DF
:0309FF00758201FD
:010A020022D1
:0A0A0300AA82AB83E50845097001E3
:010A0D0022C6
:070A0E00AC14BCE6028005F8
:050A15008B05BDE63178
:080A1A008A068B07AC13AD1432
:0E0A22008E028F038C828D83E0F88A828B8394
:060A3000F00EBE00010FF4
:050A36000CBC00010DE5
:080A3B00150874FFB50802154F
:010A430009A9
:060A4400E508450970D829
:010A4A002289
:0C0A4B008C9AAC137E008C9B8D9D7B0070
:050A57008A9E020A5D09
:010A5C002277
:080A5D00A90890E67B058690D4
:040A6500E67C0586A0
:080A6900E00586F00586D9F8CE
:010A71002262
:0A0A720090E6B9E0FABAA202804A49
:050A7C00BAA302804551
:060A8100BAE103020D477B
:060A8700BAE203020D2794
:060A8D00BAE303020D278D
:060A9300BAE403020D07A6
:060A9900BAE503020D079F
:060A9F00BAE603020C128E
:060AA500BAE703020C3F5A
:060AAB00BAE803020C870B
:060AB100BAE903020CE7A4
:060AB700BAEA03020CB6CE
:060ABD00BAEB03020D6715
:030AC300020D879A
:0B0AC60090E6BAE0FAA3E0FB8A0B8B7D
:0A0AD1000C90E6BEE0FAA3E0FB90F3
:090ADB00E6B8E0FCBCC002800397
:030AE400020B778B
:070AE700EA4B7003020D8BC6
:080AEE0090E6A0E0FC20E1F815
:080AF60090E6B9E0FCBCA2117E
:0A0AFE00750D00750E00C002C00364
:070B0800121025D003D002FA
:090B0F00C3EA9440EB9400500687
:060B18008A0D8B0E800621
:060B1E00750D40750E008C
:080B240090E6B9E0FCBCA20D53
:0D0B2C00C002C003120F78D003D002801A5F
:040B3900850D088599
:030B3D000E09900E
:040B4000E740850BFA
:030B440013850C0A
:0C0B470014C002C003120A03D003D00245
:080B530090E68AE4F0AC0DAD60
:080B5B000E90E68BECF0EC2596
:070B63000BFEED350CFF8EC7
:0A0B6A000B8F0CEAC39CFAEB9DFB15
:030B7400020AE78B
:0A0B770078A7E608467003020C0E92
:0C0B810090E6BCE0FCA3E0FD78A7E6B520
:090B8D00040708E6B50502800228
:020B9600807667
:080B980090E6B8E0FCBC406EE1
:070BA000EA4B7003020D8B0C
:090BA70090E68AE4F090E68BF080
:080BB00090E6A0E0FC20E1F852
:0A0BB80090E68BE0FC7D008C0D8DB3
:090BC2000E90E6B9E0FCBCA31F93
:040BCB00850D088507
:030BCF000E098587
:060BD2000B82850C837507
:030BD80013407552
:070BDB0014E7C002C0031281
:080BE2000A03D003D002800BCE
:0B0BEA00C002C003121025D003D0028F
:060BF500AC0DAD0EEC2575
:070BFB000BFEED350CFF8E2F
:0A0C02000B8F0CEAC39CFAEB9DFB7C
:020C0C008092D4
:040C0E0075820022C9
:0A0C120090E6B8E0FABAC0028003D1
:030C1C00020D8B3B
:080C1F0090E6A0E0FA20E1F8E4
:0E0C270090E740740AF0A37403F090E68AE4AC
:0A0C3500F090E68B7402F0020D8BC4
:0A0C3F0090E6B8E0FABAC0028003A4
:030C4900020D8B0E
:080C4C0090E6A0E0FA20E1F8B7
:0E0C540090E7407401F0A3E4F0A3F0A3F09049
:0B0C6200E744E4F5F0121D94A3E41237
:0A0C6D001D94A3E4121D94A3E412E9
:080C77001D9490E68AE4F09060
:080C7F00E68B7408F0020D8BF6
:080C870090E6B8E0FABA402340
:090C8F0090E68AE4F090E68BF097
:080C980090E6A0E0FA20E1F86B
:0C0CA00090E740E0FAA3E0FB78A7A60272
:060CAC0008A603020D8BF7
:040CB2007582002225
:080CB60090E6B8E0FABA40250F
:070CBE0078A7E60846601E5E
:0C0CC50090E6BCE0FAA3E0FB78A7E6B5DF
:090CD100020708E6B503028002E7
:020CDA00800791
:070CDC00789E7601020D8BEA
:040CE30075820022F4
:070CE700750BF0750C3F7561
:060CEE000D04750E0075F7
:060CF4000FCD7510AB905E
:070CFA00E6B8E0FABAC003FE
:030D0100020D8F51
:030D0400020EA834
:070D0700750BE0750C3F7550
:060D0E000D0C750E0075CE
:060D14000F7875105690E7
:070D1A00E6B9E0FABAE403B8
:030D2100020D8F31
:030D2400020EA814
:070D2700750BC0750C3F7550
:060D2E000D10750E0075AA
:060D34000FCD7510AB901D
:070D3A00E6B9E0FABAE2039A
:030D4100020D8F11
:030D4400020EA8F4
:070D4700750BA0750C3F7550
:060D4E000D1C750E00757E
:060D54000FCD7510AB90FD
:070D5A00E6B8E0FABAC0039D
:030D6100020D8FF1
:030D6400020EA8D4
:070D6700750BF8750C3F75D8
:060D6E000D02750E007578
:060D74000FCD7510AB90DD
:070D7A00E6B8E0FABAC0037D
:030D8100020D8FD1
:030D8400020EA8B4
:040D8700758200224F
:030D8B007582016D
:010D8E002242
:0C0D8F007AFF90E6B8E0FBBBC0028004D5
:040D9B00758200223B
:050D9F00AB0DAC0E7568
:0A0DA4000D00750E00C002C003C070
:0E0DAE0004121025D004D003D00274032BFBD6
:0A0DBC00E43CFC8B0D8C0EC002120B
:0A0DC6000F78D002E50D24FDFBE5D7
:070DD0000E34FFFC8B0D8CBB
:0B0DD7000E90E740E0FBA3E0FCEBB552
:060DE2000F48ECB51044BF
:040DE8007A007B0012
:0A0DEC007403250DFCE4350EFD8BA9
:0A0DF600067F00C3EE9CEF9D502C19
:0A0E0000EB2440F582E434E7F583AB
:0A0E0A00E0FC2AFAEB2440FCE4347B
:0A0E1400E7FD74022B2440F582E490
:0C0E1E0034E7F583E0FE8C828D83F00B3E
:020E2A0080C086
:030E2C00EA606415
:040E2F00850D0885A0
:030E33000E099015
:090E3600E6B9E0FABAE1028034E9
:050E3F00BAE202803D53
:050E4400BAE402800584
:050E4900BAE943801727
:020E4E007A0028
:030E5000BA0C00D9
:020E5300503E0F
:0A0E5500EA2440F582E434E7F58357
:060E5F007430F00A80EB84
:050E650090E740751349
:030E6A00E175141B
:060E6D001D120A038020A3
:050E730090E74075133B
:030E7800E5751409
:060E7B001D120A038012A3
:050E810090E74075132D
:030E8600017514DF
:060E89001E120A038004A2
:040E8F007582002246
:0C0E930090E68AE4F000000090E68BE599
:080E9F000DF000000075820156
:010EA7002228
:080EA80090E6B8E0FABA401C24
:070EB00078A7E60846601573
:0C0EB70090E6BCE0FAA3E0FB78A7E6B5EB
:090EC300020708E6B503028004F1
:040ECC007582002209
:090ED00090E68AE4F090E68BF054
:080ED90090E6A0E0FA20E1F828
:070EE10090E68AE0FA7014AC
:050EE800AA0DAB0E9005
:0E0EED00E68BE0FC7D00B50206EDB503028049
:010EFB0004F2
:040EFC0075820022D9
:060F00008A15AD158D06F7
:060F06008E071EEF6025BE
:0C0F0C00C002C00374022E2440FFE43435
:090F1800E7FCEE2440F582E4340C
:0C0F2100E7F583E0FA8F828C83F0D003A8
:040F2D00D00280D599
:080F310090E740E50FF0A3E595
:050F390010F07C407E79
:0A0F3E00E78E9A759B407C00740258
:030F48002515FD6F
:090F4B0090E67BE0FE2CFCDDF7D2
:0A0F5400740225152440F582E434F0
:0C0F5E00E7F583C3E49CFCF074032AFA5E
:080F6A00E43BFB8A0D8B0E1223
:050F720010257582014D
:010F77002257
:050F7800E50DFA700414
:040F7D007582012256
:080F810090E678E0FB20E6F8A1
:0C0F890090E6787480F090E67974A3F094
:080F950090E678E0FB30E0F883
:080F9D0090E678E0FB20E2740D
:080FA50090E678E0FB30E16CFE
:030FAD00BA01087E
:080FB00090E678E0FB4420F01C
:070FB80090E679E07B407C2C
:060FBF00E78C9A7B407CE8
:050FC500E77C008B9B9E
:040FCA00DA028026A1
:080FCE0090E678E0FB30E0F84A
:080FD60090E678E0FB20E23B0D
:030FDE00BA01084D
:080FE10090E678E0FB4420F0EB
:0B0FE90090E679E0FB90E67BF080D6FC
:080FF40090E678E0FA30E0F825
:080FFC0090E678E0FA20E2150E
:0E10040090E678E0FA4440F090E679E0FA9049
:07101200E67BF0758201226C
:0B10190090E678E0FA4440F075820099
:0110240022A9
:02102500AA0D12
:0810270090E678E0FB20E6F8FA
:0C102F0090E6787480F090E67974A2F0EE
:08103B0090E678E0FB30E0F8DC
:0810430090E678E0FB20E26B6F
:08104B0090E678E0FB30E16360
:03105300EA600E42
:071056007B407CE78C9A7BD4
:07105D00407CE77C008B9B47
:021064007B020D
:03106600EA70032A
:03106900EB603BFE
:03106C00EB601422
:03106F00BB0208B9
:0810720090E679E50CF0800620
:06107A0090E679E50BF0A1
:031080001B800AC8
:0A10830090E67BE0FC90E679F01A9D
:08108D0090E678E0FC30E0F889
:0810950090E678E0FC20E2196E
:08109D0090E678E0FC20E1C1BF
:0210A500800FBA
:0E10A70090E678E0FA4440F01210C275820123
:0110B5002218
:0B10B60090E678E0FA4440F0758200FC
:0110C100220C
:0810C20090E678E0FA20E6F860
:0E10CA0090E678E0FA4480F090E67974A2F0A7
:0810D80090E678E0FA30E0F840
:0810E00090E678E0FA4440F0CC
:0810E80090E678E0FA20E6F83A
:0810F00090E678E0FA30E1D24D
:0110F80022D5
:051DDC000102000000FF
:041DE10001011030BC
:0E1DE5004A5441472D555342204361626C65BC
:0E1DF300000000FDFDFDFD00000001723E3C01
:0E1E010044436162557362000000FDFDFDFD6B
:021E0F000000D1
:0710F90078AAB60202806034
:0711000078ABB6000280117C
:0B1107001207E778AC760C758200122E
:0611120007F075820122C6
:0511180078AAE6701F3B
:06111D00789FE630E011AE
:0B1123001207E778AC7603758200121B
:06112E0007F075820122AA
:08113400789FE64401F68024D7
:05113C0078AAB60108CD
:08114100789FE654FEF68017CA
:06114900789FE620E01192
:0B114F001207E778AC760475820012EE
:06115A0007F0758201227E
:0A11600078AAE624F45003021254AA
:0A116A0078AAE625E02690117473C0
:071174000211980211A8020C
:06117B0011B8021254023B
:0611810011C50211DE029F
:06118700121202124D02DB
:06118D00123F02123F02B6
:05119300124602123FAC
:0A1198001212581207E775820012C8
:0611A20007F07582012236
:0A11A80012125F1207E775820012B1
:0611B20007F07582012226
:0D11B800901E1175F08012087F75820122D3
:0711C5001207E7750B00752E
:0611CC000C6A750D187598
:0C11D2000E007582041207F075820122E5
:0711DE0090E67BE0FA6004DB
:0411E500D28580022D
:0211E900C285BD
:0711EB0090E67BE0FA6004CE
:0411F200D283800222
:0211F600C283B2
:0711F80090E67BE0FA6004C1
:0411FF00D286800212
:02120300C286A1
:0D1205001207E77582001207F075820122C2
:0C1212001207E7A285E433FA8A0BA283DE
:08121E00E433FA8A0C30840469
:041226007A008002C8
:02122A007A0147
:0A122C008A0DA286E433FA8A0E75DB
:0912360082041207F07582012206
:07123F0012161B758201224B
:07124600121A347582012227
:07124D0012126675820122F6
:03125400758200A0
:011257002274
:06125800C283D285C286AC
:01125E00226D
:06125F00C283D285C286A5
:011265002266
:051E11000102000000C9
:0B1266007A007B0090E67BE0FC600457
:04127100D2858002A0
:02127500C28530
:0712770090E67BE0FC60043F
:04127E00D283800295
:02128200C28325
:0E128400C286758204C002C0031207C9D003DF
:0E12920000C0031207E77582001207F0D003B8
:0712A000D002AC0BAD0CAE57
:0412A7000DAF0E8CED
:0412AB000F8D108E05
:0912AF00118F12EC4D4E4F70023C
:0212B8007B01B8
:0312BA00EB6006E0
:0612BD00EA600302136B5E
:0D12C300C002C00312075BD003D002E4B5E7
:0412D0000A0280315D
:0512D4007401B50A0FD2
:0E12D9007A01C002C0031207E7D003D00280E2
:0112E7001DE9
:0512E8007402B50A13B9
:0B12ED007B0178AC7602C002C0031247
:0812F80007E7D003D0028005D6
:051300007A0002136BEE
:03130500EB70B2D8
:05130800AC0BAD0CAEC2
:0A130D000DAF0EC3ED94FEEE940048
:05131700EF94005006F8
:06131C008C088D0980061B
:061322007508007509FECC
:08132800AC08AD09E4FEFFE58D
:091330000BC39CFCE50C9DFDE5DE
:081339000D9EFEE50E9FFF8CE6
:041341000B8D0C8E76
:081345000D8F0EC000C001A8CD
:04134D0008A90909D9
:0E135100D286C286D8FAD9F8D001D000EC4D71
:07135F004E4F60030212BAB9
:051366007B010212BA38
:03136B00EA60290C
:07136E00E50FC3950BFAE542
:0513750010950CFBE5E2
:05137A0011950DFCE5DA
:05137F0012950EFD8A2D
:041384000B8B0C8C37
:041388000D8D0E7841
:0B138C00ACE64480F67582040207F016
:011397002233
:0A139800C001C002A908AA09E9601B
:0213A200010A3E
:0313A40090E67B55
:0E13A700E0139283D286C286139283D286C24E
:0E13B50086139283D286C286139283D286C29A
:0E13C30086139283D286C286139283D286C28C
:0E13D10086139283D286C286139283D286C27E
:0913DF0086D9C5DAC3D002D001A1
:0113E80022E2
:0A13E900C001C002A908AA09E960CA
:0213F300010AED
:0A13F50090E67B058690E67C0586F5
:0E13FF00E0139283A28413D286C2869283A248
:0E140D008413D286C2869283A28413D286C232
:0E141B00869283A28413D286C2869283A28414
:0E14290013D286C2869283A28413D286C28614
:0E1437009283A28413D286C2869283A284136B
:0E144500D286C286F40586F00586D9AEDAACF2
:04145300D002D001F2
:011457002272
:0A145800C001C002A908AA09E9605A
:02146200010A7D
:0314640090E67C93
:0E146700A284D286C28613A284D286C28613C5
:0E147500A284D286C28613A284D286C28613B7
:0E148300A284D286C28613A284D286C28613A9
:0E149100A284D286C28613A284D286C286139B
:0A149F00F4F0D9C1DABFD002D00189
:0114A9002220
:0A14AA00C001C002A908AA09E96008
:0214B400010A2B
:0314B60090E67B42
:0E14B900E0139285D286C286139285D286C237
:0E14C70086139285D286C286139285D286C283
:0E14D50086139285D286C286139285D286C275
:0E14E30086139285D286C286139285D286C267
:0914F10086D9C5DAC3D002D0018E
:0114FA0022CF
:0A14FB00C001C002A908AA09E960B7
:02150500010AD9
:0A15070090E67B058690E67C0586E1
:0E151100E0139285A28413D286C2869285A230
:0E151F008413D286C2869285A28413D286C21D
:0E152D00869285A28413D286C2869285A284FD
:0E153B0013D286C2869285A28413D286C286FF
:0E1549009285A28413D286C2869285A2841354
:0E155700D286C286F40586F00586D9AEDAACDF
:04156500D002D001DF
:01156900225F
:0A156A00C001C002A908AA09E96047
:02157400010A6A
:0315760090E67B81
:0E157900E0139283139285D286C2861392836A
:0E158700139285D286C286139283139285D268
:0E15950086C286139283139285D286C286D9AF
:0715A300D5DAD3D002D0011C
:0115AA00221E
:0A15AB00C001C002A908AA09E96006
:0215B500010A29
:0A15B70090E67B058690E67C058631
:0215C1007C02AA
:0E15C300E0139283139285FBE8A28413F8EBE9
:0E15D100D286C286139283139285FBE8A28411
:0E15DF0013F8EBD286C286139283139285FB1B
:0E15ED00E8A28413F8EBD286C2861392831311
:0E15FB009285FBE8A28413F8EBD286C286DC50
:0E160900B9E8F40586F0058619D9ADDAABD044
:0316170002D001FD
:01161A0022AD
:07161B007517007519007539
:071622001A0078AAB6082A9D
:0816290075170190E67BE0F566
:081631001690E67BE0FE600468
:04163900D2858002D4
:02163D00C28564
:04163F00E516600844
:04164300751BE975B5
:041647001C13805A96
:04164B00751B9875FE
:04164F001C13805296
:0516530078AAB609258C
:0A16580075160190E67BE0FC6004CB
:04166200D2858002AB
:02166600C2853B
:0716680090E67BE0FC60044A
:04166F00D2838002A0
:02167300C28330
:04167500751B587514
:041679001C14802895
:08167D0075170190E67BE0F512
:081685001690E67BE0FC600416
:04168D00D283800282
:02169100C28312
:04169300E5166008F0
:04169700751BFB754F
:04169B001C14800695
:04169F00751BAA7598
:0216A3001C1415
:0D16A5007582041207C91207E77582001252
:0416B20007F0850BAD
:0316B6001D850C83
:0316B9001E850D7E
:0316BC001F850E79
:0316BF0020851D66
:0316C2000F851E73
:0316C50010851F6E
:0316C80011852069
:0A16CB00127407551DFD7A007B0024
:0716D5007C008D18AA1DE541
:0C16DC001EC423CAC423541F6ACA541F32
:0C16E800CA6ACAFBE51FC42354E04BFB98
:0A16F400AC1FE520C423CCC423542E
:0C16FE001F6CCC541FCC6CCCFE8A0B8BF4
:04170A000C8C0D8EA8
:05170E000EE518601D4E
:05171300AA0BAB0CACB9
:0A1718000DAE0E0ABA00090BBB006B
:06172200050CBC00010EE5
:051728008A0B8B0C8C04
:03172D000D8E0E10
:05173000E50F45104526
:051735001145127003D4
:03173A007519011D
:02173D00C28662
:04173F00E519600741
:07174300E51A6003021947DB
:07174A0012075BE50A602CA9
:051751007401B50A0C53
:04175600E51A700818
:08175A00751A011207E7801B5C
:051762007402B50A103D
:071767001207E7E519700FFE
:09176E0078AC76027519018006C1
:06177700751A000219477B
:04177D00E517600507
:05178100E5AA20E0B91B
:04178600E5166005FF
:05178A00E5AA20E5B016
:04178F00E51970AC3C
:04179300E517600EE8
:071797007A007BF08B9A7AC7
:07179E00007BF07B008A9B39
:0417A500E516600ED7
:0717A9007A007BF88B9D7AAA
:0717B000007BF87B008A9E1C
:0417B700E5176019B9
:0E17BB0090E690E0FA8A037A0090E691E0FC56
:0A17C9007E004AF508EE4BF509809A
:0117D30054C1
:0417D400850B2185DB
:0317D8000C22855B
:0317DB000D238556
:0317DE000E249046
:0717E100E680E0FF30E7069F
:0617E8007A007B02800480
:0417EE007A407B00C2
:0C17F2008A07EBFD3395E0FAFBC3EF958E
:0617FE0021ED9522EA95A1
:0618040023EB95245018AF
:08180A0090E680E0FA30E706E9
:061812007A007B02800455
:041818007A407B0097
:06181C008A088B0980061A
:04182200852108858F
:02182600220995
:08182800AA08AB09E4FCFDE590
:091830000BC39AFAE50C9BFBE5E1
:081839000D9CFCE50E9DFD8AEB
:041841000B8B0C8C75
:041845000D8D0EE512
:0318490018601311
:05184C00E50B450C4511
:051851000D450E7009B9
:08185600150874FFB508021526
:01185E000980
:06185F00E50845096009DF
:07186500851B82851C831224
:02186C00006B0F
:07186E00E5187003021911D7
:05187500E50B450C45E8
:06187A000D450E600302A3
:0218800019113C
:06188200AA18E517700B27
:03188800308304A6
:04188B007BFF80025D
:02188F007B00DC
:021891008005D0
:0518930090E67BE0FB84
:0518980078AAB60B2642
:02189D008A04BB
:0B189F00EBA2E09285C313FB30840431
:0418AA007D0080023B
:0218AE007D01BA
:0318B000ED6005E3
:0518B3004303808003E7
:0318B80053037F58
:0618BB00D286C286DCDECD
:0218C100802283
:0B18C300EBA2E09283C313FB3084040F
:0418CE007C00800218
:0218D2007C0197
:0318D400EC6005C0
:0518D7004303808003C3
:0318DC0053037F34
:0618DF00D286C286DADEAB
:0418E500E516601D87
:0C18E900AD187A007408C39DFDE49AFA63
:0718F5008DF005F0EB80020D
:0218FC00C31314
:0818FE00D5F0FBFB90E67CF045
:071906007518000508E4B5A7
:04190D0008020509BE
:04191100E51760096D
:0919150090E6497482F000000024
:04191E00E516601258
:0A19220090E698E509F0000000903F
:08192C00E699E508F000000057
:05193400E50B450C4528
:061939000D450E600302E3
:02193F00173F50
:0619410075190102173FB9
:071947001208E312091BE581
:04194E001A700122E8
:04195200E518601D17
:05195600AA0BAB0CAC74
:0A195B000DAD0E1ABAFF091BBBFF09
:06196500051CBCFF011D82
:05196B008A0B8B0C8CBF
:031970000D8D0ECC
:04197300850D23E5D6
:0A1977000EC40354F8C523C403C5D1
:04198100236523C5F2
:061985002354F8C52365A0
:04198B0023F524E537
:08198F000CC40354074523F5C5
:0319970023850B9A
:08199A0021E50CC40354F8C55B
:0619A20021C403C521650C
:0619A80021C52154F8C521
:0419AE00216521F599
:0319B2002285216A
:0319B5000B85227D
:0319B8000C852378
:0319BB000D852473
:0919BE000EAE18E4FFFAFBEE2561
:0819C70021FEEF3522FFEA3595
:0719CF0023FAEB3524FB8E27
:0419D6000B8F0C8ADD
:0419DA000D8B0EE57E
:0919DE000FC39EFEE5109FFFE51A
:0819E700119AFAE5129BFB8E38
:0419EF000F8F108ABC
:0419F300118B128EB4
:0419F7000B8F0C8ABC
:0419FB000D8B0EE55D
:0319FF001760046A
:041A02007A80800264
:021A06007A0064
:041A0800E51660047B
:041A0C007B40800299
:021A10007B0059
:0A1A1200EB4A78AC46F6E5176004D5
:041A1C007A048002C6
:021A20007A004A
:041A2200E516600461
:041A26007B048002BB
:021A2A007B003F
:071A2C00EB2AF5820207F02E
:011A33002290
:071A340075260075270075FF
:071A3B00280090E67BE0F5B6
:081A4200257582041207C91288
:091A4A0007E77582001207F08520
:031A53000B2B85D5
:031A56000C2C85D0
:031A59000D2D85CB
:031A5C000E2E85C6
:031A5F002B0F85C5
:031A62002C1085C0
:031A65002D1185BB
:031A68002E12E556
:041A6B002B452C4596
:051A6F002D452E70035F
:031A7400752701D2
:0C1A77007407552BFAE4FDFBFC740325FA
:081A83002BFBE4352CFCE435DB
:071A8B002DFDE4352EFE8B5A
:041A92000B8C0C8D20
:0A1A96000DEEF50EC313FEED13FD77
:0E1AA000EC13FCEB13FBEEC313FEED13FDEC99
:0A1AAE0013FCEB13FB8B0B8C0C8D6B
:041AB8000D8E0EE59C
:031ABC002560089A
:041ABF007529AB7565
:041AC3002A1580065A
:041AC70075296A759E
:021ACB002A15DA
:021ACD00C286CF
:041ACF00E5276007A0
:071AD300E5286003021CE19D
:0B1ADA00C00212075BD002E50A603476
:051AE5007401B50A10B8
:041AEA00E528700C6F
:0C1AEE00752801C0021207E7D002801F1B
:051AFA007402B50A149E
:0B1AFF00C0021207E7D002E527700FBD
:091B0A0078AC7602752701800613
:061B1300752800021CE130
:051B1900E5AA20E0B187
:041B1E00E525600554
:051B2200E5AA20E5A882
:041B2700E52770A49A
:071B2B007D007EF08E9A7D23
:081B3200007EF07E008D9BE5B2
:031B3A0025601211
:041B3D00E526700E1B
:071B41007D007EF88E9D7D02
:071B4800007EF87E008D9E77
:0E1B4F0090E690E0FD8D067D0090E691E0FFAF
:0A1B5D007B002DF508EB3EF509AB07
:071B670008AC09E4FDFEE5F6
:091B6E000BC39BFBE50C9CFCE59C
:081B77000D9DFDE50E9EFE8BA5
:041B7F000B8C0C8D32
:061B83000D8E0EEA602C3D
:051B8900E50B450C45D1
:051B8E000D450E702260
:0E1B93008A03FC74032BFBE43CFCA2E713CB9B
:0C1BA10013CBA2E713CB13CBFCE508C369
:071BAD009BF508E5099CF51A
:011BB4000927
:061BB500E5084509600D82
:091BBB00C002852982852A8312EB
:041BC400006BD002E0
:061BC800EA7003021C5E3E
:051BCE00E50B450C458C
:061BD3000D450E60030247
:021BD9001C5E90
:091BDB007B0090E67BE0FC7D003C
:051BE400C3ED9A503131
:031BE900BD040533
:051BEC0090E67BE0FC27
:0E1BF100ECA2E09283C313FCA2E09285C31322
:081BFF00FCEBC313FB3084046E
:041C07007E008002D9
:021C0B007E0158
:031C0D00EE600383
:031C10004303800B
:071C1300D286C2860D80CAD3
:041C1A00E525601C40
:0E1C1E008A047D007408C39CFCE49DFD8CF0DC
:051C2C0005F0EB800251
:021C3100C313DB
:071C3300D5F0FB90E67CF008
:0E1C3A008A037C0074032BFBE43CFCA2E7133E
:0C1C4800CB13CBA2E713CB13CBFCEB2596
:051C540008F508EC3565
:051C590009F5097A0005
:041C5E00E5256063B5
:051C6200E50B450C45F7
:051C67000D450E6004B4
:041C6C00E5266052B7
:071C70000508E4B5080205B8
:011C77000963
:081C7800E509C313C50813C5FB
:041C800008F509E575
:031C8400266024B3
:081C870090E680E0FB30E70667
:061C8F007B007C028004D2
:041C95007B407C0014
:0C1C9900ECA2E713CB13CBFCEB2508F505
:051CA50008EC3509F513
:011CAA000930
:0A1CAB0090E698E509F000000090B3
:091CB500E699E508F00000007555
:041CBE002600800379
:031CC20075260183
:0C1CC50090E6497482F0000000E50B4539
:041CD1000C450D456C
:061CD5000E6003021ACFAD
:061CDB00752701021ACF7B
:0C1CE100C0021208E30012091BD002E54B
:041CED002870012238
:0A1CF100E50B25E0FBE50C33FCE5F4
:0A1CFB000D33FDE50E33FEEB2BFB6D
:0C1D0500EC33FCED33FDEE33FE8B0B8C59
:041D11000C8D0D8E9A
:041D15000EEA603D35
:041D1900EA30E21DAD
:051D1D00AB0BAC0CADA6
:0A1D22000DAE0E1BBBFF091CBCFF39
:061D2C00051DBDFF011EB4
:051D32008B0B8C0C8DF1
:031D37000D8E0E00
:0A1D3A00E4FBFCFDEA250BFAEB3593
:081D44000CFBEC350DFCED3544
:051D4C000EFD8A0B8B67
:041D51000C8C0D8D5C
:011D55000E7F
:071D5600E50FC3950BFAE550
:051D5D0010950CFBE5F0
:051D620011950DFCE5E8
:051D670012950EFD8A3B
:041D6C000F8B108C3D
:041D7000118D128A35
:041D74000B8B0C8C3D
:041D78000D8D0EE5DA
:031D7C00257008C7
:051D7F00F50FF510F561
:031D840011F51244
:0C1D870078ACE644C0F67582080207F054
:011D9300222D
:051E16000102000000C4
:0EE10000120100020000004043140100000064
:04E10E000102000109
:0AE112000A060002000000400100B0
:0EE11C0009022E0001010080FA09040000042F
:0EE12A00FF000000070501024000000705810C
:0EE138000240000007050202000200070586F3
:04E1460002000200D1
:0EE14A0009022E0001010080FA090400000401
:0EE15800FF00000007050102400000070581DE
:0EE16600024000000705020240000007058687
:04E174000240000065
:091F00000205A5000205D900024A
:081F090005C30002063D0002C1
:081F110005EF0002065B00026F
:081F190006B5000206B5000246
:081F210006B5000206B500023E
:081F290006B5000206B5000236
:081F310006B5000206B500022E
:081F390006B5000206B5000226
:081F410006B5000206B500021E
:081F490006B5000206B5000216
:081F510006B5000206B500020E
:081F590006B5000206B5000206
:081F610006B5000206B50002FE
:081F690006B5000206B50002F6
:081F710006B5000206B50002EE
:081F790006B5000206B50002E6
:081F810006B5000206B50002DE
:081F890006B5000206B50002D6
:081F910006B5000206B50002CE
:081F990006B5000206B50002C6
:081FA10006B5000206B50002BE
:081FA90006B5000206B50002B6
:071FB10006B5000206B500B1
:06009C00E478FFF6D8FD38
:08007A007900E94400601B7AE3
:0500820000901E1B7838
:030087000075A061
:0A008A00E0E493F2A308B8000205B9
:08009400A0D9F4DAF275A0FF17
:0E1D940020F71030F6118883A88220F507F69C
:051DA200A88375830019
:011DA7002219
:031DA800F280F7CF
:021DAB00F02224
:0400A20075A00078CD
:0700A60000E8440060077947
:0600AD0000E4F309D8FC99
:0800B3007800E84400600C79BC
:0B00BB000090E000E4F0A3D8FCD9FAAC
:02006B00E4733C
:03006D0075812F6B
:0A007000121DC9E58260030200665C
:0E1DAD0020F71430F6148883A88220F507E68C
:061DBB00A88375830022DD
:031DC100E280F7C6
:031DC400E4932283
:021DC700E02218
:041DC90075820022FD
:00000001FF
