:0400000002006D325B
:01000B0032C2
:0100130032BA
:01001B0032B2
:0100230032AA
:01002B0032A2
:030033000206B70B
:01003B003292
:03004300023F0079
:01004B003282
:03005300023F0069
:01005B003272
:030063000206BBD7
:0300EA00020066AB
:050066001200ED80FE18
:0900ED007881760078807600909D
:0E00F600E60B7403F000000000000090E6002E
:0E0104007410F075802075B2EF75900075B321
:0E011200FF75B00075B5FF90E67AE0FA440183
:0B012000F090E60174E0F01202759010
:0E012B00E6097403F000000075890100000071
:06013900788276000876D2
:04013F00E178847669
:05014300120876E178CE
:0501480086761C08761C
:04014D00E178887657
:0A0151004A0876E1D2E843D8209076
:0E015B00E668E0FA4409F090E65CE0FA443D04
:0E016900F090E682E4F0D2AF90E680E0FA5427
:05017700F7F0538EF8C3
:08017C001201BE789EE6600747
:0701840012019A789E76003B
:05018B007881E660042C
:0401900078817600FC
:050194001206BB80E330
:010199002243
:0A019A0090E680E0FA440AF07A00D3
:0201A400DAFE81
:0E01A60090E65D74FFF090E65F74FFF05391F9
:0901B400EF90E680E0FA54F7F048
:0101BD00221F
:0601BE007880E6700122CA
:0501C400AA08AB097858
:0901C90096A60208A603788EA692
:0601D2000B08A60C08A6B4
:0501D8000D08A60E78E1
:0501DD0092A60F08A628
:0601E2001008A61108A69A
:0601E800127898A69B7836
:0801EE0099A69A789AA69E7862
:0A01F6009BA69D1202F7E582700837
:0802000090E6A0E0FA4401F0D1
:0C02080090E6A0E0FA4480F078807600D8
:06021400789686080886BA
:0A021A0009788E8602088603088624
:09022400040886058A0B8B0C8C82
:04022D000D8D0E78AD
:0C023100928602088603088604088605F1
:05023D008A0F8B108CFC
:04024200118D127890
:0802460098869B7899869A784E
:07024E009A869E789B869DB5
:010255002286
:0E02560090E6837401F07421F07411F074319D
:0E026400F090E6837402F07422F07416F074C9
:0202720036F064
:010274002267
:0E02750090E610E4F000000090E611E4F000C6
:0E028300000090E612E4F000000090E613E4A4
:0D029100F000000090E614E4F00000009082
:0E029E00E615E4F000000090E618E4F0000021
:0E02AC000090E619E4F000000090E61AE4F07D
:0E02BA0000000090E61BE4F000000090E6104B
:0E02C80074A0F000000090E61174A0F0000099
:0E02D6000090E61274A0F000000090E6147490
:0E02E400E0F000000090E68DE4F00000001253
:0502F200092B0208F3D6
:0C02F70090E6B9E0FA24F450030205A4DC
:07030300EA2A2A90030A73A5
:07030A000203F102047B0273
:0603110005A4020529020B
:0603170005A40205A4028A
:06031D00032E0205A402FC
:0603230003DC0203CA0224
:0503290003A30203B86C
:0A032E0090E6BBE0FABA0102800F6E
:05033800BA0202802062
:05033D00BA0602803148
:05034200BA075A8042D9
:09034700788290E6B308E6F07834
:0B0350008286027B0090E6B4EAF00217
:02035B0005A7F4
:09035D00788A90E6B308E6F07816
:0B0366008A86027B0090E6B4EAF002F9
:0203710005A7DE
:09037300788490E6B308E6F07806
:0B037C008486027B0090E6B4EAF002E9
:0203870005A7C8
:09038900788C90E6B308E6F078E8
:0B0392008C86027B0090E6B4EAF002CB
:02039D0005A7B2
:04039F007582002241
:0803A30090E740789DE6F09020
:0B03AB00E68AE4F090E68B7401F0029B
:0203B60005A799
:0A03B80090E6BAE0FA789DA6021262
:0603C20002751202560252
:0203C80005A787
:0A03CA0090E6BAE0FA789CA6021251
:0603D40002751202560240
:0203DA0005A775
:0803DC0090E740789CE6F090E8
:0B03E400E68AE4F090E68B7401F00262
:0203EF0005A760
:0A03F10090E6B8E0FABA8002800A34
:0503FB00BA8102801B25
:05040000BA8274802C9B
:0A04050090E740E4F090E741F0902A
:0A040F00E68AF090E68B7402F0021A
:0204190005A735
:0A041B0090E740E4F090E741F09014
:0A042500E68AF090E68B7402F00204
:02042F0005A71F
:0E04310090E6BCE0FA53027E90E6BCE0FBC30E
:0E043F0074809BE433FB4A90292493FA339592
:0E044D00E0FB74A12AFA74E63BFB8A828B83E3
:0E045B00E0FA53020190E740EAF090E741E436
:0C046900F090E68AF090E68B7402F0023E
:0204750005A7D9
:040477007582002268
:07047B0090E6B8E0FA60080A
:05048200BA0202801225
:0304870002052546
:0B048A0090E6BAE0FABA01030205A7F1
:04049500758200224A
:0904990090E6BAE06003020521BF
:0E04A20090E6BCE0FA53027E90E6BCE0FBC39D
:0E04B00074809BE433FB4A90292493FA339521
:0E04BE00E0FB74A12AFA74E63BFB90E6BCE07A
:0E04CC00FC53047E90E6BCE0FDC374809DE40A
:0E04DA0033FD4C90292493FC3395E0FD74A172
:0E04E8002CFC74E63DFD8C828D83E0FC5304F9
:0E04F600FE8A828B83ECF090E6BCE05480FA24
:0E050400C423541FFA90E6BCE0FB740F5B901A
:0D051200E6832AF090E683E0FA4420F00230
:02051F0005A72E
:0405210075820022BD
:0405250075820022B9
:0705290090E6B8E0FA60055E
:05053000BA026D800E0F
:0A05350090E6BAE0FABA020280680C
:04053F00758200229F
:0E05430090E6BCE0FA53027E90E6BCE0FBC3FB
:0E05510074809BE433FB4A90292493FA33957F
:0E055F00E0FB74A12AFA74E63BFB90E6BCE0D8
:0E056D00FC53047E90E6BCE0FDC374809DE468
:0E057B0033FD4C90292493FC3395E0FD74A1D0
:0E0589002CFC74E63DFD8C828D83E0FC430467
:09059700018A828B83ECF08007DD
:0405A000758200223E
:0305A400020A82C6
:0305A70075820159
:0105AA00222E
:0C05AB00C0E0C082C083C00078807601F0
:0905B7005391EF90E65D7401F030
:0905C000D000D083D082D0E032DB
:0E05C900C0E0C082C0835391EF90E65D7404E1
:0105D700F033
:0705D800D083D082D0E03295
:0E05DF00C0E0C082C0835391EF90E65D7402CD
:0105ED00F01D
:0705EE00D083D082D0E0327F
:0D05F500C0E0C082C083C002C003C0007817
:0A060200888602088603788AA602A3
:0C060C0008A6038A828B83A37402F07896
:0A061800868602088603788CA6028D
:0E06220008A6038A828B83A37407F05391EF1E
:0606300090E65D7410F07D
:0D063600D000D003D002D083D082D0E032BB
:0C064300C0E0C082C083C0007881760156
:09064F005391EF90E65D7408F090
:09065800D000D083D082D0E03242
:0D066100C0E0C082C083C002C003C0009092
:07066E00E680E0FA30E72C02
:0A06750078868602088603788AA6BC
:0D067F000208A6038A828B83A37402F07820
:0A068C00888602088603788CA60217
:0B06960008A6038A828B83A37407F080
:0906A1005391EF90E65D7420F026
:0D06AA00D000D003D002D083D082D0E03247
:0306B70053D8EF26
:0106BA00320D
:05291A000102000000B5
:05291F0001F7000000BB
:0A292400000102020303040405058C
:0A00C600789E7600789FE4F608F6B5
:0C00D00008F608F678A3E4F608F608F637
:0800DC0008F678A7E4F608F627
:0706BB00120703E582601441
:0706C2001206D7E582700D5E
:0B06C9001207F778AC76017582000282
:0206D40008001C
:0106D6002201
:0706D70078A9B600028015AE
:0706DE0078A9B601028011AA
:0706E50078A9B60202800DA6
:0706EC0078A9B6060E800993
:0306F30002098B6E
:0306F6000209EF07
:0306F900021109E2
:0306FC00021DBB21
:0306FF0075820001
:0107020022D4
:05070300E5BA30E1043D
:0407080075820022D4
:07070C0078AC76007A807BD7
:06071300E78B9A7A807B5F
:0C071900E77B008A9B90E67BE0FA7B0007
:050725000ABA00010BFF
:0E072A0090E68DE0FC7D00EAB50406EBB50517
:030738000280112B
:0B073B001207F778AC760175820012FF
:060746000800758200228C
:0A074C0090E67BE0FA78A9A602907F
:09075600E67BE0FA78AAA6029005
:0B075F00E67BE0FA78ABA60275820191
:01076A00226C
:08076B001201BEE5BA30E10401
:04077300750A0022E1
:0C07770090E780E0FA7B000ABA00010B5A
:0E07830090E68DE0FC7D00EAB50406EBB505BE
:03079100028011D2
:0B0794001207F778AC760175820012A6
:06079F000800750AFF22AC
:0B07A50090E781E0FA78A9E6B50213A6
:0C07B00090E782E0FA78AA748046FBEA29
:0307BC00B503047E
:0407BF00750A012294
:0607C30090E781E0700CDC
:0807C90090E782E0FABA020495
:0407D100750A022281
:0307D500750AFFA3
:0107D80022FE
:0807D900AA827B0B7C007D402D
:0E07E10090E67BE0FE8B828C838DF01228E187
:0707EF00A3AB82AC83DAEB3F
:0107F60022E0
:0807F70090E68DE4F000000023
:0107FF0022D7
:07080000AA82E5BA30E20113
:0108070022CE
:070808007BC07CE78C9D7BA7
:08080F00C07CE77C008B9E9089
:08081700E67CEA04F078AC90E5
:07081F00E67CE6F07B0B7C98
:05082600007D408A0680
:03082B00EE601765
:0E082E008B828C838DF01228FAFFA3AB82AC74
:09083C008390E67CEFF01E80E6DB
:0A08450090E68F74022AF000000014
:01084F002286
:07085000AA82E5BA30E201C3
:01085700227E
:070858007BC07CE78C9D7B57
:08085F00C07CE77C008B9E9039
:08086700E67CEA04F078AC9095
:04086F00E67CE6F04D
:010873002262
:05087400E5BA30E201CD
:01087900225C
:08087A0090E7C178ACE6F090B4
:0C088200E7C0E0FA90E68F04F0000000F0
:01088E002247
:0E088F00AA82AB83ACF090E67BE0FDC002C015
:0E089D0003C004C0051207F7D005D004D00335
:0708AB00D002E5BA30E201C2
:0108B2002223
:0708B3007EC07FE78F9D7EF0
:0808BA00C07FE77F008E9E90D5
:0C08C200E67CED04F090E67CE4F08D068E
:0308CE00EE6017C2
:0E08D1008A828B838CF01228FAFFA3AA82ABD6
:0908DF008390E67CEFF01E80E638
:0A08E80090E68F74022DF00000006E
:0108F20022E3
:0E08F30090E618E4F000000090E6047480F037
:0E09010000000090E6047402F00000007A048A
:0B090F0090E6497482F0000000DAF569
:0E091A0090E604E4F000000090E6A3E4F00094
:020928000000CD
:01092A0022AA
:0E092B0090E61AE4F000000090E6047480F0FC
:0D09390000000090E6047406F0000000903D
:0E094600E604E4F000000090E6A5E4F00000F6
:0109540000A2
:01095500227F
:0809560090E680E0FA30E706AC
:06095E007A007B02800418
:040964007A407B005A
:0E09680090E624EBF000000090E680E0FA300C
:02097600E70692
:060978007A007B028004FE
:04097E007A407B0040
:0809820090E625EAF0000000F8
:01098A00224A
:07098B0078AAB60202800702
:0709920078AAB603508005AE
:050999001207F7804D7C
:0A099E007582041207D91207F7E56D
:0809A8000BF4FAE50CF4FBE589
:0A09B0000DF4FCE50EF4FD747B2A43
:0C09BA00FAE43BFBE43CFCE43DFD8A0B4E
:0509C6008B0C8C0D8D6F
:0509CB000E12128678F7
:0C09D0009FE4F608F608F608F612092B62
:0B09DC001208F375820412080080046A
:0409E70075820022F3
:0309EB0075820111
:0109EE0022E6
:0509EF0078AAB6021712
:0709F4001207F7750B0075F7
:0609FB000C00750D0075F3
:0A0A01000E00758204120800800444
:040A0B0075820022CE
:030A0F00758201EC
:010A120022C1
:0A0A1300AA82AB83E50845097001D3
:010A1D0022B6
:070A1E00AC14BCE6028005E8
:050A25008B05BDE63168
:080A2A008A068B07AC13AD1422
:0E0A32008E028F038C828D83E0F88A828B8384
:060A4000F00EBE00010FE4
:050A46000CBC00010DD5
:080A4B00150874FFB50802153F
:010A53000999
:060A5400E508450970D819
:010A5A002279
:0C0A5B008C9AAC137E008C9B8D9D7B0060
:050A67008A9E020A6DE9
:010A6C002267
:080A6D00A90890E67B058690C4
:040A7500E67C058690
:080A7900E00586F00586D9F8BE
:010A81002252
:0A0A820090E6B9E0FABAA202804A39
:050A8C00BAA302804541
:060A9100BAE103020D575B
:060A9700BAE203020D3774
:060A9D00BAE303020D376D
:060AA300BAE403020D1786
:060AA900BAE503020D177F
:060AAF00BAE603020C226E
:060AB500BAE703020C4F3A
:060ABB00BAE803020C97EB
:060AC100BAE903020CF784
:060AC700BAEA03020CC6AE
:060ACD00BAEB03020D77F5
:030AD300020D977A
:0B0AD60090E6BAE0FAA3E0FB8A0B8B6D
:0A0AE1000C90E6BEE0FAA3E0FB90E3
:090AEB00E6B8E0FCBCC002800387
:030AF400020B876B
:070AF700EA4B7003020D9BA6
:080AFE0090E6A0E0FC20E1F805
:080B060090E6B9E0FCBCA2116D
:0A0B0E00750D00750E00C002C00353
:070B1800121035D003D002DA
:090B1F00C3EA9440EB9400500677
:060B28008A0D8B0E800611
:060B2E00750D40750E007C
:080B340090E6B9E0FCBCA20D43
:0D0B3C00C002C003120F88D003D002801A3F
:040B4900850D088589
:030B4D000E0990FE
:040B5000E740850BEA
:030B540013850CFA
:0C0B570014C002C003120A13D003D00225
:080B630090E68AE4F0AC0DAD50
:080B6B000E90E68BECF0EC2586
:070B73000BFEED350CFF8EB7
:0A0B7A000B8F0CEAC39CFAEB9DFB05
:030B8400020AF76B
:0A0B870078A7E608467003020C1E72
:0C0B910090E6BCE0FCA3E0FD78A7E6B510
:090B9D00040708E6B50502800218
:020BA600807657
:080BA80090E6B8E0FCBC406ED1
:070BB000EA4B7003020D9BEC
:090BB70090E68AE4F090E68BF070
:080BC00090E6A0E0FC20E1F842
:0A0BC80090E68BE0FC7D008C0D8DA3
:090BD2000E90E6B9E0FCBCA31F83
:040BDB00850D0885F7
:030BDF000E098577
:060BE2000B82850C8375F7
:030BE80013407542
:070BEB0014E7C002C0031271
:080BF2000A13D003D002800BAE
:0B0BFA00C002C003121035D003D0026F
:060C0500AC0DAD0EEC2564
:070C0B000BFEED350CFF8E1E
:0A0C12000B8F0CEAC39CFAEB9DFB6C
:020C1C008092C4
:040C1E0075820022B9
:0A0C220090E6B8E0FABAC0028003C1
:030C2C00020D9B1B
:080C2F0090E6A0E0FA20E1F8D4
:0E0C370090E740740AF0A37403F090E68AE49C
:0A0C4500F090E68B7402F0020D9BA4
:0A0C4F0090E6B8E0FABAC002800394
:030C5900020D9BEE
:080C5C0090E6A0E0FA20E1F8A7
:0E0C640090E7407411F0A3E4F0A3F0A3F09029
:0B0C7200E744E4F5F01228E1A3E412CF
:0A0C7D0028E1A3E41228E1A3E41229
:080C870028E190E68AE4F090F8
:080C8F00E68B7408F0020D9BD6
:080C970090E6B8E0FABA402330
:090C9F0090E68AE4F090E68BF087
:080CA80090E6A0E0FA20E1F85B
:0C0CB00090E740E0FAA3E0FB78A7A60262
:060CBC0008A603020D9BD7
:040CC2007582002215
:080CC60090E6B8E0FABA4025FF
:070CCE0078A7E60846601E4E
:0C0CD50090E6BCE0FAA3E0FB78A7E6B5CF
:090CE100020708E6B503028002D7
:020CEA00800781
:070CEC00789E7601020D9BCA
:040CF30075820022E4
:070CF700750BF0750C3F7551
:060CFE000D04750E0075E7
:060D04000FCD7510AB904D
:070D0A00E6B8E0FABAC003ED
:030D1100020D9F31
:030D1400020EB814
:070D1700750BE0750C3F7540
:060D1E000D0C750E0075BE
:060D24000F7875105690D7
:070D2A00E6B9E0FABAE403A8
:030D3100020D9F11
:030D3400020EB8F4
:070D3700750BC0750C3F7540
:060D3E000D10750E00759A
:060D44000FCD7510AB900D
:070D4A00E6B9E0FABAE2038A
:030D5100020D9FF1
:030D5400020EB8D4
:070D5700750BA0750C3F7540
:060D5E000D1C750E00756E
:060D64000FCD7510AB90ED
:070D6A00E6B8E0FABAC0038D
:030D7100020D9FD1
:030D7400020EB8B4
:070D7700750BF8750C3F75C8
:060D7E000D02750E007568
:060D84000FCD7510AB90CD
:070D8A00E6B8E0FABAC0036D
:030D9100020D9FB1
:030D9400020EB894
:040D9700758200223F
:030D9B007582015D
:010D9E002232
:0C0D9F007AFF90E6B8E0FBBBC0028004C5
:040DAB00758200222B
:050DAF00AB0DAC0E7558
:0A0DB4000D00750E00C002C003C060
:0E0DBE0004121035D004D003D00274032BFBB6
:0A0DCC00E43CFC8B0D8C0EC00212FB
:0A0DD6000F88D002E50D24FDFBE5B7
:070DE0000E34FFFC8B0D8CAB
:0B0DE7000E90E740E0FBA3E0FCEBB542
:060DF2000F48ECB51044AF
:040DF8007A007B0002
:0A0DFC007403250DFCE4350EFD8B99
:0A0E0600067F00C3EE9CEF9D502C08
:0A0E1000EB2440F582E434E7F5839B
:0A0E1A00E0FC2AFAEB2440FCE4346B
:0A0E2400E7FD74022B2440F582E480
:0C0E2E0034E7F583E0FE8C828D83F00B2E
:020E3A0080C076
:030E3C00EA606405
:040E3F00850D088590
:030E43000E099005
:090E4600E6B9E0FABAE1028034D9
:050E4F00BAE202803D43
:050E5400BAE402800574
:050E5900BAE943801717
:020E5E007A0018
:030E6000BA0C00C9
:020E6300503EFF
:0A0E6500EA2440F582E434E7F58347
:060E6F007430F00A80EB74
:050E750090E740751339
:030E7A00387514B4
:060E7D0029120A13802077
:050E830090E74075132B
:030E88003C7514A2
:060E8B0029120A13801277
:050E910090E74075131D
:030E960058751478
:060E990029120A13800477
:040E9F007582002236
:0C0EA30090E68AE4F000000090E68BE589
:080EAF000DF000000075820146
:010EB7002218
:080EB80090E6B8E0FABA401C14
:070EC00078A7E60846601563
:0C0EC70090E6BCE0FAA3E0FB78A7E6B5DB
:090ED300020708E6B503028004E1
:040EDC0075820022F9
:090EE00090E68AE4F090E68BF044
:080EE90090E6A0E0FA20E1F818
:070EF10090E68AE0FA70149C
:050EF800AA0DAB0E90F5
:0E0EFD00E68BE0FC7D00B50206EDB503028039
:010F0B0004E1
:040F0C0075820022C8
:060F10008A15AD158D06E7
:060F16008E071EEF6025AE
:0C0F1C00C002C00374022E2440FFE43425
:090F2800E7FCEE2440F582E434FC
:0C0F3100E7F583E0FA8F828C83F0D00398
:040F3D00D00280D589
:080F410090E740E50FF0A3E585
:050F490010F07C407E69
:0A0F4E00E78E9A759B407C00740248
:030F58002515FD5F
:090F5B0090E67BE0FE2CFCDDF7C2
:0A0F6400740225152440F582E434E0
:0C0F6E00E7F583C3E49CFCF074032AFA4E
:080F7A00E43BFB8A0D8B0E1213
:050F820010357582012D
:010F87002247
:050F8800E50DFA700404
:040F8D007582012246
:080F910090E678E0FB20E6F891
:0C0F990090E6787480F090E67974A3F084
:080FA50090E678E0FB30E0F873
:080FAD0090E678E0FB20E274FD
:080FB50090E678E0FB30E16CEE
:030FBD00BA01086E
:080FC00090E678E0FB4420F00C
:070FC80090E679E07B407C1C
:060FCF00E78C9A7B407CD8
:050FD500E77C008B9B8E
:040FDA00DA02802691
:080FDE0090E678E0FB30E0F83A
:080FE60090E678E0FB20E23BFD
:030FEE00BA01083D
:080FF10090E678E0FB4420F0DB
:0B0FF90090E679E0FB90E67BF080D6EC
:0810040090E678E0FA30E0F814
:08100C0090E678E0FA20E215FD
:0E10140090E678E0FA4440F090E679E0FA9039
:07102200E67BF0758201225C
:0B10290090E678E0FA4440F075820089
:011034002299
:02103500AA0D02
:0810370090E678E0FB20E6F8EA
:0C103F0090E6787480F090E67974A2F0DE
:08104B0090E678E0FB30E0F8CC
:0810530090E678E0FB20E26B5F
:08105B0090E678E0FB30E16350
:03106300EA600E32
:071066007B407CE78C9A7BC4
:07106D00407CE77C008B9B37
:021074007B02FD
:03107600EA70031A
:03107900EB603BEE
:03107C00EB601412
:03107F00BB0208A9
:0810820090E679E50CF0800610
:06108A0090E679E50BF091
:031090001B800AB8
:0A10930090E67BE0FC90E679F01A8D
:08109D0090E678E0FC30E0F879
:0810A50090E678E0FC20E2195E
:0810AD0090E678E0FC20E1C1AF
:0210B500800FAA
:0E10B70090E678E0FA4440F01210D275820103
:0110C5002208
:0B10C60090E678E0FA4440F0758200EC
:0110D10022FC
:0810D20090E678E0FA20E6F850
:0E10DA0090E678E0FA4480F090E67974A2F097
:0810E80090E678E0FA30E0F830
:0810F00090E678E0FA4440F0BC
:0810F80090E678E0FA20E6F82A
:0811000090E678E0FA30E1D23C
:0111080022C4
:05292E000102000000A1
:0529330001F7000000A7
:042938000302103056
:0E293C004A5441472D555342204361626C6559
:0E294A00000000FDFDFDFD0000009C32F37B4F
:0E29580044436162557362000000FDFDFDFD09
:0229660000006F
:0711090078AAB6020280770C
:0711100078ABB6000280116C
:0B1117001207F778AC760C758200120E
:06112200080075820122A5
:0511280078AAE6703614
:06112D00789FE630E0119E
:0B1133001207F778AC760375820012FB
:06113E0008007582012289
:06114400789FE630E41183
:0B114A001207F778AC760375820012E4
:0611550008007582012272
:08115B00789FE64401F68024B0
:0511630078AAB60108A6
:08116800789FE654FEF68017A3
:06117000789FE620E0116B
:0B1176001207F778AC760475820012B7
:0611810008007582012246
:0A11870078AAE624F4500302127B5C
:0A11910078AAE625E02690119B7372
:07119B000211BF0211CF0297
:0611A20011DF02127B02C6
:0611A80011EC0212050229
:0611AE0012390212740266
:0611B40012660212660241
:0511BA00126D02126637
:0A11BF0012127F1207F7758200126A
:0611C900080075820122FE
:0A11CF001212861207F77582001253
:0611D900080075820122EE
:0D11DF0090296875F08012088F758201223A
:0711EC001207F7750B0075F7
:0611F3000C6A750D187571
:0C11F9000E0075820412080075820122AD
:0712050090E67BE0FA6004B3
:04120C00D285800205
:02121000C28595
:0712120090E67BE0FA6004A6
:04121900D2838002FA
:02121D00C2838A
:07121F0090E67BE0FA600499
:04122600D2868002EA
:02122A00C2867A
:0D122C001207F7758200120800758201227A
:0C1239001207F7A285E433FA8A0BA283A7
:08124500E433FA8A0C30840442
:04124D007A008002A1
:021251007A0120
:0A1253008A0DA286E433FA8A0E75B4
:09125D00820412080075820122CE
:0712660012164275820122FD
:07126D00121A5B75820122D9
:0712740012128D75820122A8
:03127B0075820079
:01127E00224D
:06127F00C283D285C28685
:011285002246
:06128600C283D285C2867E
:01128C00223F
:05296800010200000067
:05296D0001F70000006D
:0B128D007A007B0090E67BE0FC600430
:04129800D285800279
:02129C00C28509
:07129E0090E67BE0FC600418
:0412A500D28380026E
:0212A900C283FE
:0E12AB00C286758204C002C0031207D9D003A8
:0E12B90000C0031207F7758200120800D00370
:0712C700D002AC0BAD0CAE30
:0412CE000DAF0E8CC6
:0412D2000F8D108EDE
:0912D600118F12EC4D4E4F700215
:0212DF007B0191
:0312E100EB6006B9
:0612E400EA600302139210
:0D12EA00C002C00312076BD003D002E4B5B0
:0412F7000A02803136
:0512FB007401B50A0FAB
:0E1300007A01C002C0031207F7D003D00280AA
:01130E001DC1
:05130F007402B50A1391
:0B1314007B0178AC7602C002C003121F
:08131F0007F7D003D00280059E
:051327007A00021392A0
:03132C00EB70B2B1
:05132F00AC0BAD0CAE9B
:0A1334000DAF0EC3ED94FEEE940021
:05133E00EF94005006D1
:061343008C088D098006F4
:061349007508007509FEA5
:08134F00AC08AD09E4FEFFE566
:091357000BC39CFCE50C9DFDE5B7
:081360000D9EFEE50E9FFF8CBF
:041368000B8D0C8E4F
:08136C000D8F0EC000C001A8A6
:0413740008A90909B2
:0E137800D286C286D8FAD9F8D001D000EC4D4A
:071386004E4F60030212E16B
:05138D007B010212E1EA
:03139200EA6029E5
:07139500E50FC3950BFAE51B
:05139C0010950CFBE5BB
:0513A10011950DFCE5B3
:0513A60012950EFD8A06
:0413AB000B8B0C8C10
:0413AF000D8D0E781A
:0B13B300ACE64480F6758204020800DE
:0113BE00220C
:0A13BF00C001C002A908AA09E960F4
:0213C900010A17
:0313CB0090E67B2E
:0E13CE00E0139283D286C286139283D286C227
:0E13DC0086139283D286C286139283D286C273
:0E13EA0086139283D286C286139283D286C265
:0E13F80086139283D286C286139283D286C257
:0914060086D9C5DAC3D002D00179
:01140F0022BA
:0A141000C001C002A908AA09E960A2
:02141A00010AC5
:0A141C0090E67B058690E67C0586CD
:0E142600E0139283A28413D286C2869283A220
:0E1434008413D286C2869283A28413D286C20B
:0E144200869283A28413D286C2869283A284ED
:0E14500013D286C2869283A28413D286C286ED
:0E145E009283A28413D286C2869283A2841344
:0E146C00D286C286F40586F00586D9AEDAACCB
:04147A00D002D001CB
:01147E00224B
:0A147F00C001C002A908AA09E96033
:02148900010A56
:03148B0090E67C6C
:0E148E00A284D286C28613A284D286C286139E
:0E149C00A284D286C28613A284D286C2861390
:0E14AA00A284D286C28613A284D286C2861382
:0E14B800A284D286C28613A284D286C2861374
:0A14C600F4F0D9C1DABFD002D00162
:0114D00022F9
:0A14D100C001C002A908AA09E960E1
:0214DB00010A04
:0314DD0090E67B1B
:0E14E000E0139285D286C286139285D286C210
:0E14EE0086139285D286C286139285D286C25C
:0E14FC0086139285D286C286139285D286C24E
:0E150A0086139285D286C286139285D286C23F
:0915180086D9C5DAC3D002D00166
:0115210022A7
:0A152200C001C002A908AA09E9608F
:02152C00010AB2
:0A152E0090E67B058690E67C0586BA
:0E153800E0139285A28413D286C2869285A209
:0E1546008413D286C2869285A28413D286C2F6
:0E155400869285A28413D286C2869285A284D6
:0E15620013D286C2869285A28413D286C286D8
:0E1570009285A28413D286C2869285A284132D
:0E157E00D286C286F40586F00586D9AEDAACB8
:04158C00D002D001B8
:011590002238
:0A159100C001C002A908AA09E96020
:02159B00010A43
:03159D0090E67B5A
:0E15A000E0139283139285D286C28613928343
:0E15AE00139285D286C286139283139285D241
:0E15BC0086C286139283139285D286C286D988
:0715CA00D5DAD3D002D001F5
:0115D10022F7
:0A15D200C001C002A908AA09E960DF
:0215DC00010A02
:0A15DE0090E67B058690E67C05860A
:0215E8007C0283
:0E15EA00E0139283139285FBE8A28413F8EBC2
:0E15F800D286C286139283139285FBE8A284EA
:0E16060013F8EBD286C286139283139285FBF3
:0E161400E8A28413F8EBD286C28613928313E9
:0E1622009285FBE8A28413F8EBD286C286DC28
:0E163000B9E8F40586F0058619D9ADDAABD01D
:03163E0002D001D6
:011641002286
:071642007517007519007512
:071649001A0078AAB6082A76
:0816500075170190E67BE0F53F
:081658001690E67BE0FE600441
:04166000D2858002AD
:02166400C2853D
:04166600E51660081D
:04166A00751B107567
:04166E001C14805A6E
:04167200751BBF75B0
:041676001C1380526F
:05167A0078AAB6092565
:0A167F0075160190E67BE0FC6004A4
:04168900D285800284
:02168D00C28514
:07168F0090E67BE0FC600423
:04169600D283800279
:02169A00C28309
:04169C00751B7F75C6
:0416A0001C1480286E
:0816A40075170190E67BE0F5EB
:0816AC001690E67BE0FC6004EF
:0416B400D28380025B
:0216B800C283EB
:0416BA00E5166008C9
:0416BE00751B227501
:0416C2001C1580066D
:0416C600751BD1754A
:0216CA001C14EE
:0D16CC007582041207D91207F7758200120B
:0416D9000800850B75
:0316DD001D850C5C
:0316E0001E850D57
:0316E3001F850E52
:0316E60020851D3F
:0316E9000F851E4C
:0316EC0010851F47
:0316EF0011852042
:0A16F200127407551DFD7A007B00FD
:0716FC007C008D18AA1DE51A
:0C1703001EC423CAC423541F6ACA541F0A
:0C170F00CA6ACAFBE51FC42354E04BFB70
:0A171B00AC1FE520C423CCC4235406
:0C1725001F6CCC541FCC6CCCFE8A0B8BCC
:041731000C8C0D8E81
:051735000EE518601D27
:05173A00AA0BAB0CAC92
:0A173F000DAE0E0ABA00090BBB0044
:06174900050CBC00010EBE
:05174F008A0B8B0C8CDD
:031754000D8E0EE9
:05175700E50F451045FF
:05175C001145127003AD
:03176100751901F6
:02176400C2863B
:04176600E51960071A
:07176A00E51A600302196E8D
:0717710012076BE50A602C72
:051778007401B50A0C2C
:04177D00E51A7008F1
:08178100751A011207F7801B25
:051789007402B50A1016
:07178E001207F7E519700FC7
:0917950078AC760275190180069A
:06179E00751A0002196E2D
:0417A400E5176005E0
:0517A800E5AA20E0B9F4
:0417AD00E5166005D8
:0517B100E5AA20E5B0EF
:0417B600E51970AC15
:0417BA00E517600EC1
:0717BE007A007BF08B9A7AA0
:0717C500007BF07B008A9B12
:0417CC00E516600EB0
:0717D0007A007BF88B9D7A83
:0717D700007BF87B008A9EF5
:0417DE00E517601992
:0E17E20090E690E0FA8A037A0090E691E0FC2F
:0A17F0007E004AF508EE4BF5098073
:0117FA00549A
:0417FB00850B2185B4
:0317FF000C228534
:031802000D23852E
:031805000E24901E
:07180800E680E0FF30E70677
:06180F007A007B02800458
:041815007A407B009A
:0C1819008A07EBFD3395E0FAFBC3EF9566
:0618250021ED9522EA9579
:06182B0023EB9524501888
:0818310090E680E0FA30E706C2
:061839007A007B0280042E
:04183F007A407B0070
:061843008A088B098006F3
:041849008521088568
:02184D0022096E
:08184F00AA08AB09E4FCFDE569
:091857000BC39AFAE50C9BFBE5BA
:081860000D9CFCE50E9DFD8AC4
:041868000B8B0C8C4E
:04186C000D8D0EE5EB
:03187000186013EA
:05187300E50B450C45EA
:051878000D450E700992
:08187D00150874FFB5080215FF
:011885000959
:06188600E50845096009B8
:07188C00851B82851C8312FD
:02189300006BE8
:07189500E518700302193889
:05189C00E50B450C45C1
:0618A1000D450E6003027C
:0218A7001938EE
:0618A900AA18E517700B00
:0318AF003083047F
:0418B2007BFF800236
:0218B6007B00B5
:0218B8008005A9
:0518BA0090E67BE0FB5D
:0518BF0078AAB60B261B
:0218C4008A0494
:0B18C600EBA2E09285C313FB3084040A
:0418D1007D00800214
:0218D5007D0193
:0318D700ED6005BC
:0518DA004303808003C0
:0318DF0053037F31
:0618E200D286C286DCDEA6
:0218E80080225C
:0B18EA00EBA2E09283C313FB308404E8
:0418F5007C008002F1
:0218F9007C0170
:0318FB00EC600599
:0518FE0043038080039C
:0319030053037F0C
:06190600D286C286DADE83
:04190C00E516601D5F
:0C191000AD187A007408C39DFDE49AFA3B
:07191C008DF005F0EB8002E5
:02192300C313EC
:08192500D5F0FBFB90E67CF01D
:07192D007518000508E4B580
:041934000802050997
:04193800E517600946
:09193C0090E6497482F0000000FD
:04194500E516601231
:0A19490090E698E509F00000009018
:08195300E699E508F000000030
:05195B00E50B450C4501
:061960000D450E600302BC
:02196600176602
:061968007519010217666B
:07196E001208F312092BE53A
:041975001A700122C1
:04197900E518601DF0
:05197D00AA0BAB0CAC4D
:0A1982000DAD0E1ABAFF091BBBFFE2
:06198C00051CBCFF011D5B
:051992008A0B8B0C8C98
:031997000D8D0EA5
:04199A00850D23E5AF
:0A199E000EC40354F8C523C403C5AA
:0419A800236523C5CB
:0619AC002354F8C5236579
:0419B20023F524E510
:0819B6000CC40354074523F59E
:0319BE0023850B73
:0819C10021E50CC40354F8C534
:0619C90021C403C52165E5
:0619CF0021C52154F8C5FA
:0419D500216521F572
:0319D90022852143
:0319DC000B852256
:0319DF000C852351
:0319E2000D85244C
:0919E5000EAE18E4FFFAFBEE253A
:0819EE0021FEEF3522FFEA356E
:0719F60023FAEB3524FB8E00
:0419FD000B8F0C8AB6
:041A01000D8B0EE556
:091A05000FC39EFEE5109FFFE5F2
:081A0E00119AFAE5129BFB8E10
:041A16000F8F108A94
:041A1A00118B128E8C
:041A1E000B8F0C8A94
:041A22000D8B0EE535
:031A260017600442
:041A29007A8080023D
:021A2D007A003D
:041A2F00E516600454
:041A33007B40800272
:021A37007B0032
:0A1A3900EB4A78AC46F6E5176004AE
:041A43007A0480029F
:021A47007A0023
:041A4900E51660043A
:041A4D007B04800294
:021A51007B0018
:071A5300EB2AF582020800F6
:011A5A002269
:071A5B0075260075270075D8
:071A6200280090E67BE0F58F
:081A6900257582041207D91251
:091A710007F775820012080085D8
:031A7A000B2B85AE
:031A7D000C2C85A9
:031A80000D2D85A4
:031A83000E2E859F
:031A86002B0F859E
:031A89002C108599
:031A8C002D118594
:031A8F002E12E52F
:041A92002B452C456F
:051A96002D452E700338
:031A9B00752701AB
:0C1A9E007407552BFAE4FDFBFC740325D3
:081AAA002BFBE4352CFCE435B4
:071AB2002DFDE4352EFE8B33
:041AB9000B8C0C8DF9
:0A1ABD000DEEF50EC313FEED13FD50
:0E1AC700EC13FCEB13FBEEC313FEED13FDEC72
:0A1AD50013FCEB13FB8B0B8C0C8D44
:041ADF000D8E0EE575
:031AE30025600873
:041AE6007529D27517
:041AEA002A15800633
:041AEE007529917550
:021AF2002A15B3
:021AF400C286A8
:041AF600E527600779
:071AFA00E5286003021D084E
:0B1B0100C00212076BD002E50A60343E
:051B0C007401B50A1090
:041B1100E528700C47
:0C1B1500752801C0021207F7D002801FE3
:051B21007402B50A1476
:0B1B2600C0021207F7D002E527700F85
:091B310078AC76027527018006EC
:061B3A00752800021D08E1
:051B4000E5AA20E0B160
:041B4500E52560052D
:051B4900E5AA20E5A85B
:041B4E00E52770A473
:071B52007D007EF08E9A7DFC
:081B5900007EF07E008D9BE58B
:031B6100256012EA
:041B6400E526700EF4
:071B68007D007EF88E9D7DDB
:071B6F00007EF87E008D9E50
:0E1B760090E690E0FD8D067D0090E691E0FF88
:0A1B84007B002DF508EB3EF509ABE0
:071B8E0008AC09E4FDFEE5CF
:091B95000BC39BFBE50C9CFCE575
:081B9E000D9DFDE50E9EFE8B7E
:041BA6000B8C0C8D0B
:061BAA000D8E0EEA602C16
:051BB000E50B450C45AA
:051BB5000D450E702239
:0E1BBA008A03FC74032BFBE43CFCA2E713CB74
:0C1BC80013CBA2E713CB13CBFCE508C342
:071BD4009BF508E5099CF5F3
:011BDB000900
:061BDC00E5084509600D5B
:091BE200C002852982852A8312C4
:041BEB00006BD002B9
:061BEF00EA7003021C85F0
:051BF500E50B450C4565
:061BFA000D450E60030220
:021C00001C8541
:091C02007B0090E67BE0FC7D0014
:051C0B00C3ED9A503109
:031C1000BD04050B
:051C130090E67BE0FCFF
:0E1C1800ECA2E09283C313FCA2E09285C313FA
:081C2600FCEBC313FB30840446
:041C2E007E008002B2
:021C32007E0131
:031C3400EE60035C
:031C3700430380E4
:071C3A00D286C2860D80CAAC
:041C4100E525601C19
:0E1C45008A047D007408C39CFCE49DFD8CF0B5
:051C530005F0EB80022A
:021C5800C313B4
:071C5A00D5F0FB90E67CF0E1
:0E1C61008A037C0074032BFBE43CFCA2E71317
:0C1C6F00CB13CBA2E713CB13CBFCEB256F
:051C7B0008F508EC353E
:051C800009F5097A00DE
:041C8500E52560638E
:051C8900E50B450C45D0
:051C8E000D450E60048D
:041C9300E526605290
:071C97000508E4B508020591
:011C9E00093C
:081C9F00E509C313C50813C5D4
:041CA70008F509E54E
:031CAB002660248C
:081CAE0090E680E0FB30E70640
:061CB6007B007C028004AB
:041CBC007B407C00ED
:0C1CC000ECA2E713CB13CBFCEB2508F5DE
:051CCC0008EC3509F5EC
:011CD1000909
:0A1CD20090E698E509F0000000908C
:091CDC00E699E508F0000000752E
:041CE5002600800352
:031CE9007526015C
:0C1CEC0090E6497482F0000000E50B4512
:041CF8000C450D4545
:061CFC000E6003021AF65F
:061D0200752701021AF62C
:0C1D0800C0021208F30012092BD002E503
:041D14002870012210
:0A1D1800E50B25E0FBE50C33FCE5CC
:0A1D22000D33FDE50E33FEEB2BFB45
:0C1D2C00EC33FCED33FDEE33FE8B0B8C32
:041D38000C8D0D8E73
:041D3C000EEA603D0E
:041D4000EA30E21D86
:051D4400AB0BAC0CAD7F
:0A1D49000DAE0E1BBBFF091CBCFF12
:061D5300051DBDFF011E8D
:051D59008B0B8C0C8DCA
:031D5E000D8E0ED9
:0A1D6100E4FBFCFDEA250BFAEB356C
:081D6B000CFBEC350DFCED351D
:051D73000EFD8A0B8B40
:041D78000C8C0D8D35
:011D7C000E58
:071D7D00E50FC3950BFAE529
:051D840010950CFBE5C9
:051D890011950DFCE5C1
:051D8E0012950EFD8A14
:041D93000F8B108C16
:041D9700118D128A0E
:041D9B000B8B0C8C16
:041D9F000D8D0EE5B3
:031DA300257008A0
:051DA600F50FF510F53A
:031DAB0011F5121D
:0C1DAE0078ACE644C0F67582080208001C
:011DBA002206
:0529720001020000005D
:0529770001F700000063
:0600E400752F00753000CD
:071DBB0078AAB6020280774E
:071DC20078ABB600028011AE
:0B1DC9001207F778AC760C7582001250
:061DD400080075820122E7
:051DDA0078AAE6703656
:061DDF00789FE630E411DC
:0B1DE5001207F778AC7603758200123D
:061DF000080075820122CB
:061DF600789FE630E011C9
:0B1DFC001207F778AC76037582001226
:061E0700080075820122B3
:081E0D00789FE64410F68024E2
:051E150078AAB60108E7
:081E1A00789FE654EFF68017F3
:061E2200789FE620E411A8
:0B1E28001207F778AC760475820012F8
:061E330008007582012287
:0A1E390078AAE624F75003021EF118
:0A1E430078AAE625E026901E4D73F4
:071E4D00021E68021E7E0266
:061E54001E8E021E9B021F
:061E5A001EA5021EAF02EE
:061E60001EC6021EDD0299
:021E66001EE775
:071E6800752F007530001218
:091E6F001EF51207F7758200123E
:061E780008007582012242
:0A1E7E00121EFC1207F77582001215
:061E880008007582012232
:0D1E8E0090298175F08012088F7582012265
:0A1E9B00121F0E121FCF75820122E4
:0A1EA5001207F7121FCF7582012209
:0B1EAF0090E67BE0FAF582122025127D
:0C1EBA0007F775820012080075820122F3
:0B1EC60090E67BE0FAF582121F031289
:0C1ED10007F775820012080075820122DC
:0A1EDD007582011220357582012282
:0A1EE7007582001220357582012279
:031EF100758200F7
:011EF40022CB
:061EF500C283D285C28603
:011EFB0022C4
:061EFC00C283D285C286FC
:011F020022BC
:051F0300E582FA600315
:031F0800D285225D
:021F0B00C2858D
:011F0D0022B1
:0A1F0E007582041207D91207F78547
:031F18000B4185F5
:031F1B000C4285F0
:031F1E000D4385EB
:0A1F21000E44906BFF75F0DC7402B3
:0E1F2B0012287CAA82AB83ACF0FD0ABA000932
:091F39000BBB00050CBC00010DFE
:051F42008A0B8B0C8CE2
:0A1F47000D8D0EC374249AE49BE490
:051F51009CE49D40042A
:041F560075300022C0
:051F5A00AA0BAB0CAC6A
:0A1F5F000DAD0EC374579AE49BE425
:051F69009CE49D400412
:041F6E0075300122A7
:0E1F7200EA24C0FAEB34FFFBEC34FFFCED3444
:091F8000FFFD754118E4F542F57E
:0A1F890043F5448A828B838CF0ED4F
:0E1F930012287CAA82AB83ACF0FD0ABA0009CA
:091FA1000BBB00050CBC00010D96
:051FAA008A0B8B0C8C7A
:041FAF000D8D0E8501
:031FB3000B348567
:031FB6000C358562
:031FB9000D36855D
:0A1FBC000E37EB7006EC7003ED60C9
:011FC6000416
:041FC7007530FF2250
:031FCB008534302A
:011FCE0022F0
:041FCF00E530700D7C
:071FD300750B56750C5875E3
:061FDA000D14F50E803F1E
:0C1FE000E53075F018A4243FFAE435F059
:091FEC00FB8A41F5423395E0F552
:0A1FF50043F544906BFF75F0DC74B7
:0E1FFF000212287CAA82AB83ACF0FD0ABA0065
:0A200D00090BBB00050CBC00010D1F
:052017008A0B8B0C8C0C
:03201C000D8D0E19
:06201F00758204020800B6
:0A202500AA8274075AF52F30E10378
:03202F00D2862234
:02203200C28664
:012034002289
:09203500AA82753900753A009089
:09203E00E67BE0FB90E67BE0F597
:0420470038EA600B08
:08204B0075320190E67BE0F51F
:0320530033800CCB
:0720560090E67BE0F5317517
:05205D003301753200A3
:0E206200758204C0031207D9001207F77582B9
:0920700000120800D003AA0BAF16
:042079000CAE0DADEF
:04207D000E8A0F8F29
:04208100108E118D1F
:0420850012EB6004F6
:04208900D28580027A
:02208D00C2850A
:07208F00E53060030221337C
:04209600E532603798
:04209A00E533603397
:05209E00E52F30E21700
:0520A300E52F30E0090B
:0420A800753BD4753B
:0320AC003C2302D0
:0220AF002160AE
:0420B100753B3375D3
:0320B5003C2402C6
:0220B8002160A5
:0520BA00E52F30E009F4
:0420BF00753B1675E2
:0320C3003C2302B9
:0220C600216097
:0420C800753B75757A
:0320CC003C2302B0
:0220CF0021608E
:0420D100E532602F65
:0520D500E52F30E215CB
:0520DA00E52F30E008D5
:0420DF00753B467592
:0420E3003C2580799F
:0420E700753BA07530
:0420EB003C2580719F
:0520EF00E52F30E008C0
:0420F400753B927531
:0420F8003C248064A0
:0420FC00753BEC75CF
:042100003C24805C9F
:05210400E52F30E2159B
:05210900E52F30E008A5
:04210E00753BB275F6
:042112003C26804A9D
:04211600753B0F7591
:04211A003C2780429C
:05211E00E52F30E00890
:04212300753BFA7599
:042127003C2580359E
:04212B00753B557536
:04212F003C26802D9D
:05213300E52F30E2156C
:05213800E52F30E00876
:04213D00753B6C750D
:042141003C27801B9C
:04214500753BF4757D
:042149003C2780139C
:05214D00E52F30E00861
:04215200753BB075B4
:042156003C2780069C
:04215A00753B387524
:02215E003C281B
:04216000E5396007F6
:07216400E53A60030222A727
:07216B0012076BE50A602C6E
:052172007401B50A0C28
:04217700E53A7008CD
:08217B00753A011207F7801B01
:052183007402B50A1012
:072188001207F7E539700FA3
:09218F0078AC7602753901800676
:06219800753A000222A7C7
:04219E00E5326005C1
:0521A200E5AA20E0B9F0
:0421A700E5336005B7
:0521AB00E5AA20E5B0EB
:0421B000E53970ACF1
:0421B400E532600EA2
:0721B8007E007FF08F9A7E8C
:0721BF00007FF07F008E9B02
:0421C600E533600E8F
:0721CA007E007FF88F9D7E6F
:0721D100007FF87F008E9EE5
:0421D800E532601973
:0E21DC0090E690E0FE8E077E0090E691E0FA1D
:0A21EA007D004EF508ED4FF5098069
:0121F4005397
:0421F500850F3D8590
:0321F900103E8510
:0321FC00113F850B
:0321FF00124090FB
:07220200E680E0FC30E70676
:062209007A007B02800454
:04220F007A407B0096
:0C2213008A04EB3395E0FAFDC3EC953D26
:08221F00EB953EEA953FED95B9
:032227004050180C
:08222A0090E680E0FA30E706BF
:062232007A007B0280042B
:042238007A407B006D
:06223C008A088B098006F0
:04224200853D088549
:022246003E094F
:08224800AA08AB09E4FCFDE566
:092250000FC39AFAE5109BFBE5AF
:08225900119CFCE5129DFD8AB9
:042261000F8B108C43
:04226500118D128540
:062269003B82853C83125C
:06226F00006BE53260097E
:0922750090E6497482F0000000BB
:04227E00E5336012D2
:0A22820090E698E509F000000090D6
:08228C00E699E508F0000000EE
:05229400E50F451045B7
:0622990011451260030272
:02229F002160BC
:0622A10075390102216005
:0422A700E5386004B2
:0422AB00D285800256
:0222AF00C285E6
:0722B1001208F312092BE5EE
:0322B8003A605A2F
:0722BB00E50BC3950FFAE5E6
:0522C2000C9510FBE586
:0522C7000D9511FCE57E
:0522CC000E9512FD8AD1
:0422D1000B8B0C8CDB
:0422D5000D8D0E8AD3
:0422D9000F8B108CCB
:0422DD00118D12E568
:0322E10032600464
:0422E4007A8080027A
:0222E8007A007A
:0422EA00E533600474
:0422EE007B408002AF
:0222F2007B006F
:0A22F400EB4A78AC46F6E5326004D0
:0422FE007A048002DC
:022302007A005F
:04230400E533600459
:042308007B048002D0
:02230C007B0054
:07230E00EB2AF58202080032
:0123150022A5
:08231600A908AA09E960010A07
:0E231E0090E67BE0339283B286B286A28433CF
:0E232C009283B286B286A284339283B286B2C6
:0E233A0086A284339283B286B286A284339246
:0E23480083B286B286A284339283B286B286B6
:0E235600A284339283B286B286A2843392832D
:0E236400B286B286A28433F490E67CF0D9AC47
:02237200DAAAE5
:012374002246
:08237500A908AA09E960010AA8
:0E237D0090E67BE0339283B286A28433B28670
:0E238B009283B286A28433B2869283B286A277
:0E2399008433B2869283B286A28433B28692D7
:0E23A70083B286A28433B2869283B286A28469
:0E23B50033B2869283B286A28433B2869283BC
:0E23C300B286A28433B286F490E67CF0D9ACE8
:0223D100DAAA86
:0123D30022E7
:0823D400A908AA09E960010A49
:0E23DC0090E67BE0139283B286B286A2841351
:0E23EA009283B286B286A284139283B286B228
:0E23F80086A284139283B286B286A2841392C8
:0E24060083B286B286A284139283B286B28617
:0E241400A284139283B286B286A284139283AE
:0E242200B286B286A28413F490E67CF0D9ACA8
:02243000DAAA26
:012432002287
:08243300A908AA09E960010AE9
:0E243B0090E67BE0139283B286A28413B286F1
:0E2449009283B286A28413B2869283B286A2D8
:0E2457008413B2869283B286A28413B2869258
:0E24650083B286A28413B2869283B286A284CA
:0E24730013B2869283B286A28413B28692833D
:0E248100B286A28413B286F490E67CF0D9AC49
:02248F00DAAAC7
:012491002228
:08249200A908AA09E960010A8A
:03249A0090E67B4E
:0E249D00E0339283B286B286A284339283B279
:0E24AB0086B286A284339283B286B286A28461
:0E24B900339283B286B286A284339283B286B7
:0E24C700B286A284339283B286B286A2843398
:0E24D5009283B286B286A284339283B286B21C
:0824E30086A28433D9B4DAB2F9
:0124EB0022CE
:0824EC00A908AA09E960010A30
:0324F40090E67BF4
:0E24F700E0339283B286A28433B2869283B21F
:0E25050086A28433B2869283B286A28433B259
:0E251300869283B286A28433B2869283B28609
:0E252100A28433B2869283B286A28433B2863D
:0E252F009283B286A28433B2869283B286A2D1
:08253D008433B286D9B4DAB28E
:012545002273
:08254600A908AA09E960010AD5
:03254E0090E67B99
:0E255100E0139283B286B286A284139283B204
:0E255F0086B286A284139283B286B286A284CC
:0E256D00139283B286B286A284139283B28642
:0E257B00B286A284139283B286B286A2841323
:0E2589009283B286B286A284139283B286B287
:0825970086A28413D9B4DAB264
:01259F002219
:0825A000A908AA09E960010A7B
:0325A80090E67B3F
:0E25AB00E0139283B286A28413B2869283B2AA
:0E25B90086A28413B2869283B286A28413B2E5
:0E25C700869283B286A28413B2869283B28675
:0E25D500A28413B2869283B286A28413B286C9
:0E25E3009283B286A28413B2869283B286A23D
:0825F1008413B286D9B4DAB2FA
:0125F90022BF
:0825FA00A908AA09E960010A21
:0326020090E67CE3
:0E260500339283B286B286A284339283B28669
:0E261300B286A284339283B286B286A284334A
:0E2621009283B286B286A284339283B286B2CE
:0E262F0086A284339283B286B286A28433924E
:0E263D0083B286B286A284339283B286B286BE
:09264B00A28433F4F0D9B3DAB132
:012654002263
:08265500A908AA09E960010AC5
:03265D0090E67C88
:0C266000E531339283B286A28433B28647
:0E266C009283B286A28433B2869283B286A293
:0E267A008433B2869283B286A28433B28692F3
:0E26880083B286A28433B2869283B286A28485
:0E26960033B2869283B286A28433B2869283D8
:0D26A400B286A28433B286F4F0D9B1DAAF69
:0126B1002206
:0826B200A908AA09E960010A68
:0326BA0090E67C2B
:0C26BD00E531139283B286B286A284132A
:0E26C9009283B286B286A284139283B286B246
:0E26D70086A284139283B286B286A2841392E6
:0E26E50083B286B286A284139283B286B28636
:0E26F300A284139283B286B286A284139283CD
:0D270100B286B286A28413F4F0D9B1DAAF2B
:01270E0022A8
:08270F00A908AA09E960010A0A
:0327170090E67CCD
:0C271A00E531139283B286A28413B286CC
:0E2726009283B286A28413B2869283B286A2F8
:0E2734008413B2869283B286A28413B2869278
:0E27420083B286A28413B2869283B286A284EA
:0E27500013B2869283B286A28413B28692835D
:0D275E00B286A28413B286F4F0D9B1DAAFCE
:01276B00224B
:08276C00A908AA09E960010AAD
:06277400E532600274FF73
:08277A0004FBE533600274FF6B
:0227820004FC55
:09278400E531BB000490E67BE0A6
:02278D007D08C5
:07278F0013B2869283A8300B
:08279600D8FEB286A284A8302F
:0D279E00D8FEDDED13BC0005F490E67CF0E4
:0427AB00D9D7DAD5CB
:0127AF002207
:0827B000A908AA09E960010A69
:0627B800E532600274FF2F
:0827BE0004FBE533600274FF27
:0227C60004FC11
:0927C800E531BB000490E67BE062
:0227D1007D0881
:0727D30033B2869283A830A7
:0827DA00D8FEB286A284A830EB
:0D27E200D8FEDDED33BC0005F490E67CF080
:0427EF00D9D7DAD587
:0127F30022C3
:0827F400A908AA09E960010A25
:0627FC00E532600274FFEB
:0828020004FBE533600274FFE2
:02280A0004FCCC
:09280C00E531BB000490E67BE01D
:022815007D083C
:05281700139283A830BC
:08281C00D8FEB286A284A830A8
:0E282400D8FEB286DDED13BC0005F490E67C14
:01283200F0B5
:04283300D9D7DAD542
:01283700227E
:08283800A908AA09E960010AE0
:06284000E532600274FFA6
:0828460004FBE533600274FF9E
:02284E0004FC88
:09285000E531BB000490E67BE0D9
:022859007D08F8
:05285B00339283A83058
:08286000D8FEB286A284A83064
:0E286800D8FEB286DDED33BC0005F490E67CB0
:01287600F071
:04287700D9D7DAD5FE
:01287B00223A
:05297C00010200000053
:0529810001F700000059
:0EE10000120100020000004043140100000064
:04E10E000102000109
:0AE112000A060002000000400100B0
:0EE11C0009022E0001010080FA09040000042F
:0EE12A00FF000000070501024000000705810C
:0EE138000240000007050202000200070586F3
:04E1460002000200D1
:0EE14A0009022E0001010080FA090400000401
:0EE15800FF00000007050102400000070581DE
:0EE16600024000000705020240000007058687
:04E174000240000065
:093F00000205AB000205DF00021E
:083F090005C900020643000295
:083F110005F500020661000243
:083F190006BB000206BB00021A
:083F210006BB000206BB000212
:083F290006BB000206BB00020A
:083F310006BB000206BB000202
:083F390006BB000206BB0002FA
:083F410006BB000206BB0002F2
:083F490006BB000206BB0002EA
:083F510006BB000206BB0002E2
:083F590006BB000206BB0002DA
:083F610006BB000206BB0002D2
:083F690006BB000206BB0002CA
:083F710006BB000206BB0002C2
:083F790006BB000206BB0002BA
:083F810006BB000206BB0002B2
:083F890006BB000206BB0002AA
:083F910006BB000206BB0002A2
:083F990006BB000206BB00029A
:083FA10006BB000206BB000292
:083FA90006BB000206BB00028A
:073FB10006BB000206BB0085
:08287C00FB7A20E4FCFDFEFFE5
:0E288400E5822582F582E58333F583E5F033A6
:0B289200F5F0EB33FB4017DAE9804261
:0E289D00E5822582F582E58333F583E5F0338D
:0528AB00F5F0EB33FB2A
:0E28B000EC33FCED33FDEE33FEEF33FFEC9521
:0628BE0041ED9542EE958C
:0828C40043EF95444013EC952D
:0828CC0041FCED9542FDEE9583
:0928D40043FEEF9544FF4382012D
:0228DD00DABE61
:0228DF00EB22EA
:06009C00E478FFF6D8FD38
:08007A007900E94400601B7AE3
:050082000090298678C2
:030087000075A061
:0A008A00E0E493F2A308B8000205B9
:08009400A0D9F4DAF275A0FF17
:0E28E10020F71030F6118883A88220F507F644
:0528EF00A883758300C1
:0128F40022C1
:0328F500F280F777
:0228F800F022CC
:0400A20075A00078CD
:0700A60000E8440060077947
:0600AD0000E4F309D8FC99
:0800B3007800E84400600C79BC
:0B00BB000090E000E4F0A3D8FCD9FAAC
:02006B00E4733C
:03006D0075814456
:0A007000122916E582600302006603
:0E28FA0020F71430F6148883A88220F507E634
:06290800A8837583002284
:03290E00E280F76D
:03291100E493222A
:02291400E022BF
:0429160075820022A4
:00000001FF
