:0400000002006D325B
:01000B0032C2
:0100130032BA
:01001B0032B2
:0100230032AA
:01002B0032A2
:0300330002072E93
:01003B003292
:03004300023F0079
:01004B003282
:03005300023F0069
:01005B003272
:030063000207325F
:0300E400020066B1
:050066001200E780FE1E
:0900E700788176007880760090A3
:0E00F000E60B7403F000000000000090E60034
:0E00FE007410F075800175B28175900075B3B5
:0E010C00FF75B00075B58090E67AE0FA440108
:0B011A00F090E60174E0F01202869005
:0E012500E6097403F000000075890100000077
:06013300788276000876D8
:04013900E17884766F
:05013D00120876E178D4
:0501420086761C087622
:04014700E17888765D
:05014B004A0876E1788E
:050150008E76780876B0
:04015500E178907647
:050159007C0876E1784E
:05015E0092768E087688
:0C016300E1D2E843D82090E668E0FA44BE
:0E016F0009F090E65CE0FA443DF090E682E490
:0E017D00F0D2AF90E680E0FA54F7F0538EF81F
:08018B001201CF78A4E6600721
:070193001201AB78A4760015
:05019A007881E660061B
:06019F0078817600C2B772
:0501A50012073280E1A9
:0101AA002232
:0A01AB0090E680E0FA440AF07A00C2
:0201B500DAFE70
:0E01B70090E65D74FFF090E65F74FFF05391E8
:0901C500EF90E680E0FA54F7F037
:0101CE00220E
:0601CF007880E6700122B9
:0501D500AA08AB097847
:0901DA009CA60208A6037894A675
:0601E3000B08A60C08A6A3
:0501E9000D08A60E78D0
:0501EE0098A60F08A611
:0601F3001008A61108A689
:0601F90012789EA69B781F
:0801FF009FA69A78A0A69E7845
:0A020700A1A69D120308E58270080D
:0802110090E6A0E0FA4401F0C0
:0C02190090E6A0E0FA4480F078807600C7
:06022500789C86080886A3
:0A022B00097894860208860308860D
:09023500040886058A0B8B0C8C71
:04023E000D8D0E789C
:0C024200988602088603088604088605DA
:05024E008A0F8B108CEB
:04025300118D12787F
:080257009E869B789F869A7831
:07025F00A0869E78A1869D98
:010266002275
:0E02670090E6837401F07421F07411F074318C
:0E027500F090E6837402F07422F07416F074B8
:0202830036F053
:010285002256
:0E02860090E610E4F000000090E611E4F000B5
:0E029400000090E612E4F000000090E613E493
:0D02A200F000000090E614E4F00000009071
:0E02AF00E615E4F000000090E618E4F0000010
:0E02BD000090E619E4F000000090E61AE4F06C
:0E02CB0000000090E61BE4F000000090E6103A
:0E02D90074A0F000000090E61174A0F0000088
:0E02E7000090E61274A0F000000090E614747F
:0E02F500E0F000000090E68DE4F00000001242
:0503030009AC020974C1
:0C03080090E6B9E0FA24F4500302061B52
:07031400EA2A2A90031B7383
:07031B000204680204F20273
:06032200061B0205A0020B
:06032800061B02061B0289
:06032E00033F02061B0262
:0603340004530204410223
:05033A00041A02042F6B
:0A033F0090E6BBE0FABA0102801953
:05034900BA0202802A47
:05034E00BA0302803B30
:06035300BA06030203EAF2
:06035900BA0703020400D4
:03035F000204167F
:09036200788290E6B308E6F07819
:0B036B008286027B0090E6B4EAF002FC
:02037600061E61
:09037800788A90E6B308E6F078FB
:0B0381008A86027B0090E6B4EAF002DE
:02038C00061E4B
:06038E0090E6BAE07016D3
:09039400788E90E6B308E6F078DB
:0B039D008E86027B0090E6B4EAF002BE
:0203A800061E2F
:0803AA0090E6BAE0FABA011670
:0903B200789090E6B308E6F078BB
:0B03BB009086027B0090E6B4EAF0029E
:0203C600061E11
:0803C80090E6BAE0FABA021651
:0903D000789290E6B308E6F0789B
:0B03D9009286027B0090E6B4EAF0027E
:0203E400061EF3
:0403E60075820022FA
:0903EA00788490E6B308E6F0788F
:0B03F3008486027B0090E6B4EAF00272
:0203FE00061ED9
:09040000788C90E6B308E6F07870
:0B0409008C86027B0090E6B4EAF00253
:02041400061EC2
:0404160075820022C9
:08041A0090E74078A3E6F090A2
:0B042200E68AE4F090E68B7401F00223
:02042D00061EA9
:0A042F0090E6BAE0FA78A3A60212E4
:06043900028612026702B8
:02043F00061E97
:0A04410090E6BAE0FA78A2A60212D3
:06044B00028612026702A6
:02045100061E85
:0804530090E74078A2E6F0906A
:0B045B00E68AE4F090E68B7401F002EA
:02046600061E70
:0A04680090E6B8E0FABA8002800ABC
:05047200BA8102801BAD
:05047700BA8274802C24
:0A047C0090E740E4F090E741F090B3
:0A048600E68AF090E68B7402F002A3
:02049000061E46
:0A04920090E740E4F090E741F0909D
:0A049C00E68AF090E68B7402F0028D
:0204A600061E30
:0E04A80090E6BCE0FA53027E90E6BCE0FBC397
:0E04B60074809BE433FB4A90319F93FA339598
:0E04C400E0FB74A12AFA74E63BFB8A828B836C
:0E04D200E0FA53020190E740EAF090E741E4BF
:0C04E000F090E68AF090E68B7402F002C7
:0204EC00061EEA
:0404EE0075820022F1
:0704F20090E6B8E0FA600893
:0504F900BA02028012AE
:0304FE0002059C58
:0B05010090E6BAE0FABA010302061E01
:04050C0075820022D2
:0905100090E6BAE06003020598D0
:0E05190090E6BCE0FA53027E90E6BCE0FBC325
:0E05270074809BE433FB4A90319F93FA339526
:0E053500E0FB74A12AFA74E63BFB90E6BCE002
:0E054300FC53047E90E6BCE0FDC374809DE492
:0E05510033FD4C90319F93FC3395E0FD74A177
:0E055F002CFC74E63DFD8C828D83E0FC530481
:0E056D00FE8A828B83ECF090E6BCE05480FAAC
:0E057B00C423541FFA90E6BCE0FB740F5B90A3
:0D058900E6832AF090E683E0FA4420F002B9
:02059600061E3F
:040598007582002246
:04059C007582002242
:0705A00090E6B8E0FA6005E7
:0505A700BA026D800E98
:0A05AC0090E6BAE0FABA0202806895
:0405B6007582002228
:0E05BA0090E6BCE0FA53027E90E6BCE0FBC384
:0E05C80074809BE433FB4A90319F93FA339585
:0E05D600E0FB74A12AFA74E63BFB90E6BCE061
:0E05E400FC53047E90E6BCE0FDC374809DE4F1
:0E05F20033FD4C90319F93FC3395E0FD74A1D6
:0E0600002CFC74E63DFD8C828D83E0FC4304EF
:09060E00018A828B83ECF0800765
:0406170075820022C6
:03061B00020B636C
:03061E00758201E1
:0106210022B6
:0C062200C0E0C082C083C0007880760178
:09062E005391EF90E65D7401F0B8
:09063700D000D083D082D0E03263
:0E064000C0E0C082C0835391EF90E65D740469
:01064E00F0BB
:07064F00D083D082D0E0321D
:0E065600C0E0C082C0835391EF90E65D740255
:01066400F0A5
:07066500D083D082D0E03207
:0D066C00C0E0C082C083C002C003C000789F
:0A067900888602088603788AA6022C
:0C06830008A6038A828B83A37402F0781F
:0A068F00868602088603788CA60216
:0E06990008A6038A828B83A37407F05391EFA7
:0606A70090E65D7410F006
:0D06AD00D000D003D002D083D082D0E03244
:0C06BA00C0E0C082C083C00078817601DF
:0906C6005391EF90E65D7408F019
:0906CF00D000D083D082D0E032CB
:0D06D800C0E0C082C083C002C003C000901B
:0706E500E680E0FA30E72C8B
:0A06EC0078868602088603788AA645
:0D06F6000208A6038A828B83A37402F078A9
:0A070300888602088603788CA6029F
:0B070D0008A6038A828B83A37407F008
:090718005391EF90E65D7420F0AE
:0D072100D000D003D002D083D082D0E032CF
:03072E0053D8EFAE
:010731003295
:053190000102000080B7
:053195000100000080B4
:05319A000100000080AF
:0A319F000001020203030404050509
:0A00C60078A4760078A5E4F608F6A9
:0C00D00008F608F678A9E4F608F608F631
:0800DC0008F678ADE4F608F621
:07073200120784E582601448
:0707390012074EE582700D6E
:0B07400012087878B276017582000282
:02074B00088123
:01074D002289
:07074E0078AFE624FA402B0E
:0A07550078AFE625E02690075F73F9
:07075F00020771020774029A
:0607660007770207800284
:05076C00077A02077D81
:03077100020A0C6D
:03077400020A7006
:030777000216B5B2
:03077A0002234314
:03077D00022BB19B
:030780007582007F
:010783002253
:05078400E5BA30E104BC
:040789007582002253
:07078D0078B276007A807B50
:06079400E78B9A7A807BDE
:0C079A00E77B008A9B90E67BE0FA7B0086
:0507A6000ABA00010B7E
:0E07AB0090E68DE0FC7D00EAB50406EBB50596
:0307B900028011AA
:0B07BC0012087878B2760175820012F6
:0607C7000881758200228A
:0A07CD0090E67BE0FA78AFA60290F8
:0907D700E67BE0FA78B0A602907E
:0B07E000E67BE0FA78B1A6027582010A
:0107EB0022EB
:0807EC001201CFE5BA30E1046F
:0407F400750A002260
:0C07F80090E780E0FA7B000ABA00010BD9
:0E08040090E68DE0FC7D00EAB50406EBB5053C
:0308120002801150
:0B08150012087878B27601758200129C
:060820000881750AFF22A9
:0B08260090E781E0FA78AFE6B502131E
:0C08310090E782E0FA78B0748046FBEAA1
:03083D00B50304FC
:04084000750A012212
:0608440090E781E0700C5A
:08084A0090E782E0FABA020413
:04085200750A0222FF
:03085600750AFF21
:01085900227C
:08085A00AA827B0B7C007D40AB
:0E08620090E67BE0FE8B828C838DF01230E9F5
:07087000A3AB82AC83DAEBBD
:01087700225E
:0808780090E68DE4F0000000A1
:010880002255
:07088100AA82E5BA30E20192
:01088800224D
:070889007BC07CE78C9D7B26
:08089000C07CE77C008B9E9008
:08089800E67CEA04F078B2905E
:0708A000E67CE6F07B0B7C17
:0508A700007D408A06FF
:0308AC00EE6017E4
:0E08AF008B828C838DF0123170FFA3AB82AC74
:0908BD008390E67CEFF01E80E65A
:0A08C60090E68F74022AF000000093
:0108D0002205
:0708D100AA82E5BA30E20142
:0108D80022FD
:0708D9007BC07CE78C9D7BD6
:0808E000C07CE77C008B9E90B8
:0808E800E67CEA04F078B2900E
:0408F000E67CE6F0CC
:0108F40022E1
:0508F500E5BA30E2014C
:0108FA0022DB
:0808FB0090E7C178B2E6F0902D
:0C090300E7C0E0FA90E68F04F00000006E
:01090F0022C5
:0E091000AA82AB83ACF090E67BE0FDC002C093
:0E091E0003C004C005120878D005D004D00331
:07092C00D002E5BA30E20140
:0109330022A1
:070934007EC07FE78F9D7E6E
:08093B00C07FE77F008E9E9053
:0C094300E67CED04F090E67CE4F08D060C
:03094F00EE601740
:0E0952008A828B838CF0123170FFA3AA82ABD5
:090960008390E67CEFF01E80E6B6
:0A09690090E68F74022DF0000000EC
:010973002261
:0E09740090E618E4F000000090E6047480F0B5
:0E09820000000090E6047402F00000007A0409
:0B09900090E6497482F0000000DAF5E8
:0E099B0090E604E4F000000090E6A3E4F00013
:0209A90000004C
:0109AB002229
:0E09AC0090E61AE4F000000090E6047480F07B
:0D09BA0000000090E6047406F000000090BC
:0E09C700E604E4F000000090E6A5E4F0000075
:0109D5000021
:0109D60022FE
:0809D70090E680E0FA30E7062B
:0609DF007A007B02800497
:0409E5007A407B00D9
:0E09E90090E624EBF000000090E680E0FA308B
:0209F700E70611
:0609F9007A007B0280047D
:0409FF007A407B00BF
:080A030090E625EAF000000076
:010A0B0022C8
:070A0C0078B0B6020280077A
:070A130078B0B60350800526
:050A1A00120878804D78
:0A0A1F0075820412085A120878E5E7
:080A29000BF4FAE50CF4FBE507
:0A0A31000DF4FCE50EF4FD747B2AC1
:0C0A3B00FAE43BFBE43CFCE43DFD8A0BCC
:050A47008B0C8C0D8DED
:050A4C000E12182278D3
:0C0A5100A5E4F608F608F608F61209AC59
:0B0A5D001209747582041208818004E5
:040A68007582002271
:030A6C007582018F
:010A6F002264
:070A700078B0B602028023FA
:070A770078B0B603028033E2
:070A7E0078B0B604028039D4
:070A850078B0B60902803FC2
:070A8C0078B0B60A02804FAA
:070A930078B0B60B54804D52
:070A9A00120878750B1175BD
:060AA1000C00750D00754C
:0A0AA7000E00758204120881803FE2
:0D0AB100120878D2B77582001208818032D9
:0D0ABE00120878C2B77582001208818025E9
:070ACB00120878750B00759D
:060AD2000C20750D0075FB
:0A0AD8000E00758204120881800EE2
:050AE2001214F0800970
:050AE7001212A28004C0
:040AEC0075820022ED
:030AF0007582010B
:010AF30022E0
:0A0AF400AA82AB83E50845097001F2
:010AFE0022D5
:070AFF00AC14BCE602800507
:050B06008B05BDE63186
:080B0B008A068B07AC13AD1440
:0E0B13008E028F038C828D83E0F88A828B83A2
:060B2100F00EBE00010F02
:050B27000CBC00010DF3
:080B2C00150874FFB50802155D
:010B340009B7
:060B3500E508450970D837
:010B3B002297
:0C0B3C008C9AAC137E008C9B8D9D7B007E
:050B48008A9E020B4E25
:010B4D002285
:080B4E00A90890E67B058690E2
:040B5600E67C0586AE
:080B5A00E00586F00586D9F8DC
:010B62002270
:0A0B630090E6B9E0FABAA202804A57
:050B6D00BAA30280455F
:060B7200BAE103020E3897
:060B7800BAE203020E18B0
:060B7E00BAE303020E18A9
:060B8400BAE403020DF8C3
:060B8A00BAE503020DF8BC
:060B9000BAE603020D03AA
:060B9600BAE703020D3076
:060B9C00BAE803020D7827
:060BA200BAE903020DD8C0
:060BA800BAEA03020DA7EA
:060BAE00BAEB03020E5831
:030BB400020E78B6
:0B0BB70090E6BAE0FAA3E0FB8A0B8B8B
:0A0BC2000C90E6BEE0FAA3E0FB9001
:090BCC00E6B8E0FCBCC0028003A5
:030BD500020C68A7
:070BD800EA4B7003020E7CE2
:080BDF0090E6A0E0FC20E1F823
:080BE70090E6B9E0FCBCA2118C
:0A0BEF00750D00750E00C002C00372
:070BF900121116D003D00217
:090C0000C3EA9440EB9400500695
:060C09008A0D8B0E80062F
:060C0F00750D40750E009A
:080C150090E6B9E0FCBCA20D61
:0D0C1D00C002C003121069D003D002801A7B
:040C2A00850D0885A7
:030C2E000E09901C
:040C3100E740850B08
:030C350013850C18
:0C0C380014C002C003120AF4D003D00262
:080C440090E68AE4F0AC0DAD6E
:080C4C000E90E68BECF0EC25A4
:070C54000BFEED350CFF8ED5
:0A0C5B000B8F0CEAC39CFAEB9DFB23
:030C6500020BD8A7
:0A0C680078ADE608467003020CFFA9
:0C0C720090E6BCE0FCA3E0FD78ADE6B528
:090C7E00040708E6B50502800236
:020C8700807675
:080C890090E6B8E0FCBC406EEF
:070C9100EA4B7003020E7C28
:090C980090E68AE4F090E68BF08E
:080CA10090E6A0E0FC20E1F860
:0A0CA90090E68BE0FC7D008C0D8DC1
:090CB3000E90E6B9E0FCBCA31FA1
:040CBC00850D088515
:030CC0000E098595
:060CC3000B82850C837515
:030CC90013407560
:070CCC0014E7C002C003128F
:080CD3000AF4D003D002800BEB
:0B0CDB00C002C003121116D003D002AB
:060CE600AC0DAD0EEC2583
:070CEC000BFEED350CFF8E3D
:0A0CF3000B8F0CEAC39CFAEB9DFB8B
:020CFD008092E3
:040CFF0075820022D8
:0A0D030090E6B8E0FABAC0028003DF
:030D0D00020E7C57
:080D100090E6A0E0FA20E1F8F2
:0E0D180090E740740AF0A37403F090E68AE4BA
:0A0D2600F090E68B7402F0020E7CE0
:0A0D300090E6B8E0FABAC0028003B2
:030D3A00020E7C2A
:080D3D0090E6A0E0FA20E1F8C5
:0E0D450090E740E4F0A3F0A3F0A3F090E744A1
:0E0D530075F000740D1230E9A3E41230E9A32C
:0A0D6100E41230E9A3E41230E99037
:0B0D6B00E68AE4F090E68B7408F002CA
:020D76000E7CF1
:080D780090E6B8E0FABA40234E
:090D800090E68AE4F090E68BF0A5
:080D890090E6A0E0FA20E1F879
:0C0D910090E740E0FAA3E0FB78ADA6027A
:060D9D0008A603020E7C13
:040DA3007582002233
:080DA70090E6B8E0FABA40251D
:070DAF0078ADE60846601E66
:0C0DB60090E6BCE0FAA3E0FB78ADE6B5E7
:090DC200020708E6B503028002F5
:020DCB0080079F
:070DCD0078A47601020E7C00
:040DD4007582002202
:070DD800750BF0750C3F756F
:060DDF000D04750E007505
:060DE5000FCD7510AB906C
:070DEB00E6B8E0FABAC0030C
:030DF200020E806E
:030DF500020F9951
:070DF800750BE0750C3F755F
:060DFF000D0C750E0075DD
:060E05000F7875105690F5
:070E0B00E6B9E0FABAE403C6
:030E1200020E804D
:030E1500020F9930
:070E1800750BC0750C3F755E
:060E1F000D10750E0075B8
:060E25000FCD7510AB902B
:070E2B00E6B9E0FABAE203A8
:030E3200020E802D
:030E3500020F9910
:070E3800750BA0750C3F755E
:060E3F000D1C750E00758C
:060E45000FCD7510AB900B
:070E4B00E6B8E0FABAC003AB
:030E5200020E800D
:030E5500020F99F0
:070E5800750BF8750C3F75E6
:060E5F000D02750E007586
:060E65000FCD7510AB90EB
:070E6B00E6B8E0FABAC0038B
:030E7200020E80ED
:030E7500020F99D0
:040E7800758200225D
:030E7C007582017B
:010E7F002250
:0C0E80007AFF90E6B8E0FBBBC0028004E3
:040E8C007582002249
:050E9000AB0DAC0E7576
:0A0E95000D00750E00C002C003C07E
:0E0E9F0004121116D004D003D00274032BFBF2
:0A0EAD00E43CFC8B0D8C0EC0021219
:0A0EB7001069D002E50D24FDFBE5F3
:070EC1000E34FFFC8B0D8CC9
:0B0EC8000E90E740E0FBA3E0FCEBB560
:060ED3000F48ECB51044CD
:040ED9007A007B0020
:0A0EDD007403250DFCE4350EFD8BB7
:0A0EE700067F00C3EE9CEF9D502C27
:0A0EF100EB2440F582E434E7F583BA
:0A0EFB00E0FC2AFAEB2440FCE4348A
:0A0F0500E7FD74022B2440F582E49E
:0C0F0F0034E7F583E0FE8C828D83F00B4C
:020F1B0080C094
:030F1D00EA606423
:040F2000850D0885AE
:030F24000E099023
:090F2700E6B9E0FABAE1028034F7
:050F3000BAE202803D61
:050F3500BAE402800592
:050F3A00BAE943801735
:020F3F007A0036
:030F4100BA0C00E7
:020F4400503E1D
:0A0F4600EA2440F582E434E7F58365
:060F50007430F00A80EB92
:050F560090E740751357
:030F5B00B8751452
:060F5E0031120AF48020AC
:050F640090E740751349
:030F6900BC751440
:060F6C0031120AF48012AC
:050F720090E74075133B
:030F7700D8751416
:060F7A0031120AF48004AC
:040F80007582002254
:0C0F840090E68AE4F000000090E68BE5A7
:080F90000DF000000075820164
:010F98002236
:080F990090E6B8E0FABA401C32
:070FA10078ADE6084660157B
:0C0FA80090E6BCE0FAA3E0FB78ADE6B5F3
:090FB400020708E6B503028004FF
:040FBD007582002217
:090FC10090E68AE4F090E68BF062
:080FCA0090E6A0E0FA20E1F836
:070FD20090E68AE0FA7014BA
:050FD900AA0DAB0E9013
:0E0FDE00E68BE0FC7D00B50206EDB503028057
:010FEC000400
:040FED0075820022E7
:060FF1008A15AD158D0606
:060FF7008E071EEF6025CD
:0C0FFD00C002C00374022E2440FFE43444
:09100900E7FCEE2440F582E4341A
:0C101200E7F583E0FA8F828C83F0D003B6
:04101E00D00280D5A7
:0810220090E740E50FF0A3E5A3
:05102A0010F07C407E87
:0A102F00E78E9A759B407C00740266
:031039002515FD7D
:09103C0090E67BE0FE2CFCDDF7E0
:0A104500740225152440F582E434FE
:0C104F00E7F583C3E49CFCF074032AFA6C
:08105B00E43BFB8A0D8B0E1231
:05106300111675820169
:011068002265
:05106900E50DFA700422
:04106E007582012264
:0810720090E678E0FB20E6F8AF
:0C107A0090E6787480F090E67974A3F0A2
:0810860090E678E0FB30E0F891
:08108E0090E678E0FB20E2741B
:0810960090E678E0FB30E16C0C
:03109E00BA01088C
:0810A10090E678E0FB4420F02A
:0710A90090E679E07B407C3A
:0610B000E78C9A7B407CF6
:0510B600E77C008B9BAC
:0410BB00DA028026AF
:0810BF0090E678E0FB30E0F858
:0810C70090E678E0FB20E23B1B
:0310CF00BA01085B
:0810D20090E678E0FB4420F0F9
:0B10DA0090E679E0FB90E67BF080D60A
:0810E50090E678E0FA30E0F833
:0810ED0090E678E0FA20E2151C
:0E10F50090E678E0FA4440F090E679E0FA9058
:07110300E67BF0758201227A
:0B110A0090E678E0FA4440F0758200A7
:0111150022B7
:02111600AA0D20
:0811180090E678E0FB20E6F808
:0C11200090E6787480F090E67974A2F0FC
:08112C0090E678E0FB30E0F8EA
:0811340090E678E0FB20E26B7D
:08113C0090E678E0FB30E1636E
:03114400EA600E50
:071147007B407CE78C9A7BE2
:07114E00407CE77C008B9B55
:021155007B021B
:03115700EA700338
:03115A00EB603B0C
:03115D00EB601430
:03116000BB0208C7
:0811630090E679E50CF080062E
:06116B0090E679E50BF0AF
:031171001B800AD6
:0A11740090E67BE0FC90E679F01AAB
:08117E0090E678E0FC30E0F897
:0811860090E678E0FC20E2197C
:08118E0090E678E0FC20E1C1CD
:02119600800FC8
:0E11980090E678E0FA4440F01211B37582013F
:0111A6002226
:0B11A70090E678E0FA4440F07582000A
:0111B200221A
:0811B30090E678E0FA20E6F86E
:0E11BB0090E678E0FA4480F090E67974A2F0B5
:0811C90090E678E0FA30E0F84E
:0811D10090E678E0FA4440F0DA
:0811D90090E678E0FA20E6F848
:0811E10090E678E0FA30E1D25B
:0111E90022E3
:0811EA0090E678E0FA4440F0C1
:0811F20090E678E0FA20E6F82F
:0111FA0022D2
:0711FB00AA8290E679EAF0F8
:0812020090E678E0FA30E0F814
:08120A0090E678E0FA20E2080A
:0812120090E678E0FA20E10704
:07121A001211EA78B27623FD
:0612210078B2E6B4010002
:04122700E433F58235
:01122B0022A0
:0C122C00AA8290E6787480F0EA2AFAE5C5
:0B123800164AF5821211FBE5827004DB
:0412430078B27622E5
:0612470078B2E6B40100DC
:04124D00E433F5820F
:01125100227A
:0912520075160175825102122C7F
:0C125B00AA82AB83751600758251C00298
:0D126700C00312122CE582D003D0026011EA
:0E1274008B82C002C0031211FBE582D003D0B2
:03128200027004F3
:041285007C00800267
:021289007C01E6
:03128B00EC600B09
:0B128E007B008A821211FBE5827004D5
:041299007A00800255
:02129D007A01D4
:02129F008A8241
:0112A100222A
:0612A200E4F517F518F554
:0712A80008F5097582081228
:0612AF00085A120878AC99
:0412B5000FAD10AEBB
:0A12B90011AF12C3E49C74209DE401
:0512C3009EE49F40289D
:0412C800850B1985F4
:0312CC000C1A8574
:0312CF000D1B856F
:0412D2000E1CEC25DD
:0812D60019FCED351AFDEE359F
:0A12DE001BFEEF351CFFC3E49C74F7
:0812E800209DE49EE49F500AE2
:0A12F00078B27609758200020881C9
:0912FA00AC19741C251AFDE43541
:071303001BFEE4351CFF8C0A
:04130A000B8D0C8EAD
:04130E000D8F0E85AC
:061312000B82850C831222
:06131800125BE582700586
:05131E00F582020881C8
:0A1323001211EA758200120881E53C
:04132D000F45104513
:051331001145126028C7
:0A1336001212527401B50F0EE4B557
:08134000100AE4B51106E4B542
:04134800120280020B
:02134C00800817
:08134E0090E678E0FC4420F079
:0813560090E679E0F50A80033E
:03135E00751801FE
:04136100E518600724
:07136500E51760030214E22A
:09136C001207ECE4B50A02803F0F
:051375007401B50A0C33
:04137A00E5177008FB
:08137E00751701120878802E9A
:051386007402B50A1C11
:07138B00120878E51870223A
:0C13920090E6A57401F000000075180141
:09139E0078B276021211EA800D0A
:0413A700E5187003D2
:0313AB001211EA32
:0613AE007517000214E2B5
:0413B400E51870A91F
:0513B800E5AA20E5A4F8
:0713BD007C007DF88D9D7C92
:0813C400007DF87D008C9E8580
:0313CC000F1D856D
:0313CF00101E8568
:0313D200111F8563
:0313D50012209053
:0713D800E680E0FA30E706B1
:0613DF007A007B0280048D
:0413E5007A407B00CF
:0C13E900EB3395E0FCFDC3EA951DEB958D
:0613F5001EEC951FED95B2
:0313FB002050146B
:0813FE0090E680E0FA30E706FA
:061406007A007B02800465
:04140C007A407B00A7
:02141000800456
:04141200AA0FAB1062
:041416008A088B09AC
:07141A00E50845097003021B
:0214210014CDE8
:07142300E51860030214CD7F
:08142A0090E678E0FC30E0F8E8
:0814320090E678E0FC30E218BE
:08143A0078B2762375180190C9
:0C144200E6A57401F0EAC39508FAEB95EA
:04144E0009FB80C84E
:0A1452007402B50F0EE4B5100AE4B1
:09145C00B51106E4B5120280028C
:021465008008FD
:0814670090E678E0FC4420F05F
:0A146F007401B50F0EE4B5100AE495
:09147900B51106E4B5120280026F
:02148200800BDD
:0B148400C002C0031211EAD003D00226
:0A148F0090E679E0FC90E67CF01591
:071499000874FFB5080215FD
:0114A0000942
:0514A100AC0FAD10AE20
:0A14A60011AF121CBCFF091DBDFFB1
:0614B000051EBEFF011F36
:0514B6008C0F8D108E6B
:0A14BB00118F12EC4D4E4F6003023A
:0214C500141AF7
:0614C70075180102141A61
:0E14CD0090E698EBF00000007B0090E699EAB4
:0714DB00F0000000021361A4
:0714E2001209ACE5176006DA
:0614E9007582000208817B
:0114EF0022DA
:0714F0007521007522007553
:0614F7002301E4F508F5F5
:0814FD000975820812085A1259
:051505000878AD0FAEF7
:04150A0010AF11AC61
:0C150E0012C3E49D74209EE49FE49C4006
:01151A001CB4
:0A151B00ED250BFDEE350CFEEF355B
:0A1525000DFFEC350EFCC3E49D74CD
:08152F00209EE49FE49C500A99
:0A15370078B276097582000208817F
:0B154100758200120881AC0B741C25A1
:08154C000CFDE4350DFEE43551
:051554000EFF8C0B8D61
:041559000C8E0D8F58
:04155D000EE50F4543
:0415610010451145DB
:03156500127003FE
:03156800752201E8
:04156B00E52260070E
:07156F00E521600302169D57
:091576001207ECE4B50A0280350D
:05157F007401B50A0C27
:04158400E5217008E5
:0815880075210112087880248E
:051590007402B50A1908
:07159500120878E52270182E
:0C159C0090E6A37401F00000007522012D
:0615A80078B27602800615
:0615AE0075210002169DEC
:0415B400E52270B309
:0515B800E5AA20E0AEF1
:0715BD007C007DF08D9A7C9B
:0815C400007DF07D008C9B907E
:0E15CC00E690E0FC8C057C0090E691E0FE7F4E
:0815DA00002CF508EF3DF509B6
:0615E200E50845096083E5
:0715E800E522600302156B10
:0415EF00E523600C84
:0715F300850B82850C8312B9
:0515FA00125B752300E7
:0515FF0078B2E6700E59
:0E16040090E67BE0FCF5821211FBE582700B94
:0B16120075220190E6A37401F080C572
:08161D00150874FFB508021561
:0116250009BB
:05162600AC0FAD10AE99
:07162B0011AF12EC24FFF5E2
:0A16320024ED34FFF525EE34FFF53A
:07163C0026EF34FFF52785BE
:03164300240F85EC
:03164600251085E7
:03164900261185E2
:03164C002712AAB8
:04164F000BAB0CAC29
:0A1653000DAD0E0ABA00090BBB0032
:06165D00050CBC00010DAC
:051663008A0B8B0C8CCA
:041668000D8D0EE5F1
:04166C0024452545A7
:05167000264527700370
:03167500752201DA
:06167800E50845097006BB
:06167E0090E6497482F0C1
:04168400E5227009E2
:06168800E50B543F600376
:03168E000215E260
:071691001211EA1211B375FA
:0516980023010215E230
:04169D00E5237006CB
:0616A1001211EA1211B360
:0716A700120974E521600641
:0616AE00758200020881B4
:0116B4002213
:0531A90001020000809E
:0531AE0001000000809B
:0531B300010000008096
:0431B8000F001040B4
:0E31BC00454578706C6F726572000000FDFD75
:0E31CA00FDFD509AF46A9A521608F064D70080
:0E31D800454578706C6F726572000000FDFD59
:0231E600FDFDED
:0716B50078B0B6020280606C
:0716BC0078B1B600028011B5
:0B16C30012087878B2760C75820012D5
:0616CE0008817582012273
:0516D40078B0E6701F74
:0616D90078A5E630E011E7
:0B16DF0012087878B2760375820012C2
:0616EA0008817582012257
:0816F00078A5E64401F6802410
:0516F80078B0B6010806
:0816FD0078A5E654FEF6801703
:0617050078A5E620E011CA
:0B170B0012087878B276047582001294
:061716000881758201222A
:0A171C0078B0E624F4500302180C24
:0A17260078B0E625E0269017307336
:0717300002175402176402C6
:06173700177402180C02F9
:06173D00178102179A0259
:0617430017CE021805029A
:0617490017F70217F7027A
:05174F0017FE0217F770
:0A17540012181012087875820012B6
:06175E00088175820122E2
:0A1764001218221208787582001294
:06176E00088175820122D2
:0D1774009031E875F0801209107582012295
:07178100120878750B0075DA
:061788000C6A750D1875D6
:0C178E000E007582041208817582012291
:07179A0090E67BE0FA600419
:0417A100D2B380023D
:0217A500C2B3CD
:0717A70090E67BE0FA60040C
:0417AE00D2B2800231
:0217B200C2B2C1
:0717B40090E67BE0FA6004FF
:0417BB00D2B4800222
:0217BF00C2B4B2
:0D17C10012087875820012088175820122DD
:0C17CE00120878A2B3E433FA8A0BA2B22E
:0B17DA00E433FA8A0CA2B0E433FA8A70
:0A17E5000DA2B4E433FA8A0E7582F7
:0817EF00041208817582012239
:0717F700121BDF75820122C5
:0717FE00121FE675820122B3
:0718050012182E758201226A
:03180C00758200E2
:01180F0022B6
:0E18100043B50443B50843B510D2B5C2B2D2F9
:03181E00B3C2B49E
:0118210022A4
:0B182200C2B553B5E3C2B2D2B3C2B4EA
:01182D002298
:0531E80001020000805F
:0531ED0001000000805C
:0531F200010000008057
:0B182E007A007B0090E67BE0FC600489
:04183900D2B38002A4
:02183D00C2B334
:07183F0090E67BE0FC600471
:04184600D2B2800298
:02184A00C2B228
:0E184C00C2B4758204C002C00312085AD00351
:0E185A0000C003120878758200120881D003C6
:07186800D002AC0BAD0CAE89
:04186F000DAF0E8C1F
:041873000F8D108E37
:09187700118F12EC4D4E4F70026E
:021880007B01EA
:03188200EB600612
:06188500EA6003021933C2
:0D188B00C002C0031207ECD003D002E4B588
:041898000A0280318F
:05189C007401B50A0F04
:0E18A1007A01C002C003120878D003D0028082
:0118AF001D1B
:0518B0007402B50A13EB
:0B18B5007B0178B27602C002C0031273
:0818C0000878D003D002800576
:0518C8007A0002193353
:0318CD00EB70B20B
:0518D000AC0BAD0CAEF5
:0A18D5000DAF0EC3ED94FEEE94007B
:0518DF00EF940050062B
:0618E4008C088D0980064E
:0618EA007508007509FEFF
:0818F000AC08AD09E4FEFFE5C0
:0918F8000BC39CFCE50C9DFDE511
:081901000D9EFEE50E9FFF8C18
:041909000B8D0C8EA8
:08190D000D8F0EC000C001A8FF
:0419150008A909090B
:0E191900D2B4C2B4D8FAD9F8D001D000EC4D47
:071927004E4F60030218821D
:05192E007B010218829C
:03193300EA60293E
:07193600E50FC3950BFAE574
:05193D0010950CFBE514
:0519420011950DFCE50C
:0519470012950EFD8A5F
:04194C000B8B0C8C69
:041950000D8D0E7873
:0B195400B2E64480F6758204020881B0
:01195F002265
:0A196000C001C002A908AA09E9604D
:02196A00010A70
:03196C0090E67B87
:0E196F00E01392B2D2B4C2B41392B2D2B4C298
:0E197D00B41392B2D2B4C2B41392B2D2B4C2B6
:0E198B00B41392B2D2B4C2B41392B2D2B4C2A8
:0E199900B41392B2D2B4C2B41392B2D2B4C29A
:0919A700B4D9C5DAC3D002D001A5
:0119B0002214
:0A19B100C001C002A908AA09E960FC
:0219BB00010A1F
:0A19BD0090E67B058690E67C058627
:0E19C700E01392B2A2B013D2B4C2B492B2A294
:0E19D500B013D2B4C2B492B2A2B013D2B4C254
:0E19E300B492B2A2B013D2B4C2B492B2A2B007
:0E19F10013D2B4C2B492B2A2B013D2B4C2B434
:0E19FF0092B2A2B013D2B4C2B492B2A2B0138C
:0E1A0D00D2B4C2B40586F00586D9AFDAADD0EA
:031A1B0002D001F5
:011A1E0022A5
:0A1A1F00C001C002A908AA09E9608D
:021A2900010AB0
:031A2B0090E67CC6
:0E1A2E00A2B0D2B4C2B413A2B0D2B4C2B413E8
:0E1A3C00A2B0D2B4C2B413A2B0D2B4C2B413DA
:0E1A4A00A2B0D2B4C2B413A2B0D2B4C2B413CC
:0E1A5800A2B0D2B4C2B413A2B0D2B4C2B413BE
:091A6600F0D9C2DAC0D002D001AF
:011A6F002254
:0A1A7000C001C002A908AA09E9603C
:021A7A00010A5F
:031A7C0090E67B76
:0E1A7F00E01392B3D2B4C2B41392B3D2B4C285
:0E1A8D00B41392B3D2B4C2B41392B3D2B4C2A3
:0E1A9B00B41392B3D2B4C2B41392B3D2B4C295
:0E1AA900B41392B3D2B4C2B41392B3D2B4C287
:091AB700B4D9C5DAC3D002D00194
:011AC0002203
:0A1AC100C001C002A908AA09E960EB
:021ACB00010A0E
:0A1ACD0090E67B058690E67C058616
:0E1AD700E01392B3A2B013D2B4C2B492B3A281
:0E1AE500B013D2B4C2B492B3A2B013D2B4C242
:0E1AF300B492B3A2B013D2B4C2B492B3A2B0F4
:0E1B010013D2B4C2B492B3A2B013D2B4C2B421
:0E1B0F0092B3A2B013D2B4C2B492B3A2B01378
:0E1B1D00D2B4C2B40586F00586D9AFDAADD0D9
:031B2B0002D001E4
:011B2E002294
:0A1B2F00C001C002A908AA09E9607C
:021B3900010A9F
:031B3B0090E67BB6
:0E1B3E00E01392B21392B3D2B4C2B41392B2B7
:0E1B4C001392B3D2B4C2B41392B21392B3D2B6
:0E1B5A00B4C2B41392B21392B3D2B4C2B4D9CF
:071B6800D5DAD3D002D00151
:011B6F002253
:0A1B7000C001C002A908AA09E9603B
:021B7A00010A5E
:0A1B7C0090E67B058690E67C058666
:021B86007C02DF
:0E1B8800E01392B21392B3FBE8A2B013F8EB95
:0E1B9600D2B4C2B41392B21392B3FBE8A2B061
:0E1BA40013F8EBD2B4C2B41392B21392B3FB97
:0E1BB200E8A2B013F8EBD2B4C2B41392B2138F
:0E1BC00092B3FBE8A2B013F8EBD2B4C2B4DCCF
:0E1BCE00B9E80586F0058619D9AEDAACD0026A
:021BDC00D00136
:011BDE0022E4
:071BDF00752900752B00754C
:071BE6002C0078B0B6082ABC
:081BED0075290190E67BE0F58B
:081BF5002890E67BE0FE60048D
:041BFD00D2B38002DD
:021C0100C2B36C
:041C0300E528600868
:041C0700752DB17511
:041C0B002E19805AB4
:041C0F00752D60755A
:041C13002E198052B4
:051C170078B0B60925BC
:0A1C1C0075280190E67BE0FC6004EF
:041C2600D2B38002B3
:021C2A00C2B343
:071C2C0090E67BE0FC600480
:041C3300D2B28002A7
:021C3700C2B237
:041C3900752D1F7571
:041C3D002E1A8028B3
:081C410075290190E67BE0F536
:081C49002890E67BE0FC60043A
:041C5100D2B2800289
:021C5500C2B219
:041C5700E528600814
:041C5B00752DC175AD
:041C5F002E1A8006B3
:041C6300752D7075F6
:021C67002E1A33
:0D1C690075820412085A1208787582001264
:041C76000881850B51
:031C7A002F850CA7
:031C7D0030850DA2
:031C800031850E9D
:031C830032852F78
:031C86000F853097
:031C890010853192
:031C8C001185328D
:0A1C8F00127407552FFD7A007B0048
:071C99007C008D2AAA2FE553
:0C1CA00030C423CAC423541F6ACA541F56
:0C1CAC00CA6ACAFBE531C42354E04BFBBC
:0A1CB800AC31E532C423CCC4235440
:0C1CC2001F6CCC541FCC6CCCFE8A0B8B2A
:041CCE000C8C0D8EDF
:051CD2000EE52A601D73
:051CD700AA0BAB0CACF0
:0A1CDC000DAE0E0ABA00090BBB00A2
:061CE600050CBC00010E1C
:051CEC008A0B8B0C8C3B
:031CF1000D8E0E47
:051CF400E50F4510455D
:051CF90011451270030B
:031CFE00752B0142
:021D0100C2B46A
:041D0300E52B600765
:071D0700E52C6003021EF948
:071D0E001207ECE50A602C4E
:051D15007401B50A0C89
:041D1A00E52C70083C
:081D1E00752C01120878801BEE
:051D26007402B50A1073
:071D2B00120878E52B700F90
:091D320078B27602752B018006DF
:061D3B00752C00021EF9E8
:041D4100E52960052B
:051D4500E5AA20E0B951
:041D4A00E528600523
:051D4E00E5AA20E5B04C
:041D5300E52B70AC60
:041D5700E529600E0C
:071D5B007A007BF08B9A7AFD
:071D6200007BF07B008A9B6F
:041D6900E528600EFB
:071D6D007A007BF88B9D7AE0
:071D7400007BF87B008A9E52
:041D7B00E5296019DD
:0E1D7F0090E690E0FA8A037A0090E691E0FC8C
:0A1D8D007E004AF508EE4BF50980D0
:011D970054F7
:041D9800850B3385FF
:031D9C000C34857F
:031D9F000D35857A
:031DA2000E36906A
:071DA500E680E0FF30E706D5
:061DAC007A007B028004B6
:041DB2007A407B00F8
:0C1DB6008A07EBFD3395E0FAFBC3EF95C4
:061DC20033ED9534EA95B3
:061DC80035EB95365018C2
:081DCE0090E680E0FA30E70620
:061DD6007A007B0280048C
:041DDC007A407B00CE
:061DE0008A088B09800651
:041DE60085330885B4
:021DEA003409BA
:081DEC00AA08AB09E4FCFDE5C7
:091DF4000BC39AFAE50C9BFBE518
:081DFD000D9CFCE50E9DFD8A22
:041E05000B8B0C8CAB
:041E09000D8D0EE548
:031E0D002A601335
:051E1000E50B450C4547
:051E15000D450E7009EF
:081E1A00150874FFB50802155C
:011E220009B6
:061E2300E5084509600915
:071E2900852D82852E831236
:021E3000006B45
:071E3200E52A7003021EC344
:051E3900E50B450C451E
:061E3E000D450E600302D9
:021E44001EC3BB
:061E4600AA2AE529700B39
:031E4C0030B204AD
:041E4F007BFF800293
:021E53007B0012
:021E5500800506
:051E570090E67BE0FBBA
:051E5C0078B0B60B1D7B
:021E61008A04F1
:0B1E6300EBA2E092B3C313FB30B0050C
:051E6E00430380800326
:031E730053037F97
:061E7600D2B4C2B4DCE7A7
:021E7C008019CB
:0B1E7E00EBA2E092B2C313FB30B005F2
:051E890043038080030B
:031E8E0053037F7C
:061E9100D2B4C2B4DAE78E
:041E9700E528601DBD
:0C1E9B00AD2A7A007408C39DFDE49AFA99
:071EA7008DF005F0EB800255
:021EAE00C3135C
:081EB000D5F0FBFB90E67CF08D
:071EB800752A000508E4B5DE
:041EBF000802050907
:041EC300E5296009A4
:091EC70090E6497482F00000006D
:041ED000E52860128F
:0A1ED40090E698E509F00000009088
:081EDE00E699E508F0000000A0
:051EE600E50B450C4571
:061EEB000D450E6003022C
:021EF1001D03CF
:061EF300752B01021D0326
:071EF9001209741209ACE5A7
:041F00002C7001221E
:041F0400E52A601D4D
:051F0800AA0BAB0CACBC
:0A1F0D000DAD0E1ABAFF091BBBFF51
:061F1700051CBCFF011DCA
:051F1D008A0B8B0C8C07
:031F22000D8D0E14
:041F2500850D35E50C
:0A1F29000EC40354F8C535C403C507
:041F3300356535C516
:061F37003554F8C53565C4
:041F3D0035F536E55B
:081F41000CC40354074535F5FB
:031F490035850BD0
:081F4C0033E50CC40354F8C591
:061F540033C403C5336530
:061F5A0033C53354F8C545
:041F6000336533F5BD
:031F64003485338E
:031F67000B8534B3
:031F6A000C8535AE
:031F6D000D8536A9
:091F70000EAE2AE4FFFAFBEE2597
:081F790033FEEF3534FFEA35B9
:071F810035FAEB3536FB8E4B
:041F88000B8F0C8A25
:041F8C000D8B0EE5C6
:091F90000FC39EFEE5109FFFE562
:081F9900119AFAE5129BFB8E80
:041FA1000F8F108A04
:041FA500118B128EFC
:041FA9000B8F0C8A04
:041FAD000D8B0EE5A5
:031FB100296004A0
:041FB4007A808002AD
:021FB8007A00AD
:041FBA00E5286004B2
:041FBE007B408002E2
:021FC2007B00A2
:0A1FC400EB4A78B246F6E529600406
:041FCE007A0480020F
:021FD2007A0093
:041FD400E528600498
:041FD8007B04800204
:021FDC007B0088
:071FDE00EB2AF582020881E5
:011FE50022D9
:071FE6007538007539007524
:071FED003A0090E67BE0F5ED
:081FF4003775820412085A122D
:091FFC0008787582001208818545
:032005000B3D850B
:032008000C3E8506
:03200B000D3F8501
:03200E000E4085FC
:032011003D0F85FB
:032014003E1085F6
:032017003F1185F1
:03201A004012E58C
:04201D003D453E45BA
:052021003F4540700383
:0320260075390108
:0C2029007407553DFAE4FDFBFC74032530
:082035003DFBE4353EFCE435FF
:07203D003FFDE43540FE8B7E
:042044000B8C0C8D68
:0A2048000DEEF50EC313FEED13FDBF
:0E205200EC13FCEB13FBEEC313FEED13FDECE1
:0A20600013FCEB13FB8B0B8C0C8DB3
:04206A000D8E0EE5E4
:03206E00376008D0
:04207100753B7075D6
:042075003C1B80068A
:04207900753B2F750F
:02207D003C1B0A
:02207F00C2B4E9
:04208100E5396007D6
:07208500E53A60030222822C
:0B208C00C0021207ECD002E50A60342D
:052097007401B50A1000
:04209C00E53A700CA5
:0C20A000753A01C002120878D002801FBF
:0520AC007402B50A14E6
:0B20B100C002120878D002E539700F61
:0920BC0078B27602753901800644
:0620C500753A00022282C0
:0520CB00E5AA20E0B1D0
:0420D000E53760058B
:0520D400E5AA20E5A8CB
:0420D900E53970A4D1
:0720DD007D007EF08E9A7D6C
:0820E400007EF07E008D9BE5FB
:0320EC0037601248
:0420EF00E538700E52
:0720F3007D007EF88E9D7D4B
:0720FA00007EF87E008D9EC0
:0E21010090E690E0FD8D067D0090E691E0FFF7
:0A210F007B002DF508EB3EF509AB4F
:0721190008AC09E4FDFEE53E
:092120000BC39BFBE50C9CFCE5E4
:082129000D9DFDE50E9EFE8BED
:042131000B8C0C8D7A
:062135000D8E0EEA602C85
:05213B00E50B450C4519
:052140000D450E7022A8
:0E2145008A03FC74032BFBE43CFCA2E713CBE3
:0C21530013CBA2E713CB13CBFCE508C3B1
:07215F009BF508E5099CF562
:01216600096F
:06216700E5084509600DCA
:09216D00C002853B82853C83120F
:04217600006BD00228
:06217A00EA70030221FFE0
:05218000E50B450C45D4
:052185000D450E707510
:09218A007B0090E67BE0FC7D0087
:05219300C3ED9A50238A
:03219800BD04057E
:05219B0090E67BE0FC72
:0E21A000ECA2E092B2C313FCA2E092B3C31310
:0621AE00FCEBA2B013FBE4
:0721B400D2B4C2B40D80D8C3
:0421BB00E537601C88
:0E21BF008A047D007408C39CFCE49DFD8CF036
:0521CD0005F0EB8002AB
:0221D200C31335
:0721D400D5F0FB90E67CF062
:0E21DB008A037C0074032BFBE43CFCA2E71398
:0C21E900CB13CBA2E713CB13CBFCEB25F0
:0521F50008F508EC35BF
:0521FA0009F5097A005F
:0421FF00E5376063FD
:05220300E50B450C4550
:052208000D450E60040D
:04220D00E5386052FE
:072211000508E4B508020511
:0122180009BC
:08221900E509C313C50813C554
:0422210008F509E5CE
:03222500386024FA
:0822280090E680E0FB30E706C0
:062230007B007C0280042B
:042236007B407C006D
:0C223A00ECA2E713CB13CBFCEB2508F55E
:0522460008EC3509F56C
:01224B000989
:0A224C0090E698E509F0000000900C
:09225600E699E508F000000075AE
:04225F0038008003C0
:03226300753801CA
:0C22660090E6497482F0000000E50B4592
:042272000C450D45C5
:062276000E60030220814E
:06227C007539010220810A
:0C228200C002120974001209ACD002E581
:04228E003A7001227F
:0A229200E50B25E0FBE50C33FCE54D
:0A229C000D33FDE50E33FEEB2BFBC6
:0C22A600EC33FCED33FDEE33FE8B0B8CB3
:0422B2000C8D0D8EF4
:0422B6000EEA603D8F
:0422BA00EA30E21D07
:0522BE00AB0BAC0CAD00
:0A22C3000DAE0E1BBBFF091CBCFF93
:0622CD00051DBDFF011E0E
:0522D3008B0B8C0C8D4B
:0322D8000D8E0E5A
:0A22DB00E4FBFCFDEA250BFAEB35ED
:0822E5000CFBEC350DFCED359E
:0522ED000EFD8A0B8BC1
:0422F2000C8C0D8DB6
:0122F6000ED9
:0722F700E50FC3950BFAE5AA
:0522FE0010950CFBE54A
:0523030011950DFCE541
:0523080012950EFD8A94
:04230D000F8B108C96
:04231100118D128A8E
:042315000B8B0C8C96
:042319000D8D0EE533
:03231D003770080E
:05232000F50FF510F5BA
:0323250011F5129D
:0C23280078B2E644C0F675820802088115
:012334002286
:0531F700010200008050
:0531FC0001000000804D
:05320100010000008047
:0A233500C28CC28D78B3868A78B39B
:03233F0008868C81
:012342002278
:0723430078B0B602028060D1
:07234A0078B1B6000280111A
:0B23510012087878B2760C758200123A
:06235C00088175820122D8
:0523620078B0E6701FD9
:0623670078A5E630E2114A
:0B236D0012087878B276037582001227
:06237800088175820122BC
:08237E0078A5E64404F6802472
:0523860078B0B601086B
:08238B0078A5E654FBF680176B
:0623930078A5E620E2112E
:0B23990012087878B2760475820012FA
:0623A40008817582012290
:0A23AA0078B0E624F85003022494F2
:0A23B40078B0E625E0269023BE7302
:0723BE000223D60223D60220
:0623C50023E80223F502EB
:0623CB00247A02248202C4
:0523D100248A02248FA4
:0C23D60012087878B3E4F608F67582006F
:0623E2001208810224989C
:0D23E80090320B75F08012091075820122F1
:0A23F50075820412085A1208787568
:0623FF0053FAE4F554F569
:0424050055F55685AE
:062409000B82850C8385A7
:05240F000DF0E50E12C6
:0C2414003084AA82AB83ACF0FD8A0B8BF5
:042420000C8C0D8D86
:072424000EEC7003ED600CEB
:07242B00750BFF750CFF7536
:052432000D00750E0015
:09243700E50BF4FAE50CF4FBE5F9
:082440000DF4FCE50EF4FD783B
:08244800B3A60208A603850BF0
:0324500053850CA5
:0324530054850DA0
:0324560055850E9B
:0C245900569000FAE4F5F0123102AA825D
:0A246500AB83ACF0FD8A0B8B0C8CEE
:07246F000D8D0E75820412B1
:042476000881801E3B
:08247A00758201122850801642
:08248200758200122850800E43
:05248A0012250C800981
:05248F0012268B800401
:04249400758200222B
:0324980075820149
:01249B00221E
:0E249C0090E6F3E0FA4480F000000090E67B4A
:0C24AA00E0FA90E6F1F00000000224ECE3
:0E24B60090E6F3E0FA547FF000000090E67B21
:0C24C400E0FA90E6F1F00000000224ECC9
:0B24D00090E6F1E01224ECE582600DC4
:0D24DB0090E6F2E0FA90E67CF075820122B6
:0324E800758200FA
:0124EB0022CE
:0524EC00122335D28C23
:0524F100E5BB20E7033C
:0324F600308DF82E
:0524F900E5BB30E70423
:0424FE0075820122C0
:0925020090E6F574FFF07582000B
:01250B0022AD
:0A250C00E4FAFBF508F509758204F6
:0D251600C002C00312085AD00300C0031217
:0D2523000878758200120881D003D002AC48
:042530000BAD0CAE35
:042534000DAF0E8C4D
:042538000F8D108E65
:09253C00118F12EC4D4E4F70029C
:022545007B0118
:03254700EB600640
:06254A00EA6003022657BF
:0D255000C002C0031207ECD003D002E4B5B6
:04255D000A028040AE
:052561007401B50A122F
:03256600EA700F09
:0E2569007A01C002C003120878D003D00280AD
:01257700293A
:052578007402B50A1F0A
:0E257D00C002C003120878D003D002EB701623
:0C258B0090E6A37401F00000007B0178D2
:05259700B27602800590
:05259C007A0002265741
:0325A100EB70A339
:0625A400E5084509702A5C
:0525AA00E5AA20E02578
:0725AF007C007DF08D9A7C99
:0825B600007DF07D008C9B907C
:0E25BE00E690E0FC8C057C0090E691E0FE7F4C
:0825CC00002CF508EF3DF509B4
:0725D400E508450970030250
:0225DB00254792
:0E25DD00C002C00312249CE582D003D002701D
:0125EB0006E9
:0625EC0078B27605805272
:0E25F200C002C0031224B6E582D003D00270EE
:0126000006D3
:0626010078B27606803D70
:07260700E50824FEF508E5DB
:06260E000934FFF509ACE0
:042614000BAD0CAE50
:0A2618000DAF0E1CBCFF091DBDFF35
:06262200051EBEFF011FB2
:052628008C0B8D0C8EEF
:09262D000D8F0EEC4D4E4F7002B2
:022636007B0126
:06263800E50845097006EB
:06263E0090E6497482F0F1
:0826440078B2B600030225473D
:0B264C007B0190E6A37401F00225471B
:0A265700C002120974D002EA6029E3
:07266100E50FC3950BFAE53C
:0526680010950CFBE5DC
:05266D0011950DFCE5D4
:0526720012950EFD8A27
:042677000B8B0C8C31
:04267B000D8D0E783B
:0B267F00B2E64480F675820402088178
:01268A00222D
:0A268B00E4FAFBF508F50975820476
:0D269500C002C00312085AD00300C0031297
:0D26A2000878758200120881D003D002ACC8
:0426AF000BAD0CAEB5
:0426B3000DAF0E8CCD
:0426B7000F8D108EE5
:0926BB00118F12EC4D4E4F70021C
:0226C4007B0198
:0326C600EB6006C0
:0626C900EA600302281084
:0D26CF00C002C0031207ECD003D002E4B536
:0426DC000A02804628
:0526E0007401B50A12AF
:0326E500EA700F89
:0E26E8007A01C002C003120878D003D002802D
:0126F6002FB4
:0526F7007402B50A2584
:0E26FC00C002C003120878D003D002EB701C9D
:0E270A0090E6A37401F000000090E6A57401B3
:09271800F07B0178B27602800525
:052721007A00022810FF
:03272600EB709DB8
:06272900E5084509703DC2
:05272F00E5AA20E038DE
:05273400E5AA20E533D9
:072739007C007DF08D9A7C0D
:08274000007DF07D008C9B7C04
:06274800007DF88D9D7C70
:08274E00007DF87D008C9E90D7
:0E275600E690E0FC8C057C0090E691E0FE7FB2
:08276400002CF508EF3DF5091A
:07276C00E5084509700302B6
:0227730026C678
:0E277500C002C00312249CE582D003D0027083
:01278300064F
:0627840078B27605806AC0
:0E278A00C002C0031224D0E582D003D002703A
:01279800063A
:0627990078B276068055BF
:08279F00150874FFB5080215CE
:0127A7000928
:0527A800AC0BAD0CAE0E
:0A27AD000DAF0E1CBCFF091DBDFF9F
:0627B700051EBEFF011F1C
:0527BD008C0B8D0C8E59
:0927C2000D8F0EEC4D4E4F70021C
:0227CB007B0190
:0627CD00E508450970213A
:0D27D30090E690E0FC90E698F00000009089
:0C27E000E691E0FC90E699F0000000900B
:0827EC00E6497482F0000000D0
:0827F40078B2B600030226C60C
:0E27FC0090E6A37401F000000090E6A57401C1
:06280A00F07B010226C66E
:0E281000C002120974001209ACD002EA603155
:07281E00E50FC3950BFAE57D
:0528250010950CFBE51D
:05282A0011950DFCE515
:05282F0012950EFD8A68
:042834000F8B108C6A
:04283800118D128A62
:04283C000B8B0C8C6A
:042840000D8D0E7874
:0B284400B2E644C0F67582080208816D
:01284F002266
:0C2850008582417B007C00C003C00412A4
:0A285C00249CE582D004D003700D27
:0B28660012087878B276057582000237
:022871000881DC
:0E287300758204C003C00412085AD00400C0CD
:0B28810004120878D004D003E50B45DA
:04288C000C450D45A5
:032890000E7002C5
:022893007C01C6
:0A28950090E6F574FFF090E6CEE542
:09289F000EF000000090E6CFE508
:0928A8000DF000000090E6D0E5FF
:0928B1000CF000000090E6D1E5F6
:0C28BA000BF0C003C004122335D004D082
:0A28C6000390E6D1E0FDE541601C3F
:0E28D00090E6187410F000000090E6D274013B
:0728DE00F0000000EC703176
:0728E500F5BB000000802A92
:0E28EC00C003C004C0051209D7D005D004D027
:0E28FA000390E61A7408F000000090E6E27405
:0829080002F0000000EC700673
:0629100075BB060000008B
:0E291600758200C003C004C005120881D00500
:04292400D004D00308
:03292800EC60065A
:06292B00EB6003022A2606
:0E293100C003C004C0051207ECD005D004D0CE
:07293F0003E4B50A02806603
:052946007401B50A1642
:03294B00EB70131B
:0E294E007B01C003C004C005120878D005D07C
:05295C0004D003804BD4
:052961007402B50A42FA
:0E296600C003C004C005120878D005D004D00C
:0429740003EC7034CC
:0529780078B2E67004D6
:04297D0078B27602B4
:04298100E5416008C4
:0829850090E6A37401F0800646
:06298D0090E6A57401F0C4
:08299300000000E5BB20E7098C
:09299B0000000090E6F574FFF065
:0429A4007C0180042E
:0429A8007B00807AB6
:0529AC00E5BB20E75D22
:0A29B10090E6D1E0FEB505028012A9
:0E29BB00C003C004122335D004D00390E6D12F
:0429C900E0FD802489
:0329CD00308D2129
:0829D00078B27606E5416008CB
:0829D80090E6A37401F08006F3
:0629E00090E6A57401F071
:0B29E6007C0100000090E6F574FFF09B
:0429F100E541600557
:0529F500E5AA30E00F2F
:0729FA00E5416003022928FA
:082A0100E5AA30E503022928D3
:052A0900D28C02292817
:062A0E00EC600302292820
:042A1400E54170091F
:092A180090E6487406F00000008D
:052A21007C01022928E0
:0E2A2600C003120974001209ACD003EB70015A
:012A3400227F
:0C2A350090E6CEE0FB7C007D007E008B74
:052A410045754200751F
:062A4600430075440090FE
:0E2A4C00E6CFE0FF7A007B008A048F03E4FAF5
:082A5A00FF4242EA4243EB4255
:052A620044EC42459028
:0E2A6700E6D0E0FD7E007A008A038E028D0626
:092A7500E4FD4242EE4243EA4254
:052A7E0044EB4245900D
:0C2A8300E6D1E0FCE4FFFAFBE54242046F
:092A8F00E5434207E5444202E57B
:092A9800454203E50BC39CFCE57B
:082AA1000C9FFFE50D9AFAE518
:062AA9000E9BFB8C0B8F5D
:042AAF000C8A0D8BF5
:052AB3000EE541600486
:042AB8007A8080029E
:022ABC007A405E
:0B2ABE0078B2EA46F675820402088137
:012AC90022EA
:05320600010200008040
:05320B0001000000803D
:05321000010000008038
:0D2ACA0090E60174FAF090E6F574FFF090CC
:0A2AD70032B9E493FA90E6F3F090B0
:0A2AE10032BAE493FA90E6C3F090D5
:0A2AEB0032BBE493FA90E6C1F090CC
:0A2AF50032BCE493FA90E6C2F090C0
:0A2AFF0032BEE493FA90E6C0F090B6
:0D2B090032BFE493FA90E6F4F075AF077A5E
:062B1600157B328B9A7A58
:0A2B1C00157B327B008A9B759DE457
:052B2600759E007A001D
:032B2B00BA80006D
:022B2E00500C49
:0C2B300090E67BE0FB90E67CF00A80EF72
:0E2B3C0090E67174FFF075B4FF90E672E0FA57
:0E2B4A004480F043B68000000090E6C4E4F042
:0E2B580000000090E6C5E4F0903295E493FA98
:0B2B660090E6C6F0903296E493FA90DF
:0A2B7100E6C7F0903297E493FA9063
:0A2B7B00E6C8F0903298E493FA9057
:0A2B8500E6C9F0903299E493FA904B
:0A2B8F00E6CAF090329AE493FA903F
:0A2B9900E6CBF090329BE493FA9033
:0A2BA300E6CCF090329CE493FA9027
:032BAD00E6CDF082
:012BB0002202
:0E32150081B901010101010723030202020237
:0E3223000200F7F5F5F5F5F5F5F700000000EF
:0E3231000000003F0C8A9A3FA5B53F0721031D
:0E323F00030103030500F3F3F2F3F3F1F3F7D9
:0E324D003F0000000000003F819138010101A8
:0E325B0001070101070202020200F7F5F7F772
:0E326900F7F7F7F7000075000000003F8191B5
:0E3277003801010101070303050000000000FB
:0E328500F3F1F3F3F3F3F3F700006E00000033
:02329300003FFA
:0E32950000000000000000000000000000002B
:0E32A30000000000000000000000000000001D
:0832B100000000000000000015
:0732B900E08000F7FA4E006F
:072BB10078B0B6020280605B
:072BB80078B1B600028011A4
:0B2BBF0012087878B2760C75820012C4
:062BCA0008817582012262
:052BD00078B0E6701F63
:062BD50078A5E630E311D3
:0B2BDB0012087878B2760375820012B1
:062BE60008817582012246
:082BEC0078A5E64408F68024F8
:052BF40078B0B60108F5
:082BF90078A5E654F7F68017F9
:062C010078A5E620E311B6
:0B2C070012087878B276047582001283
:062C120008817582012219
:072C180078B0E624FB403B0D
:0A2C1F0078B0E625E026902C29731A
:072C2900022C38022C3802D6
:062C30002C43022C5002AF
:022C36002C551B
:0B2C3800120878758200120881801BD2
:0D2C43009032CA75F08012091075820122CE
:052C5000122C62800956
:052C5500122F7B80043A
:042C5A00758200225D
:032C5E007582017B
:012C61002250
:072C6200754600754700757F
:092C6900480075820812085A1295
:0B2C72000878758200120881C2809073
:0E2C7D00E618E4F000000090E61AE4F0000013
:0E2C8B000090E6027468F000000090E630E46D
:0E2C9900F000000090E631E4F090E680E0FDEF
:032CA70030E7060D
:062CAA007D007E028004A3
:042CB0007D407E00E5
:052CB4008D498E4AAFBE
:042CB9000FAB10AAA3
:042CBD0011AC1285BF
:032CC100494B85F7
:032CC4004A4C7502
:082CC7004D00754E00C3EF95AE
:062CCF004BEB954CEA9569
:062CD5004DEC954E502C61
:052CDB008F498B4AAD9A
:0C2CE0004A90E63474C04DF000000090F3
:072CEC00E635E549F0E4F5CF
:042CF30008F5097562
:062CF7004701750F007596
:062CFD00100075110075C6
:042D030012008072C8
:082D070090E680E0FD30E713C7
:0E2D0F0090E63474C8F000000090E635E4F061
:052D1D0000000080121F
:0E2D220090E63474C0F000000090E635744076
:042D3000F0000000AF
:0A2D3400EFC3954BFFEB954CFBEA53
:082D3E00954DFAEC954EFC8F57
:042D46000F8B108A55
:042D4A00118C128551
:032D4E000F4F859F
:032D51001050859A
:032D540011518595
:052D57001252C3EF95CC
:062D5C004BEB954CEA95DB
:062D62004DEC954E500BF4
:042D6800854F088506
:032D6C0050097596
:042D6F004701800692
:042D73008549088501
:022D77004A0907
:0A2D790090E601E0FA4403F0D2876F
:042D8300E5486007B8
:072D8700E5466003022EF98E
:072D8E001207ECE50A602EBC
:052D95007401B50A0CF9
:042D9A00E546700892
:082D9E00120878754601801D42
:052DA6007402B50A12E1
:072DAB00120878E5487011E1
:0A2DB200C28778B2760275480180EE
:012DBC000610
:062DBD00754600022EF92C
:042DC300E54870BCB3
:052DC700E5AA20E05820
:0E2DCC0090E690E0FA8A037A00EB3395E0FC83
:082DDA00FDE50BC39AF54FE57E
:052DE2000C9BF550E51B
:052DE7000D9CF551E513
:052DEC000E9DF552856B
:032DF1004F0B8500
:032DF400500C85FB
:032DF700510D85F6
:032DFA00520E90E6
:0C2DFD00E691E0FEE4FFFAFBE54FC39E08
:0A2E0900FEE5509FFFE5519AFAE53F
:062E1300529BFB8E0B8FA9
:042E19000C8A0D8B87
:072E1D000E90E6497402F07B
:0B2E240090E6A9E0FA20E203022ED0A5
:0E2E2F0090E6A5E0FA530270BA3003022ED0EE
:042E3D00E5476015F0
:0C2E4100AA0990E63474C04AF0000000BA
:092E4D0090E635E508F0000000F4
:0A2E560090E698E54AF000000090B5
:092E6000E699E549F00000008547
:032E690008498590
:032E6C00094AE52B
:052E6F00084509605C4C
:082E7400AA08AB09E4FCFDE52E
:092E7C000FC39AFAE5109BFBE577
:082E8500119CFCE5129DFD8A81
:042E8D000F8B108C0B
:042E9100118D128508
:032E95000F4F8557
:032E980010508552
:032E9B001151854D
:032E9E001252903D
:072EA100E680E0FE30E706C9
:062EA8007E007F028004A1
:042EAE007E407F00E3
:0B2EB200EF3395E0FAFBC3E54F9EE50F
:062EBD00509FE5519AE56B
:042EC300529B5009C5
:042EC700850F0885E6
:032ECB0010097576
:022ECE004701BA
:072ED000E549454A600302D9
:022ED7002D8349
:0B2ED90090E6A7E0FA20E203022D8340
:052EE400E50B450C4563
:062EE9000D450E6003021E
:022EEF002D8331
:082EF100754801C287022D8320
:0E2EF900C28790E601E054FEF0E0FA4402F0D9
:072F07001209741209ACE588
:032F0E00466067B3
:052F110078B2E6705CDF
:072F160090E6ACE0FA701137
:072F1D0090E6ABE0FA700A38
:052F2400E50B450C4522
:052F29000D450E6026BD
:062F2E00E549454A60067A
:062F340078B2760A803835
:072F3A0090E6B0E0FA700719
:072F410090E6AFE0FA600624
:062F480078B2760B802434
:062F4E0078B27607801E38
:062F5400E549454A600654
:062F5A0078B27608801237
:072F600090E6AFE0FA7007F4
:072F670090E6B0E0FA6004FF
:042F6E0078B27609B6
:062F7200758200120881C7
:022F7800D28005
:012F7A002234
:0D2F7B007A007B007C00C002C003C004127D
:0E2F88000878758200120881D004D003D002B0
:0E2F9600C28090E6187410F000000090E61A59
:0D2FA4007408F0000000C002C003C0041259
:0E2FB10009D7D004D003D00290E60274E8F0F5
:0E2FBF0000000090E601E0FD4403F0D2879090
:0C2FCD00E630E4F000000090E631E4F093
:032FD900EA6003A8
:032FDC00EB706334
:0E2FDF00C002C003C0041207ECD004D003D01F
:052FED0002E50A603C52
:052FF2007401B50A1690
:032FF700EA70136A
:0E2FFA007A01C002C003C004120878D004D0CF
:0530080003D00280214D
:05300D007402B50A1871
:0E301200C002C003C004120878D004D003D05E
:0430200002EB700A45
:063024007C017B01800429
:04302A007A00801494
:03302E00EB70A89C
:03303100EA60A5AD
:0830340090E6A7E0FD30E29DEB
:06303C007B01C2878097B2
:0E304200C28790E601E054FEF0E0FB4402F08D
:0D305000C002C004120974D00400C00412B4
:09305D0009ACD004D002EA601BAA
:03306600EC7012F9
:0730690090E6ABE0FA7007EE
:0730700090E6ACE0FA6004F9
:0430770078B27607AE
:06307B00758200120881BD
:02308100D280FB
:01308300222A
:0532C000010200008086
:0532C500010000008083
:0532CA0001000000807E
:0EE1000012010002000000404314070001005D
:04E10E000102000109
:0AE112000A060002000000400100B0
:0EE11C0009022E0001010080FA09040000042F
:0EE12A00FF000000070501020002000705814A
:0EE13800020002000705020200020007058631
:04E1460002000200D1
:0EE14A0009022E0001010080FA090400000401
:0EE15800FF00000007050102400000070581DE
:0EE16600024000000705020240000007058687
:04E174000240000065
:04E17800040309048F
:0EE17C00120344006900670069006C00650032
:04E18A006E007400AF
:0EE18E001A0344006900670069006C00650018
:0CE19C006E00740020005500530042008B
:093F00000206220002065600022E
:083F09000640000206BA0002A6
:083F1100066C000206D8000254
:083F190007320002073200022A
:083F2100073200020732000222
:083F290007320002073200021A
:083F3100073200020732000212
:083F390007320002073200020A
:083F4100073200020732000202
:083F49000732000207320002FA
:083F51000732000207320002F2
:083F59000732000207320002EA
:083F61000732000207320002E2
:083F69000732000207320002DA
:083F71000732000207320002D2
:083F79000732000207320002CA
:083F81000732000207320002C2
:083F89000732000207320002BA
:083F91000732000207320002B2
:083F99000732000207320002AA
:083FA1000732000207320002A2
:083FA90007320002073200029A
:073FB1000732000207320095
:08308400FB7A20E4FCFDFEFFD5
:0E308C00E5822582F582E58333F583E5F03396
:0B309A00F5F0EB33FB4017DAE9804251
:0E30A500E5822582F582E58333F583E5F0337D
:0530B300F5F0EB33FB1A
:0E30B800EC33FCED33FDEE33FEEF33FFEC9511
:0630C60053ED9554EE9558
:0830CC0055EF95564013EC95F9
:0830D40053FCED9554FDEE954F
:0930DC0055FEEF9556FF438201F9
:0230E500DABE51
:0230E700EB22DA
:06009C00E478FFF6D8FD38
:08007A007900E94400601B7AE3
:05008200009032CF7870
:030087000075A061
:0A008A00E0E493F2A308B8000205B9
:08009400A0D9F4DAF275A0FF17
:0E30E90020F71030F6118883A88220F507F634
:0530F700A883758300B1
:0130FC0022B1
:0330FD00F280F767
:02310000F022BB
:0C310200AAF0FBE5828553F0A4FCADF0C0
:0C310E00E5838553F0A42DFDE435F0FEB0
:0C311A00E5828554F0A42DFDE5F03EFE9A
:0C312600E433FFEA8553F0A42EFEE5F030
:0C3132003FFFE5838554F0A42EFEE5F07D
:0C313E003FFFE5828555F0A42EFEE5F071
:0B314A003FFFEB8553F0A42FFFEA8548
:0A31550054F0A42FFFE5838555F028
:0C315F00A42FFFE5828556F0A42F8EF00F
:05316B008D838C82221F
:0400A20075A00078CD
:0700A60000E8440060077947
:0600AD0000E4F309D8FC99
:0800B3007800E84400600C79BC
:0B00BB000090E000E4F0A3D8FCD9FAAC
:02006B00E4733C
:03006D0075815644
:0A00700012318CE582600302006685
:0E31700020F71430F6148883A88220F507E6B5
:06317E00A8837583002206
:03318400E280F7EF
:03318700E49322AC
:02318A00E02241
:04318C007582002226
:00000001FF
