:0400000002006B325D
:01000B0032C2
:0100130032BA
:01001B0032B2
:0100230032AA
:01002B0032A2
:030033000206B210
:01003B003292
:03004300021F0099
:01004B003282
:03005300021F0089
:01005B003272
:030063000206B6DC
:0300E200020066B3
:050066001200E580FE20
:0900E500788176007880760090A5
:0E00EE00E60B7403F000000000000090E60036
:0E00FC007410F075800075B20675900075B333
:0E010A00FF75B03E75B53F90E67AE0FA44010D
:0B011800F012188C90E60174E2F01267
:0E012300027090E6097403F000000075890177
:09013100000000788276000876D7
:04013A00E17884766E
:05013E00120876E178D3
:0501430086761C087621
:04014800E17888765C
:0A014C004A0876E1D2E843D820907B
:0E015600E668E0FA4409F090E65CE0FA443D09
:0E016400F090E682E4F0D2AF90E680E0FA542C
:05017200F7F0538EF8C8
:080177001201B9789EE6600751
:07017F00120195789E760045
:050186007881E6600431
:04018B007881760001
:05018F001206B680E33A
:010194002248
:0A01950090E680E0FA440AF07A00D8
:02019F00DAFE86
:0E01A10090E65D74FFF090E65F74FFF05391FE
:0901AF00EF90E680E0FA54F7F04D
:0101B8002224
:0601B9007880E6700122CF
:0501BF00AA08AB09785D
:0901C40096A60208A603788EA697
:0601CD000B08A60C08A6B9
:0501D3000D08A60E78E6
:0501D80092A60F08A62D
:0601DD001008A61108A69F
:0601E300127898A69B783B
:0801E90099A69A789AA69E7867
:0A01F1009BA69D1202F2E582700841
:0801FB0090E6A0E0FA4401F0D7
:0C02030090E6A0E0FA4480F078807600DD
:06020F00789686080886BF
:0A02150009788E8602088603088629
:09021F00040886058A0B8B0C8C87
:040228000D8D0E78B2
:0C022C00928602088603088604088605F6
:050238008A0F8B108C01
:04023D00118D127895
:0802410098869B7899869A7853
:070249009A869E789B869DBA
:01025000228B
:0E02510090E6837401F07421F07411F07431A2
:0E025F00F090E6837402F07422F07416F074CE
:02026D0036F069
:01026F00226C
:0E02700090E610E4F000000090E611E4F000CB
:0E027E00000090E612E4F000000090E613E4A9
:0D028C00F000000090E614E4F00000009087
:0E029900E615E4F000000090E618E4F0000026
:0E02A7000090E619E4F000000090E61AE4F082
:0E02B50000000090E61BE4F000000090E61050
:0E02C30074A0F000000090E61174A0F000009E
:0E02D1000090E61274A0F000000090E6147495
:0E02DF00E0F000000090E68DE4F00000001258
:0502ED00091C0208E4F9
:0C02F20090E6B9E0FA24F4500302059FE6
:0702FE00EA2A2A90030573B0
:070305000203EC0204760282
:06030C00059F020524021A
:06031200059F02059F0299
:06031800032902059F020B
:06031E0003D70203C50233
:05032400039E0203B37B
:0A03290090E6BBE0FABA0102800F73
:05033300BA0202802067
:05033800BA060280314D
:05033D00BA075A8042DE
:09034200788290E6B308E6F07839
:0B034B008286027B0090E6B4EAF0021C
:0203560005A2FE
:09035800788A90E6B308E6F0781B
:0B0361008A86027B0090E6B4EAF002FE
:02036C0005A2E8
:09036E00788490E6B308E6F0780B
:0B0377008486027B0090E6B4EAF002EE
:0203820005A2D2
:09038400788C90E6B308E6F078ED
:0B038D008C86027B0090E6B4EAF002D0
:0203980005A2BC
:04039A007582002246
:08039E0090E740789DE6F09025
:0B03A600E68AE4F090E68B7401F002A0
:0203B10005A2A3
:0A03B30090E6BAE0FA789DA6021267
:0603BD0002701202510261
:0203C30005A291
:0A03C50090E6BAE0FA789CA6021256
:0603CF000270120251024F
:0203D50005A27F
:0803D70090E740789CE6F090ED
:0B03DF00E68AE4F090E68B7401F00267
:0203EA0005A26A
:0A03EC0090E6B8E0FABA8002800A39
:0503F600BA8102801B2A
:0503FB00BA8274802CA1
:0A04000090E740E4F090E741F0902F
:0A040A00E68AF090E68B7402F0021F
:0204140005A23F
:0A04160090E740E4F090E741F09019
:0A042000E68AF090E68B7402F00209
:02042A0005A229
:0E042C0090E6BCE0FA53027E90E6BCE0FBC313
:0E043A0074809BE433FB4A901A8493FA339546
:0E044800E0FB74A12AFA74E63BFB8A828B83E8
:0E045600E0FA53020190E740EAF090E741E43B
:0C046400F090E68AF090E68B7402F00243
:0204700005A2E3
:04047200758200226D
:0704760090E6B8E0FA60080F
:05047D00BA020280122A
:0304820002052050
:0B04850090E6BAE0FABA01030205A2FB
:04049000758200224F
:0904940090E6BAE0600302051CC9
:0E049D0090E6BCE0FA53027E90E6BCE0FBC3A2
:0E04AB0074809BE433FB4A901A8493FA3395D5
:0E04B900E0FB74A12AFA74E63BFB90E6BCE07F
:0E04C700FC53047E90E6BCE0FDC374809DE40F
:0E04D50033FD4C901A8493FC3395E0FD74A126
:0E04E3002CFC74E63DFD8C828D83E0FC5304FE
:0E04F100FE8A828B83ECF090E6BCE05480FA29
:0E04FF00C423541FFA90E6BCE0FB740F5B9020
:0D050D00E6832AF090E683E0FA4420F00235
:02051A0005A238
:04051C0075820022C2
:0405200075820022BE
:0705240090E6B8E0FA600563
:05052B00BA026D800E14
:0A05300090E6BAE0FABA0202806811
:04053A0075820022A4
:0E053E0090E6BCE0FA53027E90E6BCE0FBC300
:0E054C0074809BE433FB4A901A8493FA339533
:0E055A00E0FB74A12AFA74E63BFB90E6BCE0DD
:0E056800FC53047E90E6BCE0FDC374809DE46D
:0E05760033FD4C901A8493FC3395E0FD74A184
:0E0584002CFC74E63DFD8C828D83E0FC43046C
:09059200018A828B83ECF08007E2
:04059B007582002243
:03059F00020A70DD
:0305A2007582015E
:0105A5002233
:0C05A600C0E0C082C083C00078807601F5
:0905B2005391EF90E65D7401F035
:0905BB00D000D083D082D0E032E0
:0E05C400C0E0C082C0835391EF90E65D7404E6
:0105D200F038
:0705D300D083D082D0E0329A
:0E05DA00C0E0C082C0835391EF90E65D7402D2
:0105E800F022
:0705E900D083D082D0E03284
:0D05F000C0E0C082C083C002C003C000781C
:0A05FD00888602088603788AA602A9
:0C06070008A6038A828B83A37402F0789B
:0A061300868602088603788CA60292
:0E061D0008A6038A828B83A37407F05391EF23
:06062B0090E65D7410F082
:0D063100D000D003D002D083D082D0E032C0
:0C063E00C0E0C082C083C000788176015B
:09064A005391EF90E65D7408F095
:09065300D000D083D082D0E03247
:0D065C00C0E0C082C083C002C003C0009097
:07066900E680E0FA30E72C07
:0A06700078868602088603788AA6C1
:0D067A000208A6038A828B83A37402F07825
:0A068700888602088603788CA6021C
:0B06910008A6038A828B83A37407F085
:09069C005391EF90E65D7420F02B
:0D06A500D000D003D002D083D082D0E0324C
:0306B20053D8EF2B
:0106B5003212
:051A7F00010000000061
:0A1A8400000102020303040405053B
:0A00C400789E7600789FE4F608F6B7
:0C00CE0008F608F678A3E4F608F608F639
:0800DA0008F678A7E4F608F629
:0706B6001206F4E582601456
:0706BD001206D2E582700D68
:0B06C4001207E878AC76017582000296
:0206CF0007F131
:0106D1002206
:0706D20078A9B60002800EBA
:0706D90078A9B60102800AB6
:0706E00078A9B6040B8006A7
:0306E70002097C89
:0306EA000209DD25
:0306ED00021105F2
:0306F00075820010
:0106F30022E4
:0506F400E5BA30E1044D
:0406F90075820022E4
:0706FD0078AC76007A807BE7
:06070400E78B9A7A807B6E
:0C070A00E77B008A9B90E67BE0FA7B0016
:050716000ABA00010B0E
:0E071B0090E68DE0FC7D00EAB50406EBB50526
:030729000280113A
:0B072C001207E878AC7601758200121D
:0607370007F175820022AB
:0A073D0090E67BE0FA78A9A602908E
:09074700E67BE0FA78AAA6029014
:0B075000E67BE0FA78ABA602758201A0
:01075B00227B
:08075C001201B9E5BA30E10415
:04076400750A0022F0
:0C07680090E780E0FA7B000ABA00010B69
:0E07740090E68DE0FC7D00EAB50406EBB505CD
:03078200028011E1
:0B0785001207E878AC760175820012C4
:0607900007F1750AFF22CB
:0B07960090E781E0FA78A9E6B50213B5
:0C07A10090E782E0FA78AA748046FBEA38
:0307AD00B503048D
:0407B000750A0122A3
:0607B40090E781E0700CEB
:0807BA0090E782E0FABA0204A4
:0407C200750A022290
:0307C600750AFFB2
:0107C900220D
:0807CA00AA827B0B7C007D403C
:0E07D20090E67BE0FE8B828C838DF01219D8AE
:0707E000A3AB82AC83DAEB4E
:0107E70022EF
:0807E80090E68DE4F000000032
:0107F00022E6
:0707F100AA82E5BA30E20123
:0107F80022DE
:0707F9007BC07CE78C9D7BB7
:08080000C07CE77C008B9E9098
:08080800E67CEA04F078AC90F4
:07081000E67CE6F07B0B7CA7
:05081700007D408A068F
:03081C00EE601774
:0E081F008B828C838DF0121A5FFFA3AB82AC2C
:09082D008390E67CEFF01E80E6EA
:0A08360090E68F74022AF000000023
:010840002295
:07084100AA82E5BA30E201D2
:01084800228D
:070849007BC07CE78C9D7B66
:08085000C07CE77C008B9E9048
:08085800E67CEA04F078AC90A4
:04086000E67CE6F05C
:010864002271
:05086500E5BA30E201DC
:01086A00226B
:08086B0090E7C178ACE6F090C3
:0C087300E7C0E0FA90E68F04F0000000FF
:01087F002256
:0E088000AA82AB83ACF090E67BE0FDC002C024
:0E088E0003C004C0051207E8D005D004D00353
:07089C00D002E5BA30E201D1
:0108A3002232
:0708A4007EC07FE78F9D7EFF
:0808AB00C07FE77F008E9E90E4
:0C08B300E67CED04F090E67CE4F08D069D
:0308BF00EE6017D1
:0E08C2008A828B838CF0121A5FFFA3AA82AB8E
:0908D0008390E67CEFF01E80E647
:0A08D90090E68F74022DF00000007D
:0108E30022F2
:0E08E40090E618E4F000000090E6047480F046
:0E08F20000000090E6047402F00000007A049A
:0B09000090E6497482F0000000DAF578
:0E090B0090E604E4F000000090E6A3E4F000A3
:020919000000DC
:01091B0022B9
:0E091C0090E61AE4F000000090E6047480F00B
:0D092A0000000090E6047406F0000000904C
:0E093700E604E4F000000090E6A5E4F0000005
:0109450000B1
:01094600228E
:0809470090E680E0FA30E706BB
:06094F007A007B02800427
:040955007A407B0069
:0E09590090E624EBF000000090E680E0FA301B
:02096700E706A1
:060969007A007B0280040D
:04096F007A407B004F
:0809730090E625EAF000000007
:01097B002259
:07097C0078AAB60202800711
:0709830078AAB6034D8005C0
:05098A001207E8804A9D
:0A098F007582041207CA1207E8E59A
:080999000BF4FAE50CF4FBE598
:0A09A1000DF4FCE50EF4FD747B2A52
:0C09AB00FAE43BFBE43CFCE43DFD8A0B5D
:0509B7008B0C8C0D8D7E
:0A09BC000E789FE4F608F608F6082E
:0B09C600F612091C1208E475820412EE
:0409D10007F18004A6
:0409D5007582002205
:0309D90075820123
:0109DC0022F8
:0509DD0078AAB6021724
:0709E2001207E8750B007518
:0609E9000C00750D007505
:0A09EF000E007582041207F1800467
:0409F90075820022E1
:0309FD00758201FF
:010A000022D3
:0A0A0100AA82AB83E50845097001E5
:010A0B0022C8
:070A0C00AC14BCE6028005FA
:050A13008B05BDE6317A
:080A18008A068B07AC13AD1434
:0E0A20008E028F038C828D83E0F88A828B8396
:060A2E00F00EBE00010FF6
:050A34000CBC00010DE7
:080A3900150874FFB508021551
:010A410009AB
:060A4200E508450970D82B
:010A4800228B
:0C0A49008C9AAC137E008C9B8D9D7B0072
:050A55008A9E020A5B0D
:010A5A002279
:080A5B00A90890E67B058690D6
:040A6300E67C0586A2
:080A6700E00586F00586D9F8D0
:010A6F002264
:0A0A700090E6B9E0FABAA202804A4B
:050A7A00BAA302804553
:060A7F00BAE103020D457F
:060A8500BAE203020D2598
:060A8B00BAE303020D2591
:060A9100BAE403020D05AA
:060A9700BAE503020D05A3
:060A9D00BAE603020C1092
:060AA300BAE703020C3D5E
:060AA900BAE803020C850F
:060AAF00BAE903020CE5A8
:060AB500BAEA03020CB4D2
:060ABB00BAEB03020D6519
:030AC100020D859E
:0B0AC40090E6BAE0FAA3E0FB8A0B8B7F
:0A0ACF000C90E6BEE0FAA3E0FB90F5
:090AD900E6B8E0FCBCC002800399
:030AE200020B758F
:070AE500EA4B7003020D89CA
:080AEC0090E6A0E0FC20E1F817
:080AF40090E6B9E0FCBCA21180
:0A0AFC00750D00750E00C002C00366
:070B0600121023D003D002FE
:090B0D00C3EA9440EB9400500689
:060B16008A0D8B0E800623
:060B1C00750D40750E008E
:080B220090E6B9E0FCBCA20D55
:0D0B2A00C002C003120F76D003D002801A63
:040B3700850D08859B
:030B3B000E099010
:040B3E00E740850BFC
:030B420013850C0C
:0C0B450014C002C003120A01D003D00249
:080B510090E68AE4F0AC0DAD62
:080B59000E90E68BECF0EC2598
:070B61000BFEED350CFF8EC9
:0A0B68000B8F0CEAC39CFAEB9DFB17
:030B7200020AE58F
:0A0B750078A7E608467003020C0C96
:0C0B7F0090E6BCE0FCA3E0FD78A7E6B522
:090B8B00040708E6B5050280022A
:020B9400807669
:080B960090E6B8E0FCBC406EE3
:070B9E00EA4B7003020D8910
:090BA50090E68AE4F090E68BF082
:080BAE0090E6A0E0FC20E1F854
:0A0BB60090E68BE0FC7D008C0D8DB5
:090BC0000E90E6B9E0FCBCA31F95
:040BC900850D088509
:030BCD000E098589
:060BD0000B82850C837509
:030BD60013407554
:070BD90014E7C002C0031283
:080BE0000A01D003D002800BD2
:0B0BE800C002C003121023D003D00293
:060BF300AC0DAD0EEC2577
:070BF9000BFEED350CFF8E31
:0A0C00000B8F0CEAC39CFAEB9DFB7E
:020C0A008092D6
:040C0C0075820022CB
:0A0C100090E6B8E0FABAC0028003D3
:030C1A00020D893F
:080C1D0090E6A0E0FA20E1F8E6
:0E0C250090E740740AF0A37403F090E68AE4AE
:0A0C3300F090E68B7402F0020D89C8
:0A0C3D0090E6B8E0FABAC0028003A6
:030C4700020D8912
:080C4A0090E6A0E0FA20E1F8B9
:0E0C520090E7407404F0A3E4F0A3F0A3F09048
:0B0C6000E744E4F5F01219D8A3E412F9
:0A0C6B0019D8A3E41219D8A3E4126B
:080C750019D890E68AE4F09022
:080C7D00E68B7408F0020D89FA
:080C850090E6B8E0FABA402342
:090C8D0090E68AE4F090E68BF099
:080C960090E6A0E0FA20E1F86D
:0C0C9E0090E740E0FAA3E0FB78A7A60274
:060CAA0008A603020D89FB
:040CB0007582002227
:080CB40090E6B8E0FABA402511
:070CBC0078A7E60846601E60
:0C0CC30090E6BCE0FAA3E0FB78A7E6B5E1
:090CCF00020708E6B503028002E9
:020CD800800793
:070CDA00789E7601020D89EE
:040CE10075820022F6
:070CE500750BF0750C3F7563
:060CEC000D04750E0075F9
:060CF2000FCD7510AB9060
:070CF800E6B8E0FABAC00300
:030CFF00020D8D56
:030D0200020EA638
:070D0500750BE0750C3F7552
:060D0C000D0C750E0075D0
:060D12000F7875105690E9
:070D1800E6B9E0FABAE403BA
:030D1F00020D8D35
:030D2200020EA618
:070D2500750BC0750C3F7552
:060D2C000D10750E0075AC
:060D32000FCD7510AB901F
:070D3800E6B9E0FABAE2039C
:030D3F00020D8D15
:030D4200020EA6F8
:070D4500750BA0750C3F7552
:060D4C000D1C750E007580
:060D52000FCD7510AB90FF
:070D5800E6B8E0FABAC0039F
:030D5F00020D8DF5
:030D6200020EA6D8
:070D6500750BF8750C3F75DA
:060D6C000D02750E00757A
:060D72000FCD7510AB90DF
:070D7800E6B8E0FABAC0037F
:030D7F00020D8DD5
:030D8200020EA6B8
:040D85007582002251
:030D89007582016F
:010D8C002244
:0C0D8D007AFF90E6B8E0FBBBC0028004D7
:040D9900758200223D
:050D9D00AB0DAC0E756A
:0A0DA2000D00750E00C002C003C072
:0E0DAC0004121023D004D003D00274032BFBDA
:0A0DBA00E43CFC8B0D8C0EC002120D
:0A0DC4000F76D002E50D24FDFBE5DB
:070DCE000E34FFFC8B0D8CBD
:0B0DD5000E90E740E0FBA3E0FCEBB554
:060DE0000F48ECB51044C1
:040DE6007A007B0014
:0A0DEA007403250DFCE4350EFD8BAB
:0A0DF400067F00C3EE9CEF9D502C1B
:0A0DFE00EB2440F582E434E7F583AE
:0A0E0800E0FC2AFAEB2440FCE4347D
:0A0E1200E7FD74022B2440F582E492
:0C0E1C0034E7F583E0FE8C828D83F00B40
:020E280080C088
:030E2A00EA606417
:040E2D00850D0885A2
:030E31000E099017
:090E3400E6B9E0FABAE1028034EB
:050E3D00BAE202803D55
:050E4200BAE402800586
:050E4700BAE943801729
:020E4C007A002A
:030E4E00BA0C00DB
:020E5100503E11
:0A0E5300EA2440F582E434E7F58359
:060E5D007430F00A80EB86
:050E630090E74075134B
:030E68009375146B
:060E6B001A120A018020AA
:050E710090E74075133D
:030E760097751459
:060E79001A120A018012AA
:050E7F0090E74075132F
:030E8400B375142F
:060E87001A120A018004AA
:040E8D007582002248
:0C0E910090E68AE4F000000090E68BE59B
:080E9D000DF000000075820158
:010EA500222A
:080EA60090E6B8E0FABA401C26
:070EAE0078A7E60846601575
:0C0EB50090E6BCE0FAA3E0FB78A7E6B5ED
:090EC100020708E6B503028004F3
:040ECA00758200220B
:090ECE0090E68AE4F090E68BF056
:080ED70090E6A0E0FA20E1F82A
:070EDF0090E68AE0FA7014AE
:050EE600AA0DAB0E9007
:0E0EEB00E68BE0FC7D00B50206EDB50302804B
:010EF90004F4
:040EFA0075820022DB
:060EFE008A15AD158D06FA
:060F04008E071EEF6025C0
:0C0F0A00C002C00374022E2440FFE43437
:090F1600E7FCEE2440F582E4340E
:0C0F1F00E7F583E0FA8F828C83F0D003AA
:040F2B00D00280D59B
:080F2F0090E740E50FF0A3E597
:050F370010F07C407E7B
:0A0F3C00E78E9A759B407C0074025A
:030F46002515FD71
:090F490090E67BE0FE2CFCDDF7D4
:0A0F5200740225152440F582E434F2
:0C0F5C00E7F583C3E49CFCF074032AFA60
:080F6800E43BFB8A0D8B0E1225
:050F7000102375820151
:010F75002259
:050F7600E50DFA700416
:040F7B007582012258
:080F7F0090E678E0FB20E6F8A3
:0C0F870090E6787480F090E67974A3F096
:080F930090E678E0FB30E0F885
:080F9B0090E678E0FB20E2740F
:080FA30090E678E0FB30E16C00
:030FAB00BA010880
:080FAE0090E678E0FB4420F01E
:070FB60090E679E07B407C2E
:060FBD00E78C9A7B407CEA
:050FC300E77C008B9BA0
:040FC800DA028026A3
:080FCC0090E678E0FB30E0F84C
:080FD40090E678E0FB20E23B0F
:030FDC00BA01084F
:080FDF0090E678E0FB4420F0ED
:0B0FE70090E679E0FB90E67BF080D6FE
:080FF20090E678E0FA30E0F827
:080FFA0090E678E0FA20E21510
:0E10020090E678E0FA4440F090E679E0FA904B
:07101000E67BF0758201226E
:0B10170090E678E0FA4440F07582009B
:0110220022AB
:02102300AA0D14
:0810250090E678E0FB20E6F8FC
:0C102D0090E6787480F090E67974A2F0F0
:0810390090E678E0FB30E0F8DE
:0810410090E678E0FB20E26B71
:0810490090E678E0FB30E16362
:03105100EA600E44
:071054007B407CE78C9A7BD6
:07105B00407CE77C008B9B49
:021062007B020F
:03106400EA70032C
:03106700EB603B00
:03106A00EB601424
:03106D00BB0208BB
:0810700090E679E50CF0800622
:0610780090E679E50BF0A3
:03107E001B800ACA
:0A10810090E67BE0FC90E679F01A9F
:08108B0090E678E0FC30E0F88B
:0810930090E678E0FC20E21970
:08109B0090E678E0FC20E1C1C1
:0210A300800FBC
:0E10A50090E678E0FA4440F01210C075820127
:0110B300221A
:0B10B40090E678E0FA4440F0758200FE
:0110BF00220E
:0810C00090E678E0FA20E6F862
:0E10C80090E678E0FA4480F090E67974A2F0A9
:0810D60090E678E0FA30E0F842
:0810DE0090E678E0FA4440F0CE
:0810E60090E678E0FA20E6F83C
:0810EE0090E678E0FA30E1D24F
:0110F60022D7
:051A8E00010000000052
:041A930002012030FC
:0E1A970055534232204D6F64756C650000009F
:0E1AA500FDFDFDFD000000000000EA33FC64C2
:0E1AB300444D6F62557362000000FDFDFDFDA5
:021AC100000023
:0A10F700C28CC28D78AD868A78ADF8
:0311010008868CD1
:0111040022C8
:0711050078AAB60202806027
:07110C0078ABB60002801170
:0B1113001207E878AC760C7582001221
:06111E0007F175820122B9
:0511240078AAE6701F2F
:06112900789FE630E211A0
:0B112F001207E878AC7603758200120E
:06113A0007F1758201229D
:08114000789FE64404F68024C8
:0511480078AAB60108C1
:08114D00789FE654FBF68017C1
:06115500789FE620E21184
:0B115B001207E878AC760475820012E1
:0611660007F17582012271
:0A116C0078AAE624F8500302125698
:0A11760078AAE625E02690118073A8
:071180000211980211980210
:0611870011AA0211B702DB
:06118D00123C02124402B4
:05119300124C02125194
:0C1198001207E878ADE4F608F675820056
:0611A4001207F102125ACD
:0D11AA00901AC375F0801208807582012232
:0A11B7007582041207CA1207E875DA
:0611C1001BFAE4F51CF529
:0411C7001DF51E856F
:0611CB000B82850C8385F8
:0511D1000DF0E50E1217
:0C11D6001973AA82AB83ACF0FD8A0B8B6E
:0411E2000C8C0D8DD7
:0711E6000EEC7003ED600C3C
:0711ED00750BFF750CFF7587
:0511F4000D00750E0066
:0911F900E50BF4FAE50CF4FBE54A
:081202000DF4FCE50EF4FD788B
:08120A00ADA60208A603850B46
:031212001B850C2D
:031215001C850D28
:031218001D850E23
:0C121B001E9000FAE4F5F01219F1AA820E
:0A122700AB83ACF0FD8A0B8B0C8C3E
:071231000D8D0E7582041201
:0412380007F1801E1C
:08123C007582011216128016E2
:08124400758200121612800EE3
:05124C001212CE800922
:0512510012144D8004A1
:04125600758200227B
:03125A0075820199
:01125D00226E
:0E125E0090E6F3E0FA4480F000000090E67B9A
:0C126C00E0FA90E6F1F00000000212AE83
:0E12780090E6F3E0FA547FF000000090E67B71
:0C128600E0FA90E6F1F00000000212AE69
:0B12920090E6F1E01212AEE582600D64
:0D129D0090E6F2E0FA90E67CF07582012206
:0312AA007582004A
:0112AD00221E
:0512AE001210F7D28CC4
:0512B300E5BB20E7038C
:0312B800308DF87E
:0512BB00E5BB30E70473
:0412C0007582012210
:0912C40090E6F574FFF07582005C
:0112CD0022FE
:0A12CE00E4FAFBF508F50975820447
:0D12D800C002C0031207CAD00300C00312F9
:0D12E50007E87582001207F1D003D002ACBB
:0412F2000BAD0CAE86
:0412F6000DAF0E8C9E
:0412FA000F8D108EB6
:0912FE00118F12EC4D4E4F7002ED
:021307007B0168
:03130900EB600690
:06130C00EA60030214195F
:0D131200C002C00312075CD003D002E4B596
:04131F000A028040FE
:051323007401B50A127F
:03132800EA700F59
:0E132B007A01C002C0031207E8D003D002808E
:01133900298A
:05133A007402B50A1F5A
:0E133F00C002C0031207E8D003D002EB701604
:0C134D0090E6A37401F00000007B017822
:05135900AC76028005E6
:05135E007A00021419E1
:03136300EB70A389
:06136600E5084509702AAC
:05136C00E5AA20E025C8
:071371007C007DF08D9A7CE9
:08137800007DF07D008C9B90CC
:0E138000E690E0FC8C057C0090E691E0FE7F9C
:08138E00002CF508EF3DF50904
:07139600E5084509700302A0
:02139D00130932
:0E139F00C002C00312125EE582D003D00270BD
:0113AD000639
:0613AE0078AC76058052C8
:0E13B400C002C003121278E582D003D002708E
:0113C2000624
:0613C30078AC7606803DC7
:0713C900E50824FEF508E52C
:0613D0000934FFF509AC31
:0413D6000BAD0CAEA1
:0A13DA000DAF0E1CBCFF091DBDFF86
:0613E400051EBEFF011F03
:0513EA008C0B8D0C8E40
:0913EF000D8F0EEC4D4E4F700203
:0213F8007B0177
:0613FA00E508450970063C
:0614000090E6497482F041
:0814060078ACB60003021309E3
:0B140E007B0190E6A37401F0021309BB
:0A141900C0021208E4D002EA6029C4
:07142300E50FC3950BFAE58C
:05142A0010950CFBE52C
:05142F0011950DFCE524
:0514340012950EFD8A77
:041439000B8B0C8C81
:04143D000D8D0E788B
:0B144100ACE64480F67582040207F15F
:01144C00227D
:0A144D00E4FAFBF508F509758204C6
:0D145700C002C0031207CAD00300C0031278
:0D14640007E87582001207F1D003D002AC3A
:041471000BAD0CAE05
:041475000DAF0E8C1D
:041479000F8D108E35
:09147D00118F12EC4D4E4F70026C
:021486007B01E8
:03148800EB600610
:06148B00EA60030215D225
:0D149100C002C00312075CD003D002E4B516
:04149E000A02804678
:0514A2007401B50A12FF
:0314A700EA700FD9
:0E14AA007A01C002C0031207E8D003D002800E
:0114B8002F04
:0514B9007402B50A25D4
:0E14BE00C002C0031207E8D003D002EB701C7E
:0E14CC0090E6A37401F000000090E6A5740104
:0914DA00F07B0178AC760280057C
:0514E3007A000215D2A1
:0314E800EB709D09
:0614EB00E5084509703D13
:0514F100E5AA20E0382F
:0514F600E5AA20E5332A
:0714FB007C007DF08D9A7C5E
:08150200007DF07D008C9B7C54
:06150A00007DF88D9D7CC0
:08151000007DF87D008C9E9027
:0E151800E690E0FC8C057C0090E691E0FE7F02
:08152600002CF508EF3DF5096A
:07152E00E508450970030206
:02153500148818
:0E153700C002C00312125EE582D003D0027023
:01154500069F
:0615460078AC7605806A16
:0E154C00C002C003121292E582D003D00270DA
:01155A00068A
:06155B0078AC7606805515
:08156100150874FFB50802151E
:011569000978
:05156A00AC0BAD0CAE5E
:0A156F000DAF0E1CBCFF091DBDFFEF
:06157900051EBEFF011F6C
:05157F008C0B8D0C8EA9
:091584000D8F0EEC4D4E4F70026C
:02158D007B01E0
:06158F00E508450970218A
:0D15950090E690E0FC90E698F000000090D9
:0C15A200E691E0FC90E699F0000000905B
:0815AE00E6497482F000000020
:0815B60078ACB60003021488B2
:0E15BE0090E6A37401F000000090E6A5740111
:0615CC00F07B010214880F
:0E15D200C0021208E40012091CD002EA6031C7
:0715E000E50FC3950BFAE5CE
:0515E70010950CFBE56E
:0515EC0011950DFCE566
:0515F10012950EFD8AB9
:0415F6000F8B108CBB
:0415FA00118D128AB3
:0415FE000B8B0C8CBB
:041602000D8D0E78C4
:0B160600ACE644C0F67582080207F154
:0116110022B6
:0C1612008582167B007C00C003C004121F
:0A161E00125EE582D004D003700DC7
:0B1628001207E878AC7605758200021E
:0216330007F1BD
:0E163500758204C003C0041207CAD00400C0AE
:0B164300041207E8D004D003E50B45BB
:04164E000C450D45F5
:031652000E700215
:021655007C0116
:0A16570090E6F574FFF090E6CEE592
:091661000EF000000090E6CFE558
:09166A000DF000000090E6D0E54F
:091673000CF000000090E6D1E546
:0C167C000BF0C003C0041210F7D004D023
:0A1688000390E6D1E0FDE516601CBA
:0E16920090E6187410F000000090E6D274018B
:0716A000F0000000EC7031C6
:0716A700F5BB000000802AE2
:0E16AE00C003C004C005120947D005D004D007
:0E16BC000390E61A7408F000000090E6E27455
:0816CA0002F0000000EC7006C4
:0616D20075BB06000000DC
:0E16D800758200C003C004C0051207F1D005E2
:0416E600D004D00359
:0316EA00EC6006AB
:0616ED00EB60030217E8A8
:0E16F300C003C004C00512075CD005D004D0AF
:0717010003E4B50A02806653
:051708007401B50A1692
:03170D00EB70136B
:0E1710007B01C003C004C0051207E8D005D05D
:05171E0004D003804B24
:051723007402B50A424A
:0E172800C003C004C0051207E8D005D004D0ED
:0417360003EC70341C
:05173A0078ACE670042C
:04173F0078AC76020A
:04174300E51660083F
:0817470090E6A37401F0800696
:06174F0090E6A57401F014
:08175500000000E5BB20E709DC
:09175D0000000090E6F574FFF0B5
:041766007C0180047E
:04176A007B00807A06
:05176E00E5BB20E75D72
:0A17730090E6D1E0FEB505028012F9
:0E177D00C003C0041210F7D004D00390E6D1D0
:04178B00E0FD8024D9
:03178F00308D2179
:0817920078AC7606E51660084C
:08179A0090E6A37401F0800643
:0617A20090E6A57401F0C1
:0B17A8007C0100000090E6F574FFF0EB
:0417B300E5166005D2
:0517B700E5AA30E00F7F
:0717BC00E51660030216EAC6
:0817C300E5AA30E5030216EA75
:0517CB00D28C0216EAB9
:0617D000EC60030216EAC2
:0417D600E51670099B
:0917DA0090E6487406F0000000DE
:0517E3007C010216EA82
:0E17E800C0031208E40012091CD003EB7001CC
:0117F60022D0
:0C17F70090E6CEE0FB7C007D007E008BC5
:051803001A75170075C5
:06180800180075190090A4
:0E180E00E6CFE0FF7A007B008A048F03E4FA45
:08181C00FF4217EA4218EB42FB
:0518240019EC421A90CE
:0E182900E6D0E0FD7E007A008A038E028D0676
:09183700E4FD4217EE4218EA42FA
:0518400019EB421A90B3
:0C184500E6D1E0FCE4FFFAFBE5174204EA
:09185100E5184207E5194202E521
:09185A001A4203E50BC39CFCE5F6
:081863000C9FFFE50D9AFAE568
:06186B000E9BFB8C0B8FAD
:041871000C8A0D8B45
:051875000EE516600401
:04187A007A808002EE
:02187E007A40AE
:0B18800078ACEA46F67582040207F11E
:01188B00223A
:051AC30001000000001D
:0D188C0090E60174FAF090E6F574FFF0901C
:0A1899001B6CE493FA90E6F3F09064
:0A18A3001B6DE493FA90E6C3F09089
:0A18AD001B6EE493FA90E6C1F09080
:0A18B7001B6FE493FA90E6C2F09074
:0A18C1001B71E493FA90E6C0F0906A
:0D18CB001B72E493FA90E6F4F075AF077A13
:0618D800C87B1A8B9A7A0E
:0A18DE00C87B1A7B008A9B759DE40D
:0518E800759E007A006E
:0318ED00BA8000BE
:0218F000500C9A
:0C18F20090E67BE0FB90E67CF00A80EFC3
:0E18FE0090E67174FFF075B4FF90E672E0FAA8
:0E190C004480F043B68000000090E6C4E4F092
:0E191A0000000090E6C5E4F0901B48E493FA4C
:0B19280090E6C6F0901B49E493FA9093
:0A193300E6C7F0901B4AE493FA9017
:0A193D00E6C8F0901B4BE493FA900B
:0A194700E6C9F0901B4CE493FA90FF
:0A195100E6CAF0901B4DE493FA90F3
:0A195B00E6CBF0901B4EE493FA90E7
:0A196500E6CCF0901B4FE493FA90DB
:03196F00E6CDF0D2
:011972002252
:0E1AC80081B90101010101072303020202029C
:0E1AD6000200F7F5F5F5F5F5F5F70000000054
:0E1AE4000000003F0C8A9A3FA5B53F07210382
:0E1AF200030103030500F3F3F2F3F3F1F3F73E
:0E1B00003F0000000000003F8191380101010C
:0E1B0E0001070101070202020200F7F5F7F7D6
:0E1B1C00F7F7F7F7000075000000003F819119
:0E1B2A0038010101010703030500000000005F
:0E1B3800F3F1F3F3F3F3F3F700006E00000097
:021B4600003F5E
:0E1B480000000000000000000000000000008F
:0E1B5600000000000000000000000000000081
:081B6400000000000000000079
:071B6C00E08000F7FA4E00D3
:0EE10000120100020000004043140300000062
:04E10E000102000109
:0AE112000A060002000000400100B0
:0EE11C0009022E0001010080FA09040000042F
:0EE12A00FF000000070501024000000705810C
:0EE138000240000007050202000200070586F3
:04E1460002000200D1
:0EE14A0009022E0001010080FA090400000401
:0EE15800FF00000007050102400000070581DE
:0EE16600024000000705020240000007058687
:04E174000240000065
:091F00000205A6000205DA000248
:081F090005C40002063E0002BF
:081F110005F00002065C00026D
:081F190006B6000206B6000244
:081F210006B6000206B600023C
:081F290006B6000206B6000234
:081F310006B6000206B600022C
:081F390006B6000206B6000224
:081F410006B6000206B600021C
:081F490006B6000206B6000214
:081F510006B6000206B600020C
:081F590006B6000206B6000204
:081F610006B6000206B60002FC
:081F690006B6000206B60002F4
:081F710006B6000206B60002EC
:081F790006B6000206B60002E4
:081F810006B6000206B60002DC
:081F890006B6000206B60002D4
:081F910006B6000206B60002CC
:081F990006B6000206B60002C4
:081FA10006B6000206B60002BC
:081FA90006B6000206B60002B4
:071FB10006B6000206B600AF
:08197300FB7A20E4FCFDFEFFFD
:0E197B00E5822582F582E58333F583E5F033BE
:0B198900F5F0EB33FB4017DAE9804279
:0E199400E5822582F582E58333F583E5F033A5
:0519A200F5F0EB33FB42
:0E19A700EC33FCED33FDEE33FEEF33FFEC9539
:0619B5001BED951CEE95F0
:0819BB001DEF951E4013EC9591
:0819C3001BFCED951CFDEE95E7
:0919CB001DFEEF951EFF43820191
:0219D400DABE79
:0219D600EB2202
:06009A00E478FFF6D8FD3A
:080078007900E94400601B7AE5
:0500800000901B7378E5
:030085000075A063
:0A008800E0E493F2A308B8000205BB
:08009200A0D9F4DAF275A0FF19
:0E19D80020F71030F6118883A88220F507F65C
:0519E600A883758300D9
:0119EB0022D9
:0319EC00F280F78F
:0219EF00F022E4
:0C19F100AAF0FBE582851BF0A4FCADF021
:0C19FD00E583851BF0A42DFDE435F0FE11
:0C1A0900E582851CF0A42DFDE5F03EFEFA
:0C1A1500E433FFEA851BF0A42EFEE5F090
:0C1A21003FFFE583851CF0A42EFEE5F0DD
:0C1A2D003FFFE582851DF0A42EFEE5F0D1
:0B1A39003FFFEB851BF0A42FFFEA85A8
:0A1A44001CF0A42FFFE583851DF0C0
:0C1A4E00A42FFFE582851EF0A42F8EF06F
:051A5A008D838C822247
:0400A00075A00078CF
:0700A40000E8440060077949
:0600AB0000E4F309D8FC9B
:0800B1007800E84400600C79BE
:0B00B9000090E000E4F0A3D8FCD9FAAE
:03006B0075811E7E
:0A006E00121A7BE5826003020066AF
:0E1A5F0020F71430F6148883A88220F507E6DD
:061A6D00A883758300222E
:031A7300E280F717
:031A7600E49322D4
:021A7900E02269
:041A7B00758200224E
:00000001FF
