:0400000002006D325B
:01000B0032C2
:0100130032BA
:01001B0032B2
:0100230032AA
:01002B0032A2
:030033000206B40E
:01003B003292
:03004300023F0079
:01004B003282
:03005300023F0069
:01005B003272
:030063000206B8DA
:0300E400020066B1
:050066001200E780FE1E
:0900E700788176007880760090A3
:0E00F000E60B7403F000000000000090E60034
:0E00FE007410F075800175B28175900075B3B5
:0E010C00FF75B08075B5A090E67AE0FA440168
:0B011A00F012257090E60174E2F01274
:0E012500027290E6097403F000000075890173
:09013300000000788276000876D5
:04013C00E17884766C
:05014000120876E178D1
:0501450086761C08761F
:04014A00E17888765A
:0A014E004A0876E1D2E843D8209079
:0E015800E668E0FA4409F090E65CE0FA443D07
:0E016600F090E682E4F0D2AF90E680E0FA542A
:05017400F7F0538EF8C6
:080179001201BB789EE660074D
:07018100120197789E760041
:050188007881E660042F
:04018D0078817600FF
:050191001206B880E336
:010196002246
:0A01970090E680E0FA440AF07A00D6
:0201A100DAFE84
:0E01A30090E65D74FFF090E65F74FFF05391FC
:0901B100EF90E680E0FA54F7F04B
:0101BA002222
:0601BB007880E6700122CD
:0501C100AA08AB09785B
:0901C60096A60208A603788EA695
:0601CF000B08A60C08A6B7
:0501D5000D08A60E78E4
:0501DA0092A60F08A62B
:0601DF001008A61108A69D
:0601E500127898A69B7839
:0801EB0099A69A789AA69E7865
:0A01F3009BA69D1202F4E58270083D
:0801FD0090E6A0E0FA4401F0D5
:0C02050090E6A0E0FA4480F078807600DB
:06021100789686080886BD
:0A02170009788E8602088603088627
:09022100040886058A0B8B0C8C85
:04022A000D8D0E78B0
:0C022E00928602088603088604088605F4
:05023A008A0F8B108CFF
:04023F00118D127893
:0802430098869B7899869A7851
:07024B009A869E789B869DB8
:010252002289
:0E02530090E6837401F07421F07411F07431A0
:0E026100F090E6837402F07422F07416F074CC
:02026F0036F067
:01027100226A
:0E02720090E610E4F000000090E611E4F000C9
:0E028000000090E612E4F000000090E613E4A7
:0D028E00F000000090E614E4F00000009085
:0E029B00E615E4F000000090E618E4F0000024
:0E02A9000090E619E4F000000090E61AE4F080
:0E02B70000000090E61BE4F000000090E6104E
:0E02C50074A0F000000090E61174A0F000009C
:0E02D3000090E61274A0F000000090E6147493
:0E02E100E0F000000090E68DE4F00000001256
:0502EF0009320208FACB
:0C02F40090E6B9E0FA24F450030205A1E2
:07030000EA2A2A90030773AB
:070307000203EE020478027C
:06030E0005A10205260214
:0603140005A10205A10293
:06031A00032B0205A10205
:0603200003D90203C7022D
:0503260003A00203B575
:0A032B0090E6BBE0FABA0102800F71
:05033500BA0202802065
:05033A00BA060280314B
:05033F00BA075A8042DC
:09034400788290E6B308E6F07837
:0B034D008286027B0090E6B4EAF0021A
:0203580005A4FA
:09035A00788A90E6B308E6F07819
:0B0363008A86027B0090E6B4EAF002FC
:02036E0005A4E4
:09037000788490E6B308E6F07809
:0B0379008486027B0090E6B4EAF002EC
:0203840005A4CE
:09038600788C90E6B308E6F078EB
:0B038F008C86027B0090E6B4EAF002CE
:02039A0005A4B8
:04039C007582002244
:0803A00090E740789DE6F09023
:0B03A800E68AE4F090E68B7401F0029E
:0203B30005A49F
:0A03B50090E6BAE0FA789DA6021265
:0603BF000272120253025B
:0203C50005A48D
:0A03C70090E6BAE0FA789CA6021254
:0603D10002721202530249
:0203D70005A47B
:0803D90090E740789CE6F090EB
:0B03E100E68AE4F090E68B7401F00265
:0203EC0005A466
:0A03EE0090E6B8E0FABA8002800A37
:0503F800BA8102801B28
:0503FD00BA8274802C9F
:0A04020090E740E4F090E741F0902D
:0A040C00E68AF090E68B7402F0021D
:0204160005A43B
:0A04180090E740E4F090E741F09017
:0A042200E68AF090E68B7402F00207
:02042C0005A425
:0E042E0090E6BCE0FA53027E90E6BCE0FBC311
:0E043C0074809BE433FB4A902C4593FA339571
:0E044A00E0FB74A12AFA74E63BFB8A828B83E6
:0E045800E0FA53020190E740EAF090E741E439
:0C046600F090E68AF090E68B7402F00241
:0204720005A4DF
:04047400758200226B
:0704780090E6B8E0FA60080D
:05047F00BA0202801228
:030484000205224C
:0B04870090E6BAE0FABA01030205A4F7
:04049200758200224D
:0904960090E6BAE0600302051EC5
:0E049F0090E6BCE0FA53027E90E6BCE0FBC3A0
:0E04AD0074809BE433FB4A902C4593FA339500
:0E04BB00E0FB74A12AFA74E63BFB90E6BCE07D
:0E04C900FC53047E90E6BCE0FDC374809DE40D
:0E04D70033FD4C902C4593FC3395E0FD74A151
:0E04E5002CFC74E63DFD8C828D83E0FC5304FC
:0E04F300FE8A828B83ECF090E6BCE05480FA27
:0E050100C423541FFA90E6BCE0FB740F5B901D
:0D050F00E6832AF090E683E0FA4420F00233
:02051C0005A434
:04051E0075820022C0
:0405220075820022BC
:0705260090E6B8E0FA600561
:05052D00BA026D800E12
:0A05320090E6BAE0FABA020280680F
:04053C0075820022A2
:0E05400090E6BCE0FA53027E90E6BCE0FBC3FE
:0E054E0074809BE433FB4A902C4593FA33955E
:0E055C00E0FB74A12AFA74E63BFB90E6BCE0DB
:0E056A00FC53047E90E6BCE0FDC374809DE46B
:0E05780033FD4C902C4593FC3395E0FD74A1AF
:0E0586002CFC74E63DFD8C828D83E0FC43046A
:09059400018A828B83ECF08007E0
:04059D007582002241
:0305A100020AD477
:0305A4007582015C
:0105A7002231
:0C05A800C0E0C082C083C00078807601F3
:0905B4005391EF90E65D7401F033
:0905BD00D000D083D082D0E032DE
:0E05C600C0E0C082C0835391EF90E65D7404E4
:0105D400F036
:0705D500D083D082D0E03298
:0E05DC00C0E0C082C0835391EF90E65D7402D0
:0105EA00F020
:0705EB00D083D082D0E03282
:0D05F200C0E0C082C083C002C003C000781A
:0A05FF00888602088603788AA602A7
:0C06090008A6038A828B83A37402F07899
:0A061500868602088603788CA60290
:0E061F0008A6038A828B83A37407F05391EF21
:06062D0090E65D7410F080
:0D063300D000D003D002D083D082D0E032BE
:0C064000C0E0C082C083C0007881760159
:09064C005391EF90E65D7408F093
:09065500D000D083D082D0E03245
:0D065E00C0E0C082C083C002C003C0009095
:07066B00E680E0FA30E72C05
:0A06720078868602088603788AA6BF
:0D067C000208A6038A828B83A37402F07823
:0A068900888602088603788CA6021A
:0B06930008A6038A828B83A37407F083
:09069E005391EF90E65D7420F029
:0D06A700D000D003D002D083D082D0E0324A
:0306B40053D8EF29
:0106B7003210
:052C3600010200000096
:052C3B00010000000093
:052C400001000000008E
:0A2C45000001020203030404050568
:0A00C600789E7600789FE4F608F6B5
:0C00D00008F608F678A3E4F608F608F637
:0800DC0008F678A7E4F608F627
:0706B80012070AE58260143D
:0706BF001206D4E582700D64
:0B06C6001207FE78AC7601758200027E
:0206D100080718
:0106D3002204
:0706D40078A9E624FA402B8F
:0A06DB0078A9E625E0269006E573F5
:0706E5000206F70206FA020B
:0606EC0006FD02070602F4
:0506F2000700020703F0
:0306F70002099263
:0306FA000209F6FC
:0306FD0002115B8C
:03070000021DE9EE
:0307030002265774
:03070600758200F9
:0107090022CD
:05070A00E5BA30E10436
:04070F0075820022CD
:0707130078AC76007A807BD0
:06071A00E78B9A7A807B58
:0C072000E77B008A9B90E67BE0FA7B0000
:05072C000ABA00010BF8
:0E07310090E68DE0FC7D00EAB50406EBB50510
:03073F0002801124
:0B0742001207FE78AC760175820012F1
:06074D000807758200227E
:0A07530090E67BE0FA78A9A6029078
:09075D00E67BE0FA78AAA60290FE
:0B076600E67BE0FA78ABA6027582018A
:010771002265
:080772001201BBE5BA30E104FD
:04077A00750A0022DA
:0C077E0090E780E0FA7B000ABA00010B53
:0E078A0090E68DE0FC7D00EAB50406EBB505B7
:03079800028011CB
:0B079B001207FE78AC76017582001298
:0607A6000807750AFF229E
:0B07AC0090E781E0FA78A9E6B502139F
:0C07B70090E782E0FA78AA748046FBEA22
:0307C300B5030477
:0407C600750A01228D
:0607CA0090E781E0700CD5
:0807D00090E782E0FABA02048E
:0407D800750A02227A
:0307DC00750AFF9C
:0107DF0022F7
:0807E000AA827B0B7C007D4026
:0E07E80090E67BE0FE8B828C838DF0122B8FCF
:0707F600A3AB82AC83DAEB38
:0107FD0022D9
:0807FE0090E68DE4F00000001C
:0108060022CF
:07080700AA82E5BA30E2010C
:01080E0022C7
:07080F007BC07CE78C9D7BA0
:08081600C07CE77C008B9E9082
:08081E00E67CEA04F078AC90DE
:07082600E67CE6F07B0B7C91
:05082D00007D408A0679
:03083200EE60175E
:0E0835008B828C838DF0122C16FFA3AB82AC4D
:090843008390E67CEFF01E80E6D4
:0A084C0090E68F74022AF00000000D
:01085600227F
:07085700AA82E5BA30E201BC
:01085E002277
:07085F007BC07CE78C9D7B50
:08086600C07CE77C008B9E9032
:08086E00E67CEA04F078AC908E
:04087600E67CE6F046
:01087A00225B
:05087B00E5BA30E201C6
:010880002255
:0808810090E7C178ACE6F090AD
:0C088900E7C0E0FA90E68F04F0000000E9
:010895002240
:0E089600AA82AB83ACF090E67BE0FDC002C00E
:0E08A40003C004C0051207FED005D004D00327
:0708B200D002E5BA30E201BB
:0108B900221C
:0708BA007EC07FE78F9D7EE9
:0808C100C07FE77F008E9E90CE
:0C08C900E67CED04F090E67CE4F08D0687
:0308D500EE6017BB
:0E08D8008A828B838CF0122C16FFA3AA82ABAF
:0908E6008390E67CEFF01E80E631
:0A08EF0090E68F74022DF000000067
:0108F90022DC
:0E08FA0090E618E4F000000090E6047480F030
:0E09080000000090E6047402F00000007A0483
:0B09160090E6497482F0000000DAF562
:0E09210090E604E4F000000090E6A3E4F0008D
:02092F000000C6
:0109310022A3
:0E09320090E61AE4F000000090E6047480F0F5
:0D09400000000090E6047406F00000009036
:0E094D00E604E4F000000090E6A5E4F00000EF
:01095B00009B
:01095C002278
:08095D0090E680E0FA30E706A5
:060965007A007B02800411
:04096B007A407B0053
:0E096F0090E624EBF000000090E680E0FA3005
:02097D00E7068B
:06097F007A007B028004F7
:040985007A407B0039
:0809890090E625EAF0000000F1
:010991002243
:0709920078AAB602028007FB
:0709990078AAB603508005A7
:0509A0001207FE804D6E
:0A09A5007582041207E01207FEE558
:0809AF000BF4FAE50CF4FBE582
:0A09B7000DF4FCE50EF4FD747B2A3C
:0C09C100FAE43BFBE43CFCE43DFD8A0B47
:0509CD008B0C8C0D8D68
:0509D2000E1212C878AE
:0C09D7009FE4F608F608F608F612093254
:0B09E3001208FA758204120807800455
:0409EE0075820022EC
:0309F2007582010A
:0109F50022DF
:0709F60078AAB60202800E90
:0709FD0078AAB60302801E78
:070A040078AAB60454803506
:070A0B001207FE750B0175D7
:060A12000C00750D0075DB
:0A0A18000E00758204120807803FEB
:0E0A22001207FE75B28190E601E0FA4420F062
:0E0A300090E6C274FFF0D2B77582001208077C
:020A3E00802115
:0E0A40001207FEC2B775B20090E601E0FA544C
:0E0A4E00DFF090E6C2E4F07582001208078027
:010A5C000495
:040A5D00758200227C
:030A61007582019A
:010A6400226F
:0A0A6500AA82AB83E5084509700181
:010A6F002264
:070A7000AC14BCE602800596
:050A77008B05BDE63116
:080A7C008A068B07AC13AD14D0
:0E0A84008E028F038C828D83E0F88A828B8332
:060A9200F00EBE00010F92
:050A98000CBC00010D83
:080A9D00150874FFB5080215ED
:010AA5000947
:060AA600E508450970D8C7
:010AAC002227
:0C0AAD008C9AAC137E008C9B8D9D7B000E
:050AB9008A9E020ABF45
:010ABE002215
:080ABF00A90890E67B05869072
:040AC700E67C05863E
:080ACB00E00586F00586D9F86C
:010AD3002200
:0A0AD40090E6B9E0FABAA202804AE7
:050ADE00BAA3028045EF
:060AE300BAE103020DA9B7
:060AE900BAE203020D89D0
:060AEF00BAE303020D89C9
:060AF500BAE403020D69E2
:060AFB00BAE503020D69DB
:060B0100BAE603020C74C9
:060B0700BAE703020CA195
:060B0D00BAE803020CE946
:060B1300BAE903020D49DE
:060B1900BAEA03020D1808
:060B1F00BAEB03020DC950
:030B2500020DE9D5
:0B0B280090E6BAE0FAA3E0FB8A0B8B1A
:0A0B33000C90E6BEE0FAA3E0FB9090
:090B3D00E6B8E0FCBCC002800334
:030B4600020BD9C6
:070B4900EA4B7003020DED01
:080B500090E6A0E0FC20E1F8B2
:080B580090E6B9E0FCBCA2111B
:0A0B6000750D00750E00C002C00301
:070B6A00121087D003D00236
:090B7100C3EA9440EB9400500625
:060B7A008A0D8B0E8006BF
:060B8000750D40750E002A
:080B860090E6B9E0FCBCA20DF1
:0D0B8E00C002C003120FDAD003D002801A9B
:040B9B00850D088537
:030B9F000E0990AC
:040BA200E740850B98
:030BA60013850CA8
:0C0BA90014C002C003120A65D003D00281
:080BB50090E68AE4F0AC0DADFE
:080BBD000E90E68BECF0EC2534
:070BC5000BFEED350CFF8E65
:0A0BCC000B8F0CEAC39CFAEB9DFBB3
:030BD600020B49C6
:0A0BD90078A7E608467003020C70CE
:0C0BE30090E6BCE0FCA3E0FD78A7E6B5BE
:090BEF00040708E6B505028002C6
:020BF800807605
:080BFA0090E6B8E0FCBC406E7F
:070C0200EA4B7003020DED47
:090C090090E68AE4F090E68BF01D
:080C120090E6A0E0FC20E1F8EF
:0A0C1A0090E68BE0FC7D008C0D8D50
:090C24000E90E6B9E0FCBCA31F30
:040C2D00850D0885A4
:030C31000E098524
:060C34000B82850C8375A4
:030C3A00134075EF
:070C3D0014E7C002C003121E
:080C44000A65D003D002800B09
:0B0C4C00C002C003121087D003D002CA
:060C5700AC0DAD0EEC2512
:070C5D000BFEED350CFF8ECC
:0A0C64000B8F0CEAC39CFAEB9DFB1A
:020C6E00809272
:040C70007582002267
:0A0C740090E6B8E0FABAC00280036F
:030C7E00020DED77
:080C810090E6A0E0FA20E1F882
:0E0C890090E740740AF0A37403F090E68AE44A
:0A0C9700F090E68B7402F0020DED00
:0A0CA10090E6B8E0FABAC002800342
:030CAB00020DED4A
:080CAE0090E6A0E0FA20E1F855
:0E0CB60090E740740DF0A3E4F0A3F0A3F090DB
:0B0CC400E744E4F5F0122B8FA3E412CC
:0A0CCF002B8FA3E4122B8FA3E41275
:080CD9002B8F90E68AE4F090F5
:080CE100E68B7408F0020DED32
:080CE90090E6B8E0FABA4023DE
:090CF10090E68AE4F090E68BF035
:080CFA0090E6A0E0FA20E1F809
:0C0D020090E740E0FAA3E0FB78A7A6020F
:060D0E0008A603020DED32
:040D140075820022C2
:080D180090E6B8E0FABA4025AC
:070D200078A7E60846601EFB
:0C0D270090E6BCE0FAA3E0FB78A7E6B57C
:090D3300020708E6B50302800284
:020D3C0080072E
:070D3E00789E7601020DED25
:040D45007582002291
:070D4900750BF0750C3F75FE
:060D50000D04750E007594
:060D56000FCD7510AB90FB
:070D5C00E6B8E0FABAC0039B
:030D6300020DF18D
:030D6600020F0A6F
:070D6900750BE0750C3F75EE
:060D70000D0C750E00756C
:060D76000F787510569085
:070D7C00E6B9E0FABAE40356
:030D8300020DF16D
:030D8600020F0A4F
:070D8900750BC0750C3F75EE
:060D90000D10750E007548
:060D96000FCD7510AB90BB
:070D9C00E6B9E0FABAE20338
:030DA300020DF14D
:030DA600020F0A2F
:070DA900750BA0750C3F75EE
:060DB0000D1C750E00751C
:060DB6000FCD7510AB909B
:070DBC00E6B8E0FABAC0033B
:030DC300020DF12D
:030DC600020F0A0F
:070DC900750BF8750C3F7576
:060DD0000D02750E007516
:060DD6000FCD7510AB907B
:070DDC00E6B8E0FABAC0031B
:030DE300020DF10D
:030DE600020F0AEF
:040DE90075820022ED
:030DED007582010B
:010DF00022E0
:0C0DF1007AFF90E6B8E0FBBBC002800473
:040DFD0075820022D9
:050E0100AB0DAC0E7505
:0A0E06000D00750E00C002C003C00D
:0E0E100004121087D004D003D00274032BFB11
:0A0E1E00E43CFC8B0D8C0EC00212A8
:0A0E28000FDAD002E50D24FDFBE512
:070E32000E34FFFC8B0D8C58
:0B0E39000E90E740E0FBA3E0FCEBB5EF
:060E44000F48ECB510445C
:040E4A007A007B00AF
:0A0E4E007403250DFCE4350EFD8B46
:0A0E5800067F00C3EE9CEF9D502CB6
:0A0E6200EB2440F582E434E7F58349
:0A0E6C00E0FC2AFAEB2440FCE43419
:0A0E7600E7FD74022B2440F582E42E
:0C0E800034E7F583E0FE8C828D83F00BDC
:020E8C0080C024
:030E8E00EA6064B3
:040E9100850D08853E
:030E95000E0990B3
:090E9800E6B9E0FABAE102803487
:050EA100BAE202803DF1
:050EA600BAE402800522
:050EAB00BAE9438017C5
:020EB0007A00C6
:030EB200BA0C0077
:020EB500503EAD
:0A0EB700EA2440F582E434E7F583F5
:060EC1007430F00A80EB22
:050EC70090E7407513E7
:030ECC005E75143C
:060ECF002C120A658020D0
:050ED50090E7407513D9
:030EDA006275142A
:060EDD002C120A658012D0
:050EE30090E7407513CB
:030EE8007E751400
:060EEB002C120A658004D0
:040EF10075820022E4
:0C0EF50090E68AE4F000000090E68BE537
:080F01000DF0000000758201F3
:010F090022C5
:080F0A0090E6B8E0FABA401CC1
:070F120078A7E60846601510
:0C0F190090E6BCE0FAA3E0FB78A7E6B588
:090F2500020708E6B5030280048E
:040F2E0075820022A6
:090F320090E68AE4F090E68BF0F1
:080F3B0090E6A0E0FA20E1F8C5
:070F430090E68AE0FA701449
:050F4A00AA0DAB0E90A2
:0E0F4F00E68BE0FC7D00B50206EDB5030280E6
:010F5D00048F
:040F5E007582002276
:060F62008A15AD158D0695
:060F68008E071EEF60255C
:0C0F6E00C002C00374022E2440FFE434D3
:090F7A00E7FCEE2440F582E434AA
:0C0F8300E7F583E0FA8F828C83F0D00346
:040F8F00D00280D537
:080F930090E740E50FF0A3E533
:050F9B0010F07C407E17
:0A0FA000E78E9A759B407C007402F6
:030FAA002515FD0D
:090FAD0090E67BE0FE2CFCDDF770
:0A0FB600740225152440F582E4348E
:0C0FC000E7F583C3E49CFCF074032AFAFC
:080FCC00E43BFB8A0D8B0E12C1
:050FD400108775820189
:010FD90022F5
:050FDA00E50DFA7004B2
:040FDF0075820122F4
:080FE30090E678E0FB20E6F83F
:0C0FEB0090E6787480F090E67974A3F032
:080FF70090E678E0FB30E0F821
:080FFF0090E678E0FB20E274AB
:0810070090E678E0FB30E16C9B
:03100F00BA01081B
:0810120090E678E0FB4420F0B9
:07101A0090E679E07B407CC9
:06102100E78C9A7B407C85
:05102700E77C008B9B3B
:04102C00DA0280263E
:0810300090E678E0FB30E0F8E7
:0810380090E678E0FB20E23BAA
:03104000BA0108EA
:0810430090E678E0FB4420F088
:0B104B0090E679E0FB90E67BF080D699
:0810560090E678E0FA30E0F8C2
:08105E0090E678E0FA20E215AB
:0E10660090E678E0FA4440F090E679E0FA90E7
:07107400E67BF0758201220A
:0B107B0090E678E0FA4440F075820037
:011086002247
:02108700AA0DB0
:0810890090E678E0FB20E6F898
:0C10910090E6787480F090E67974A2F08C
:08109D0090E678E0FB30E0F87A
:0810A50090E678E0FB20E26B0D
:0810AD0090E678E0FB30E163FE
:0310B500EA600EE0
:0710B8007B407CE78C9A7B72
:0710BF00407CE77C008B9BE5
:0210C6007B02AB
:0310C800EA7003C8
:0310CB00EB603B9C
:0310CE00EB6014C0
:0310D100BB020857
:0810D40090E679E50CF08006BE
:0610DC0090E679E50BF03F
:0310E2001B800A66
:0A10E50090E67BE0FC90E679F01A3B
:0810EF0090E678E0FC30E0F827
:0810F70090E678E0FC20E2190C
:0810FF0090E678E0FC20E1C15D
:02110700800F57
:0E11090090E678E0FA4440F01211247582015D
:0111170022B5
:0B11180090E678E0FA4440F075820099
:0111230022A9
:0811240090E678E0FA20E6F8FD
:0E112C0090E678E0FA4480F090E67974A2F044
:08113A0090E678E0FA30E0F8DD
:0811420090E678E0FA4440F069
:08114A0090E678E0FA20E6F8D7
:0811520090E678E0FA30E1D2EA
:01115A002272
:052C4F0001020000007D
:052C540001000000007A
:052C5900010000000075
:042C5E00050010005D
:0E2C62004F6E626F6172642055534200000095
:0E2C7000FDFDFDFD00000000000067331D1E8D
:0E2C7E00444F6E62557362000000FDFDFDFDC7
:022C8C00000046
:07115B0078AAB602028060D1
:0711620078ABB6000280111A
:0B1169001207FE78AC760C75820012B5
:061174000807758201224C
:05117A0078AAE6701FD9
:06117F00789FE630E0114C
:0B1185001207FE78AC760375820012A2
:0611900008077582012230
:08119600789FE64401F6802475
:05119E0078AAB601086B
:0811A300789FE654FEF6801768
:0611AB00789FE620E01130
:0B11B1001207FE78AC76047582001275
:0611BC0008077582012204
:0A11C20078AAE624F450030212B2EA
:0A11CC0078AAE625E0269011D673FC
:0711D6000211FA02120A02E5
:0611DD00121A0212B20218
:0611E30012270212400277
:0611E90012740212AB02B9
:0611EF00129D02129D0298
:0511F50012A402129D8E
:0A11FA001212B61207FE75820012F1
:06120400080775820122BB
:0A120A001212C81207FE75820012CE
:06121400080775820122AB
:0D121A00902C8E75F08012089675820122CE
:071227001207FE750B0075B4
:06122E000C6A750D187535
:0C1234000E00758204120807758201226A
:0712400090E67BE0FA600478
:04124700D2B380029C
:02124B00C2B32C
:07124D0090E67BE0FA60046B
:04125400D2B2800290
:02125800C2B220
:07125A0090E67BE0FA60045E
:04126100D2B4800281
:02126500C2B411
:0D1267001207FE7582001208077582012231
:0C1274001207FEA2B3E433FA8A0BA2B208
:0B128000E433FA8A0CA2B0E433FA8ACF
:0A128B000DA2B4E433FA8A0E758256
:08129500041208077582012212
:07129D001216857582012283
:0712A400121A8C7582012271
:0712AB001212D4758201222A
:0312B20075820042
:0112B5002216
:0E12B60043B50443B50843B510D2B5C2B2D259
:0312C400B3C2B4FE
:0112C7002204
:0B12C800C2B553B5E3C2B2D2B3C2B44A
:0112D30022F8
:052C8E0001020000003E
:052C930001000000003B
:052C9800010000000036
:0B12D4007A007B0090E67BE0FC6004E9
:0412DF00D2B3800204
:0212E300C2B394
:0712E50090E67BE0FC6004D1
:0412EC00D2B28002F8
:0212F000C2B288
:0E12F200C2B4758204C002C0031207E0D0032C
:0E13000000C0031207FE758200120807D0031A
:07130E00D002AC0BAD0CAEE8
:041315000DAF0E8C7E
:041319000F8D108E96
:09131D00118F12EC4D4E4F7002CD
:021326007B0149
:03132800EB600671
:06132B00EA60030213D981
:0D133100C002C003120772D003D002E4B561
:04133E000A028031EE
:051342007401B50A0F63
:0E1347007A01C002C0031207FED003D002805C
:011355001D7A
:051356007402B50A134A
:0B135B007B0178AC7602C002C00312D8
:0813660007FED003D002800550
:05136E007A000213D912
:03137300EB70B26A
:05137600AC0BAD0CAE54
:0A137B000DAF0EC3ED94FEEE9400DA
:05138500EF940050068A
:06138A008C088D098006AD
:061390007508007509FE5E
:08139600AC08AD09E4FEFFE51F
:09139E000BC39CFCE50C9DFDE570
:0813A7000D9EFEE50E9FFF8C78
:0413AF000B8D0C8E08
:0813B3000D8F0EC000C001A85F
:0413BB0008A909096B
:0E13BF00D2B4C2B4D8FAD9F8D001D000EC4DA7
:0713CD004E4F6003021328DC
:0513D4007B010213285B
:0313D900EA60299E
:0713DC00E50FC3950BFAE5D4
:0513E30010950CFBE574
:0513E80011950DFCE56C
:0513ED0012950EFD8ABF
:0413F2000B8B0C8CC9
:0413F6000D8D0E78D3
:0B13FA00ACE64480F675820402080790
:0114050022C4
:0A140600C001C002A908AA09E960AC
:02141000010ACF
:0314120090E67BE6
:0E141500E01392B2D2B4C2B41392B2D2B4C2F7
:0E142300B41392B2D2B4C2B41392B2D2B4C215
:0E143100B41392B2D2B4C2B41392B2D2B4C207
:0E143F00B41392B2D2B4C2B41392B2D2B4C2F9
:09144D00B4D9C5DAC3D002D00104
:011456002273
:0A145700C001C002A908AA09E9605B
:02146100010A7E
:0A14630090E67B058690E67C058686
:0E146D00E01392B2A2B013D2B4C2B492B2A2F3
:0E147B00B013D2B4C2B492B2A2B013D2B4C2B3
:0E148900B492B2A2B013D2B4C2B492B2A2B066
:0E14970013D2B4C2B492B2A2B013D2B4C2B493
:0E14A50092B2A2B013D2B4C2B492B2A2B013EB
:0E14B300D2B4C2B40586F00586D9AFDAADD04A
:0314C10002D00155
:0114C4002205
:0A14C500C001C002A908AA09E960ED
:0214CF00010A10
:0314D10090E67C26
:0E14D400A2B0D2B4C2B413A2B0D2B4C2B41348
:0E14E200A2B0D2B4C2B413A2B0D2B4C2B4133A
:0E14F000A2B0D2B4C2B413A2B0D2B4C2B4132C
:0E14FE00A2B0D2B4C2B413A2B0D2B4C2B4131E
:09150C00F0D9C2DAC0D002D0010E
:0115150022B3
:0A151600C001C002A908AA09E9609B
:02152000010ABE
:0315220090E67BD5
:0E152500E01392B3D2B4C2B41392B3D2B4C2E4
:0E153300B41392B3D2B4C2B41392B3D2B4C202
:0E154100B41392B3D2B4C2B41392B3D2B4C2F4
:0E154F00B41392B3D2B4C2B41392B3D2B4C2E6
:09155D00B4D9C5DAC3D002D001F3
:011566002262
:0A156700C001C002A908AA09E9604A
:02157100010A6D
:0A15730090E67B058690E67C058675
:0E157D00E01392B3A2B013D2B4C2B492B3A2E0
:0E158B00B013D2B4C2B492B3A2B013D2B4C2A1
:0E159900B492B3A2B013D2B4C2B492B3A2B053
:0E15A70013D2B4C2B492B3A2B013D2B4C2B481
:0E15B50092B3A2B013D2B4C2B492B3A2B013D8
:0E15C300D2B4C2B40586F00586D9AFDAADD039
:0315D10002D00144
:0115D40022F4
:0A15D500C001C002A908AA09E960DC
:0215DF00010AFF
:0315E10090E67B16
:0E15E400E01392B21392B3D2B4C2B41392B217
:0E15F2001392B3D2B4C2B41392B21392B3D216
:0E160000B4C2B41392B21392B3D2B4C2B4D92E
:07160E00D5DAD3D002D001B0
:0116150022B2
:0A161600C001C002A908AA09E9609A
:02162000010ABD
:0A16220090E67B058690E67C0586C5
:02162C007C023E
:0E162E00E01392B21392B3FBE8A2B013F8EBF4
:0E163C00D2B4C2B41392B21392B3FBE8A2B0C0
:0E164A0013F8EBD2B4C2B41392B21392B3FBF6
:0E165800E8A2B013F8EBD2B4C2B41392B213EE
:0E16660092B3FBE8A2B013F8EBD2B4C2B4DC2E
:0E167400B9E80586F0058619D9AEDAACD002C9
:02168200D00195
:011684002243
:0716850075170075190075CF
:07168C001A0078AAB6082A33
:0816930075170190E67BE0F5FC
:08169B001690E67BE0FE6004FE
:0416A300D2B380023C
:0216A700C2B3CC
:0416A900E5166008DA
:0416AD00751B5775DD
:0416B1001C14805A2B
:0416B500751B067526
:0416B9001C1480522B
:0516BD0078AAB6092522
:0A16C20075160190E67BE0FC600461
:0416CC00D2B3800213
:0216D000C2B3A3
:0716D20090E67BE0FC6004E0
:0416D900D2B2800207
:0216DD00C2B297
:0416DF00751BC5753D
:0416E3001C1480282B
:0816E70075170190E67BE0F5A8
:0816EF001690E67BE0FC6004AC
:0416F700D2B28002E9
:0216FB00C2B279
:0416FD00E516600886
:04170100751B677578
:041705001C15800629
:04170900751B1675C1
:02170D001C15A9
:0D170F007582041207E01207FE75820012B9
:04171C000807850B2A
:031720001D850C18
:031723001E850D13
:031726001F850E0E
:0317290020851DFB
:03172C000F851E08
:03172F0010851F03
:03173200118520FE
:0A173500127407551DFD7A007B00B9
:07173F007C008D18AA1DE5D6
:0C1746001EC423CAC423541F6ACA541FC7
:0C175200CA6ACAFBE51FC42354E04BFB2D
:0A175E00AC1FE520C423CCC42354C3
:0C1768001F6CCC541FCC6CCCFE8A0B8B89
:041774000C8C0D8E3E
:051778000EE518601DE4
:05177D00AA0BAB0CAC4F
:0A1782000DAE0E0ABA00090BBB0001
:06178C00050CBC00010E7B
:051792008A0B8B0C8C9A
:031797000D8E0EA6
:05179A00E50F451045BC
:05179F0011451270036A
:0317A400751901B3
:0217A700C2B4CA
:0417A900E5196007D7
:0717AD00E51A600302199F19
:0717B400120772E50A602C28
:0517BB007401B50A0CE9
:0417C000E51A7008AE
:0817C400751A011207FE801BDB
:0517CC007402B50A10D3
:0717D1001207FEE519700F7D
:0917D80078AC7602751901800657
:0617E100751A0002199FB9
:0417E700E51760059D
:0517EB00E5AA20E0B9B1
:0417F000E516600595
:0517F400E5AA20E5B0AC
:0417F900E51970ACD2
:0417FD00E517600E7E
:071801007A007BF08B9A7A5C
:07180800007BF07B008A9BCE
:04180F00E516600E6C
:071813007A007BF88B9D7A3F
:07181A00007BF87B008A9EB1
:04182100E51760194E
:0E18250090E690E0FA8A037A0090E691E0FCEB
:0A1833007E004AF508EE4BF509802F
:01183D005456
:04183E00850B218570
:031842000C2285F0
:031845000D2385EB
:031848000E2490DB
:07184B00E680E0FF30E70634
:061852007A007B02800415
:041858007A407B0057
:0C185C008A07EBFD3395E0FAFBC3EF9523
:0618680021ED9522EA9536
:06186E0023EB9524501845
:0818740090E680E0FA30E7067F
:06187C007A007B028004EB
:041882007A407B002D
:061886008A088B098006B0
:04188C008521088525
:0218900022092B
:08189200AA08AB09E4FCFDE526
:09189A000BC39AFAE50C9BFBE577
:0818A3000D9CFCE50E9DFD8A81
:0418AB000B8B0C8C0B
:0418AF000D8D0EE5A8
:0318B300186013A7
:0518B600E50B450C45A7
:0518BB000D450E70094F
:0818C000150874FFB5080215BC
:0118C8000916
:0618C900E5084509600975
:0718CF00851B82851C8312BA
:0218D600006BA5
:0718D800E518700302196915
:0518DF00E50B450C457E
:0618E4000D450E60030239
:0218EA0019697A
:0618EC00AA18E517700BBD
:0318F20030B2040D
:0418F5007BFF8002F3
:0218F9007B0072
:0218FB00800566
:0518FD0090E67BE0FB1A
:0519020078AAB60B1DE0
:021907008A0450
:0B190900EBA2E092B3C313FB30B0056B
:05191400430380800385
:0319190053037FF6
:06191C00D2B4C2B4DCE706
:0219220080192A
:0B192400EBA2E092B2C313FB30B00551
:05192F0043038080036A
:0319340053037FDB
:06193700D2B4C2B4DAE7ED
:04193D00E516601D2E
:0C194100AD187A007408C39DFDE49AFA0A
:07194D008DF005F0EB8002B4
:02195400C313BB
:08195600D5F0FBFB90E67CF0EC
:07195E007518000508E4B54F
:041965000802050966
:04196900E517600915
:09196D0090E6497482F0000000CC
:04197600E516601200
:0A197A0090E698E509F000000090E7
:08198400E699E508F0000000FF
:05198C00E50B450C45D0
:061991000D450E6003028B
:0219970017A98E
:061999007519010217A9F7
:07199F001208FA120932E5FB
:0419A6001A70012290
:0419AA00E518601DBF
:0519AE00AA0BAB0CAC1C
:0A19B3000DAD0E1ABAFF091BBBFFB1
:0619BD00051CBCFF011D2A
:0519C3008A0B8B0C8C67
:0319C8000D8D0E74
:0419CB00850D23E57E
:0A19CF000EC40354F8C523C403C579
:0419D900236523C59A
:0619DD002354F8C5236548
:0419E30023F524E5DF
:0819E7000CC40354074523F56D
:0319EF0023850B42
:0819F20021E50CC40354F8C503
:0619FA0021C403C52165B4
:061A000021C52154F8C5C8
:041A0600216521F540
:031A0A0022852111
:031A0D000B852224
:031A10000C85231F
:031A13000D85241A
:091A16000EAE18E4FFFAFBEE2508
:081A1F0021FEEF3522FFEA353C
:071A270023FAEB3524FB8ECE
:041A2E000B8F0C8A84
:041A32000D8B0EE525
:091A36000FC39EFEE5109FFFE5C1
:081A3F00119AFAE5129BFB8EDF
:041A47000F8F108A63
:041A4B00118B128E5B
:041A4F000B8F0C8A63
:041A53000D8B0EE504
:031A570017600411
:041A5A007A8080020C
:021A5E007A000C
:041A6000E516600423
:041A64007B40800241
:021A68007B0001
:0A1A6A00EB4A78AC46F6E51760047D
:041A74007A0480026E
:021A78007A00F2
:041A7A00E516600409
:041A7E007B04800263
:021A82007B00E7
:071A8400EB2AF582020807BE
:011A8B002238
:071A8C0075260075270075A7
:071A9300280090E67BE0F55E
:081A9A00257582041207E01219
:091AA20007FE7582001208078599
:031AAB000B2B857D
:031AAE000C2C8578
:031AB1000D2D8573
:031AB4000E2E856E
:031AB7002B0F856D
:031ABA002C108568
:031ABD002D118563
:031AC0002E12E5FE
:041AC3002B452C453E
:051AC7002D452E700307
:031ACC007527017A
:0C1ACF007407552BFAE4FDFBFC740325A2
:081ADB002BFBE4352CFCE43583
:071AE3002DFDE4352EFE8B02
:041AEA000B8C0C8DC8
:0A1AEE000DEEF50EC313FEED13FD1F
:0E1AF800EC13FCEB13FBEEC313FEED13FDEC41
:0A1B060013FCEB13FB8B0B8C0C8D12
:041B10000D8E0EE543
:031B140025600841
:041B170075291675A1
:041B1B002A16800600
:041B1F007529D575DA
:021B23002A1581
:021B2500C2B448
:041B2700E527600747
:071B2B00E5286003021D28FC
:0B1B3200C002120772D002E50A603406
:051B3D007401B50A105F
:041B4200E528700C16
:0C1B4600752801C0021207FED002801FAB
:051B52007402B50A1445
:0B1B5700C0021207FED002E527700F4D
:091B620078AC76027527018006BB
:061B6B00752800021D2890
:051B7100E5AA20E0B12F
:041B7600E5256005FC
:051B7A00E5AA20E5A82A
:041B7F00E52770A442
:071B83007D007EF08E9A7DCB
:081B8A00007EF07E008D9BE55A
:031B9200256012B9
:041B9500E526700EC3
:071B99007D007EF88E9D7DAA
:071BA000007EF87E008D9E1F
:0E1BA70090E690E0FD8D067D0090E691E0FF57
:0A1BB5007B002DF508EB3EF509ABAF
:071BBF0008AC09E4FDFEE59E
:091BC6000BC39BFBE50C9CFCE544
:081BCF000D9DFDE50E9EFE8B4D
:041BD7000B8C0C8DDA
:061BDB000D8E0EEA602CE5
:051BE100E50B450C4579
:051BE6000D450E702208
:0E1BEB008A03FC74032BFBE43CFCA2E713CB43
:0C1BF90013CBA2E713CB13CBFCE508C311
:071C05009BF508E5099CF5C1
:011C0C0009CE
:061C0D00E5084509600D29
:091C1300C002852982852A831292
:041C1C00006BD00287
:061C2000EA7003021CA59E
:051C2600E50B450C4533
:051C2B000D450E70756F
:091C30007B0090E67BE0FC7D00E6
:051C3900C3ED9A5023E9
:031C3E00BD0405DD
:051C410090E67BE0FCD1
:0E1C4600ECA2E092B2C313FCA2E092B3C3136F
:061C5400FCEBA2B013FB43
:071C5A00D2B4C2B40D80D822
:041C6100E525601CF9
:0E1C65008A047D007408C39CFCE49DFD8CF095
:051C730005F0EB80020A
:021C7800C31394
:071C7A00D5F0FB90E67CF0C1
:0E1C81008A037C0074032BFBE43CFCA2E713F7
:0C1C8F00CB13CBA2E713CB13CBFCEB254F
:051C9B0008F508EC351E
:051CA00009F5097A00BE
:041CA500E52560636E
:051CA900E50B450C45B0
:051CAE000D450E60046D
:041CB300E526605270
:071CB7000508E4B508020571
:011CBE00091C
:081CBF00E509C313C50813C5B4
:041CC70008F509E52E
:031CCB002660246C
:081CCE0090E680E0FB30E70620
:061CD6007B007C0280048B
:041CDC007B407C00CD
:0C1CE000ECA2E713CB13CBFCEB2508F5BE
:051CEC0008EC3509F5CC
:011CF10009E9
:0A1CF20090E698E509F0000000906C
:091CFC00E699E508F0000000750E
:041D05002600800331
:031D09007526013B
:0C1D0C0090E6497482F0000000E50B45F1
:041D18000C450D4524
:061D1C000E6003021B270C
:061D2200752701021B27DA
:0C1D2800C0021208FA00120932D002E5D5
:041D340028700122F0
:0A1D3800E50B25E0FBE50C33FCE5AC
:0A1D42000D33FDE50E33FEEB2BFB25
:0C1D4C00EC33FCED33FDEE33FE8B0B8C12
:041D58000C8D0D8E53
:041D5C000EEA603DEE
:041D6000EA30E21D66
:051D6400AB0BAC0CAD5F
:0A1D69000DAE0E1BBBFF091CBCFFF2
:061D7300051DBDFF011E6D
:051D79008B0B8C0C8DAA
:031D7E000D8E0EB9
:0A1D8100E4FBFCFDEA250BFAEB354C
:081D8B000CFBEC350DFCED35FD
:051D93000EFD8A0B8B20
:041D98000C8C0D8D15
:011D9C000E38
:071D9D00E50FC3950BFAE509
:051DA40010950CFBE5A9
:051DA90011950DFCE5A1
:051DAE0012950EFD8AF4
:041DB3000F8B108CF6
:041DB700118D128AEE
:041DBB000B8B0C8CF6
:041DBF000D8D0EE593
:031DC30025700880
:051DC600F50FF510F51A
:031DCB0011F512FD
:0C1DCE0078ACE644C0F6758208020807F5
:011DDA0022E6
:052C9D0001020000002F
:052CA20001000000002C
:052CA700010000000027
:0A1DDB00C28CC28D78AD868A78AD07
:031DE50008868CE1
:011DE80022D8
:071DE90078AAB60202806037
:071DF00078ABB60002801180
:0B1DF7001207FE78AC760C758200121B
:061E0200080775820122B1
:051E080078AAE6701F3E
:061E0D00789FE630E211AF
:0B1E13001207FE78AC76037582001207
:061E1E0008077582012295
:081E2400789FE64404F68024D7
:051E2C0078AAB60108D0
:081E3100789FE654FBF68017D0
:061E3900789FE620E21193
:0B1E3F001207FE78AC760475820012DA
:061E4A0008077582012269
:0A1E500078AAE624F85003021F3AB6
:0A1E5A0078AAE625E026901E6473C6
:071E6400021E7C021E7C023D
:061E6B001E8E021E9B0208
:061E71001F20021F2802E1
:051E77001F30021F35C1
:0C1E7C001207FE78ADE4F608F67582004F
:061E8800120807021F3ED4
:0D1E8E00902CB175F080120896758201222B
:0A1E9B007582041207E01207FE75BD
:061EA50041FAE4F542F5EC
:041EAB0043F5448532
:061EAF000B82850C838507
:051EB5000DF0E50E1226
:0C1EBA002B2AAA82AB83ACF0FD8A0B8BB4
:041EC6000C8C0D8DE6
:071ECA000EEC7003ED600C4B
:071ED100750BFF750CFF7596
:051ED8000D00750E0075
:091EDD00E50BF4FAE50CF4FBE559
:081EE6000DF4FCE50EF4FD789B
:081EEE00ADA60208A603850B56
:031EF60041850C17
:031EF90042850D12
:031EFC0043850E0D
:0C1EFF00449000FAE4F5F0122BA8AA822F
:0A1F0B00AB83ACF0FD8A0B8B0C8C4D
:071F15000D8D0E7582041210
:041F1C000807801E14
:081F20007582011222F6801601
:081F28007582001222F6800E02
:051F3000121FB2800940
:051F35001221318004BF
:041F3A00758200228A
:031F3E00758201A8
:011F4100227D
:0E1F420090E6F3E0FA4480F000000090E67BA9
:0C1F5000E0FA90E6F1F0000000021F92A1
:0E1F5C0090E6F3E0FA547FF000000090E67B80
:0C1F6A00E0FA90E6F1F0000000021F9287
:0B1F760090E6F1E0121F92E582600D82
:0D1F810090E6F2E0FA90E67CF07582012215
:031F8E0075820059
:011F9100222D
:051F9200121DDBD28CE2
:051F9700E5BB20E7039B
:031F9C00308DF88D
:051F9F00E5BB30E70482
:041FA400758201221F
:091FA80090E6F574FFF07582006B
:011FB100220D
:0A1FB200E4FAFBF508F50975820456
:0D1FBC00C002C0031207E0D00300C00312F2
:0D1FC90007FE758200120807D003D002AC9D
:041FD6000BAD0CAE95
:041FDA000DAF0E8CAD
:041FDE000F8D108EC5
:091FE200118F12EC4D4E4F7002FC
:021FEB007B0178
:031FED00EB6006A0
:061FF000EA60030220FD7F
:0D1FF600C002C003120772D003D002E4B590
:042003000A0280400D
:052007007401B50A128E
:03200C00EA700F68
:0E200F007A01C002C0031207FED003D0028087
:01201D002999
:05201E007402B50A1F69
:0E202300C002C0031207FED003D002EB7016FD
:0C20310090E6A37401F00000007B017831
:05203D00AC76028005F5
:052042007A000220FD00
:03204700EB70A398
:06204A00E5084509702ABB
:05205000E5AA20E025D7
:072055007C007DF08D9A7CF8
:08205C00007DF07D008C9B90DB
:0E206400E690E0FC8C057C0090E691E0FE7FAB
:08207200002CF508EF3DF50913
:07207A00E5084509700302AF
:022081001FED51
:0E208300C002C003121F42E582D003D00270DB
:012091000648
:0620920078AC76058052D7
:0E209800C002C003121F5CE582D003D00270AC
:0120A6000633
:0620A70078AC7606803DD6
:0720AD00E50824FEF508E53B
:0620B4000934FFF509AC40
:0420BA000BAD0CAEB0
:0A20BE000DAF0E1CBCFF091DBDFF95
:0620C800051EBEFF011F12
:0520CE008C0B8D0C8E4F
:0920D3000D8F0EEC4D4E4F700212
:0220DC007B0186
:0620DE00E508450970064B
:0620E40090E6497482F051
:0820EA0078ACB60003021FED03
:0B20F2007B0190E6A37401F0021FEDDB
:0A20FD00C0021208FAD002EA6029BE
:07210700E50FC3950BFAE59B
:05210E0010950CFBE53B
:0521130011950DFCE533
:0521180012950EFD8A86
:04211D000B8B0C8C90
:042121000D8D0E789A
:0B212500ACE64480F675820402080757
:01213000228C
:0A213100E4FAFBF508F509758204D5
:0D213B00C002C0031207E0D00300C0031271
:0D21480007FE758200120807D003D002AC1C
:042155000BAD0CAE14
:042159000DAF0E8C2C
:04215D000F8D108E44
:09216100118F12EC4D4E4F70027B
:02216A007B01F7
:03216C00EB60061F
:06216F00EA60030222B643
:0D217500C002C003120772D003D002E4B50F
:042182000A02804687
:052186007401B50A120E
:03218B00EA700FE8
:0E218E007A01C002C0031207FED003D0028007
:01219C002F13
:05219D007402B50A25E3
:0E21A200C002C0031207FED003D002EB701C77
:0E21B00090E6A37401F000000090E6A5740113
:0921BE00F07B0178AC760280058B
:0521C7007A000222B6BF
:0321CC00EB709D18
:0621CF00E5084509703D22
:0521D500E5AA20E0383E
:0521DA00E5AA20E53339
:0721DF007C007DF08D9A7C6D
:0821E600007DF07D008C9B7C64
:0621EE00007DF88D9D7CD0
:0821F400007DF87D008C9E9037
:0E21FC00E690E0FC8C057C0090E691E0FE7F12
:08220A00002CF508EF3DF50979
:07221200E508450970030215
:02221900216C36
:0E221B00C002C003121F42E582D003D0027041
:0122290006AE
:06222A0078AC7605806A25
:0E223000C002C003121F76E582D003D00270F8
:01223E000699
:06223F0078AC7606805524
:08224500150874FFB50802152D
:01224D000987
:05224E00AC0BAD0CAE6D
:0A2253000DAF0E1CBCFF091DBDFFFE
:06225D00051EBEFF011F7B
:052263008C0B8D0C8EB8
:092268000D8F0EEC4D4E4F70027B
:022271007B01EF
:06227300E5084509702199
:0D22790090E690E0FC90E698F000000090E8
:0C228600E691E0FC90E699F0000000906A
:08229200E6497482F00000002F
:08229A0078ACB6000302216CD0
:0E22A20090E6A37401F000000090E6A5740120
:0622B000F07B0102216C2D
:0E22B600C0021208FA00120932D002EA6031AA
:0722C400E50FC3950BFAE5DD
:0522CB0010950CFBE57D
:0522D00011950DFCE575
:0522D50012950EFD8AC8
:0422DA000F8B108CCA
:0422DE00118D128AC2
:0422E2000B8B0C8CCA
:0422E6000D8D0E78D4
:0B22EA00ACE644C0F67582080208074D
:0122F50022C6
:0C22F60085822F7B007C00C003C0041216
:0A2302001F42E582D004D003700DE5
:0B230C001207FE78AC76057582000217
:022317000807B5
:0E231900758204C003C0041207E0D00400C0A7
:0B232700041207FED004D003E50B45B4
:042332000C450D4504
:032336000E700224
:022339007C0125
:0A233B0090E6F574FFF090E6CEE5A1
:092345000EF000000090E6CFE567
:09234E000DF000000090E6D0E55E
:092357000CF000000090E6D1E555
:0C2360000BF0C003C004121DDBD004D041
:0A236C000390E6D1E0FDE52F601CB0
:0E23760090E6187410F000000090E6D274019A
:07238400F0000000EC7031D5
:07238B00F5BB000000802AF1
:0E239200C003C004C00512095DD005D004D000
:0E23A0000390E61A7408F000000090E6E27464
:0823AE0002F0000000EC7006D3
:0623B60075BB06000000EB
:0E23BC00758200C003C004C005120807D005DA
:0423CA00D004D00368
:0323CE00EC6006BA
:0623D100EB60030224CCC6
:0E23D700C003C004C005120772D005D004D0A8
:0723E50003E4B50A02806663
:0523EC007401B50A16A2
:0323F100EB70137B
:0E23F4007B01C003C004C0051207FED005D057
:0524020004D003804B33
:052407007402B50A4259
:0E240C00C003C004C0051207FED005D004D0E6
:04241A0003EC70342B
:05241E0078ACE670043B
:0424230078AC760219
:04242700E52F600835
:08242B0090E6A37401F08006A5
:0624330090E6A57401F023
:08243900000000E5BB20E709EB
:0924410000000090E6F574FFF0C4
:04244A007C0180048D
:04244E007B00807A15
:05245200E5BB20E75D81
:0A24570090E6D1E0FEB50502801208
:0E246100C003C004121DDBD004D00390E6D1EE
:04246F00E0FD8024E8
:03247300308D2188
:0824760078AC7606E52F600842
:08247E0090E6A37401F0800652
:0624860090E6A57401F0D0
:0B248C007C0100000090E6F574FFF0FA
:04249700E52F6005C8
:05249B00E5AA30E00F8E
:0724A000E52F60030223CECB
:0824A700E5AA30E5030223CE93
:0524AF00D28C0223CED7
:0624B400EC60030223CEE0
:0424BA00E52F700991
:0924BE0090E6487406F0000000ED
:0524C7007C010223CEA0
:0E24CC00C0031208FA00120932D003EB7001AF
:0124DA0022DF
:0C24DB0090E6CEE0FB7C007D007E008BD4
:0524E7003375300075A3
:0624EC0031007532009082
:0E24F200E6CFE0FF7A007B008A048F03E4FA55
:08250000FF4230EA4231EB42D8
:0525080032EC423390AB
:0E250D00E6D0E0FD7E007A008A038E028D0685
:09251B00E4FD4230EE4231EA42D7
:0525240032EB42339090
:0C252900E6D1E0FCE4FFFAFBE5304204E0
:09253500E5314207E5324202E5FE
:09253E00334203E50BC39CFCE5EC
:082547000C9FFFE50D9AFAE577
:06254F000E9BFB8C0B8FBC
:042555000C8A0D8B54
:052559000EE52F6004F7
:04255E007A808002FD
:022562007A40BD
:0B25640078ACEA46F675820402080716
:01256F002249
:052CAC00010200000020
:052CB10001000000001D
:052CB600010000000018
:0D25700090E60174FAF090E6F574FFF0902B
:0A257D002D5FE493FA90E6F3F0906E
:0A2587002D60E493FA90E6C3F09093
:0A2591002D61E493FA90E6C1F0908A
:0A259B002D62E493FA90E6C2F0907E
:0A25A5002D64E493FA90E6C0F09074
:0D25AF002D65E493FA90E6F4F075AF077A1D
:0625BC00BB7B2C8B9A7A18
:0A25C200BB7B2C7B008A9B759DE417
:0525CC00759E007A007D
:0325D100BA8000CD
:0225D400500CA9
:0C25D60090E67BE0FB90E67CF00A80EFD2
:0E25E20090E67174FFF075B4FF90E672E0FAB7
:0E25F0004480F043B68000000090E6C4E4F0A2
:0E25FE0000000090E6C5E4F0902D3BE493FA57
:0B260C0090E6C6F0902D3CE493FA909D
:0A261700E6C7F0902D3DE493FA9021
:0A262100E6C8F0902D3EE493FA9015
:0A262B00E6C9F0902D3FE493FA9009
:0A263500E6CAF0902D40E493FA90FD
:0A263F00E6CBF0902D41E493FA90F1
:0A264900E6CCF0902D42E493FA90E5
:03265300E6CDF0E1
:012656002261
:0E2CBB0081B901010101010723030202020297
:0E2CC9000200F7F5F5F5F5F5F5F7000000004F
:0E2CD7000000003F0C8A9A3FA5B53F0721037D
:0E2CE500030103030500F3F3F2F3F3F1F3F739
:0E2CF3003F0000000000003F81913801010108
:0E2D010001070101070202020200F7F5F7F7D1
:0E2D0F00F7F7F7F7000075000000003F819114
:0E2D1D0038010101010703030500000000005A
:0E2D2B00F3F1F3F3F3F3F3F700006E00000092
:022D3900003F59
:0E2D3B0000000000000000000000000000008A
:0E2D490000000000000000000000000000007C
:082D5700000000000000000074
:072D5F00E08000F7FA4E00CE
:0726570078AAB602028060C0
:07265E0078ABB60002801109
:0B2665001207FE78AC760C75820012A4
:062670000807758201223B
:0526760078AAE6701FC8
:06267B00789FE630E31138
:0B2681001207FE78AC76037582001291
:06268C000807758201221F
:08269200789FE64408F680245D
:05269A0078AAB601085A
:08269F00789FE654F7F680175E
:0626A700789FE620E3111C
:0B26AD001207FE78AC76047582001264
:0626B800080775820122F3
:0726BE0078AAE624FB403B73
:0A26C50078AAE625E0269026CF73E0
:0726CF000226DE0226DE02F6
:0626D60026E90226F602CF
:0226DC0026FBDB
:0B26DE001207FE758200120807801B27
:0D26E900902D7075F0801208967582012208
:0526F600122708800915
:0526FB00122A218004F9
:0427000075820022BC
:03270400758201DA
:0127070022AF
:072708007534007535007502
:09270F0036007582081207E01281
:0B27180007FE758200120807C28090C7
:0E272300E618E4F000000090E61AE4F0000072
:0E2731000090E6027468F000000090E630E4CC
:0E273F00F000000090E631E4F090E680E0FD4E
:03274D0030E7066C
:062750007D007E02800402
:042756007D407E0044
:05275A008D378E38AF41
:04275F000FAB10AA02
:0427630011AC12851E
:032767003739857A
:03276A00383A7585
:08276D003B00753C00C3EF9531
:0627750039EB953AEA95EC
:06277B003BEC953C502CE4
:052781008F378B38AD1D
:0C2786003890E63474C04DF00000009064
:07279200E635E537F0E4F540
:0427990008F50975C1
:06279D003501750F007507
:0627A30010007511007525
:0427A9001200807228
:0827AD0090E680E0FD30E71327
:0E27B50090E63474C8F000000090E635E4F0C1
:0527C30000000080127F
:0E27C80090E63474C0F000000090E6357440D6
:0427D600F00000000F
:0A27DA00EFC39539FFEB953AFBEAD7
:0827E400953BFAEC953CFC8FDB
:0427EC000F8B108AB5
:0427F000118C1285B1
:0327F4000F3D8511
:0327F700103E850C
:0327FA00113F8507
:0527FD001240C3EF953E
:0628020039EB953AEA955E
:062808003BEC953C500B77
:04280E00853D088577
:032812003E097507
:042815003501800603
:042819008537088572
:02281D00380978
:0A281F0090E601E0FA4403F0D287CE
:04282900E536600729
:07282D00E534600302299F5E
:07283400120772E50A602E95
:05283B007401B50A0C58
:04284000E534700803
:082844001207FE753401801D2E
:05284C007402B50A1240
:072851001207FEE5367011CD
:0A285800C28778AC76027536018065
:01286200066F
:0628630075340002299FFC
:04286900E53670BC24
:05286D00E5AA20E0587F
:0E28720090E690E0FA8A037A00EB3395E0FCE2
:08288000FDE50BC39AF53DE5EF
:052888000C9BF53EE58C
:05288D000D9CF53FE584
:052892000E9DF54085DC
:032897003D0B8571
:03289A003E0C856C
:03289D003F0D8567
:0328A000400E9057
:0C28A300E691E0FEE4FFFAFBE53DC39E79
:0A28AF00FEE53E9FFFE53F9AFAE5C3
:0628B900409BFB8E0B8F1B
:0428BF000C8A0D8BE7
:0728C3000E90E6497402F0DB
:0B28CA0090E6A9E0FA20E20302297664
:0E28D50090E6A5E0FA530270BA3003022976AD
:0428E300E535601562
:0C28E700AA0990E63474C04AF00000001A
:0928F30090E635E508F000000054
:0A28FC0090E698E538F00000009027
:09290600E699E537F000000085B8
:03290F0008378501
:032912000938E59C
:05291500084509605CAB
:08291A00AA08AB09E4FCFDE58D
:092922000FC39AFAE5109BFBE5D6
:08292B00119CFCE5129DFD8AE0
:042933000F8B108C6A
:04293700118D128567
:03293B000F3D85C8
:03293E00103E85C3
:03294100113F85BE
:03294400124090AE
:07294700E680E0FE30E70628
:06294E007E007F02800400
:042954007E407F0042
:0B295800EF3395E0FAFBC3E53D9EE580
:062963003E9FE53F9AE5EE
:04296900409B500936
:04296D00850F088545
:03297100100975D5
:0229740035012B
:07297600E53745386003025C
:02297D00282907
:0B297F0090E6A7E0FA20E203022829FE
:05298A00E50B450C45C2
:06298F000D450E6003027D
:022995002829EF
:08299700753601C287022829F0
:0E299F00C28790E601E054FEF0E0FA4402F038
:0729AD001208FA120932E5DD
:0329B40034606725
:0529B70078ACE6705C45
:0729BC0090E6ACE0FA701197
:0729C30090E6ABE0FA700A98
:0529CA00E50B450C4582
:0529CF000D450E60261D
:0629D400E53745386006FE
:0629DA0078AC760A80389B
:0729E00090E6B0E0FA700779
:0729E70090E6AFE0FA600684
:0629EE0078AC760B80249A
:0629F40078AC7607801E9E
:0629FA00E53745386006D8
:062A000078AC760880129C
:072A060090E6AFE0FA700753
:072A0D0090E6B0E0FA60045E
:042A140078AC76091B
:062A1800758200120807A0
:022A1E00D28064
:012A20002293
:0D2A21007A007B007C00C002C003C00412DC
:0E2A2E0007FE758200120807D004D003D00204
:0E2A3C00C28090E6187410F000000090E61AB8
:0D2A4A007408F0000000C002C003C00412B8
:0E2A5700095DD004D003D00290E60274E8F0CE
:0E2A650000000090E601E0FD4403F0D28790EF
:0C2A7300E630E4F000000090E631E4F0F2
:032A7F00EA600307
:032A8200EB706393
:0E2A8500C002C003C004120772D004D003D0F8
:052A930002E50A603CB1
:052A98007401B50A16EF
:032A9D00EA7013C9
:0E2AA0007A01C002C003C0041207FED004D0A9
:052AAE0003D0028021AD
:052AB3007402B50A18D1
:0E2AB800C002C003C0041207FED004D003D039
:042AC60002EB700AA5
:062ACA007C017B01800489
:042AD0007A008014F4
:032AD400EB70A8FC
:032AD700EA60A50D
:082ADA0090E6A7E0FD30E29D4B
:062AE2007B01C287809712
:0E2AE800C28790E601E054FEF0E0FB4402F0ED
:0D2AF600C002C0041208FAD00400C004128F
:092B03000932D004D002EA601B83
:032B0C00EC701258
:072B0F0090E6ABE0FA70074D
:072B160090E6ACE0FA600458
:042B1D0078AC760713
:062B210075820012080796
:022B2700D2805A
:012B29002289
:052D6600010200000065
:052D6B00010000000062
:052D700001000000005D
:0EE10000120100020000004043140500000060
:04E10E000102000109
:0AE112000A060002000000400100B0
:0EE11C0009022E0001010080FA09040000042F
:0EE12A00FF000000070501024000000705810C
:0EE138000240000007050202000200070586F3
:04E1460002000200D1
:0EE14A0009022E0001010080FA090400000401
:0EE15800FF00000007050102400000070581DE
:0EE16600024000000705020240000007058687
:04E174000240000065
:02E178000000A5
:093F00000205A8000205DC000224
:083F090005C60002064000029B
:083F110005F20002065E000249
:083F190006B8000206B8000220
:083F210006B8000206B8000218
:083F290006B8000206B8000210
:083F310006B8000206B8000208
:083F390006B8000206B8000200
:083F410006B8000206B80002F8
:083F490006B8000206B80002F0
:083F510006B8000206B80002E8
:083F590006B8000206B80002E0
:083F610006B8000206B80002D8
:083F690006B8000206B80002D0
:083F710006B8000206B80002C8
:083F790006B8000206B80002C0
:083F810006B8000206B80002B8
:083F890006B8000206B80002B0
:083F910006B8000206B80002A8
:083F990006B8000206B80002A0
:083FA10006B8000206B8000298
:083FA90006B8000206B8000290
:073FB10006B8000206B8008B
:082B2A00FB7A20E4FCFDFEFF34
:0E2B3200E5822582F582E58333F583E5F033F5
:0B2B4000F5F0EB33FB4017DAE98042B0
:0E2B4B00E5822582F582E58333F583E5F033DC
:052B5900F5F0EB33FB79
:0E2B5E00EC33FCED33FDEE33FEEF33FFEC9570
:062B6C0041ED9542EE95DB
:082B720043EF95444013EC957C
:082B7A0041FCED9542FDEE95D2
:092B820043FEEF9544FF4382017C
:022B8B00DABEB0
:022B8D00EB2239
:06009C00E478FFF6D8FD38
:08007A007900E94400601B7AE3
:0500820000902D7578CF
:030087000075A061
:0A008A00E0E493F2A308B8000205B9
:08009400A0D9F4DAF275A0FF17
:0E2B8F0020F71030F6118883A88220F507F693
:052B9D00A88375830010
:012BA2002210
:032BA300F280F7C6
:022BA600F0221B
:0C2BA800AAF0FBE5828541F0A4FCADF032
:0C2BB400E5838541F0A42DFDE435F0FE22
:0C2BC000E5828542F0A42DFDE5F03EFE0C
:0C2BCC00E433FFEA8541F0A42EFEE5F0A2
:0C2BD8003FFFE5838542F0A42EFEE5F0EF
:0C2BE4003FFFE5828543F0A42EFEE5F0E3
:0B2BF0003FFFEB8541F0A42FFFEA85BA
:0A2BFB0042F0A42FFFE5838543F0AC
:0C2C0500A42FFFE5828544F0A42F8EF080
:052C11008D838C82227E
:0400A20075A00078CD
:0700A60000E8440060077947
:0600AD0000E4F309D8FC99
:0800B3007800E84400600C79BC
:0B00BB000090E000E4F0A3D8FCD9FAAC
:02006B00E4733C
:03006D0075814456
:0A007000122C32E5826003020066E4
:0E2C160020F71430F6148883A88220F507E614
:062C2400A8837583002265
:032C2A00E280F74E
:032C2D00E493220B
:022C3000E022A0
:042C32007582002285
:00000001FF
