:0400000002006D325B
:01000B0032C2
:0100130032BA
:01001B0032B2
:0100230032AA
:01002B0032A2
:030033000206B70B
:01003B003292
:03004300021F0099
:01004B003282
:03005300021F0089
:01005B003272
:030063000206BBD7
:0300EA00020066AB
:050066001200ED80FE18
:0900ED007881760078807600909D
:0E00F600E60B7403F000000000000090E6002E
:0E0104007410F075802075B2EF75900075B321
:0E011200FF75B00075B5FF90E67AE0FA440183
:0B012000F090E60174E0F01202759010
:0E012B00E6097403F000000075890100000071
:06013900788276000876D2
:04013F00E178847669
:05014300120876E178CE
:0501480086761C08761C
:04014D00E178887657
:0A0151004A0876E1D2E843D8209076
:0E015B00E668E0FA4409F090E65CE0FA443D04
:0E016900F090E682E4F0D2AF90E680E0FA5427
:05017700F7F0538EF8C3
:08017C001201BE789EE6600747
:0701840012019A789E76003B
:05018B007881E660042C
:0401900078817600FC
:050194001206BB80E330
:010199002243
:0A019A0090E680E0FA440AF07A00D3
:0201A400DAFE81
:0E01A60090E65D74FFF090E65F74FFF05391F9
:0901B400EF90E680E0FA54F7F048
:0101BD00221F
:0601BE007880E6700122CA
:0501C400AA08AB097858
:0901C90096A60208A603788EA692
:0601D2000B08A60C08A6B4
:0501D8000D08A60E78E1
:0501DD0092A60F08A628
:0601E2001008A61108A69A
:0601E800127898A69B7836
:0801EE0099A69A789AA69E7862
:0A01F6009BA69D1202F7E582700837
:0802000090E6A0E0FA4401F0D1
:0C02080090E6A0E0FA4480F078807600D8
:06021400789686080886BA
:0A021A0009788E8602088603088624
:09022400040886058A0B8B0C8C82
:04022D000D8D0E78AD
:0C023100928602088603088604088605F1
:05023D008A0F8B108CFC
:04024200118D127890
:0802460098869B7899869A784E
:07024E009A869E789B869DB5
:010255002286
:0E02560090E6837401F07421F07411F074319D
:0E026400F090E6837402F07422F07416F074C9
:0202720036F064
:010274002267
:0E02750090E610E4F000000090E611E4F000C6
:0E028300000090E612E4F000000090E613E4A4
:0D029100F000000090E614E4F00000009082
:0E029E00E615E4F000000090E618E4F0000021
:0E02AC000090E619E4F000000090E61AE4F07D
:0E02BA0000000090E61BE4F000000090E6104B
:0E02C80074A0F000000090E61174A0F0000099
:0E02D6000090E61274A0F000000090E6147490
:0E02E400E0F000000090E68DE4F00000001253
:0502F20009210208E9EA
:0C02F70090E6B9E0FA24F450030205A4DC
:07030300EA2A2A90030A73A5
:07030A000203F102047B0273
:0603110005A4020529020B
:0603170005A40205A4028A
:06031D00032E0205A402FC
:0603230003DC0203CA0224
:0503290003A30203B86C
:0A032E0090E6BBE0FABA0102800F6E
:05033800BA0202802062
:05033D00BA0602803148
:05034200BA075A8042D9
:09034700788290E6B308E6F07834
:0B0350008286027B0090E6B4EAF00217
:02035B0005A7F4
:09035D00788A90E6B308E6F07816
:0B0366008A86027B0090E6B4EAF002F9
:0203710005A7DE
:09037300788490E6B308E6F07806
:0B037C008486027B0090E6B4EAF002E9
:0203870005A7C8
:09038900788C90E6B308E6F078E8
:0B0392008C86027B0090E6B4EAF002CB
:02039D0005A7B2
:04039F007582002241
:0803A30090E740789DE6F09020
:0B03AB00E68AE4F090E68B7401F0029B
:0203B60005A799
:0A03B80090E6BAE0FA789DA6021262
:0603C20002751202560252
:0203C80005A787
:0A03CA0090E6BAE0FA789CA6021251
:0603D40002751202560240
:0203DA0005A775
:0803DC0090E740789CE6F090E8
:0B03E400E68AE4F090E68B7401F00262
:0203EF0005A760
:0A03F10090E6B8E0FABA8002800A34
:0503FB00BA8102801B25
:05040000BA8274802C9B
:0A04050090E740E4F090E741F0902A
:0A040F00E68AF090E68B7402F0021A
:0204190005A735
:0A041B0090E740E4F090E741F09014
:0A042500E68AF090E68B7402F00204
:02042F0005A71F
:0E04310090E6BCE0FA53027E90E6BCE0FBC30E
:0E043F0074809BE433FB4A901C4C93FA339577
:0E044D00E0FB74A12AFA74E63BFB8A828B83E3
:0E045B00E0FA53020190E740EAF090E741E436
:0C046900F090E68AF090E68B7402F0023E
:0204750005A7D9
:040477007582002268
:07047B0090E6B8E0FA60080A
:05048200BA0202801225
:0304870002052546
:0B048A0090E6BAE0FABA01030205A7F1
:04049500758200224A
:0904990090E6BAE06003020521BF
:0E04A20090E6BCE0FA53027E90E6BCE0FBC39D
:0E04B00074809BE433FB4A901C4C93FA339506
:0E04BE00E0FB74A12AFA74E63BFB90E6BCE07A
:0E04CC00FC53047E90E6BCE0FDC374809DE40A
:0E04DA0033FD4C901C4C93FC3395E0FD74A157
:0E04E8002CFC74E63DFD8C828D83E0FC5304F9
:0E04F600FE8A828B83ECF090E6BCE05480FA24
:0E050400C423541FFA90E6BCE0FB740F5B901A
:0D051200E6832AF090E683E0FA4420F00230
:02051F0005A72E
:0405210075820022BD
:0405250075820022B9
:0705290090E6B8E0FA60055E
:05053000BA026D800E0F
:0A05350090E6BAE0FABA020280680C
:04053F00758200229F
:0E05430090E6BCE0FA53027E90E6BCE0FBC3FB
:0E05510074809BE433FB4A901C4C93FA339564
:0E055F00E0FB74A12AFA74E63BFB90E6BCE0D8
:0E056D00FC53047E90E6BCE0FDC374809DE468
:0E057B0033FD4C901C4C93FC3395E0FD74A1B5
:0E0589002CFC74E63DFD8C828D83E0FC430467
:09059700018A828B83ECF08007DD
:0405A000758200223E
:0305A400020A78D0
:0305A70075820159
:0105AA00222E
:0C05AB00C0E0C082C083C00078807601F0
:0905B7005391EF90E65D7401F030
:0905C000D000D083D082D0E032DB
:0E05C900C0E0C082C0835391EF90E65D7404E1
:0105D700F033
:0705D800D083D082D0E03295
:0E05DF00C0E0C082C0835391EF90E65D7402CD
:0105ED00F01D
:0705EE00D083D082D0E0327F
:0D05F500C0E0C082C083C002C003C0007817
:0A060200888602088603788AA602A3
:0C060C0008A6038A828B83A37402F07896
:0A061800868602088603788CA6028D
:0E06220008A6038A828B83A37407F05391EF1E
:0606300090E65D7410F07D
:0D063600D000D003D002D083D082D0E032BB
:0C064300C0E0C082C083C0007881760156
:09064F005391EF90E65D7408F090
:09065800D000D083D082D0E03242
:0D066100C0E0C082C083C002C003C0009092
:07066E00E680E0FA30E72C02
:0A06750078868602088603788AA6BC
:0D067F000208A6038A828B83A37402F07820
:0A068C00888602088603788CA60217
:0B06960008A6038A828B83A37407F080
:0906A1005391EF90E65D7420F026
:0D06AA00D000D003D002D083D082D0E03247
:0306B70053D8EF26
:0106BA00320D
:051C470001F7000000A0
:0A1C4C000001020203030404050571
:0A00C600789E7600789FE4F608F6B5
:0C00D00008F608F678A3E4F608F608F637
:0800DC0008F678A7E4F608F627
:0706BB001206F9E58260144C
:0706C2001206D7E582700D5E
:0B06C9001207ED78AC7601758200028C
:0206D40007F627
:0106D6002201
:0706D70078A9B60002800EB5
:0706DE0078A9B60102800AB1
:0706E50078A9B6060B8006A0
:0306EC000209817F
:0306EF000209E518
:0306F2000210FFF4
:0306F5007582000B
:0106F80022DF
:0506F900E5BA30E10448
:0406FE0075820022DF
:0707020078AC76007A807BE1
:06070900E78B9A7A807B69
:0C070F00E77B008A9B90E67BE0FA7B0011
:05071B000ABA00010B09
:0E07200090E68DE0FC7D00EAB50406EBB50521
:03072E0002801135
:0B0731001207ED78AC76017582001213
:06073C0007F675820022A1
:0A07420090E67BE0FA78A9A6029089
:09074C00E67BE0FA78AAA602900F
:0B075500E67BE0FA78ABA6027582019B
:010760002276
:080761001201BEE5BA30E1040B
:04076900750A0022EB
:0C076D0090E780E0FA7B000ABA00010B64
:0E07790090E68DE0FC7D00EAB50406EBB505C8
:03078700028011DC
:0B078A001207ED78AC760175820012BA
:0607950007F6750AFF22C1
:0B079B0090E781E0FA78A9E6B50213B0
:0C07A60090E782E0FA78AA748046FBEA33
:0307B200B5030488
:0407B500750A01229E
:0607B90090E781E0700CE6
:0807BF0090E782E0FABA02049F
:0407C700750A02228B
:0307CB00750AFFAD
:0107CE002208
:0807CF00AA827B0B7C007D4037
:0E07D70090E67BE0FE8B828C838DF0121C0E70
:0707E500A3AB82AC83DAEB49
:0107EC0022EA
:0807ED0090E68DE4F00000002D
:0107F50022E1
:0707F600AA82E5BA30E2011E
:0107FD0022D9
:0707FE007BC07CE78C9D7BB2
:08080500C07CE77C008B9E9093
:08080D00E67CEA04F078AC90EF
:07081500E67CE6F07B0B7CA2
:05081C00007D408A068A
:03082100EE60176F
:0E0824008B828C838DF0121C27FFA3AB82AC5D
:090832008390E67CEFF01E80E6E5
:0A083B0090E68F74022AF00000001E
:010845002290
:07084600AA82E5BA30E201CD
:01084D002288
:07084E007BC07CE78C9D7B61
:08085500C07CE77C008B9E9043
:08085D00E67CEA04F078AC909F
:04086500E67CE6F057
:01086900226C
:05086A00E5BA30E201D7
:01086F002266
:0808700090E7C178ACE6F090BE
:0C087800E7C0E0FA90E68F04F0000000FA
:010884002251
:0E088500AA82AB83ACF090E67BE0FDC002C01F
:0E08930003C004C0051207EDD005D004D00349
:0708A100D002E5BA30E201CC
:0108A800222D
:0708A9007EC07FE78F9D7EFA
:0808B000C07FE77F008E9E90DF
:0C08B800E67CED04F090E67CE4F08D0698
:0308C400EE6017CC
:0E08C7008A828B838CF0121C27FFA3AA82ABBF
:0908D5008390E67CEFF01E80E642
:0A08DE0090E68F74022DF000000078
:0108E80022ED
:0E08E90090E618E4F000000090E6047480F041
:0E08F70000000090E6047402F00000007A0495
:0B09050090E6497482F0000000DAF573
:0E09100090E604E4F000000090E6A3E4F0009E
:02091E000000D7
:0109200022B4
:0E09210090E61AE4F000000090E6047480F006
:0D092F0000000090E6047406F00000009047
:0E093C00E604E4F000000090E6A5E4F0000000
:01094A0000AC
:01094B002289
:08094C0090E680E0FA30E706B6
:060954007A007B02800422
:04095A007A407B0064
:0E095E0090E624EBF000000090E680E0FA3016
:02096C00E7069C
:06096E007A007B02800408
:040974007A407B004A
:0809780090E625EAF000000002
:010980002254
:0709810078AAB6020280070C
:0709880078AAB603508005B8
:05098F001207ED804D90
:0A0994007582041207CF1207EDE58B
:08099E000BF4FAE50CF4FBE593
:0A09A6000DF4FCE50EF4FD747B2A4D
:0C09B000FAE43BFBE43CFCE43DFD8A0B58
:0509BC008B0C8C0D8D79
:0509C1000E121229785E
:0C09C6009FE4F608F608F608F612092176
:0B09D2001208E97582041207F6800489
:0409DD0075820022FD
:0309E1007582011B
:0109E40022F0
:0509E50078AAB602171C
:0709EA001207ED750B00750B
:0609F1000C00750D0075FD
:0A09F7000E007582041207F680045A
:040A010075820022D8
:030A0500758201F6
:010A080022CB
:0A0A0900AA82AB83E50845097001DD
:010A130022C0
:070A1400AC14BCE6028005F2
:050A1B008B05BDE63172
:080A20008A068B07AC13AD142C
:0E0A28008E028F038C828D83E0F88A828B838E
:060A3600F00EBE00010FEE
:050A3C000CBC00010DDF
:080A4100150874FFB508021549
:010A490009A3
:060A4A00E508450970D823
:010A50002283
:0C0A51008C9AAC137E008C9B8D9D7B006A
:050A5D008A9E020A63FD
:010A62002271
:080A6300A90890E67B058690CE
:040A6B00E67C05869A
:080A6F00E00586F00586D9F8C8
:010A7700225C
:0A0A780090E6B9E0FABAA202804A43
:050A8200BAA30280454B
:060A8700BAE103020D4D6F
:060A8D00BAE203020D2D88
:060A9300BAE303020D2D81
:060A9900BAE403020D0D9A
:060A9F00BAE503020D0D93
:060AA500BAE603020C1882
:060AAB00BAE703020C454E
:060AB100BAE803020C8DFF
:060AB700BAE903020CED98
:060ABD00BAEA03020CBCC2
:060AC300BAEB03020D6D09
:030AC900020D8D8E
:0B0ACC0090E6BAE0FAA3E0FB8A0B8B77
:0A0AD7000C90E6BEE0FAA3E0FB90ED
:090AE100E6B8E0FCBCC002800391
:030AEA00020B7D7F
:070AED00EA4B7003020D91BA
:080AF40090E6A0E0FC20E1F80F
:080AFC0090E6B9E0FCBCA21178
:0A0B0400750D00750E00C002C0035D
:070B0E0012102BD003D002EE
:090B1500C3EA9440EB9400500681
:060B1E008A0D8B0E80061B
:060B2400750D40750E0086
:080B2A0090E6B9E0FCBCA20D4D
:0D0B3200C002C003120F7ED003D002801A53
:040B3F00850D088593
:030B43000E099008
:040B4600E740850BF4
:030B4A0013850C04
:0C0B4D0014C002C003120A09D003D00239
:080B590090E68AE4F0AC0DAD5A
:080B61000E90E68BECF0EC2590
:070B69000BFEED350CFF8EC1
:0A0B70000B8F0CEAC39CFAEB9DFB0F
:030B7A00020AED7F
:0A0B7D0078A7E608467003020C1486
:0C0B870090E6BCE0FCA3E0FD78A7E6B51A
:090B9300040708E6B50502800222
:020B9C00807661
:080B9E0090E6B8E0FCBC406EDB
:070BA600EA4B7003020D9100
:090BAD0090E68AE4F090E68BF07A
:080BB60090E6A0E0FC20E1F84C
:0A0BBE0090E68BE0FC7D008C0D8DAD
:090BC8000E90E6B9E0FCBCA31F8D
:040BD100850D088501
:030BD5000E098581
:060BD8000B82850C837501
:030BDE001340754C
:070BE10014E7C002C003127B
:080BE8000A09D003D002800BC2
:0B0BF000C002C00312102BD003D00283
:060BFB00AC0DAD0EEC256F
:070C01000BFEED350CFF8E28
:0A0C08000B8F0CEAC39CFAEB9DFB76
:020C12008092CE
:040C140075820022C3
:0A0C180090E6B8E0FABAC0028003CB
:030C2200020D912F
:080C250090E6A0E0FA20E1F8DE
:0E0C2D0090E740740AF0A37403F090E68AE4A6
:0A0C3B00F090E68B7402F0020D91B8
:0A0C450090E6B8E0FABAC00280039E
:030C4F00020D9102
:080C520090E6A0E0FA20E1F8B1
:0E0C5A0090E7407410F0A3E4F0A3F0A3F09034
:0B0C6800E744E4F5F0121C0EA3E412B8
:0A0C73001C0EA3E4121C0EA3E412F1
:080C7D001C0E90E68AE4F090E1
:080C8500E68B7408F0020D91EA
:080C8D0090E6B8E0FABA40233A
:090C950090E68AE4F090E68BF091
:080C9E0090E6A0E0FA20E1F865
:0C0CA60090E740E0FAA3E0FB78A7A6026C
:060CB20008A603020D91EB
:040CB800758200221F
:080CBC0090E6B8E0FABA402509
:070CC40078A7E60846601E58
:0C0CCB0090E6BCE0FAA3E0FB78A7E6B5D9
:090CD700020708E6B503028002E1
:020CE00080078B
:070CE200789E7601020D91DE
:040CE90075820022EE
:070CED00750BF0750C3F755B
:060CF4000D04750E0075F1
:060CFA000FCD7510AB9058
:070D0000E6B8E0FABAC003F7
:030D0700020D9545
:030D0A00020EAE28
:070D0D00750BE0750C3F754A
:060D14000D0C750E0075C8
:060D1A000F7875105690E1
:070D2000E6B9E0FABAE403B2
:030D2700020D9525
:030D2A00020EAE08
:070D2D00750BC0750C3F754A
:060D34000D10750E0075A4
:060D3A000FCD7510AB9017
:070D4000E6B9E0FABAE20394
:030D4700020D9505
:030D4A00020EAEE8
:070D4D00750BA0750C3F754A
:060D54000D1C750E007578
:060D5A000FCD7510AB90F7
:070D6000E6B8E0FABAC00397
:030D6700020D95E5
:030D6A00020EAEC8
:070D6D00750BF8750C3F75D2
:060D74000D02750E007572
:060D7A000FCD7510AB90D7
:070D8000E6B8E0FABAC00377
:030D8700020D95C5
:030D8A00020EAEA8
:040D8D007582002249
:030D910075820167
:010D9400223C
:0C0D95007AFF90E6B8E0FBBBC0028004CF
:040DA1007582002235
:050DA500AB0DAC0E7562
:0A0DAA000D00750E00C002C003C06A
:0E0DB4000412102BD004D003D00274032BFBCA
:0A0DC200E43CFC8B0D8C0EC0021205
:0A0DCC000F7ED002E50D24FDFBE5CB
:070DD6000E34FFFC8B0D8CB5
:0B0DDD000E90E740E0FBA3E0FCEBB54C
:060DE8000F48ECB51044B9
:040DEE007A007B000C
:0A0DF2007403250DFCE4350EFD8BA3
:0A0DFC00067F00C3EE9CEF9D502C13
:0A0E0600EB2440F582E434E7F583A5
:0A0E1000E0FC2AFAEB2440FCE43475
:0A0E1A00E7FD74022B2440F582E48A
:0C0E240034E7F583E0FE8C828D83F00B38
:020E300080C080
:030E3200EA60640F
:040E3500850D08859A
:030E39000E09900F
:090E3C00E6B9E0FABAE1028034E3
:050E4500BAE202803D4D
:050E4A00BAE40280057E
:050E4F00BAE943801721
:020E54007A0022
:030E5600BA0C00D3
:020E5900503E09
:0A0E5B00EA2440F582E434E7F58351
:060E65007430F00A80EB7E
:050E6B0090E740751343
:030E70005B75149B
:060E73001C120A09802098
:050E790090E740751335
:030E7E005F751489
:060E81001C120A09801298
:050E870090E740751327
:030E8C007B75145F
:060E8F001C120A09800498
:040E95007582002240
:0C0E990090E68AE4F000000090E68BE593
:080EA5000DF000000075820150
:010EAD002222
:080EAE0090E6B8E0FABA401C1E
:070EB60078A7E6084660156D
:0C0EBD0090E6BCE0FAA3E0FB78A7E6B5E5
:090EC900020708E6B503028004EB
:040ED2007582002203
:090ED60090E68AE4F090E68BF04E
:080EDF0090E6A0E0FA20E1F822
:070EE70090E68AE0FA7014A6
:050EEE00AA0DAB0E90FF
:0E0EF300E68BE0FC7D00B50206EDB503028043
:010F010004EB
:040F020075820022D2
:060F06008A15AD158D06F1
:060F0C008E071EEF6025B8
:0C0F1200C002C00374022E2440FFE4342F
:090F1E00E7FCEE2440F582E43406
:0C0F2700E7F583E0FA8F828C83F0D003A2
:040F3300D00280D593
:080F370090E740E50FF0A3E58F
:050F3F0010F07C407E73
:0A0F4400E78E9A759B407C00740252
:030F4E002515FD69
:090F510090E67BE0FE2CFCDDF7CC
:0A0F5A00740225152440F582E434EA
:0C0F6400E7F583C3E49CFCF074032AFA58
:080F7000E43BFB8A0D8B0E121D
:050F7800102B75820141
:010F7D002251
:050F7E00E50DFA70040E
:040F83007582012250
:080F870090E678E0FB20E6F89B
:0C0F8F0090E6787480F090E67974A3F08E
:080F9B0090E678E0FB30E0F87D
:080FA30090E678E0FB20E27407
:080FAB0090E678E0FB30E16CF8
:030FB300BA010878
:080FB60090E678E0FB4420F016
:070FBE0090E679E07B407C26
:060FC500E78C9A7B407CE2
:050FCB00E77C008B9B98
:040FD000DA0280269B
:080FD40090E678E0FB30E0F844
:080FDC0090E678E0FB20E23B07
:030FE400BA010847
:080FE70090E678E0FB4420F0E5
:0B0FEF0090E679E0FB90E67BF080D6F6
:080FFA0090E678E0FA30E0F81F
:0810020090E678E0FA20E21507
:0E100A0090E678E0FA4440F090E679E0FA9043
:07101800E67BF07582012266
:0B101F0090E678E0FA4440F075820093
:01102A0022A3
:02102B00AA0D0C
:08102D0090E678E0FB20E6F8F4
:0C10350090E6787480F090E67974A2F0E8
:0810410090E678E0FB30E0F8D6
:0810490090E678E0FB20E26B69
:0810510090E678E0FB30E1635A
:03105900EA600E3C
:07105C007B407CE78C9A7BCE
:07106300407CE77C008B9B41
:02106A007B0207
:03106C00EA700324
:03106F00EB603BF8
:03107200EB60141C
:03107500BB0208B3
:0810780090E679E50CF080061A
:0610800090E679E50BF09B
:031086001B800AC2
:0A10890090E67BE0FC90E679F01A97
:0810930090E678E0FC30E0F883
:08109B0090E678E0FC20E21968
:0810A30090E678E0FC20E1C1B9
:0210AB00800FB4
:0E10AD0090E678E0FA4440F01210C875820117
:0110BB002212
:0B10BC0090E678E0FA4440F0758200F6
:0110C7002206
:0810C80090E678E0FA20E6F85A
:0E10D00090E678E0FA4480F090E67974A2F0A1
:0810DE0090E678E0FA30E0F83A
:0810E60090E678E0FA4440F0C6
:0810EE0090E678E0FA20E6F834
:0810F60090E678E0FA30E1D247
:0110FE0022CF
:051C560001F700000091
:041C5B000101103043
:0E1C5F004A5441472D555342204361626C6543
:0E1C6D00000000FDFDFDFD0000009F39B325C5
:0E1C7B0044436162557362000000FDFDFDFDF3
:021C8900000059
:0600E400751600751700FF
:0710FF0078AAB6020280602E
:0711060078ABB60002801176
:0B110D001207ED78AC760C7582001222
:0611180007F675820122BA
:05111E0078AAE6701F35
:06112300789FE630E411A4
:0B1129001207ED78AC7603758200120F
:0611340007F6758201229E
:08113A00789FE64410F68024C2
:0511420078AAB60108C7
:08114700789FE654EFF68017D3
:06114F00789FE620E41188
:0B1155001207ED78AC760475820012E2
:0611600007F67582012272
:0A11660078AAE624F7500302121ED7
:0A11700078AAE625E02690117A73B4
:07117A000211950211AB0206
:0611810011BB0211C802BF
:0611870011D20211DC028E
:06118D0011F302120A0238
:02119300121434
:07119500751600751700122A
:09119C0012221207ED7582001207
:0611A50007F6758201222D
:0A11AB001212291207ED75820012DE
:0611B50007F6758201221D
:0D11BB00901C8B75F0801208857582012252
:0A11C80012123B1212FC7582012284
:0A11D2001207ED1212FC75820122D3
:0B11DC0090E67BE0FAF582121352123D
:0C11E70007ED7582001207F675820122E8
:0B11F30090E67BE0FAF5821212301249
:0C11FE0007ED7582001207F675820122D1
:0A120A007582011213627582012241
:0A1214007582001213627582012238
:03121E00758200D6
:0112210022AA
:06122200C283D285C286E2
:0112280022A3
:06122900C283D285C286DB
:01122F00229C
:05123000E582FA6003F5
:03123500D285223D
:02123800C2856D
:01123A002291
:0A123B007582041207CF1207ED853B
:031245000B2885EE
:031248000C2985E9
:03124B000D2A85E4
:0A124E000E2B906BFF75F0DC7402AC
:0E125800121BA9AA82AB83ACF0FD0ABA0009F2
:091266000BBB00050CBC00010DDE
:05126F008A0B8B0C8CC2
:0A1274000D8D0EC374249AE49BE470
:05127E009CE49D40040A
:0412830075170022B9
:05128700AA0BAB0CAC4A
:0A128C000DAD0EC374579AE49BE405
:051296009CE49D4004F2
:04129B0075170122A0
:0E129F00EA24C0FAEB34FFFBEC34FFFCED3424
:0912AD00FFFD752818E4F529F590
:0A12B6002AF52B8A828B838CF0ED61
:0E12C000121BA9AA82AB83ACF0FD0ABA00098A
:0912CE000BBB00050CBC00010D76
:0512D7008A0B8B0C8C5A
:0412DC000D8D0E85E1
:0312E0000B1B8560
:0312E3000C1C855B
:0312E6000D1D8556
:0A12E9000E1EEB7006EC7003ED60C2
:0112F30004F6
:0412F4007517FF2249
:0312F800851B173C
:0112FB0022D0
:0412FC00E517700D75
:07130000750B56750C5875C2
:061307000D14F50E803FFD
:0C130D00E51775F018A4243FFAE435F051
:09131900FB8A28F5293395E0F563
:0A1322002AF52B906BFF75F0DC74C8
:0E132C0002121BA9AA82AB83ACF0FD0ABA0024
:0A133A00090BBB00050CBC00010DFF
:051344008A0B8B0C8CEC
:031349000D8D0EF9
:06134C007582040207F6A1
:0A135200AA8274075AF51630E10371
:03135C00D2862214
:02135F00C28644
:011361002269
:09136200AA82752000752100909B
:09136B00E67BE0FB90E67BE0F577
:041374001FEA600B01
:0813780075190190E67BE0F518
:031380001A800CC4
:0713830090E67BE0F5187510
:05138A001A01751900B5
:0E138F00758204C0031207CF001207ED7582AD
:09139D00001207F6D003AA0BAF01
:0413A6000CAE0DADCF
:0413AA000E8A0F8F09
:0413AE00108E118DFF
:0413B20012EB6004D6
:0413B600D28580025A
:0213BA00C285EA
:0713BC00E517600302146055
:0413C300E519603791
:0413C700E51A603390
:0513CB00E51630E217F9
:0513D000E51630E00904
:0413D5007522017507
:0313D900231702D5
:0213DC00148D6E
:0413DE00752260759F
:0313E200231702CC
:0213E500148D65
:0513E700E51630E009ED
:0413EC0075224375AE
:0313F000231602BF
:0213F300148D57
:0413F5007522A27546
:0313F900231602B6
:0213FC00148D4E
:0413FE00E519602F5E
:05140200E51630E215C3
:05140700E51630E008CD
:04140C00752273755D
:0414100023188079A4
:041414007522CD75FB
:0414180023188071A4
:05141C00E51630E008B8
:041421007522BF75FC
:0414250023178064A5
:04142900752219759A
:04142D002318805CA4
:05143100E51630E21594
:05143600E51630E0089E
:04143B007522DF75C2
:04143F002319804AA3
:0414430075223C755D
:04144700231A8042A2
:05144B00E51630E00889
:041450007522277565
:0414540023198035A3
:041458007522827502
:04145C002319802DA3
:05146000E51630E21565
:05146500E51630E0086F
:04146A0075229975D9
:04146E00231A801BA2
:041472007522217549
:04147600231B8013A1
:05147A00E51630E0085A
:04147F007522DD7580
:04148300231A8006A2
:0414870075226575F0
:02148B00231B21
:04148D00E5206007EF
:07149100E52160030215D400
:07149800120761E50A602C58
:05149F007401B50A0C08
:0414A400E5217008C6
:0814A8007521011207ED801B04
:0514B0007402B50A10F2
:0714B5001207EDE520700FA6
:0914BC0078AC760275200180066F
:0614C5007521000215D4A0
:0414CB00E5196005BA
:0514CF00E5AA20E0B9D0
:0414D400E51A6005B0
:0514D800E5AA20E5B0CB
:0414DD00E52070ACEA
:0414E100E519600E9B
:0714E5007E007FF08F9A7E6C
:0714EC00007FF07F008E9BE2
:0414F300E51A600E88
:0714F7007E007FF88F9D7E4F
:0714FE00007FF87F008E9EC5
:04150500E51960196B
:0E15090090E690E0FE8E077E0090E691E0FAFC
:0A1517007D004EF508ED4FF5098048
:011521005376
:04152200850F248588
:0315260010258508
:0315290011268503
:03152C00122790F3
:07152F00E680E0FC30E70656
:061536007A007B02800434
:04153C007A407B0076
:0C1540008A04EB3395E0FAFDC3EC95241F
:08154C00EB9525EA9526ED95CB
:0315540027501805
:0815570090E680E0FA30E7069F
:06155F007A007B0280040B
:041565007A407B004D
:061569008A088B098006D0
:04156F008524088542
:02157300250948
:08157500AA08AB09E4FCFDE546
:09157D000FC39AFAE5109BFBE58F
:08158600119CFCE5129DFD8A99
:04158E000F8B108C23
:04159200118D128520
:061596002282852383126E
:06159C00006BE519600977
:0915A20090E6497482F00000009B
:0415AB00E51A6012CB
:0A15AF0090E698E509F000000090B6
:0815B900E699E508F0000000CE
:0515C100E50F45104597
:0615C60011451260030252
:0215CC00148D7C
:0615CE0075200102148DDE
:0415D400E51F6004AB
:0415D800D285800236
:0215DC00C285C6
:0715DE001208E9120921E5E2
:0315E50021605A28
:0715E800E50BC3950FFAE5C6
:0515EF000C9510FBE566
:0515F4000D9511FCE55E
:0515F9000E9512FD8AB1
:0415FE000B8B0C8CBB
:041602000D8D0E8AB2
:041606000F8B108CAA
:04160A00118D12E547
:03160E001960045C
:041611007A80800259
:021615007A0059
:04161700E51A60046C
:04161B007B4080028E
:02161F007B004E
:0A162100EB4A78AC46F6E5196004C8
:04162B007A048002BB
:02162F007A003F
:04163100E51A600452
:041635007B048002B0
:021639007B0034
:07163B00EB2AF5820207F61D
:011642002285
:08164300A908AA09E960010AE7
:0E164B0090E67BE0339283B286B286A28433AF
:0E1659009283B286B286A284339283B286B2A6
:0E16670086A284339283B286B286A284339226
:0E16750083B286B286A284339283B286B28696
:0E168300A284339283B286B286A2843392830D
:0E169100B286B286A28433F490E67CF0D9AC27
:02169F00DAAAC5
:0116A1002226
:0816A200A908AA09E960010A88
:0E16AA0090E67BE0339283B286A28433B28650
:0E16B8009283B286A28433B2869283B286A257
:0E16C6008433B2869283B286A28433B28692B7
:0E16D40083B286A28433B2869283B286A28449
:0E16E20033B2869283B286A28433B28692839C
:0E16F000B286A28433B286F490E67CF0D9ACC8
:0216FE00DAAA66
:0117000022C6
:08170100A908AA09E960010A28
:0E17090090E67BE0139283B286B286A2841330
:0E1717009283B286B286A284139283B286B207
:0E17250086A284139283B286B286A2841392A7
:0E17330083B286B286A284139283B286B286F7
:0E174100A284139283B286B286A2841392838E
:0E174F00B286B286A28413F490E67CF0D9AC88
:02175D00DAAA06
:01175F002267
:08176000A908AA09E960010AC9
:0E17680090E67BE0139283B286A28413B286D1
:0E1776009283B286A28413B2869283B286A2B8
:0E1784008413B2869283B286A28413B2869238
:0E17920083B286A28413B2869283B286A284AA
:0E17A00013B2869283B286A28413B28692831D
:0E17AE00B286A28413B286F490E67CF0D9AC29
:0217BC00DAAAA7
:0117BE002208
:0817BF00A908AA09E960010A6A
:0317C70090E67B2E
:0E17CA00E0339283B286B286A284339283B259
:0E17D80086B286A284339283B286B286A28441
:0E17E600339283B286B286A284339283B28697
:0E17F400B286A284339283B286B286A2843378
:0E1802009283B286B286A284339283B286B2FB
:0818100086A28433D9B4DAB2D8
:0118180022AD
:08181900A908AA09E960010A0F
:0318210090E67BD3
:0E182400E0339283B286A28433B2869283B2FE
:0E18320086A28433B2869283B286A28433B239
:0E184000869283B286A28433B2869283B286E9
:0E184E00A28433B2869283B286A28433B2861D
:0E185C009283B286A28433B2869283B286A2B1
:08186A008433B286D9B4DAB26E
:011872002253
:08187300A908AA09E960010AB5
:03187B0090E67B79
:0E187E00E0139283B286B286A284139283B2E4
:0E188C0086B286A284139283B286B286A284AC
:0E189A00139283B286B286A284139283B28622
:0E18A800B286A284139283B286B286A2841303
:0E18B6009283B286B286A284139283B286B267
:0818C40086A28413D9B4DAB244
:0118CC0022F9
:0818CD00A908AA09E960010A5B
:0318D50090E67B1F
:0E18D800E0139283B286A28413B2869283B28A
:0E18E60086A28413B2869283B286A28413B2C5
:0E18F400869283B286A28413B2869283B28655
:0E190200A28413B2869283B286A28413B286A8
:0E1910009283B286A28413B2869283B286A21C
:08191E008413B286D9B4DAB2D9
:01192600229E
:08192700A908AA09E960010A00
:03192F0090E67CC3
:0E193200339283B286B286A284339283B28649
:0E194000B286A284339283B286B286A284332A
:0E194E009283B286B286A284339283B286B2AE
:0E195C0086A284339283B286B286A28433922E
:0E196A0083B286B286A284339283B286B2869E
:09197800A28433F4F0D9B3DAB112
:011981002243
:08198200A908AA09E960010AA5
:03198A0090E67C68
:0C198D00E518339283B286A28433B28640
:0E1999009283B286A28433B2869283B286A273
:0E19A7008433B2869283B286A28433B28692D3
:0E19B50083B286A28433B2869283B286A28465
:0E19C30033B2869283B286A28433B2869283B8
:0D19D100B286A28433B286F4F0D9B1DAAF49
:0119DE0022E6
:0819DF00A908AA09E960010A48
:0319E70090E67C0B
:0C19EA00E518139283B286B286A2841323
:0E19F6009283B286B286A284139283B286B226
:0E1A040086A284139283B286B286A2841392C5
:0E1A120083B286B286A284139283B286B28615
:0E1A2000A284139283B286B286A284139283AC
:0D1A2E00B286B286A28413F4F0D9B1DAAF0B
:011A3B002288
:081A3C00A908AA09E960010AEA
:031A440090E67CAD
:0C1A4700E518139283B286A28413B286C5
:0E1A53009283B286A28413B2869283B286A2D8
:0E1A61008413B2869283B286A28413B2869258
:0E1A6F0083B286A28413B2869283B286A284CA
:0E1A7D0013B2869283B286A28413B28692833D
:0D1A8B00B286A28413B286F4F0D9B1DAAFAE
:011A9800222B
:081A9900A908AA09E960010A8D
:061AA100E519600274FF6C
:081AA70004FBE51A600274FF64
:021AAF0004FC35
:091AB100E518BB000490E67BE09F
:021ABA007D08A5
:071ABC0013B2869283A81704
:081AC300D8FEB286A284A81728
:0D1ACB00D8FEDDED13BC0005F490E67CF0C4
:041AD800D9D7DAD5AB
:011ADC0022E7
:081ADD00A908AA09E960010A49
:061AE500E519600274FF28
:081AEB0004FBE51A600274FF20
:021AF30004FCF1
:091AF500E518BB000490E67BE05B
:021AFE007D0861
:071B000033B2869283A8179F
:081B0700D8FEB286A284A817E3
:0D1B0F00D8FEDDED33BC0005F490E67CF05F
:041B1C00D9D7DAD566
:011B200022A2
:081B2100A908AA09E960010A04
:061B2900E519600274FFE3
:081B2F0004FBE51A600274FFDB
:021B370004FCAC
:091B3900E518BB000490E67BE016
:021B42007D081C
:051B4400139283A817B5
:081B4900D8FEB286A284A817A1
:0E1B5100D8FEB286DDED13BC0005F490E67CF4
:011B5F00F095
:041B6000D9D7DAD522
:011B6400225E
:081B6500A908AA09E960010AC0
:061B6D00E519600274FF9F
:081B730004FBE51A600274FF97
:021B7B0004FC68
:091B7D00E518BB000490E67BE0D2
:021B86007D08D8
:051B8800339283A81751
:081B8D00D8FEB286A284A8175D
:0E1B9500D8FEB286DDED33BC0005F490E67C90
:011BA300F051
:041BA400D9D7DAD5DE
:011BA800221A
:051C8B0001F70000005C
:0EE10000120100020000004043140100000064
:04E10E000102000109
:0AE112000A060002000000400100B0
:0EE11C0009022E0001010080FA09040000042F
:0EE12A00FF000000070501024000000705810C
:0EE138000240000007050202000200070586F3
:04E1460002000200D1
:0EE14A0009022E0001010080FA090400000401
:0EE15800FF00000007050102400000070581DE
:0EE16600024000000705020240000007058687
:04E174000240000065
:091F00000205AB000205DF00023E
:081F090005C9000206430002B5
:081F110005F500020661000263
:081F190006BB000206BB00023A
:081F210006BB000206BB000232
:081F290006BB000206BB00022A
:081F310006BB000206BB000222
:081F390006BB000206BB00021A
:081F410006BB000206BB000212
:081F490006BB000206BB00020A
:081F510006BB000206BB000202
:081F590006BB000206BB0002FA
:081F610006BB000206BB0002F2
:081F690006BB000206BB0002EA
:081F710006BB000206BB0002E2
:081F790006BB000206BB0002DA
:081F810006BB000206BB0002D2
:081F890006BB000206BB0002CA
:081F910006BB000206BB0002C2
:081F990006BB000206BB0002BA
:081FA10006BB000206BB0002B2
:081FA90006BB000206BB0002AA
:071FB10006BB000206BB00A5
:081BA900FB7A20E4FCFDFEFFC5
:0E1BB100E5822582F582E58333F583E5F03386
:0B1BBF00F5F0EB33FB4017DAE9804241
:0E1BCA00E5822582F582E58333F583E5F0336D
:051BD800F5F0EB33FB0A
:0E1BDD00EC33FCED33FDEE33FEEF33FFEC9501
:061BEB0028ED9529EE959E
:081BF1002AEF952B4013EC953F
:081BF90028FCED9529FDEE9595
:091C01002AFEEF952BFF4382013E
:021C0A00DABE40
:021C0C00EB22C9
:06009C00E478FFF6D8FD38
:08007A007900E94400601B7AE3
:0500820000901C9078C5
:030087000075A061
:0A008A00E0E493F2A308B8000205B9
:08009400A0D9F4DAF275A0FF17
:0E1C0E0020F71030F6118883A88220F507F623
:051C1C00A883758300A0
:011C210022A0
:031C2200F280F756
:021C2500F022AB
:0400A20075A00078CD
:0700A60000E8440060077947
:0600AD0000E4F309D8FC99
:0800B3007800E84400600C79BC
:0B00BB000090E000E4F0A3D8FCD9FAAC
:02006B00E4733C
:03006D0075812B6F
:0A007000121C43E5826003020066E3
:0E1C270020F71430F6148883A88220F507E613
:061C3500A8837583002264
:031C3B00E280F74D
:031C3E00E493220A
:021C4100E0229F
:041C43007582002284
:00000001FF
