:0400000002006D325B
:01000B0032C2
:0100130032BA
:01001B0032B2
:0100230032AA
:01002B0032A2
:030033000206BA08
:01003B003292
:03004300023F0079
:01004B003282
:03005300023F0069
:01005B003272
:030063000206BED4
:0300EA00020066AB
:050066001200ED80FE18
:0900ED007881760078807600909D
:0E00F600E60B7403F000000000000090E6002E
:0E0104007410F075800175B28175900075B3AE
:0E011200FF75B08075B5A090E67AE0FA440162
:0B012000F012305E90E60174E2F01275
:0E012B00027890E6097403F000000075890167
:09013900000000788276000876CF
:04014200E178847666
:05014600120876E178CB
:05014B0086761C087619
:04015000E178887654
:0A0154004A0876E1D2E843D8209073
:0E015E00E668E0FA4409F090E65CE0FA443D01
:0E016C00F090E682E4F0D2AF90E680E0FA5424
:05017A00F7F0538EF8C0
:08017F001201C1789EE6600741
:0701870012019D789E760035
:05018E007881E6600429
:0401930078817600F9
:050197001206BE80E32A
:01019C002240
:0A019D0090E680E0FA440AF07A00D0
:0201A700DAFE7E
:0E01A90090E65D74FFF090E65F74FFF05391F6
:0901B700EF90E680E0FA54F7F045
:0101C000221C
:0601C1007880E6700122C7
:0501C700AA08AB097855
:0901CC0096A60208A603788EA68F
:0601D5000B08A60C08A6B1
:0501DB000D08A60E78DE
:0501E00092A60F08A625
:0601E5001008A61108A697
:0601EB00127898A69B7833
:0801F10099A69A789AA69E785F
:0A01F9009BA69D1202FAE582700831
:0802030090E6A0E0FA4401F0CE
:0C020B0090E6A0E0FA4480F078807600D5
:06021700789686080886B7
:0A021D0009788E8602088603088621
:09022700040886058A0B8B0C8C7F
:040230000D8D0E78AA
:0C023400928602088603088604088605EE
:050240008A0F8B108CF9
:04024500118D12788D
:0802490098869B7899869A784B
:070251009A869E789B869DB2
:010258002283
:0E02590090E6837401F07421F07411F074319A
:0E026700F090E6837402F07422F07416F074C6
:0202750036F061
:010277002264
:0E02780090E610E4F000000090E611E4F000C3
:0E028600000090E612E4F000000090E613E4A1
:0D029400F000000090E614E4F0000000907F
:0E02A100E615E4F000000090E618E4F000001E
:0E02AF000090E619E4F000000090E61AE4F07A
:0E02BD0000000090E61BE4F000000090E61048
:0E02CB0074A0F000000090E61174A0F0000096
:0E02D9000090E61274A0F000000090E614748D
:0E02E700E0F000000090E68DE4F00000001250
:0502F500093E020906AC
:0C02FA0090E6B9E0FA24F450030205A7D6
:07030600EA2A2A90030D739F
:07030D000203F402047E026A
:0603140005A702052C0202
:06031A0005A70205A70281
:0603200003310205A702F3
:0603260003DF0203CD021B
:05032C0003A60203BB63
:0A03310090E6BBE0FABA0102800F6B
:05033B00BA020280205F
:05034000BA0602803145
:05034500BA075A8042D6
:09034A00788290E6B308E6F07831
:0B0353008286027B0090E6B4EAF00214
:02035E0005AAEE
:09036000788A90E6B308E6F07813
:0B0369008A86027B0090E6B4EAF002F6
:0203740005AAD8
:09037600788490E6B308E6F07803
:0B037F008486027B0090E6B4EAF002E6
:02038A0005AAC2
:09038C00788C90E6B308E6F078E5
:0B0395008C86027B0090E6B4EAF002C8
:0203A00005AAAC
:0403A200758200223E
:0803A60090E740789DE6F0901D
:0B03AE00E68AE4F090E68B7401F00298
:0203B90005AA93
:0A03BB0090E6BAE0FA789DA602125F
:0603C50002781202590249
:0203CB0005AA81
:0A03CD0090E6BAE0FA789CA602124E
:0603D70002781202590237
:0203DD0005AA6F
:0803DF0090E740789CE6F090E5
:0B03E700E68AE4F090E68B7401F0025F
:0203F20005AA5A
:0A03F40090E6B8E0FABA8002800A31
:0503FE00BA8102801B22
:05040300BA8274802C98
:0A04080090E740E4F090E741F09027
:0A041200E68AF090E68B7402F00217
:02041C0005AA2F
:0A041E0090E740E4F090E741F09011
:0A042800E68AF090E68B7402F00201
:0204320005AA19
:0E04340090E6BCE0FA53027E90E6BCE0FBC30B
:0E04420074809BE433FB4A90373893FA33956D
:0E045000E0FB74A12AFA74E63BFB8A828B83E0
:0E045E00E0FA53020190E740EAF090E741E433
:0C046C00F090E68AF090E68B7402F0023B
:0204780005AAD3
:04047A007582002265
:07047E0090E6B8E0FA600807
:05048500BA0202801222
:03048A0002052840
:0B048D0090E6BAE0FABA01030205AAEB
:040498007582002247
:09049C0090E6BAE06003020524B9
:0E04A50090E6BCE0FA53027E90E6BCE0FBC39A
:0E04B30074809BE433FB4A90373893FA3395FC
:0E04C100E0FB74A12AFA74E63BFB90E6BCE077
:0E04CF00FC53047E90E6BCE0FDC374809DE407
:0E04DD0033FD4C90373893FC3395E0FD74A14D
:0E04EB002CFC74E63DFD8C828D83E0FC5304F6
:0E04F900FE8A828B83ECF090E6BCE05480FA21
:0E050700C423541FFA90E6BCE0FB740F5B9017
:0D051500E6832AF090E683E0FA4420F0022D
:0205220005AA28
:0405240075820022BA
:0405280075820022B6
:07052C0090E6B8E0FA60055B
:05053300BA026D800E0C
:0A05380090E6BAE0FABA0202806809
:04054200758200229C
:0E05460090E6BCE0FA53027E90E6BCE0FBC3F8
:0E05540074809BE433FB4A90373893FA33955A
:0E056200E0FB74A12AFA74E63BFB90E6BCE0D5
:0E057000FC53047E90E6BCE0FDC374809DE465
:0E057E0033FD4C90373893FC3395E0FD74A1AB
:0E058C002CFC74E63DFD8C828D83E0FC430464
:09059A00018A828B83ECF08007DA
:0405A300758200223B
:0305A700020AE065
:0305AA0075820156
:0105AD00222B
:0C05AE00C0E0C082C083C00078807601ED
:0905BA005391EF90E65D7401F02D
:0905C300D000D083D082D0E032D8
:0E05CC00C0E0C082C0835391EF90E65D7404DE
:0105DA00F030
:0705DB00D083D082D0E03292
:0E05E200C0E0C082C0835391EF90E65D7402CA
:0105F000F01A
:0705F100D083D082D0E0327C
:0D05F800C0E0C082C083C002C003C0007814
:0A060500888602088603788AA602A0
:0C060F0008A6038A828B83A37402F07893
:0A061B00868602088603788CA6028A
:0E06250008A6038A828B83A37407F05391EF1B
:0606330090E65D7410F07A
:0D063900D000D003D002D083D082D0E032B8
:0C064600C0E0C082C083C0007881760153
:090652005391EF90E65D7408F08D
:09065B00D000D083D082D0E0323F
:0D066400C0E0C082C083C002C003C000908F
:07067100E680E0FA30E72CFF
:0A06780078868602088603788AA6B9
:0D0682000208A6038A828B83A37402F0781D
:0A068F00888602088603788CA60214
:0B06990008A6038A828B83A37407F07D
:0906A4005391EF90E65D7420F023
:0D06AD00D000D003D002D083D082D0E03244
:0306BA0053D8EF23
:0106BD00320A
:0537240001020000009D
:0537290001000000009A
:05372E00010000000095
:0537330001F700000099
:0A373800000102020303040405056A
:0A00C600789E7600789FE4F608F6B5
:0C00D00008F608F678A3E4F608F608F637
:0800DC0008F678A7E4F608F627
:0706BE00120716E58260142B
:0706C5001206DAE582700D58
:0B06CC0012080A78AC7601758200026B
:0206D700081306
:0106D90022FE
:0706DA0078A9E624F9403184
:0A06E10078A9E625E0269006EB73E9
:0706EB0002070002070302F1
:0606F200070602071202D8
:0606F800070902070C02D5
:0206FE00070FE4
:0307000002099E4D
:03070300020A02E5
:0307060002116776
:030709000228D7EC
:03070C0002314572
:03070F00021DFECA
:03071200758200ED
:0107150022C1
:05071600E5BA30E1042A
:04071B0075820022C1
:07071F0078AC76007A807BC4
:06072600E78B9A7A807B4C
:0C072C00E77B008A9B90E67BE0FA7B00F4
:050738000ABA00010BEC
:0E073D0090E68DE0FC7D00EAB50406EBB50504
:03074B0002801118
:0B074E0012080A78AC760175820012D8
:0607590008137582002266
:0A075F0090E67BE0FA78A9A602906C
:09076900E67BE0FA78AAA60290F2
:0B077200E67BE0FA78ABA6027582017E
:01077D002259
:08077E001201C1E5BA30E104EB
:04078600750A0022CE
:0C078A0090E780E0FA7B000ABA00010B47
:0E07960090E68DE0FC7D00EAB50406EBB505AB
:0307A400028011BF
:0B07A70012080A78AC7601758200127F
:0607B2000813750AFF2286
:0B07B80090E781E0FA78A9E6B5021393
:0C07C30090E782E0FA78AA748046FBEA16
:0307CF00B503046B
:0407D200750A012281
:0607D60090E781E0700CC9
:0807DC0090E782E0FABA020482
:0407E400750A02226E
:0307E800750AFF90
:0107EB0022EB
:0807EC00AA827B0B7C007D401A
:0E07F40090E67BE0FE8B828C838DF012367DCA
:07080200A3AB82AC83DAEB2B
:0108090022CC
:08080A0090E68DE4F00000000F
:0108120022C3
:07081300AA82E5BA30E20100
:01081A0022BB
:07081B007BC07CE78C9D7B94
:08082200C07CE77C008B9E9076
:08082A00E67CEA04F078AC90D2
:07083200E67CE6F07B0B7C85
:05083900007D408A066D
:03083E00EE601752
:0E0841008B828C838DF0123704FFA3AB82AC48
:09084F008390E67CEFF01E80E6C8
:0A08580090E68F74022AF000000001
:010862002273
:07086300AA82E5BA30E201B0
:01086A00226B
:07086B007BC07CE78C9D7B44
:08087200C07CE77C008B9E9026
:08087A00E67CEA04F078AC9082
:04088200E67CE6F03A
:01088600224F
:05088700E5BA30E201BA
:01088C002249
:08088D0090E7C178ACE6F090A1
:0C089500E7C0E0FA90E68F04F0000000DD
:0108A1002234
:0E08A200AA82AB83ACF090E67BE0FDC002C002
:0E08B00003C004C00512080AD005D004D0030E
:0708BE00D002E5BA30E201AF
:0108C5002210
:0708C6007EC07FE78F9D7EDD
:0808CD00C07FE77F008E9E90C2
:0C08D500E67CED04F090E67CE4F08D067B
:0308E100EE6017AF
:0E08E4008A828B838CF0123704FFA3AA82ABAA
:0908F2008390E67CEFF01E80E625
:0A08FB0090E68F74022DF00000005B
:0109050022CF
:0E09060090E618E4F000000090E6047480F023
:0E09140000000090E6047402F00000007A0477
:0B09220090E6497482F0000000DAF556
:0E092D0090E604E4F000000090E6A3E4F00081
:02093B000000BA
:01093D002297
:0E093E0090E61AE4F000000090E6047480F0E9
:0D094C0000000090E6047406F0000000902A
:0E095900E604E4F000000090E6A5E4F00000E3
:01096700008F
:01096800226C
:0809690090E680E0FA30E70699
:060971007A007B02800405
:040977007A407B0047
:0E097B0090E624EBF000000090E680E0FA30F9
:02098900E7067F
:06098B007A007B028004EB
:040991007A407B002D
:0809950090E625EAF0000000E5
:01099D002237
:07099E0078AAB602028007EF
:0709A50078AAB6035080059B
:0509AC0012080A804D55
:0A09B1007582041207EC12080AE533
:0809BB000BF4FAE50CF4FBE576
:0A09C3000DF4FCE50EF4FD747B2A30
:0C09CD00FAE43BFBE43CFCE43DFD8A0B3B
:0509D9008B0C8C0D8D5C
:0509DE000E1212EB787F
:0C09E3009FE4F608F608F608F612093E3C
:0B09EF00120906758204120813800430
:0409FA0075820022E0
:0309FE00758201FE
:010A010022D2
:070A020078AAB60202800E83
:070A090078AAB60302801E6B
:070A100078AAB604548035FA
:070A170012080A750B0175BE
:060A1E000C00750D0075CF
:0A0A24000E00758204120813803FD3
:0E0A2E0012080A75B28190E601E0FA4420F049
:0E0A3C0090E6C274FFF0D2B775820012081364
:020A4A00802109
:0E0A4C0012080AC2B775B20090E601E0FA5433
:0E0A5A00DFF090E6C2E4F0758200120813800F
:010A68000489
:040A69007582002270
:030A6D007582018E
:010A70002263
:0A0A7100AA82AB83E5084509700175
:010A7B002258
:070A7C00AC14BCE60280058A
:050A83008B05BDE6310A
:080A88008A068B07AC13AD14C4
:0E0A90008E028F038C828D83E0F88A828B8326
:060A9E00F00EBE00010F86
:050AA4000CBC00010D77
:080AA900150874FFB5080215E1
:010AB100093B
:060AB200E508450970D8BB
:010AB800221B
:0C0AB9008C9AAC137E008C9B8D9D7B0002
:050AC5008A9E020ACB2D
:010ACA002209
:080ACB00A90890E67B05869066
:040AD300E67C058632
:080AD700E00586F00586D9F860
:010ADF0022F4
:0A0AE00090E6B9E0FABAA202804ADB
:050AEA00BAA3028045E3
:060AEF00BAE103020DB59F
:060AF500BAE203020D95B8
:060AFB00BAE303020D95B1
:060B0100BAE403020D75C9
:060B0700BAE503020D75C2
:060B0D00BAE603020C80B1
:060B1300BAE703020CAD7D
:060B1900BAE803020CF52E
:060B1F00BAE903020D55C6
:060B2500BAEA03020D24F0
:060B2B00BAEB03020DD538
:030B3100020DF5BD
:0B0B340090E6BAE0FAA3E0FB8A0B8B0E
:0A0B3F000C90E6BEE0FAA3E0FB9084
:090B4900E6B8E0FCBCC002800328
:030B5200020BE5AE
:070B5500EA4B7003020DF9E9
:080B5C0090E6A0E0FC20E1F8A6
:080B640090E6B9E0FCBCA2110F
:0A0B6C00750D00750E00C002C003F5
:070B7600121093D003D0021E
:090B7D00C3EA9440EB9400500619
:060B86008A0D8B0E8006B3
:060B8C00750D40750E001E
:080B920090E6B9E0FCBCA20DE5
:0D0B9A00C002C003120FE6D003D002801A83
:040BA700850D08852B
:030BAB000E0990A0
:040BAE00E740850B8C
:030BB20013850C9C
:0C0BB50014C002C003120A71D003D00269
:080BC10090E68AE4F0AC0DADF2
:080BC9000E90E68BECF0EC2528
:070BD1000BFEED350CFF8E59
:0A0BD8000B8F0CEAC39CFAEB9DFBA7
:030BE200020B55AE
:0A0BE50078A7E608467003020C7CB6
:0C0BEF0090E6BCE0FCA3E0FD78A7E6B5B2
:090BFB00040708E6B505028002BA
:020C04008076F8
:080C060090E6B8E0FCBC406E72
:070C0E00EA4B7003020DF92F
:090C150090E68AE4F090E68BF011
:080C1E0090E6A0E0FC20E1F8E3
:0A0C260090E68BE0FC7D008C0D8D44
:090C30000E90E6B9E0FCBCA31F24
:040C3900850D088598
:030C3D000E098518
:060C40000B82850C837598
:030C4600134075E3
:070C490014E7C002C0031212
:080C50000A71D003D002800BF1
:0B0C5800C002C003121093D003D002B2
:060C6300AC0DAD0EEC2506
:070C69000BFEED350CFF8EC0
:0A0C70000B8F0CEAC39CFAEB9DFB0E
:020C7A00809266
:040C7C00758200225B
:0A0C800090E6B8E0FABAC002800363
:030C8A00020DF95F
:080C8D0090E6A0E0FA20E1F876
:0E0C950090E740740AF0A37403F090E68AE43E
:0A0CA300F090E68B7402F0020DF9E8
:0A0CAD0090E6B8E0FABAC002800336
:030CB700020DF932
:080CBA0090E6A0E0FA20E1F849
:0E0CC20090E740741DF0A3E4F0A3F0A3F090BF
:0B0CD000E744E4F5F012367DA3E412C7
:0A0CDB00367DA3E412367DA3E41277
:080CE500367D90E68AE4F090F0
:080CED00E68B7408F0020DF91A
:080CF50090E6B8E0FABA4023D2
:090CFD0090E68AE4F090E68BF029
:080D060090E6A0E0FA20E1F8FC
:0C0D0E0090E740E0FAA3E0FB78A7A60203
:060D1A0008A603020DF91A
:040D200075820022B6
:080D240090E6B8E0FABA4025A0
:070D2C0078A7E60846601EEF
:0C0D330090E6BCE0FAA3E0FB78A7E6B570
:090D3F00020708E6B50302800278
:020D4800800722
:070D4A00789E7601020DF90D
:040D51007582002285
:070D5500750BF0750C3F75F2
:060D5C000D04750E007588
:060D62000FCD7510AB90EF
:070D6800E6B8E0FABAC0038F
:030D6F00020DFD75
:030D7200020F1657
:070D7500750BE0750C3F75E2
:060D7C000D0C750E007560
:060D82000F787510569079
:070D8800E6B9E0FABAE4034A
:030D8F00020DFD55
:030D9200020F1637
:070D9500750BC0750C3F75E2
:060D9C000D10750E00753C
:060DA2000FCD7510AB90AF
:070DA800E6B9E0FABAE2032C
:030DAF00020DFD35
:030DB200020F1617
:070DB500750BA0750C3F75E2
:060DBC000D1C750E007510
:060DC2000FCD7510AB908F
:070DC800E6B8E0FABAC0032F
:030DCF00020DFD15
:030DD200020F16F7
:070DD500750BF8750C3F756A
:060DDC000D02750E00750A
:060DE2000FCD7510AB906F
:070DE800E6B8E0FABAC0030F
:030DEF00020DFDF5
:030DF200020F16D7
:040DF50075820022E1
:030DF900758201FF
:010DFC0022D4
:0C0DFD007AFF90E6B8E0FBBBC002800467
:040E090075820022CC
:050E0D00AB0DAC0E75F9
:0A0E12000D00750E00C002C003C001
:0E0E1C0004121093D004D003D00274032BFBF9
:0A0E2A00E43CFC8B0D8C0EC002129C
:0A0E34000FE6D002E50D24FDFBE5FA
:070E3E000E34FFFC8B0D8C4C
:0B0E45000E90E740E0FBA3E0FCEBB5E3
:060E50000F48ECB5104450
:040E56007A007B00A3
:0A0E5A007403250DFCE4350EFD8B3A
:0A0E6400067F00C3EE9CEF9D502CAA
:0A0E6E00EB2440F582E434E7F5833D
:0A0E7800E0FC2AFAEB2440FCE4340D
:0A0E8200E7FD74022B2440F582E422
:0C0E8C0034E7F583E0FE8C828D83F00BD0
:020E980080C018
:030E9A00EA6064A7
:040E9D00850D088532
:030EA1000E0990A7
:090EA400E6B9E0FABAE10280347B
:050EAD00BAE202803DE5
:050EB200BAE402800516
:050EB700BAE9438017B9
:020EBC007A00BA
:030EBE00BA0C006B
:020EC100503EA1
:0A0EC300EA2440F582E434E7F583E9
:060ECD007430F00A80EB16
:050ED30090E7407513DB
:030ED80056751438
:060EDB0037120A718020AD
:050EE10090E7407513CD
:030EE6005A751426
:060EE90037120A718012AD
:050EEF0090E7407513BF
:030EF400767514FC
:060EF70037120A718004AD
:040EFD0075820022D8
:0C0F010090E68AE4F000000090E68BE52A
:080F0D000DF0000000758201E7
:010F150022B9
:080F160090E6B8E0FABA401CB5
:070F1E0078A7E60846601504
:0C0F250090E6BCE0FAA3E0FB78A7E6B57C
:090F3100020708E6B50302800482
:040F3A00758200229A
:090F3E0090E68AE4F090E68BF0E5
:080F470090E6A0E0FA20E1F8B9
:070F4F0090E68AE0FA70143D
:050F5600AA0DAB0E9096
:0E0F5B00E68BE0FC7D00B50206EDB5030280DA
:010F69000483
:040F6A00758200226A
:060F6E008A15AD158D0689
:060F74008E071EEF602550
:0C0F7A00C002C00374022E2440FFE434C7
:090F8600E7FCEE2440F582E4349E
:0C0F8F00E7F583E0FA8F828C83F0D0033A
:040F9B00D00280D52B
:080F9F0090E740E50FF0A3E527
:050FA70010F07C407E0B
:0A0FAC00E78E9A759B407C007402EA
:030FB6002515FD01
:090FB90090E67BE0FE2CFCDDF764
:0A0FC200740225152440F582E43482
:0C0FCC00E7F583C3E49CFCF074032AFAF0
:080FD800E43BFB8A0D8B0E12B5
:050FE000109375820171
:010FE50022E9
:050FE600E50DFA7004A6
:040FEB0075820122E8
:080FEF0090E678E0FB20E6F833
:0C0FF70090E6787480F090E67974A3F026
:0810030090E678E0FB30E0F814
:08100B0090E678E0FB20E2749E
:0810130090E678E0FB30E16C8F
:03101B00BA01080F
:08101E0090E678E0FB4420F0AD
:0710260090E679E07B407CBD
:06102D00E78C9A7B407C79
:05103300E77C008B9B2F
:04103800DA02802632
:08103C0090E678E0FB30E0F8DB
:0810440090E678E0FB20E23B9E
:03104C00BA0108DE
:08104F0090E678E0FB4420F07C
:0B10570090E679E0FB90E67BF080D68D
:0810620090E678E0FA30E0F8B6
:08106A0090E678E0FA20E2159F
:0E10720090E678E0FA4440F090E679E0FA90DB
:07108000E67BF075820122FE
:0B10870090E678E0FA4440F07582002B
:01109200223B
:02109300AA0DA4
:0810950090E678E0FB20E6F88C
:0C109D0090E6787480F090E67974A2F080
:0810A90090E678E0FB30E0F86E
:0810B10090E678E0FB20E26B01
:0810B90090E678E0FB30E163F2
:0310C100EA600ED4
:0710C4007B407CE78C9A7B66
:0710CB00407CE77C008B9BD9
:0210D2007B029F
:0310D400EA7003BC
:0310D700EB603B90
:0310DA00EB6014B4
:0310DD00BB02084B
:0810E00090E679E50CF08006B2
:0610E80090E679E50BF033
:0310EE001B800A5A
:0A10F10090E67BE0FC90E679F01A2F
:0810FB0090E678E0FC30E0F81B
:0811030090E678E0FC20E219FF
:08110B0090E678E0FC20E1C150
:02111300800F4B
:0E11150090E678E0FA4440F012113075820145
:0111230022A9
:0B11240090E678E0FA4440F07582008D
:01112F00229D
:0811300090E678E0FA20E6F8F1
:0E11380090E678E0FA4480F090E67974A2F038
:0811460090E678E0FA30E0F8D1
:08114E0090E678E0FA4440F05D
:0811560090E678E0FA20E6F8CB
:08115E0090E678E0FA30E1D2DE
:011166002266
:0537420001020000007F
:0537470001000000007C
:05374C00010000000077
:0537510001F70000007B
:043756000601500018
:0E375A00582D426F617264000000FDFDFDFD00
:0E37680000009B97FA65E0C61608C875E700DA
:0E377600444F6E62557362000000FDFDFDFDC4
:02378400000043
:0711670078AAB602028077AE
:07116E0078ABB6000280110E
:0B11750012080A78AC760C758200129C
:0611800008137582012234
:0511860078AAE67036B6
:06118B00789FE630E01140
:0B11910012080A78AC76037582001289
:06119C0008137582012218
:0611A200789FE630E41125
:0B11A80012080A78AC76037582001272
:0611B30008137582012201
:0811B900789FE64401F6802452
:0511C10078AAB6010848
:0811C600789FE654FEF6801745
:0611CE00789FE620E0110D
:0B11D40012080A78AC76047582001245
:0611DF00081375820122D5
:0A11E50078AAE624F450030212D5A4
:0A11EF0078AAE625E0269011F973B6
:0711F90002121D02122D027B
:06120000123D0212D502AE
:06120600124A021263020D
:06120C0012970212CE024F
:0612120012C00212C0022E
:0512180012C70212C024
:0A121D001212D912080A758200129D
:061227000813758201228C
:0A122D001212EB12080A758200127B
:061237000813758201227C
:0D123D0090378675F0801208A2758201229C
:07124A0012080A750B007584
:061251000C6A750D187512
:0C1257000E00758204120813758201223B
:0712630090E67BE0FA600455
:04126A00D2B3800279
:02126E00C2B309
:0712700090E67BE0FA600448
:04127700D2B280026D
:02127B00C2B2FD
:07127D0090E67BE0FA60043B
:04128400D2B480025E
:02128800C2B4EE
:0D128A0012080A75820012081375820122F5
:0C12970012080AA2B3E433FA8A0BA2B2D8
:0B12A300E433FA8A0CA2B0E433FA8AAC
:0A12AE000DA2B4E433FA8A0E758233
:0812B8000412081375820122E3
:0712C0001216A8758201223D
:0712C700121AAF758201222B
:0712CE001212F775820122E4
:0312D5007582001F
:0112D80022F3
:0E12D90043B50443B50843B510D2B5C2B2D236
:0312E700B3C2B4DB
:0112EA0022E1
:0B12EB00C2B553B5E3C2B2D2B3C2B427
:0112F60022D5
:0537860001020000003B
:05378B00010000000038
:05379000010000000033
:0537950001F700000037
:0B12F7007A007B0090E67BE0FC6004C6
:04130200D2B38002E0
:02130600C2B370
:0713080090E67BE0FC6004AD
:04130F00D2B28002D4
:02131300C2B264
:0E131500C2B4758204C002C0031207ECD003FC
:0E13230000C00312080A758200120813D003DE
:07133100D002AC0BAD0CAEC5
:041338000DAF0E8C5B
:04133C000F8D108E73
:09134000118F12EC4D4E4F7002AA
:021349007B0126
:03134B00EB60064E
:06134E00EA60030213FC3B
:0D135400C002C00312077ED003D002E4B532
:041361000A028031CB
:051365007401B50A0F40
:0E136A007A01C002C00312080AD003D002802C
:011378001D57
:051379007402B50A1327
:0B137E007B0178AC7602C002C00312B5
:08138900080AD003D002800520
:051391007A000213FCCC
:03139600EB70B247
:05139900AC0BAD0CAE31
:0A139E000DAF0EC3ED94FEEE9400B7
:0513A800EF9400500667
:0613AD008C088D0980068A
:0613B3007508007509FE3B
:0813B900AC08AD09E4FEFFE5FC
:0913C1000BC39CFCE50C9DFDE54D
:0813CA000D9EFEE50E9FFF8C55
:0413D2000B8D0C8EE5
:0813D6000D8F0EC000C001A83C
:0413DE0008A9090948
:0E13E200D2B4C2B4D8FAD9F8D001D000EC4D84
:0713F0004E4F600302134B96
:0513F7007B0102134B15
:0313FC00EA60297B
:0713FF00E50FC3950BFAE5B1
:0514060010950CFBE550
:05140B0011950DFCE548
:0514100012950EFD8A9B
:041415000B8B0C8CA5
:041419000D8D0E78AF
:0B141D00ACE64480F675820402081360
:0114280022A1
:0A142900C001C002A908AA09E96089
:02143300010AAC
:0314350090E67BC3
:0E143800E01392B2D2B4C2B41392B2D2B4C2D4
:0E144600B41392B2D2B4C2B41392B2D2B4C2F2
:0E145400B41392B2D2B4C2B41392B2D2B4C2E4
:0E146200B41392B2D2B4C2B41392B2D2B4C2D6
:09147000B4D9C5DAC3D002D001E1
:011479002250
:0A147A00C001C002A908AA09E96038
:02148400010A5B
:0A14860090E67B058690E67C058663
:0E149000E01392B2A2B013D2B4C2B492B2A2D0
:0E149E00B013D2B4C2B492B2A2B013D2B4C290
:0E14AC00B492B2A2B013D2B4C2B492B2A2B043
:0E14BA0013D2B4C2B492B2A2B013D2B4C2B470
:0E14C80092B2A2B013D2B4C2B492B2A2B013C8
:0E14D600D2B4C2B40586F00586D9AFDAADD027
:0314E40002D00132
:0114E70022E2
:0A14E800C001C002A908AA09E960CA
:0214F200010AED
:0314F40090E67C03
:0E14F700A2B0D2B4C2B413A2B0D2B4C2B41325
:0E150500A2B0D2B4C2B413A2B0D2B4C2B41316
:0E151300A2B0D2B4C2B413A2B0D2B4C2B41308
:0E152100A2B0D2B4C2B413A2B0D2B4C2B413FA
:09152F00F0D9C2DAC0D002D001EB
:011538002290
:0A153900C001C002A908AA09E96078
:02154300010A9B
:0315450090E67BB2
:0E154800E01392B3D2B4C2B41392B3D2B4C2C1
:0E155600B41392B3D2B4C2B41392B3D2B4C2DF
:0E156400B41392B3D2B4C2B41392B3D2B4C2D1
:0E157200B41392B3D2B4C2B41392B3D2B4C2C3
:09158000B4D9C5DAC3D002D001D0
:01158900223F
:0A158A00C001C002A908AA09E96027
:02159400010A4A
:0A15960090E67B058690E67C058652
:0E15A000E01392B3A2B013D2B4C2B492B3A2BD
:0E15AE00B013D2B4C2B492B3A2B013D2B4C27E
:0E15BC00B492B3A2B013D2B4C2B492B3A2B030
:0E15CA0013D2B4C2B492B3A2B013D2B4C2B45E
:0E15D80092B3A2B013D2B4C2B492B3A2B013B5
:0E15E600D2B4C2B40586F00586D9AFDAADD016
:0315F40002D00121
:0115F70022D1
:0A15F800C001C002A908AA09E960B9
:02160200010ADB
:0316040090E67BF2
:0E160700E01392B21392B3D2B4C2B41392B2F3
:0E1615001392B3D2B4C2B41392B21392B3D2F2
:0E162300B4C2B41392B21392B3D2B4C2B4D90B
:07163100D5DAD3D002D0018D
:01163800228F
:0A163900C001C002A908AA09E96077
:02164300010A9A
:0A16450090E67B058690E67C0586A2
:02164F007C021B
:0E165100E01392B21392B3FBE8A2B013F8EBD1
:0E165F00D2B4C2B41392B21392B3FBE8A2B09D
:0E166D0013F8EBD2B4C2B41392B21392B3FBD3
:0E167B00E8A2B013F8EBD2B4C2B41392B213CB
:0E16890092B3FBE8A2B013F8EBD2B4C2B4DC0B
:0E169700B9E80586F0058619D9AEDAACD002A6
:0216A500D00172
:0116A7002220
:0716A80075170075190075AC
:0716AF001A0078AAB6082A10
:0816B60075170190E67BE0F5D9
:0816BE001690E67BE0FE6004DB
:0416C600D2B3800219
:0216CA00C2B3A9
:0416CC00E5166008B7
:0416D000751B7A7597
:0416D4001C14805A08
:0416D800751B2975E0
:0416DC001C14805208
:0516E00078AAB60925FF
:0A16E50075160190E67BE0FC60043E
:0416EF00D2B38002F0
:0216F300C2B380
:0716F50090E67BE0FC6004BD
:0416FC00D2B28002E4
:02170000C2B273
:04170200751BE875F6
:041706001C14802807
:08170A0075170190E67BE0F584
:081712001690E67BE0FC600488
:04171A00D2B28002C5
:02171E00C2B255
:04172000E516600862
:04172400751B8A7532
:041728001C15800606
:04172C00751B39757B
:021730001C1586
:0D1732007582041207EC12080A758200127D
:04173F000813850BFB
:031743001D850CF5
:031746001E850DF0
:031749001F850EEB
:03174C0020851DD8
:03174F000F851EE5
:0317520010851FE0
:03175500118520DB
:0A175800127407551DFD7A007B0096
:071762007C008D18AA1DE5B3
:0C1769001EC423CAC423541F6ACA541FA4
:0C177500CA6ACAFBE51FC42354E04BFB0A
:0A178100AC1FE520C423CCC42354A0
:0C178B001F6CCC541FCC6CCCFE8A0B8B66
:041797000C8C0D8E1B
:05179B000EE518601DC1
:0517A000AA0BAB0CAC2C
:0A17A5000DAE0E0ABA00090BBB00DE
:0617AF00050CBC00010E58
:0517B5008A0B8B0C8C77
:0317BA000D8E0E83
:0517BD00E50F45104599
:0517C200114512700347
:0317C70075190190
:0217CA00C2B4A7
:0417CC00E5196007B4
:0717D000E51A60030219C2D3
:0717D70012077EE50A602CF9
:0517DE007401B50A0CC6
:0417E300E51A70088B
:0817E700751A0112080A801BAB
:0517EF007402B50A10B0
:0717F40012080AE519700F4D
:0917FB0078AC7602751901800634
:06180400751A000219C272
:04180A00E517600579
:05180E00E5AA20E0B98D
:04181300E516600571
:05181700E5AA20E5B088
:04181C00E51970ACAE
:04182000E517600E5A
:071824007A007BF08B9A7A39
:07182B00007BF07B008A9BAB
:04183200E516600E49
:071836007A007BF88B9D7A1C
:07183D00007BF87B008A9E8E
:04184400E51760192B
:0E18480090E690E0FA8A037A0090E691E0FCC8
:0A1856007E004AF508EE4BF509800C
:011860005433
:04186100850B21854D
:031865000C2285CD
:031868000D2385C8
:03186B000E2490B8
:07186E00E680E0FF30E70611
:061875007A007B028004F2
:04187B007A407B0034
:0C187F008A07EBFD3395E0FAFBC3EF9500
:06188B0021ED9522EA9513
:0618910023EB9524501822
:0818970090E680E0FA30E7065C
:06189F007A007B028004C8
:0418A5007A407B000A
:0618A9008A088B0980068D
:0418AF008521088502
:0218B300220908
:0818B500AA08AB09E4FCFDE503
:0918BD000BC39AFAE50C9BFBE554
:0818C6000D9CFCE50E9DFD8A5E
:0418CE000B8B0C8CE8
:0418D2000D8D0EE585
:0318D60018601384
:0518D900E50B450C4584
:0518DE000D450E70092C
:0818E300150874FFB508021599
:0118EB0009F3
:0618EC00E5084509600952
:0718F200851B82851C831297
:0218F900006B82
:0718FB00E518700302198CCF
:05190200E50B450C455A
:061907000D450E60030215
:02190D00198C33
:06190F00AA18E517700B99
:0319150030B204E9
:041918007BFF8002CF
:02191C007B004E
:02191E00800542
:0519200090E67BE0FBF6
:0519250078AAB60B1DBD
:02192A008A042D
:0B192C00EBA2E092B3C313FB30B00548
:05193700430380800362
:03193C0053037FD3
:06193F00D2B4C2B4DCE7E3
:02194500801907
:0B194700EBA2E092B2C313FB30B0052E
:05195200430380800347
:0319570053037FB8
:06195A00D2B4C2B4DAE7CA
:04196000E516601D0B
:0C196400AD187A007408C39DFDE49AFAE7
:071970008DF005F0EB800291
:02197700C31398
:08197900D5F0FBFB90E67CF0C9
:071981007518000508E4B52C
:041988000802050943
:04198C00E5176009F2
:0919900090E6497482F0000000A9
:04199900E5166012DD
:0A199D0090E698E509F000000090C4
:0819A700E699E508F0000000DC
:0519AF00E50B450C45AD
:0619B4000D450E60030268
:0219BA0017CC48
:0619BC007519010217CCB1
:0719C20012090612093EE5BF
:0419C9001A7001226D
:0419CD00E518601D9C
:0519D100AA0BAB0CACF9
:0A19D6000DAD0E1ABAFF091BBBFF8E
:0619E000051CBCFF011D07
:0519E6008A0B8B0C8C44
:0319EB000D8D0E51
:0419EE00850D23E55B
:0A19F2000EC40354F8C523C403C556
:0419FC00236523C577
:061A00002354F8C5236524
:041A060023F524E5BB
:081A0A000CC40354074523F549
:031A120023850B1E
:081A150021E50CC40354F8C5DF
:061A1D0021C403C5216590
:061A230021C52154F8C5A5
:041A2900216521F51D
:031A2D00228521EE
:031A30000B852201
:031A33000C8523FC
:031A36000D8524F7
:091A39000EAE18E4FFFAFBEE25E5
:081A420021FEEF3522FFEA3519
:071A4A0023FAEB3524FB8EAB
:041A51000B8F0C8A61
:041A55000D8B0EE502
:091A59000FC39EFEE5109FFFE59E
:081A6200119AFAE5129BFB8EBC
:041A6A000F8F108A40
:041A6E00118B128E38
:041A72000B8F0C8A40
:041A76000D8B0EE5E1
:031A7A00176004EE
:041A7D007A808002E9
:021A81007A00E9
:041A8300E516600400
:041A87007B4080021E
:021A8B007B00DE
:0A1A8D00EB4A78AC46F6E51760045A
:041A97007A0480024B
:021A9B007A00CF
:041A9D00E5166004E6
:041AA1007B04800240
:021AA5007B00C4
:071AA700EB2AF5820208138F
:011AAE002215
:071AAF007526007527007584
:071AB600280090E67BE0F53B
:081ABD00257582041207EC12EA
:091AC500080A758200120813855D
:031ACE000B2B855A
:031AD1000C2C8555
:031AD4000D2D8550
:031AD7000E2E854B
:031ADA002B0F854A
:031ADD002C108545
:031AE0002D118540
:031AE3002E12E5DB
:041AE6002B452C451B
:051AEA002D452E7003E4
:031AEF0075270157
:0C1AF2007407552BFAE4FDFBFC7403257F
:081AFE002BFBE4352CFCE43560
:071B06002DFDE4352EFE8BDE
:041B0D000B8C0C8DA4
:0A1B11000DEEF50EC313FEED13FDFB
:0E1B1B00EC13FCEB13FBEEC313FEED13FDEC1D
:0A1B290013FCEB13FB8B0B8C0C8DEF
:041B33000D8E0EE520
:031B37002560081E
:041B3A00752939755B
:041B3E002A168006DD
:041B42007529F87594
:021B46002A155E
:021B4800C2B425
:041B4A00E527600724
:071B4E00E5286003021D4BB6
:0B1B5500C00212077ED002E50A6034D7
:051B60007401B50A103C
:041B6500E528700CF3
:0C1B6900752801C00212080AD002801F7B
:051B75007402B50A1422
:0B1B7A00C00212080AD002E527700F1D
:091B850078AC7602752701800698
:061B8E00752800021D4B4A
:051B9400E5AA20E0B10C
:041B9900E5256005D9
:051B9D00E5AA20E5A807
:041BA200E52770A41F
:071BA6007D007EF08E9A7DA8
:081BAD00007EF07E008D9BE537
:031BB50025601296
:041BB800E526700EA0
:071BBC007D007EF88E9D7D87
:071BC300007EF87E008D9EFC
:0E1BCA0090E690E0FD8D067D0090E691E0FF34
:0A1BD8007B002DF508EB3EF509AB8C
:071BE20008AC09E4FDFEE57B
:091BE9000BC39BFBE50C9CFCE521
:081BF2000D9DFDE50E9EFE8B2A
:041BFA000B8C0C8DB7
:061BFE000D8E0EEA602CC2
:051C0400E50B450C4555
:051C09000D450E7022E4
:0E1C0E008A03FC74032BFBE43CFCA2E713CB1F
:0C1C1C0013CBA2E713CB13CBFCE508C3ED
:071C28009BF508E5099CF59E
:011C2F0009AB
:061C3000E5084509600D06
:091C3600C002852982852A83126F
:041C3F00006BD00264
:061C4300EA7003021CC858
:051C4900E50B450C4510
:051C4E000D450E70754C
:091C53007B0090E67BE0FC7D00C3
:051C5C00C3ED9A5023C6
:031C6100BD0405BA
:051C640090E67BE0FCAE
:0E1C6900ECA2E092B2C313FCA2E092B3C3134C
:061C7700FCEBA2B013FB20
:071C7D00D2B4C2B40D80D8FF
:041C8400E525601CD6
:0E1C88008A047D007408C39CFCE49DFD8CF072
:051C960005F0EB8002E7
:021C9B00C31371
:071C9D00D5F0FB90E67CF09E
:0E1CA4008A037C0074032BFBE43CFCA2E713D4
:0C1CB200CB13CBA2E713CB13CBFCEB252C
:051CBE0008F508EC35FB
:051CC30009F5097A009B
:041CC800E52560634B
:051CCC00E50B450C458D
:051CD1000D450E60044A
:041CD600E52660524D
:071CDA000508E4B50802054E
:011CE10009F9
:081CE200E509C313C50813C591
:041CEA0008F509E50B
:031CEE0026602449
:081CF10090E680E0FB30E706FD
:061CF9007B007C02800468
:041CFF007B407C00AA
:0C1D0300ECA2E713CB13CBFCEB2508F59A
:051D0F0008EC3509F5A8
:011D140009C5
:0A1D150090E698E509F00000009048
:091D1F00E699E508F000000075EA
:041D2800260080030E
:031D2C0075260118
:0C1D2F0090E6497482F0000000E50B45CE
:041D3B000C450D4501
:061D3F000E6003021B4AC6
:061D4500752701021B4A94
:0C1D4B00C0021209060012093ED002E599
:041D570028700122CD
:0A1D5B00E50B25E0FBE50C33FCE589
:0A1D65000D33FDE50E33FEEB2BFB02
:0C1D6F00EC33FCED33FDEE33FE8B0B8CEF
:041D7B000C8D0D8E30
:041D7F000EEA603DCB
:041D8300EA30E21D43
:051D8700AB0BAC0CAD3C
:0A1D8C000DAE0E1BBBFF091CBCFFCF
:061D9600051DBDFF011E4A
:051D9C008B0B8C0C8D87
:031DA1000D8E0E96
:0A1DA400E4FBFCFDEA250BFAEB3529
:081DAE000CFBEC350DFCED35DA
:051DB6000EFD8A0B8BFD
:041DBB000C8C0D8DF2
:011DBF000E15
:071DC000E50FC3950BFAE5E6
:051DC70010950CFBE586
:051DCC0011950DFCE57E
:051DD10012950EFD8AD1
:041DD6000F8B108CD3
:041DDA00118D128ACB
:041DDE000B8B0C8CD3
:041DE2000D8D0EE570
:031DE6002570085D
:051DE900F50FF510F5F7
:031DEE0011F512DA
:0C1DF10078ACE644C0F6758208020813C6
:011DFD0022C3
:05379A00010200000027
:05379F00010000000024
:0537A40001000000001F
:0537A90001F700000023
:0600E400752F00753000CD
:071DFE0078AAB6020280770B
:071E050078ABB6000280116A
:0B1E0C0012080A78AC760C75820012F8
:061E170008137582012290
:051E1D0078AAE6703612
:061E2200789FE630E41198
:0B1E280012080A78AC760375820012E5
:061E330008137582012274
:061E3900789FE630E01185
:0B1E3F0012080A78AC760375820012CE
:061E4A000813758201225D
:081E5000789FE64410F680249F
:051E580078AAB60108A4
:081E5D00789FE654EFF68017B0
:061E6500789FE620E41165
:0B1E6B0012080A78AC760475820012A1
:061E760008137582012231
:0A1E7C0078AAE624F75003021F3491
:0A1E860078AAE625E026901E90736E
:071E9000021EAB021EC1029D
:061E97001ED1021EDE0256
:061E9D001EE8021EF20225
:061EA3001F09021F2002CE
:021EA9001F2AEE
:071EAB00752F0075300012D5
:091EB2001F3812080A75820012A3
:061EBB00081375820122EC
:0A1EC100121F4A12080A758200126F
:061ECB00081375820122DC
:0D1ED1009037BD75F0801208A275820122C5
:0A1EDE00121F6712202875820122EE
:0A1EE80012080A1220287582012258
:0B1EF20090E67BE0FAF58212207E12E1
:0C1EFD00080A7582001208137582012289
:0B1F090090E67BE0FAF582121F5C12EC
:0C1F1400080A7582001208137582012271
:0A1F200075820112208E75820122E5
:0A1F2A0075820012208E75820122DC
:031F3400758200B3
:011F37002287
:0E1F3800C2B243B504D2B343B508C2B443B538
:031F460010D2B501
:011F49002275
:0E1F4A00C2B5C2B253B5FBD2B353B5F7C2B4A1
:031F580053B5EF8F
:011F5B002263
:051F5C00E582FA6003BC
:031F6100D2B322D6
:021F6400C2B306
:011F66002258
:0A1F67007582041207EC12080A85C7
:031F71000B53858A
:031F74000C548585
:031F77000D558580
:0A1F7A000E56906BFF75F0DC740248
:0E1F8400123618AA82AB83ACF0FD0ABA00092F
:091F92000BBB00050CBC00010DA5
:051F9B008A0B8B0C8C89
:0A1FA0000D8D0EC374249AE49BE437
:051FAA009CE49D4004D1
:041FAF007530002267
:051FB300AA0BAB0CAC11
:0A1FB8000DAD0EC374579AE49BE4CC
:051FC2009CE49D4004B9
:041FC700753001224E
:0E1FCB00EA24C0FAEB34FFFBEC34FFFCED34EB
:091FD900FFFD755318E4F554F501
:0A1FE20055F5568A828B838CF0EDD2
:0E1FEC00123618AA82AB83ACF0FD0ABA0009C7
:091FFA000BBB00050CBC00010D3D
:052003008A0B8B0C8C20
:042008000D8D0E85A7
:03200C000B34850D
:03200F000C358508
:032012000D368503
:0A2015000E37EB7006EC7003ED606F
:01201F0004BC
:042020007530FF22F6
:03202400853430D0
:012027002296
:04202800E530700D22
:07202C00750B56750C587589
:062033000D14F50E803FC4
:0C203900E53075F018A4243FFAE435F0FF
:09204500FB8A53F5543395E0F5D4
:0A204E0055F556906BFF75F0DC7439
:0E20580002123618AA82AB83ACF0FD0ABA0061
:0A206600090BBB00050CBC00010DC6
:052070008A0B8B0C8CB3
:032075000D8D0EC0
:062078007582040208134A
:0A207E00AA8274075AF52F30E1031F
:03208800D2B422AD
:02208B00C2B4DD
:01208D002230
:09208E00AA82753900753A009030
:09209700E67BE0FB90E67BE0F53E
:0420A00038EA600BAF
:0820A40075320190E67BE0F5C6
:0320AC0033800C72
:0720AF0090E67BE0F53175BE
:0520B60033017532004A
:0E20BB00758204C0031207EC0012080A758239
:0920C90000120813D003AA0BAFAA
:0420D2000CAE0DAD96
:0420D6000E8A0F8FD0
:0420DA00108E118DC6
:0420DE0012EB60049D
:0420E200D2B38002F3
:0220E600C2B383
:0720E800E530600302218CCA
:0420EF00E53260373F
:0420F300E53360333E
:0520F700E52F30E217A7
:0520FC00E52F30E009B2
:04210100753B2B758A
:032105003C240275
:0221080021B9FB
:04210A00753B897523
:03210E003C24026C
:0221110021B9F2
:05211300E52F30E0099A
:04211800753B6F752F
:03211C003C23025F
:02211F0021B9E4
:04212100753BCD75C8
:032125003C230256
:0221280021B9DB
:04212A00E532602F0B
:05212E00E52F30E21571
:05213300E52F30E0087B
:04213800753B9B75E3
:04213C003C25807945
:04214000753BF57581
:042144003C25807145
:05214800E52F30E00866
:04214D00753BE77582
:042151003C24806446
:04215500753B417520
:042159003C25805C45
:05215D00E52F30E21542
:05216200E52F30E0084C
:04216700753B05754A
:04216B003C27804A43
:04216F00753B6175E6
:042173003C27804243
:05217700E52F30E00837
:04217C00753B4F75EB
:042180003C26803544
:04218400753BA97589
:042188003C26802D44
:05218C00E52F30E21513
:05219100E52F30E0081D
:04219600753BBD7563
:04219A003C27801B43
:04219E00753B4375D5
:0421A2003C28801342
:0521A600E52F30E00808
:0421AB00753B00750B
:0421AF003C28800642
:0421B300753B86757D
:0221B7003C28C2
:0421B900E53960079D
:0721BD00E53A600302230074
:0721C40012077EE50A602C02
:0521CB007401B50A0CCF
:0421D000E53A700874
:0821D400753A0112080A801B94
:0521DC007402B50A10B9
:0721E10012080AE539700F36
:0921E80078AC760275390180061D
:0621F100753A0002230014
:0421F700E532600568
:0521FB00E5AA20E0B997
:04220000E53360055D
:05220400E5AA20E5B091
:04220900E53970AC97
:04220D00E532600E48
:072211007E007FF08F9A7E32
:07221800007FF07F008E9BA8
:04221F00E533600E35
:072223007E007FF88F9D7E15
:07222A00007FF87F008E9E8B
:04223100E532601919
:0E22350090E690E0FE8E077E0090E691E0FAC3
:0A2243007D004EF508ED4FF509800F
:01224D00533D
:04224E00850F3D8536
:03225200103E85B6
:03225500113F85B1
:03225800124090A1
:07225B00E680E0FC30E7061D
:062262007A007B028004FB
:042268007A407B003D
:0C226C008A04EB3395E0FAFDC3EC953DCD
:08227800EB953EEA953FED9560
:03228000405018B3
:0822830090E680E0FA30E70666
:06228B007A007B028004D2
:042291007A407B0014
:062295008A088B09800697
:04229B00853D0885F0
:02229F003E09F6
:0822A100AA08AB09E4FCFDE50D
:0922A9000FC39AFAE5109BFBE556
:0822B200119CFCE5129DFD8A60
:0422BA000F8B108CEA
:0422BE00118D1285E7
:0622C2003B82853C831203
:0622C800006BE532600925
:0922CE0090E6497482F000000062
:0422D700E533601279
:0A22DB0090E698E509F0000000907D
:0822E500E699E508F000000095
:0522ED00E50F4510455E
:0622F20011451260030219
:0222F80021B90A
:0622FA007539010221B953
:04230000E538600458
:04230400D2B38002CE
:02230800C2B35E
:07230A0012090612093EE56D
:032311003A605AD5
:07231400E50BC3950FFAE58C
:05231B000C9510FBE52C
:052320000D9511FCE524
:052325000E9512FD8A77
:04232A000B8B0C8C81
:04232E000D8D0E8A79
:042332000F8B108C71
:04233600118D12E50E
:03233A003260040A
:04233D007A80800220
:022341007A0020
:04234300E53360041A
:042347007B40800255
:02234B007B0015
:0A234D00EB4A78AC46F6E532600476
:042357007A04800282
:02235B007A0006
:04235D00E533600400
:042361007B04800277
:022365007B00FB
:07236700EB2AF582020813C6
:01236E00224C
:08236F00A908AA09E960010AAE
:0E23770090E67BE03392B2B2B4B2B4A2B033BF
:0E23850092B2B2B4B2B4A2B03392B2B2B4B259
:0E239300B4A2B03392B2B2B4B2B4A2B03392DC
:0E23A100B2B2B4B2B4A2B03392B2B2B4B2B41B
:0E23AF00A2B03392B2B2B4B2B4A2B03392B2C2
:0E23BD00B2B4B2B4A2B03390E67CF0D9ADDA7F
:0123CB00AB66
:0123CC0022EE
:0823CD00A908AA09E960010A50
:0E23D50090E67BE03392B2B2B4A2B033B2B461
:0E23E30092B2B2B4A2B033B2B492B2B2B4A20B
:0E23F100B033B2B492B2B2B4A2B033B2B4926E
:0E23FF00B2B2B4A2B033B2B492B2B2B4A2B0D1
:0E240D0033B2B492B2B2B4A2B033B2B492B24F
:0E241B00B2B4A2B033B2B490E67CF0D9ADDA20
:01242900AB07
:01242A00228F
:08242B00A908AA09E960010AF1
:0E24330090E67BE01392B2B2B4B2B4A2B01342
:0E24410092B2B2B4B2B4A2B01392B2B2B4B2BC
:0E244F00B4A2B01392B2B2B4B2B4A2B013925F
:0E245D00B2B2B4B2B4A2B01392B2B2B4B2B47E
:0E246B00A2B01392B2B2B4B2B4A2B01392B245
:0E247900B2B4B2B4A2B01390E67CF0D9ADDAE2
:01248700ABA9
:012488002231
:08248900A908AA09E960010A93
:0E24910090E67BE01392B2B2B4A2B013B2B4E4
:0E249F0092B2B2B4A2B013B2B492B2B2B4A26E
:0E24AD00B013B2B492B2B2B4A2B013B2B492F1
:0E24BB00B2B2B4A2B013B2B492B2B2B4A2B034
:0E24C90013B2B492B2B2B4A2B013B2B492B2D3
:0E24D700B2B4A2B013B2B490E67CF0D9ADDA84
:0124E500AB4B
:0124E60022D3
:0824E700A908AA09E960010A35
:0324EF0090E67BF9
:0E24F200E03392B2B2B4B2B4A2B03392B2B23E
:0E250000B4B2B4A2B03392B2B2B4B2B4A2B0CC
:0E250E003392B2B2B4B2B4A2B03392B2B2B44D
:0E251C00B2B4A2B03392B2B2B4B2B4A2B03331
:0E252A0092B2B2B4B2B4A2B03392B2B2B4B2B2
:08253800B4A2B033D9B4DAB249
:012540002278
:08254100A908AA09E960010ADA
:0325490090E67B9E
:0E254C00E03392B2B2B4A2B033B2B492B2B2E3
:0E255A00B4A2B033B2B492B2B2B4A2B033B2F3
:0E256800B492B2B2B4A2B033B2B492B2B2B472
:0E257600A2B033B2B492B2B2B4A2B033B2B4D7
:0E25840092B2B2B4A2B033B2B492B2B2B4A268
:08259200B033B2B4D9B4DAB2DF
:01259A00221E
:08259B00A908AA09E960010A80
:0325A30090E67B44
:0E25A600E01392B2B2B4B2B4A2B01392B2B2C9
:0E25B400B4B2B4A2B01392B2B2B4B2B4A2B038
:0E25C2001392B2B2B4B2B4A2B01392B2B2B4D9
:0E25D000B2B4A2B01392B2B2B4B2B4A2B013BD
:0E25DE0092B2B2B4B2B4A2B01392B2B2B4B21E
:0825EC00B4A2B013D9B4DAB2B5
:0125F40022C4
:0825F500A908AA09E960010A26
:0325FD0090E67BEA
:0E260000E01392B2B2B4A2B013B2B492B2B26E
:0E260E00B4A2B013B2B492B2B2B4A2B013B27E
:0E261C00B492B2B2B4A2B013B2B492B2B2B4DD
:0E262A00A2B013B2B492B2B2B4A2B013B2B462
:0E26380092B2B2B4A2B013B2B492B2B2B4A2D3
:08264600B013B2B4D9B4DAB24A
:01264E002269
:08264F00A908AA09E960010ACB
:0326570090E67C8E
:0E265A003392B2B2B4B2B4A2B03392B2B2B400
:0E266800B2B4A2B03392B2B2B4B2B4A2B033E4
:0E26760092B2B2B4B2B4A2B03392B2B2B4B265
:0E268400B4A2B03392B2B2B4B2B4A2B03392E8
:0E269200B2B2B4B2B4A2B03392B2B2B4B2B427
:0826A000A2B033F0D9B4DAB2A4
:0126A800220F
:0826A900A908AA09E960010A71
:0326B10090E67C34
:0C26B400E5313392B2B2B4A2B033B2B43C
:0E26C00092B2B2B4A2B033B2B492B2B2B4A22B
:0E26CE00B033B2B492B2B2B4A2B033B2B4928E
:0E26DC00B2B2B4A2B033B2B492B2B2B4A2B0F1
:0E26EA0033B2B492B2B2B4A2B033B2B492B270
:0C26F800B2B4A2B033B2B4F0D9B2DAB080
:0127040022B2
:08270500A908AA09E960010A14
:03270D0090E67CD7
:0C271000E5311392B2B2B4B2B4A2B0131F
:0E271C0092B2B2B4B2B4A2B01392B2B2B4B2DE
:0E272A00B4A2B01392B2B2B4B2B4A2B0139281
:0E273800B2B2B4B2B4A2B01392B2B2B4B2B4A0
:0E274600A2B01392B2B2B4B2B4A2B01392B267
:0C275400B2B4B2B4A2B013F0D9B2DAB043
:012760002256
:08276100A908AA09E960010AB8
:0327690090E67C7B
:0C276C00E5311392B2B2B4A2B013B2B4C3
:0E27780092B2B2B4A2B013B2B492B2B2B4A292
:0E278600B013B2B492B2B2B4A2B013B2B49215
:0E279400B2B2B4A2B013B2B492B2B2B4A2B058
:0E27A20013B2B492B2B2B4A2B013B2B492B2F7
:0C27B000B2B4A2B013B2B4F0D9B2DAB0E7
:0127BC0022FA
:0827BD00A908AA09E960010A5C
:0627C500E532600274FF22
:0827CB0004FBE533600274FF1A
:0227D30004FC04
:0927D500E531BB000490E67BE055
:0227DE007D0874
:0727E00013B2B492B2A8305D
:0827E700D8FEB2B4A2B0A83084
:0C27EF00D8FEDDED13BC000490E67CF089
:0427FB00D9D8DAD679
:0127FF0022B7
:08280000A908AA09E960010A18
:06280800E532600274FFDE
:08280E0004FBE533600274FFD6
:0228160004FCC0
:09281800E531BB000490E67BE011
:022821007D0830
:0728230033B2B492B2A830F9
:08282A00D8FEB2B4A2B0A83040
:0C283200D8FEDDED33BC000490E67CF025
:04283E00D9D8DAD635
:012842002273
:08284300A908AA09E960010AD5
:06284B00E532600274FF9B
:0828510004FBE533600274FF93
:0228590004FC7D
:09285B00E531BB000490E67BE0CE
:022864007D08ED
:052866001392B2A8303E
:08286B00D8FEB2B4A2B0A830FF
:0E287300D8FEB2B4DDED13BC000490E67CF09C
:04288100D9D8DAD6F2
:012885002230
:08288600A908AA09E960010A92
:06288E00E532600274FF58
:0828940004FBE533600274FF50
:02289C0004FC3A
:09289E00E531BB000490E67BE08B
:0228A7007D08AA
:0528A9003392B2A830DB
:0828AE00D8FEB2B4A2B0A830BC
:0E28B600D8FEB2B4DDED33BC000490E67CF039
:0428C400D9D8DAD6AF
:0128C80022ED
:0537AE00010200000013
:0537B300010000000010
:0537B80001000000000B
:0537BD0001F70000000F
:0A28C900C28CC28D78AD868A78AD0E
:0328D30008868CE8
:0128D60022DF
:0728D70078AAB6020280603E
:0728DE0078ABB60002801187
:0B28E50012080A78AC760C7582001215
:0628F000081375820122AD
:0528F60078AAE6701F46
:0628FB00789FE630E211B7
:0B29010012080A78AC76037582001201
:06290C0008137582012290
:08291200789FE64404F68024DE
:05291A0078AAB60108D7
:08291F00789FE654FBF68017D7
:06292700789FE620E2119A
:0B292D0012080A78AC760475820012D4
:0629380008137582012264
:0A293E0078AAE624F85003022A28C4
:0A29480078AAE625E02690295273D4
:0729520002296A02296A0252
:06295900297C022989021D
:06295F002A0E022A1602F6
:052965002A1E022A23D6
:0C296A0012080A78ADE4F608F675820049
:06297600120813022A2CD6
:0D297C009037C775F0801208A27582012205
:0A2989007582041207EC12080A75AB
:0629930053FAE4F554F5CF
:0429990055F5568515
:06299D000B82850C83850E
:0529A3000DF0E50E122D
:0C29A8003618AA82AB83ACF0FD8A0B8BC2
:0429B4000C8C0D8DED
:0729B8000EEC7003ED600C52
:0729BF00750BFF750CFF759D
:0529C6000D00750E007C
:0929CB00E50BF4FAE50CF4FBE560
:0829D4000DF4FCE50EF4FD78A2
:0829DC00ADA60208A603850B5D
:0329E40053850C0C
:0329E70054850D07
:0329EA0055850E02
:0C29ED00569000FAE4F5F0123696AA822B
:0A29F900AB83ACF0FD8A0B8B0C8C55
:072A03000D8D0E7582041217
:042A0A000813801E0F
:082A0E00758201122DE480160F
:082A1600758200122DE4800E10
:052A1E00122AA080094E
:052A2300122C1F8004CD
:042A28007582002291
:032A2C00758201AF
:012A2F002284
:0E2A300090E6F3E0FA4480F000000090E67BB0
:0C2A3E00E0FA90E6F1F0000000022A80AF
:0E2A4A0090E6F3E0FA547FF000000090E67B87
:0C2A5800E0FA90E6F1F0000000022A8095
:0B2A640090E6F1E0122A80E582600D90
:0D2A6F0090E6F2E0FA90E67CF0758201221C
:032A7C0075820060
:012A7F002234
:052A80001228C9D28CF0
:052A8500E5BB20E703A2
:032A8A00308DF894
:052A8D00E5BB30E70489
:042A92007582012226
:092A960090E6F574FFF075820072
:012A9F002214
:0A2AA000E4FAFBF508F5097582045D
:0D2AAA00C002C0031207ECD00300C00312ED
:0D2AB700080A758200120813D003D002AC8B
:042AC4000BAD0CAE9C
:042AC8000DAF0E8CB4
:042ACC000F8D108ECC
:092AD000118F12EC4D4E4F700203
:022AD9007B017F
:032ADB00EB6006A7
:062ADE00EA6003022BEB8D
:0D2AE400C002C00312077ED003D002E4B58B
:042AF1000A02804015
:052AF5007401B50A1296
:032AFA00EA700F70
:0E2AFD007A01C002C00312080AD003D0028082
:012B0B0029A0
:052B0C007402B50A1F70
:0E2B1100C002C00312080AD003D002EB7016F7
:0C2B1F0090E6A37401F00000007B017838
:052B2B00AC76028005FC
:052B30007A00022BEB0E
:032B3500EB70A39F
:062B3800E5084509702AC2
:052B3E00E5AA20E025DE
:072B43007C007DF08D9A7CFF
:082B4A00007DF07D008C9B90E2
:0E2B5200E690E0FC8C057C0090E691E0FE7FB2
:082B6000002CF508EF3DF5091A
:072B6800E5084509700302B6
:022B6F002ADB5F
:0E2B7100C002C003122A30E582D003D00270E9
:012B7F00064F
:062B800078AC76058052DE
:0E2B8600C002C003122A4AE582D003D00270BA
:012B9400063A
:062B950078AC7606803DDD
:072B9B00E50824FEF508E542
:062BA2000934FFF509AC47
:042BA8000BAD0CAEB7
:0A2BAC000DAF0E1CBCFF091DBDFF9C
:062BB600051EBEFF011F19
:052BBC008C0B8D0C8E56
:092BC1000D8F0EEC4D4E4F700219
:022BCA007B018D
:062BCC00E5084509700652
:062BD20090E6497482F058
:082BD80078ACB60003022ADB11
:0B2BE0007B0190E6A37401F0022ADBE9
:0A2BEB00C002120906D002EA6029B8
:072BF500E50FC3950BFAE5A3
:052BFC0010950CFBE543
:052C010011950DFCE53A
:052C060012950EFD8A8D
:042C0B000B8B0C8C97
:042C0F000D8D0E78A1
:0B2C1300ACE64480F675820402081352
:012C1E002293
:0A2C1F00E4FAFBF508F509758204DC
:0D2C2900C002C0031207ECD00300C003126C
:0D2C3600080A758200120813D003D002AC0A
:042C43000BAD0CAE1B
:042C47000DAF0E8C33
:042C4B000F8D108E4B
:092C4F00118F12EC4D4E4F700282
:022C58007B01FE
:032C5A00EB600626
:062C5D00EA6003022DA451
:0D2C6300C002C00312077ED003D002E4B50A
:042C70000A0280468E
:052C74007401B50A1215
:032C7900EA700FEF
:0E2C7C007A01C002C00312080AD003D0028001
:012C8A002F1A
:052C8B007402B50A25EA
:0E2C9000C002C00312080AD003D002EB701C71
:0E2C9E0090E6A37401F000000090E6A574011A
:092CAC00F07B0178AC7602800592
:052CB5007A00022DA4CD
:032CBA00EB709D1F
:062CBD00E5084509703D29
:052CC300E5AA20E03845
:052CC800E5AA20E53340
:072CCD007C007DF08D9A7C74
:082CD400007DF07D008C9B7C6B
:062CDC00007DF88D9D7CD7
:082CE200007DF87D008C9E903E
:0E2CEA00E690E0FC8C057C0090E691E0FE7F19
:082CF800002CF508EF3DF50981
:072D0000E50845097003021C
:022D07002C5A44
:0E2D0900C002C003122A30E582D003D002704F
:012D170006B5
:062D180078AC7605806A2C
:0E2D1E00C002C003122A64E582D003D0027006
:012D2C0006A0
:062D2D0078AC760680552B
:082D3300150874FFB508021534
:012D3B00098E
:052D3C00AC0BAD0CAE74
:0A2D41000DAF0E1CBCFF091DBDFF05
:062D4B00051EBEFF011F82
:052D51008C0B8D0C8EBF
:092D56000D8F0EEC4D4E4F700282
:022D5F007B01F6
:062D6100E50845097021A0
:0D2D670090E690E0FC90E698F000000090EF
:0C2D7400E691E0FC90E699F00000009071
:082D8000E6497482F000000036
:082D880078ACB60003022C5ADE
:0E2D900090E6A37401F000000090E6A5740127
:062D9E00F07B01022C5A3B
:0E2DA400C0021209060012093ED002EA603198
:072DB200E50FC3950BFAE5E4
:052DB90010950CFBE584
:052DBE0011950DFCE57C
:052DC30012950EFD8ACF
:042DC8000F8B108CD1
:042DCC00118D128AC9
:042DD0000B8B0C8CD1
:042DD4000D8D0E78DB
:0B2DD800ACE644C0F675820802081348
:012DE30022CD
:0C2DE4008582417B007C00C003C004120B
:0A2DF0002A30E582D004D003700DF4
:0B2DFA0012080A78AC76057582000212
:022E05000813B0
:0E2E0700758204C003C0041207ECD00400C0A2
:0B2E15000412080AD004D003E50B45AE
:042E20000C450D450B
:032E24000E70022B
:022E27007C012C
:0A2E290090E6F574FFF090E6CEE5A8
:092E33000EF000000090E6CFE56E
:092E3C000DF000000090E6D0E565
:092E45000CF000000090E6D1E55C
:0C2E4E000BF0C003C0041228C9D004D04F
:0A2E5A000390E6D1E0FDE541601CA5
:0E2E640090E6187410F000000090E6D27401A1
:072E7200F0000000EC7031DC
:072E7900F5BB000000802AF8
:0E2E8000C003C004C005120969D005D004D0FB
:0E2E8E000390E61A7408F000000090E6E2746B
:082E9C0002F0000000EC7006DA
:062EA40075BB06000000F2
:0E2EAA00758200C003C004C005120813D005D5
:042EB800D004D0036F
:032EBC00EC6006C1
:062EBF00EB6003022FBAD4
:0E2EC500C003C004C00512077ED005D004D0A3
:072ED30003E4B50A0280666A
:052EDA007401B50A16A9
:032EDF00EB701382
:0E2EE2007B01C003C004C00512080AD005D051
:052EF00004D003804B3B
:052EF5007402B50A4261
:0E2EFA00C003C004C00512080AD005D004D0E1
:042F080003EC703432
:052F0C0078ACE6700442
:042F110078AC760220
:042F1500E54160082A
:082F190090E6A37401F08006AC
:062F210090E6A57401F02A
:082F2700000000E5BB20E709F2
:092F2F0000000090E6F574FFF0CB
:042F38007C01800494
:042F3C007B00807A1C
:052F4000E5BB20E75D88
:0A2F450090E6D1E0FEB5050280120F
:0E2F4F00C003C0041228C9D004D00390E6D1FC
:042F5D00E0FD8024EF
:032F6100308D218F
:082F640078AC7606E541600837
:082F6C0090E6A37401F0800659
:062F740090E6A57401F0D7
:0B2F7A007C0100000090E6F574FFF001
:042F8500E5416005BD
:052F8900E5AA30E00F95
:072F8E00E5416003022EBCC7
:082F9500E5AA30E503022EBCA1
:052F9D00D28C022EBCE5
:062FA200EC6003022EBCEE
:042FA800E541700986
:092FAC0090E6487406F0000000F4
:052FB5007C01022EBCAE
:0E2FBA00C0031209060012093ED003EB70019D
:012FC80022E6
:0C2FC90090E6CEE0FB7C007D007E008BDB
:052FD500457542007586
:062FDA0043007544009065
:0E2FE000E6CFE0FF7A007B008A048F03E4FA5C
:082FEE00FF4242EA4243EB42BC
:052FF60044EC4245908F
:0E2FFB00E6D0E0FD7E007A008A038E028D068D
:09300900E4FD4242EE4243EA42BA
:0530120044EB42459073
:0C301700E6D1E0FCE4FFFAFBE5424204D5
:09302300E5434207E5444202E5E1
:09302C00454203E50BC39CFCE5E1
:083035000C9FFFE50D9AFAE57E
:06303D000E9BFB8C0B8FC3
:043043000C8A0D8B5B
:053047000EE5416004EC
:04304C007A80800204
:023050007A40C4
:0B30520078ACEA46F675820402081311
:01305D002250
:0537C2000102000000FF
:0537C7000100000000FC
:0537CC000100000000F7
:0537D10001F7000000FB
:0D305E0090E60174FAF090E6F574FFF09032
:0A306B00387AE493FA90E6F3F0904F
:0A307500387BE493FA90E6C3F09074
:0A307F00387CE493FA90E6C1F0906B
:0A308900387DE493FA90E6C2F0905F
:0A309300387FE493FA90E6C0F09055
:0D309D003880E493FA90E6F4F075AF077AFE
:0630AA00D67B378B9A7AF9
:0A30B000D67B377B008A9B759DE4F8
:0530BA00759E007A0084
:0330BF00BA8000D4
:0230C200500CB0
:0C30C40090E67BE0FB90E67CF00A80EFD9
:0E30D00090E67174FFF075B4FF90E672E0FABE
:0E30DE004480F043B68000000090E6C4E4F0A9
:0E30EC0000000090E6C5E4F0903856E493FA38
:0B30FA0090E6C6F0903857E493FA907F
:0A310500E6C7F0903858E493FA9002
:0A310F00E6C8F0903859E493FA90F6
:0A311900E6C9F090385AE493FA90EA
:0A312300E6CAF090385BE493FA90DE
:0A312D00E6CBF090385CE493FA90D2
:0A313700E6CCF090385DE493FA90C6
:03314100E6CDF0E8
:013144002268
:0E37D60081B901010101010723030202020271
:0E37E4000200F7F5F5F5F5F5F5F70000000029
:0E37F2000000003F0C8A9A3FA5B53F07210357
:0E380000030103030500F3F3F2F3F3F1F3F712
:0E380E003F0000000000003F819138010101E1
:0E381C0001070101070202020200F7F5F7F7AB
:0E382A00F7F7F7F7000075000000003F8191EE
:0E383800380101010107030305000000000034
:0E384600F3F1F3F3F3F3F3F700006E0000006C
:02385400003F33
:0E385600000000000000000000000000000064
:0E386400000000000000000000000000000056
:0838720000000000000000004E
:07387A00E08000F7FA4E00A8
:0731450078AAB602028060C7
:07314C0078ABB60002801110
:0B31530012080A78AC760C758200129E
:06315E0008137582012236
:0531640078AAE6701FCF
:06316900789FE630E3113F
:0B316F0012080A78AC7603758200128B
:06317A000813758201221A
:08318000789FE64408F6802464
:0531880078AAB6010861
:08318D00789FE654F7F6801765
:06319500789FE620E31123
:0B319B0012080A78AC7604758200125E
:0631A600081375820122EE
:0731AC0078AAE624FB403B7A
:0A31B30078AAE625E0269031BD73EE
:0731BD000231CC0231CC020B
:0631C40031D70231E402E4
:0231CA0031E9E9
:0B31CC0012080A758200120813801B15
:0D31D70090388B75F0801208A275820122DD
:0531E4001231F6800924
:0531E90012350F800407
:0431EE0075820022C4
:0331F200758201E2
:0131F50022B7
:0731F60075460075470075E6
:0931FD0048007582081207EC126B
:0B320600080A758200120813C28090B5
:0E321100E618E4F000000090E61AE4F0000079
:0E321F000090E6027468F000000090E630E4D3
:0E322D00F000000090E631E4F090E680E0FD55
:03323B0030E70673
:06323E007D007E02800409
:043244007D407E004B
:053248008D498E4AAF24
:04324D000FAB10AA09
:0432510011AC128525
:03325500494B855D
:033258004A4C7568
:08325B004D00754E00C3EF9514
:063263004BEB954CEA95CF
:063269004DEC954E502CC7
:05326F008F498B4AAD00
:0C3274004A90E63474C04DF00000009059
:07328000E635E549F0E4F535
:0432870008F50975C8
:06328B004701750F0075FC
:063291001000751100752C
:04329700120080722F
:08329B0090E680E0FD30E7132E
:0E32A30090E63474C8F000000090E635E4F0C8
:0532B100000000801286
:0E32B60090E63474C0F000000090E6357440DD
:0432C400F000000016
:0A32C800EFC3954BFFEB954CFBEABA
:0832D200954DFAEC954EFC8FBE
:0432DA000F8B108ABC
:0432DE00118C1285B8
:0332E2000F4F8506
:0332E50010508501
:0332E800115185FC
:0532EB001252C3EF9533
:0632F0004BEB954CEA9542
:0632F6004DEC954E500B5B
:0432FC00854F08856D
:03330000500975FC
:0433030047018006F8
:043307008549088567
:02330B004A096D
:0A330D0090E601E0FA4403F0D287D5
:04331700E54860071E
:07331B00E546600302348D5A
:0733220012077EE50A602E90
:053329007401B50A0C5F
:04332E00E5467008F8
:0833320012080A754601801D16
:05333A007402B50A1247
:07333F0012080AE5487011B5
:0A334600C28778AC7602754801805A
:013350000676
:0633510075460002348DF8
:04335700E54870BC19
:05335B00E5AA20E05886
:0E33600090E690E0FA8A037A00EB3395E0FCE9
:08336E00FDE50BC39AF54FE5E4
:053376000C9BF550E581
:05337B000D9CF551E579
:053380000E9DF55285D1
:033385004F0B8566
:03338800500C8561
:03338B00510D855C
:03338E00520E904C
:0C339100E691E0FEE4FFFAFBE54FC39E6E
:0A339D00FEE5509FFFE5519AFAE5A6
:0633A700529BFB8E0B8F10
:0433AD000C8A0D8BEE
:0733B1000E90E6497402F0E2
:0B33B80090E6A9E0FA20E20302346472
:0E33C30090E6A5E0FA530270BA3003023464BB
:0433D100E547601557
:0C33D500AA0990E63474C04AF000000021
:0933E10090E635E508F00000005B
:0A33EA0090E698E54AF0000000901C
:0933F400E699E549F000000085AE
:0333FD00084985F7
:03340000094AE591
:05340300084509605CB2
:08340800AA08AB09E4FCFDE594
:093410000FC39AFAE5109BFBE5DD
:08341900119CFCE5129DFD8AE7
:043421000F8B108C71
:04342500118D12856E
:033429000F4F85BD
:03342C00105085B8
:03342F00115185B3
:03343200125290A3
:07343500E680E0FE30E7062F
:06343C007E007F02800407
:043442007E407F0049
:0B344600EF3395E0FAFBC3E54F9EE575
:06345100509FE5519AE5D1
:04345700529B50092B
:04345B00850F08854C
:03345F00100975DC
:02346200470120
:07346400E549454A6003023F
:02346B00331715
:0B346D0090E6A7E0FA20E2030233170C
:05347800E50B450C45C9
:06347D000D450E60030284
:023483003317FD
:08348500754801C287023317EC
:0E348D00C28790E601E054FEF0E0FA4402F03F
:07349B0012090612093EE5CB
:0334A2004660671A
:0534A50078ACE6705C4C
:0734AA0090E6ACE0FA70119E
:0734B10090E6ABE0FA700A9F
:0534B800E50B450C4589
:0534BD000D450E602624
:0634C200E549454A6006E1
:0634C80078AC760A8038A2
:0734CE0090E6B0E0FA700780
:0734D50090E6AFE0FA60068B
:0634DC0078AC760B8024A1
:0634E20078AC7607801EA5
:0634E800E549454A6006BB
:0634EE0078AC76088012A4
:0734F40090E6AFE0FA70075B
:0734FB0090E6B0E0FA600466
:0435020078AC760922
:063506007582001208139B
:02350C00D2806B
:01350E00229A
:0D350F007A007B007C00C002C003C00412E3
:0E351C00080A758200120813D004D003D002F2
:0E352A00C28090E6187410F000000090E61ABF
:0D3538007408F0000000C002C003C00412BF
:0E3545000969D004D003D00290E60274E8F0C9
:0E35530000000090E601E0FD4403F0D28790F6
:0C356100E630E4F000000090E631E4F0F9
:03356D00EA60030E
:03357000EB70639A
:0E357300C002C003C00412077ED004D003D0F3
:0535810002E50A603CB8
:053586007401B50A16F6
:03358B00EA7013D0
:0E358E007A01C002C003C00412080AD004D0A3
:05359C0003D0028021B4
:0535A1007402B50A18D8
:0E35A600C002C003C00412080AD004D003D033
:0435B40002EB700AAC
:0635B8007C017B01800490
:0435BE007A008014FB
:0335C200EB70A803
:0335C500EA60A514
:0835C80090E6A7E0FD30E29D52
:0635D0007B01C287809719
:0E35D600C28790E601E054FEF0E0FB4402F0F4
:0D35E400C002C004120906D00400C0041289
:0935F100093ED004D002EA601B7F
:0335FA00EC701260
:0735FD0090E6ABE0FA700755
:0736040090E6ACE0FA60045F
:04360B0078AC76071A
:06360F0075820012081391
:02361500D28061
:013617002290
:0538810001020000003F
:0538860001000000003C
:05388B00010000000037
:0538900001F70000003B
:0EE10000120100020000004043140500000060
:04E10E000102000109
:0AE112000A060002000000400100B0
:0EE11C0009022E0001010080FA09040000042F
:0EE12A00FF000000070501024000000705810C
:0EE138000240000007050202000200070586F3
:04E1460002000200D1
:0EE14A0009022E0001010080FA090400000401
:0EE15800FF00000007050102400000070581DE
:0EE16600024000000705020240000007058687
:04E174000240000065
:02E178000000A5
:093F00000205AE000205E2000218
:083F090005CC0002064600028F
:083F110005F80002066400023D
:083F190006BE000206BE000214
:083F210006BE000206BE00020C
:083F290006BE000206BE000204
:083F310006BE000206BE0002FC
:083F390006BE000206BE0002F4
:083F410006BE000206BE0002EC
:083F490006BE000206BE0002E4
:083F510006BE000206BE0002DC
:083F590006BE000206BE0002D4
:083F610006BE000206BE0002CC
:083F690006BE000206BE0002C4
:083F710006BE000206BE0002BC
:083F790006BE000206BE0002B4
:083F810006BE000206BE0002AC
:083F890006BE000206BE0002A4
:083F910006BE000206BE00029C
:083F990006BE000206BE000294
:083FA10006BE000206BE00028C
:083FA90006BE000206BE000284
:073FB10006BE000206BE007F
:08361800FB7A20E4FCFDFEFF3B
:0E362000E5822582F582E58333F583E5F033FC
:0B362E00F5F0EB33FB4017DAE98042B7
:0E363900E5822582F582E58333F583E5F033E3
:05364700F5F0EB33FB80
:0E364C00EC33FCED33FDEE33FEEF33FFEC9577
:06365A0053ED9554EE95BE
:0836600055EF95564013EC955F
:0836680053FCED9554FDEE95B5
:0936700055FEEF9556FF4382015F
:02367900DABEB7
:02367B00EB2240
:06009C00E478FFF6D8FD38
:08007A007900E94400601B7AE3
:050082000090389578A4
:030087000075A061
:0A008A00E0E493F2A308B8000205B9
:08009400A0D9F4DAF275A0FF17
:0E367D0020F71030F6118883A88220F507F69A
:05368B00A88375830017
:013690002217
:03369100F280F7CD
:02369400F02222
:0C369600AAF0FBE5828553F0A4FCADF027
:0C36A200E5838553F0A42DFDE435F0FE17
:0C36AE00E5828554F0A42DFDE5F03EFE01
:0C36BA00E433FFEA8553F0A42EFEE5F097
:0C36C6003FFFE5838554F0A42EFEE5F0E4
:0C36D2003FFFE5828555F0A42EFEE5F0D8
:0B36DE003FFFEB8553F0A42FFFEA85AF
:0A36E90054F0A42FFFE5838555F08F
:0C36F300A42FFFE5828556F0A42F8EF076
:0536FF008D838C822286
:0400A20075A00078CD
:0700A60000E8440060077947
:0600AD0000E4F309D8FC99
:0800B3007800E84400600C79BC
:0B00BB000090E000E4F0A3D8FCD9FAAC
:02006B00E4733C
:03006D0075815644
:0A007000123720E5826003020066EB
:0E37040020F71430F6148883A88220F507E61B
:06371200A883758300226C
:03371800E280F755
:03371B00E4932212
:02371E00E022A7
:04372000758200228C
:00000001FF
