:0400000002006D325B
:01000B0032C2
:0100130032BA
:01001B0032B2
:0100230032AA
:01002B0032A2
:0300330002072F92
:01003B003292
:03004300023F0079
:01004B003282
:03005300023F0069
:01005B003272
:030063000207335E
:0300E400020066B1
:050066001200E780FE1E
:0900E700788176007880760090A3
:0E00F000E60B7403F000000000000090E60034
:0E00FE007410F075800175B28175900075B3B5
:0E010C00FF75B00075B50090E67AE0FA440188
:0B011A00F0122B0390E60174E2F012DB
:0E012500028790E6097403F00000007589015E
:09013300000000788276000876D5
:04013C00E17884766C
:05014000120876E178D1
:0501450086761C08761F
:04014A00E17888765A
:05014E004A0876E1788B
:050153008E76780876AD
:04015800E178907644
:05015C007C0876E1784B
:0501610092768E087685
:0C016600E1D2E843D82090E668E0FA44BB
:0E01720009F090E65CE0FA443DF090E682E48D
:0E018000F0D2AF90E680E0FA54F7F0538EF81C
:08018E001201D078A4E660071D
:070196001201AC78A4760011
:05019D007881E660041A
:0401A20078817600EA
:0501A60012073380E3A5
:0101AB002231
:0A01AC0090E680E0FA440AF07A00C1
:0201B600DAFE6F
:0E01B80090E65D74FFF090E65F74FFF05391E7
:0901C600EF90E680E0FA54F7F036
:0101CF00220D
:0601D0007880E6700122B8
:0501D600AA08AB097846
:0901DB009CA60208A6037894A674
:0601E4000B08A60C08A6A2
:0501EA000D08A60E78CF
:0501EF0098A60F08A610
:0601F4001008A61108A688
:0601FA0012789EA69B781E
:080200009FA69A78A0A69E7843
:0A020800A1A69D120309E58270080B
:0802120090E6A0E0FA4401F0BF
:0C021A0090E6A0E0FA4480F078807600C6
:06022600789C86080886A2
:0A022C00097894860208860308860C
:09023600040886058A0B8B0C8C70
:04023F000D8D0E789B
:0C024300988602088603088604088605D9
:05024F008A0F8B108CEA
:04025400118D12787E
:080258009E869B789F869A7830
:07026000A0869E78A1869D97
:010267002274
:0E02680090E6837401F07421F07411F074318B
:0E027600F090E6837402F07422F07416F074B7
:0202840036F052
:010286002255
:0E02870090E610E4F000000090E611E4F000B4
:0E029500000090E612E4F000000090E613E492
:0D02A300F000000090E614E4F00000009070
:0E02B000E615E4F000000090E618E4F000000F
:0E02BE000090E619E4F000000090E61AE4F06B
:0E02CC0000000090E61BE4F000000090E61039
:0E02DA0074A0F000000090E61174A0F0000087
:0E02E8000090E61274A0F000000090E614747E
:0E02F600E0F000000090E68DE4F00000001241
:0503040009AD020975BE
:0C03090090E6B9E0FA24F4500302061C50
:07031500EA2A2A90031C7381
:07031C000204690204F30270
:06032300061C0205A10208
:06032900061C02061C0286
:06032F00034002061C025F
:0603350004540204420220
:05033B00041B02043068
:0A03400090E6BBE0FABA0102801952
:05034A00BA0202802A46
:05034F00BA0302803B2F
:06035400BA06030203EBF0
:06035A00BA0703020401D2
:030360000204177D
:09036300788290E6B308E6F07818
:0B036C008286027B0090E6B4EAF002FB
:02037700061F5F
:09037900788A90E6B308E6F078FA
:0B0382008A86027B0090E6B4EAF002DD
:02038D00061F49
:06038F0090E6BAE07016D2
:09039500788E90E6B308E6F078DA
:0B039E008E86027B0090E6B4EAF002BD
:0203A900061F2D
:0803AB0090E6BAE0FABA01166F
:0903B300789090E6B308E6F078BA
:0B03BC009086027B0090E6B4EAF0029D
:0203C700061F0F
:0803C90090E6BAE0FABA021650
:0903D100789290E6B308E6F0789A
:0B03DA009286027B0090E6B4EAF0027D
:0203E500061FF1
:0403E70075820022F9
:0903EB00788490E6B308E6F0788E
:0B03F4008486027B0090E6B4EAF00271
:0203FF00061FD7
:09040100788C90E6B308E6F0786F
:0B040A008C86027B0090E6B4EAF00252
:02041500061FC0
:0404170075820022C8
:08041B0090E74078A3E6F090A1
:0B042300E68AE4F090E68B7401F00222
:02042E00061FA7
:0A04300090E6BAE0FA78A3A60212E3
:06043A00028712026802B5
:02044000061F95
:0A04420090E6BAE0FA78A2A60212D2
:06044C00028712026802A3
:02045200061F83
:0804540090E74078A2E6F09069
:0B045C00E68AE4F090E68B7401F002E9
:02046700061F6E
:0A04690090E6B8E0FABA8002800ABB
:05047300BA8102801BAC
:05047800BA8274802C23
:0A047D0090E740E4F090E741F090B2
:0A048700E68AF090E68B7402F002A2
:02049100061F44
:0A04930090E740E4F090E741F0909C
:0A049D00E68AF090E68B7402F0028C
:0204A700061F2E
:0E04A90090E6BCE0FA53027E90E6BCE0FBC396
:0E04B70074809BE433FB4A9032B293FA339583
:0E04C500E0FB74A12AFA74E63BFB8A828B836B
:0E04D300E0FA53020190E740EAF090E741E4BE
:0C04E100F090E68AF090E68B7402F002C6
:0204ED00061FE8
:0404EF0075820022F0
:0704F30090E6B8E0FA600892
:0504FA00BA02028012AD
:0304FF0002059D56
:0B05020090E6BAE0FABA010302061FFF
:04050D0075820022D1
:0905110090E6BAE06003020599CE
:0E051A0090E6BCE0FA53027E90E6BCE0FBC324
:0E05280074809BE433FB4A9032B293FA339511
:0E053600E0FB74A12AFA74E63BFB90E6BCE001
:0E054400FC53047E90E6BCE0FDC374809DE491
:0E05520033FD4C9032B293FC3395E0FD74A162
:0E0560002CFC74E63DFD8C828D83E0FC530480
:0E056E00FE8A828B83ECF090E6BCE05480FAAB
:0E057C00C423541FFA90E6BCE0FB740F5B90A2
:0D058A00E6832AF090E683E0FA4420F002B8
:02059700061F3D
:040599007582002245
:04059D007582002241
:0705A10090E6B8E0FA6005E6
:0505A800BA026D800E97
:0A05AD0090E6BAE0FABA0202806894
:0405B7007582002227
:0E05BB0090E6BCE0FA53027E90E6BCE0FBC383
:0E05C90074809BE433FB4A9032B293FA339570
:0E05D700E0FB74A12AFA74E63BFB90E6BCE060
:0E05E500FC53047E90E6BCE0FDC374809DE4F0
:0E05F30033FD4C9032B293FC3395E0FD74A1C1
:0E0601002CFC74E63DFD8C828D83E0FC4304EE
:09060F00018A828B83ECF0800764
:0406180075820022C5
:03061C00020BA02E
:03061F00758201E0
:0106220022B5
:0C062300C0E0C082C083C0007880760177
:09062F005391EF90E65D7401F0B7
:09063800D000D083D082D0E03262
:0E064100C0E0C082C0835391EF90E65D740468
:01064F00F0BA
:07065000D083D082D0E0321C
:0E065700C0E0C082C0835391EF90E65D740254
:01066500F0A4
:07066600D083D082D0E03206
:0D066D00C0E0C082C083C002C003C000789E
:0A067A00888602088603788AA6022B
:0C06840008A6038A828B83A37402F0781E
:0A069000868602088603788CA60215
:0E069A0008A6038A828B83A37407F05391EFA6
:0606A80090E65D7410F005
:0D06AE00D000D003D002D083D082D0E03243
:0C06BB00C0E0C082C083C00078817601DE
:0906C7005391EF90E65D7408F018
:0906D000D000D083D082D0E032CA
:0D06D900C0E0C082C083C002C003C000901A
:0706E600E680E0FA30E72C8A
:0A06ED0078868602088603788AA644
:0D06F7000208A6038A828B83A37402F078A8
:0A070400888602088603788CA6029E
:0B070E0008A6038A828B83A37407F007
:090719005391EF90E65D7420F0AD
:0D072200D000D003D002D083D082D0E032CE
:03072F0053D8EFAD
:010732003294
:0532A300010200000023
:0532A800010000000020
:0532AD0001000000001B
:0A32B20000010202030304040505F5
:0A00C60078A4760078A5E4F608F6A9
:0C00D00008F608F678A9E4F608F608F631
:0800DC0008F678ADE4F608F621
:07073300120785E582601446
:07073A0012074FE582700D6C
:0B07410012087978B276017582000280
:02074C00088221
:01074E002288
:07074F0078AFE624FA402B0D
:0A07560078AFE625E02690076073F7
:070760000207720207750297
:0607670007780207810281
:05076D00077B02077E7E
:03077200020A0D6B
:03077500020A7104
:030778000216F274
:03077B0002237CDA
:03077E00022BEA61
:030781007582007E
:010784002252
:05078500E5BA30E104BB
:04078A007582002252
:07078E0078B276007A807B4F
:06079500E78B9A7A807BDD
:0C079B00E77B008A9B90E67BE0FA7B0085
:0507A7000ABA00010B7D
:0E07AC0090E68DE0FC7D00EAB50406EBB50595
:0307BA00028011A9
:0B07BD0012087978B2760175820012F4
:0607C80008827582002288
:0A07CE0090E67BE0FA78AFA60290F7
:0907D800E67BE0FA78B0A602907D
:0B07E100E67BE0FA78B1A60275820109
:0107EC0022EA
:0807ED001201D0E5BA30E1046D
:0407F500750A00225F
:0C07F90090E780E0FA7B000ABA00010BD8
:0E08050090E68DE0FC7D00EAB50406EBB5053B
:030813000280114F
:0B08160012087978B27601758200129A
:060821000882750AFF22A7
:0B08270090E781E0FA78AFE6B502131D
:0C08320090E782E0FA78B0748046FBEAA0
:03083E00B50304FB
:04084100750A012211
:0608450090E781E0700C59
:08084B0090E782E0FABA020412
:04085300750A0222FE
:03085700750AFF20
:01085A00227B
:08085B00AA827B0B7C007D40AA
:0E08630090E67BE0FE8B828C838DF01231FCE0
:07087100A3AB82AC83DAEBBC
:01087800225D
:0808790090E68DE4F0000000A0
:010881002254
:07088200AA82E5BA30E20191
:01088900224C
:07088A007BC07CE78C9D7B25
:08089100C07CE77C008B9E9007
:08089900E67CEA04F078B2905D
:0708A100E67CE6F07B0B7C16
:0508A800007D408A06FE
:0308AD00EE6017E3
:0E08B0008B828C838DF0123283FFA3AB82AC5F
:0908BE008390E67CEFF01E80E659
:0A08C70090E68F74022AF000000092
:0108D1002204
:0708D200AA82E5BA30E20141
:0108D90022FC
:0708DA007BC07CE78C9D7BD5
:0808E100C07CE77C008B9E90B7
:0808E900E67CEA04F078B2900D
:0408F100E67CE6F0CB
:0108F50022E0
:0508F600E5BA30E2014B
:0108FB0022DA
:0808FC0090E7C178B2E6F0902C
:0C090400E7C0E0FA90E68F04F00000006D
:0109100022C4
:0E091100AA82AB83ACF090E67BE0FDC002C092
:0E091F0003C004C005120879D005D004D0032F
:07092D00D002E5BA30E2013F
:0109340022A0
:070935007EC07FE78F9D7E6D
:08093C00C07FE77F008E9E9052
:0C094400E67CED04F090E67CE4F08D060B
:03095000EE60173F
:0E0953008A828B838CF0123283FFA3AA82ABC0
:090961008390E67CEFF01E80E6B5
:0A096A0090E68F74022DF0000000EB
:010974002260
:0E09750090E618E4F000000090E6047480F0B4
:0E09830000000090E6047402F00000007A0408
:0B09910090E6497482F0000000DAF5E7
:0E099C0090E604E4F000000090E6A3E4F00012
:0209AA0000004B
:0109AC002228
:0E09AD0090E61AE4F000000090E6047480F07A
:0D09BB0000000090E6047406F000000090BB
:0E09C800E604E4F000000090E6A5E4F0000074
:0109D6000020
:0109D70022FD
:0809D80090E680E0FA30E7062A
:0609E0007A007B02800496
:0409E6007A407B00D8
:0E09EA0090E624EBF000000090E680E0FA308A
:0209F800E70610
:0609FA007A007B0280047C
:040A00007A407B00BD
:080A040090E625EAF000000075
:010A0C0022C7
:070A0D0078B0B60202800779
:070A140078B0B60350800525
:050A1B00120879804D76
:0A0A200075820412085B120879E5E4
:080A2A000BF4FAE50CF4FBE506
:0A0A32000DF4FCE50EF4FD747B2AC0
:0C0A3C00FAE43BFBE43CFCE43DFD8A0BCB
:050A48008B0C8C0D8DEC
:050A4D000E12185D7897
:0C0A5200A5E4F608F608F608F61209AD57
:0B0A5E001209757582041208828004E2
:040A69007582002270
:030A6D007582018E
:010A70002263
:0A0A710078B0E624EF5003020B29D1
:0C0A7B0078B0E6240983C0E0E624148370
:030A8700C0E022AA
:020A8A00292918
:020A8C00AC2993
:020A8E00292914
:020A9000C32978
:020A920017E269
:020A9400F9FE69
:020A9600290332
:020A98000D0847
:010A9A001249
:020A9B000B0B43
:020A9D000A0B42
:020A9F000B0B3F
:020AA1000A0B3E
:020AA3000B0A3C
:020AA5000A0A3B
:020AA7000B0B37
:020AA9000B0B35
:010AAB000B3F
:070AAC00120879750B7A7541
:060AB3000C00750D00753A
:0A0AB9000E00758204120882806AA4
:0A0AC30075820112085B120879E544
:030ACD000B6007B4
:070AD00043B502C2B180032F
:030AD70053B5FD17
:080ADA00758200120882804BB6
:070AE200120879750B007585
:060AE9000C20750D0075E4
:0A0AEF000E007582041208828034A4
:050AF90012152D802FF5
:050AFE001212DF802A46
:050B03001230BD802549
:050B08001230D2802034
:050B0D00123145801BC0
:050B120012310C8016F9
:0C0B1700120879A2B7E433FA8A0B758249
:060B2300011208828004AB
:040B290075820022AF
:030B2D00758201CD
:010B300022A2
:0A0B3100AA82AB83E50845097001B4
:010B3B002297
:070B3C00AC14BCE6028005C9
:050B43008B05BDE63149
:080B48008A068B07AC13AD1403
:0E0B50008E028F038C828D83E0F88A828B8365
:060B5E00F00EBE00010FC5
:050B64000CBC00010DB6
:080B6900150874FFB508021520
:010B7100097A
:060B7200E508450970D8FA
:010B7800225A
:0C0B79008C9AAC137E008C9B8D9D7B0041
:050B85008A9E020B8BAB
:010B8A002248
:080B8B00A90890E67B058690A5
:040B9300E67C058671
:080B9700E00586F00586D9F89F
:010B9F002233
:0A0BA00090E6B9E0FABAA202804A1A
:050BAA00BAA302804522
:060BAF00BAE103020E751D
:060BB500BAE203020E5536
:060BBB00BAE303020E552F
:060BC100BAE403020E3548
:060BC700BAE503020E3541
:060BCD00BAE603020D4030
:060BD300BAE703020D6DFC
:060BD900BAE803020DB5AD
:060BDF00BAE903020E1545
:060BE500BAEA03020DE470
:060BEB00BAEB03020E95B7
:030BF100020EB53C
:0B0BF40090E6BAE0FAA3E0FB8A0B8B4E
:0A0BFF000C90E6BEE0FAA3E0FB90C4
:090C0900E6B8E0FCBCC002800367
:030C1200020CA52C
:070C1500EA4B7003020EB967
:080C1C0090E6A0E0FC20E1F8E5
:080C240090E6B9E0FCBCA2114E
:0A0C2C00750D00750E00C002C00334
:070C3600121153D003D0029C
:090C3D00C3EA9440EB9400500658
:060C46008A0D8B0E8006F2
:060C4C00750D40750E005D
:080C520090E6B9E0FCBCA20D24
:0D0C5A00C002C0031210A6D003D002801A01
:040C6700850D08856A
:030C6B000E0990DF
:040C6E00E740850BCB
:030C720013850CDB
:0C0C750014C002C003120B31D003D002E7
:080C810090E68AE4F0AC0DAD31
:080C89000E90E68BECF0EC2567
:070C91000BFEED350CFF8E98
:0A0C98000B8F0CEAC39CFAEB9DFBE6
:030CA200020C152C
:0A0CA50078ADE608467003020D3C2E
:0C0CAF0090E6BCE0FCA3E0FD78ADE6B5EB
:090CBB00040708E6B505028002F9
:020CC400807638
:080CC60090E6B8E0FCBC406EB2
:070CCE00EA4B7003020EB9AE
:090CD50090E68AE4F090E68BF051
:080CDE0090E6A0E0FC20E1F823
:0A0CE60090E68BE0FC7D008C0D8D84
:090CF0000E90E6B9E0FCBCA31F64
:040CF900850D0885D8
:030CFD000E098558
:060D00000B82850C8375D7
:030D060013407522
:070D090014E7C002C0031251
:080D10000B31D003D002800B6F
:0B0D1800C002C003121153D003D00230
:060D2300AC0DAD0EEC2545
:070D29000BFEED350CFF8EFF
:0A0D30000B8F0CEAC39CFAEB9DFB4D
:020D3A008092A5
:040D3C00758200229A
:0A0D400090E6B8E0FABAC0028003A2
:030D4A00020EB9DD
:080D4D0090E6A0E0FA20E1F8B5
:0E0D550090E740740AF0A37403F090E68AE47D
:0A0D6300F090E68B7402F0020EB966
:0A0D6D0090E6B8E0FABAC002800375
:030D7700020EB9B0
:080D7A0090E6A0E0FA20E1F888
:0E0D820090E740740DF0A3E4F0A3F0A3F0900E
:0B0D9000E744E4F5F01231FCA3E4128C
:0A0D9B0031FCA3E41231FCA3E412C2
:080DA50031FC90E68AE4F090B5
:080DAD00E68B7408F0020EB998
:080DB50090E6B8E0FABA402311
:090DBD0090E68AE4F090E68BF068
:080DC60090E6A0E0FA20E1F83C
:0C0DCE0090E740E0FAA3E0FB78ADA6023D
:060DDA0008A603020EB999
:040DE00075820022F6
:080DE40090E6B8E0FABA4025E0
:070DEC0078ADE60846601E29
:0C0DF30090E6BCE0FAA3E0FB78ADE6B5AA
:090DFF00020708E6B503028002B8
:020E0800800761
:070E0A0078A47601020EB985
:040E110075820022C4
:070E1500750BF0750C3F7531
:060E1C000D04750E0075C7
:060E22000FCD7510AB902E
:070E2800E6B8E0FABAC003CE
:030E2F00020EBDF3
:030E3200020FD6D6
:070E3500750BE0750C3F7521
:060E3C000D0C750E00759F
:060E42000F7875105690B8
:070E4800E6B9E0FABAE40389
:030E4F00020EBDD3
:030E5200020FD6B6
:070E5500750BC0750C3F7521
:060E5C000D10750E00757B
:060E62000FCD7510AB90EE
:070E6800E6B9E0FABAE2036B
:030E6F00020EBDB3
:030E7200020FD696
:070E7500750BA0750C3F7521
:060E7C000D1C750E00754F
:060E82000FCD7510AB90CE
:070E8800E6B8E0FABAC0036E
:030E8F00020EBD93
:030E9200020FD676
:070E9500750BF8750C3F75A9
:060E9C000D02750E007549
:060EA2000FCD7510AB90AE
:070EA800E6B8E0FABAC0034E
:030EAF00020EBD73
:030EB200020FD656
:040EB5007582002220
:030EB9007582013E
:010EBC002213
:0C0EBD007AFF90E6B8E0FBBBC0028004A6
:040EC900758200220C
:050ECD00AB0DAC0E7539
:0A0ED2000D00750E00C002C003C041
:0E0EDC0004121153D004D003D00274032BFB78
:0A0EEA00E43CFC8B0D8C0EC00212DC
:0A0EF40010A6D002E50D24FDFBE579
:070EFE000E34FFFC8B0D8C8C
:0B0F05000E90E740E0FBA3E0FCEBB522
:060F10000F48ECB510448F
:040F16007A007B00E2
:0A0F1A007403250DFCE4350EFD8B79
:0A0F2400067F00C3EE9CEF9D502CE9
:0A0F2E00EB2440F582E434E7F5837C
:0A0F3800E0FC2AFAEB2440FCE4344C
:0A0F4200E7FD74022B2440F582E461
:0C0F4C0034E7F583E0FE8C828D83F00B0F
:020F580080C057
:030F5A00EA6064E6
:040F5D00850D088571
:030F61000E0990E6
:090F6400E6B9E0FABAE1028034BA
:050F6D00BAE202803D24
:050F7200BAE402800555
:050F7700BAE9438017F8
:020F7C007A00F9
:030F7E00BA0C00AA
:020F8100503EE0
:0A0F8300EA2440F582E434E7F58328
:060F8D007430F00A80EB55
:050F930090E74075131A
:030F9800CB751402
:060F9B0032120B31802030
:050FA10090E74075130C
:030FA600CF7514F0
:060FA90032120B31801230
:050FAF0090E7407513FE
:030FB400EB7514C6
:060FB70032120B31800430
:040FBD007582002217
:0C0FC10090E68AE4F000000090E68BE56A
:080FCD000DF000000075820127
:010FD50022F9
:080FD60090E6B8E0FABA401CF5
:070FDE0078ADE6084660153E
:0C0FE50090E6BCE0FAA3E0FB78ADE6B5B6
:090FF100020708E6B503028004C2
:040FFA0075820022DA
:090FFE0090E68AE4F090E68BF025
:0810070090E6A0E0FA20E1F8F8
:07100F0090E68AE0FA70147C
:05101600AA0DAB0E90D5
:0E101B00E68BE0FC7D00B50206EDB503028019
:0110290004C2
:04102A0075820022A9
:06102E008A15AD158D06C8
:061034008E071EEF60258F
:0C103A00C002C00374022E2440FFE43406
:09104600E7FCEE2440F582E434DD
:0C104F00E7F583E0FA8F828C83F0D00379
:04105B00D00280D56A
:08105F0090E740E50FF0A3E566
:0510670010F07C407E4A
:0A106C00E78E9A759B407C00740229
:031076002515FD40
:0910790090E67BE0FE2CFCDDF7A3
:0A108200740225152440F582E434C1
:0C108C00E7F583C3E49CFCF074032AFA2F
:08109800E43BFB8A0D8B0E12F4
:0510A0001153758201EF
:0110A5002228
:0510A600E50DFA7004E5
:0410AB007582012227
:0810AF0090E678E0FB20E6F872
:0C10B70090E6787480F090E67974A3F065
:0810C30090E678E0FB30E0F854
:0810CB0090E678E0FB20E274DE
:0810D30090E678E0FB30E16CCF
:0310DB00BA01084F
:0810DE0090E678E0FB4420F0ED
:0710E60090E679E07B407CFD
:0610ED00E78C9A7B407CB9
:0510F300E77C008B9B6F
:0410F800DA02802672
:0810FC0090E678E0FB30E0F81B
:0811040090E678E0FB20E23BDD
:03110C00BA01081D
:08110F0090E678E0FB4420F0BB
:0B11170090E679E0FB90E67BF080D6CC
:0811220090E678E0FA30E0F8F5
:08112A0090E678E0FA20E215DE
:0E11320090E678E0FA4440F090E679E0FA901A
:07114000E67BF0758201223D
:0B11470090E678E0FA4440F07582006A
:01115200227A
:02115300AA0DE3
:0811550090E678E0FB20E6F8CB
:0C115D0090E6787480F090E67974A2F0BF
:0811690090E678E0FB30E0F8AD
:0811710090E678E0FB20E26B40
:0811790090E678E0FB30E16331
:03118100EA600E13
:071184007B407CE78C9A7BA5
:07118B00407CE77C008B9B18
:021192007B02DE
:03119400EA7003FB
:03119700EB603BCF
:03119A00EB6014F3
:03119D00BB02088A
:0811A00090E679E50CF08006F1
:0611A80090E679E50BF072
:0311AE001B800A99
:0A11B10090E67BE0FC90E679F01A6E
:0811BB0090E678E0FC30E0F85A
:0811C30090E678E0FC20E2193F
:0811CB0090E678E0FC20E1C190
:0211D300800F8B
:0E11D50090E678E0FA4440F01211F0758201C5
:0111E30022E9
:0B11E40090E678E0FA4440F0758200CD
:0111EF0022DD
:0811F00090E678E0FA20E6F831
:0E11F80090E678E0FA4480F090E67974A2F078
:0812060090E678E0FA30E0F810
:08120E0090E678E0FA4440F09C
:0812160090E678E0FA20E6F80A
:08121E0090E678E0FA30E1D21D
:0112260022A5
:0812270090E678E0FA4440F083
:08122F0090E678E0FA20E6F8F1
:011237002294
:07123800AA8290E679EAF0BA
:08123F0090E678E0FA30E0F8D7
:0812470090E678E0FA20E208CD
:08124F0090E678E0FA20E107C7
:0712570012122778B2762382
:06125E0078B2E6B40100C5
:04126400E433F582F8
:011268002263
:0C126900AA8290E6787480F0EA2AFAE588
:0B127500164AF582121238E582700460
:0412800078B27622A8
:0612840078B2E6B401009F
:04128A00E433F582D2
:01128E00223D
:09128F0075160175825102126905
:0C129800AA82AB83751600758251C0025B
:0D12A400C003121269E582D003D002601170
:0E12B1008B82C002C003121238E582D003D037
:0312BF00027004B6
:0412C2007C0080022A
:0212C6007C01A9
:0312C800EC600BCC
:0B12CB007B008A82121238E58270045A
:0412D6007A00800218
:0212DA007A0197
:0212DC008A8204
:0112DE0022ED
:0612DF00E4F517F518F517
:0712E50008F50975820812EB
:0612EC00085B120879AC5A
:0412F2000FAD10AE7E
:0A12F60011AF12C3E49C74209DE4C4
:051300009EE49F40285F
:04130500850B1985B6
:031309000C1A8536
:03130C000D1B8531
:04130F000E1CEC259F
:0813130019FCED351AFDEE3561
:0A131B001BFEEF351CFFC3E49C74B9
:08132500209DE49EE49F500AA4
:0A132D0078B276097582000208828A
:09133700AC19741C251AFDE43503
:071340001BFEE4351CFF8CCD
:041347000B8D0C8E70
:04134B000D8F0E856F
:06134F000B82850C8312E5
:061355001298E58270050C
:05135B00F5820208828A
:0A136000121227758200120882E5C0
:04136A000F451045D6
:05136E0011451260288A
:0A13730012128F7401B50F0EE4B5DD
:08137D00100AE4B51106E4B505
:0413850012028002CE
:021389008008DA
:08138B0090E678E0FC4420F03C
:0813930090E679E0F50A800301
:03139B00751801C1
:04139E00E5186007E7
:0713A200E517600302151FAF
:0913A9001207EDE4B50A02803FD1
:0513B2007401B50A0CF6
:0413B700E5177008BE
:0813BB00751701120879802E5C
:0513C3007402B50A1CD4
:0713C800120879E5187022FC
:0C13CF0090E6A57401F000000075180104
:0913DB0078B27602121227800D8F
:0413E400E518700395
:0313E800121227B7
:0613EB0075170002151F3A
:0413F100E51870A9E2
:0513F500E5AA20E5A4BB
:0713FA007C007DF88D9D7C55
:08140100007DF87D008C9E8542
:031409000F1D852F
:03140C00101E852A
:03140F00111F8525
:0314120012209015
:07141500E680E0FA30E70673
:06141C007A007B0280044F
:041422007A407B0091
:0C142600EB3395E0FCFDC3EA951DEB954F
:061432001EEC951FED9574
:031438002050142D
:08143B0090E680E0FA30E706BC
:061443007A007B02800428
:041449007A407B006A
:02144D00800419
:04144F00AA0FAB1025
:041453008A088B096F
:07145700E5084509700302DE
:02145E00150A6D
:07146000E518600302150A04
:0814670090E678E0FC30E0F8AB
:08146F0090E678E0FC30E21881
:0814770078B27623751801908C
:0C147F00E6A57401F0EAC39508FAEB95AD
:04148B0009FB80C811
:0A148F007402B50F0EE4B5100AE474
:09149900B51106E4B5120280024F
:0214A2008008C0
:0814A40090E678E0FC4420F022
:0A14AC007401B50F0EE4B5100AE458
:0914B600B51106E4B51202800232
:0214BF00800BA0
:0B14C100C002C003121227D003D002AB
:0A14CC0090E679E0FC90E67CF01554
:0714D6000874FFB5080215C0
:0114DD000905
:0514DE00AC0FAD10AEE3
:0A14E30011AF121CBCFF091DBDFF74
:0614ED00051EBEFF011FF9
:0514F3008C0F8D108E2E
:0A14F800118F12EC4D4E4F600302FD
:0215020014577C
:06150400751801021457E6
:0E150A0090E698EBF00000007B0090E699EA76
:07151800F000000002139E29
:07151F001209ADE51760069B
:061526007582000208823C
:01152C00229C
:07152D007521007522007515
:061534002301E4F508F5B7
:08153A000975820812085B121A
:051542000879AD0FAEB9
:0415470010AF11AC24
:0C154B0012C3E49D74209EE49FE49C40C9
:011557001C77
:0A155800ED250BFDEE350CFEEF351E
:0A1562000DFFEC350EFCC3E49D7490
:08156C00209EE49FE49C500A5C
:0A15740078B2760975820002088241
:0B157E00758200120882AC0B741C2563
:081589000CFDE4350DFEE43514
:051591000EFF8C0B8D24
:041596000C8E0D8F1B
:04159A000EE50F4506
:04159E00104511459E
:0315A200127003C1
:0315A500752201AB
:0415A800E5226007D1
:0715AC00E52160030216DADD
:0915B3001207EDE4B50A028035CF
:0515BC007401B50A0CEA
:0415C100E5217008A8
:0815C500752101120879802450
:0515CD007402B50A19CB
:0715D200120879E5227018F0
:0C15D90090E6A37401F0000000752201F0
:0615E50078B276028006D8
:0615EB007521000216DA72
:0415F100E52270B3CC
:0515F500E5AA20E0AEB4
:0715FA007C007DF08D9A7C5E
:08160100007DF07D008C9B9040
:0E160900E690E0FC8C057C0090E691E0FE7F10
:08161700002CF508EF3DF50978
:06161F00E50845096083A7
:07162500E52260030215A895
:04162C00E523600C46
:07163000850B82850C83127B
:0516370012987523006C
:05163C0078B2E6700E1B
:0E16410090E67BE0FCF582121238E582700B19
:0B164F0075220190E6A37401F080C535
:08165A00150874FFB508021524
:01166200097E
:05166300AC0FAD10AE5C
:0716680011AF12EC24FFF5A5
:0A166F0024ED34FFF525EE34FFF5FD
:0716790026EF34FFF5278581
:03168000240F85AF
:03168300251085AA
:03168600261185A5
:031689002712AA7B
:04168C000BAB0CACEC
:0A1690000DAD0E0ABA00090BBB00F5
:06169A00050CBC00010D6F
:0516A0008A0B8B0C8C8D
:0416A5000D8D0EE5B4
:0416A900244525456A
:0516AD00264527700333
:0316B2007522019D
:0616B500E508450970067E
:0616BB0090E6497482F084
:0416C100E5227009A5
:0616C500E50B543F600339
:0316CB0002161FE5
:0716CE001212271211F07542
:0516D500230102161FB5
:0416DA00E52370068E
:0616DE001212271211F0A8
:0716E400120975E521600603
:0616EB0075820002088276
:0116F10022D6
:0532BC0001020000000A
:0532C100010000000007
:0532C600010000000002
:0432CB000E000000F1
:0E32CF004F6E626F6172642055534200000022
:0E32DD00FDFDFDFD000000000000856FFD1BE3
:0E32EB00444F6E62557362000000FDFDFDFD54
:0232F9000000D3
:0716F20078B0B6020280602F
:0716F90078B1B60002801178
:0B17000012087978B2760C7582001296
:06170B0008827582012234
:0517110078B0E6701F36
:0617160078A5E630E011A9
:0B171C0012087978B276037582001283
:0617270008827582012218
:08172D0078A5E64401F68024D2
:0517350078B0B60108C8
:08173A0078A5E654FEF68017C5
:0617420078A5E620E0118D
:0B17480012087978B276047582001256
:06175300088275820122EC
:0A17590078B0E624F45003021849AA
:0A17630078B0E625E02690176D73BC
:07176D000217910217A1020F
:0617740017B10218490242
:06177A0017BE0217D702A2
:06178000180B02184202E2
:06178600183402183402C1
:05178C00183B021834B7
:0A17910012184D120879758200123B
:06179B00088275820122A4
:0A17A10012185D120879758200121B
:0617AB0008827582012294
:0D17B1009032FB75F0801209117582012243
:0717BE00120879750B00759C
:0617C5000C6A750D187599
:0C17CB000E007582041208827582012253
:0717D70090E67BE0FA6004DC
:0417DE00D2B3800200
:0217E200C2B390
:0717E40090E67BE0FA6004CF
:0417EB00D2B28002F4
:0217EF00C2B284
:0717F10090E67BE0FA6004C2
:0417F800D2B48002E5
:0217FC00C2B475
:0D17FE00120879758200120882758201229E
:0C180B00120879A2B3E433FA8A0BA2B2EF
:0B181700E433FA8A0CA2B0E433FA8A32
:0A1822000DA2B4E433FA8A0E7582B9
:08182C000412088275820122FA
:07183400121C18758201224D
:07183B0012201F758201223B
:0718420012186775820122F4
:03184900758200A5
:01184C002279
:0E184D0043B50443B50843B510C2B2D2B3C2CE
:01185B00B4D8
:01185C002269
:09185D0053B5E3C2B2D2B3C2B428
:01186600225F
:0532FB000102000000CB
:053300000100000000C7
:053305000100000000C2
:0B1867007A007B0090E67BE0FC600450
:04187200D2B380026B
:02187600C2B3FB
:0718780090E67BE0FC600438
:04187F00D2B280025F
:02188300C2B2EF
:0E188500C2B4758204C002C00312085BD00317
:0E18930000C003120879758200120882D0038B
:0718A100D002AC0BAD0CAE50
:0418A8000DAF0E8CE6
:0418AC000F8D108EFE
:0918B000118F12EC4D4E4F700235
:0218B9007B01B1
:0318BB00EB6006D9
:0618BE00EA600302196C50
:0D18C400C002C0031207EDD003D002E4B54E
:0418D1000A02803156
:0518D5007401B50A0FCB
:0E18DA007A01C002C003120879D003D0028048
:0118E8001DE2
:0518E9007402B50A13B2
:0B18EE007B0178B27602C002C003123A
:0818F9000879D003D00280053C
:051901007A0002196CE0
:03190600EB70B2D1
:05190900AC0BAD0CAEBB
:0A190E000DAF0EC3ED94FEEE940041
:05191800EF94005006F1
:06191D008C088D09800614
:061923007508007509FEC5
:08192900AC08AD09E4FEFFE586
:091931000BC39CFCE50C9DFDE5D7
:08193A000D9EFEE50E9FFF8CDF
:041942000B8D0C8E6F
:081946000D8F0EC000C001A8C6
:04194E0008A90909D2
:0E195200D2B4C2B4D8FAD9F8D001D000EC4D0E
:071960004E4F60030218BBAB
:051967007B010218BB2A
:03196C00EA602905
:07196F00E50FC3950BFAE53B
:0519760010950CFBE5DB
:05197B0011950DFCE5D3
:0519800012950EFD8A26
:041985000B8B0C8C30
:041989000D8D0E783A
:0B198D00B2E64480F675820402088276
:01199800222C
:0A199900C001C002A908AA09E96014
:0219A300010A37
:0319A50090E67B4E
:0E19A800E01392B2D2B4C2B41392B2D2B4C25F
:0E19B600B41392B2D2B4C2B41392B2D2B4C27D
:0E19C400B41392B2D2B4C2B41392B2D2B4C26F
:0E19D200B41392B2D2B4C2B41392B2D2B4C261
:0919E000B4D9C5DAC3D002D0016C
:0119E90022DB
:0A19EA00C001C002A908AA09E960C3
:0219F400010AE6
:0A19F60090E67B058690E67C0586EE
:0E1A0000E01392B2A2B013D2B4C2B492B2A25A
:0E1A0E00B013D2B4C2B492B2A2B013D2B4C21A
:0E1A1C00B492B2A2B013D2B4C2B492B2A2B0CD
:0E1A2A0013D2B4C2B492B2A2B013D2B4C2B4FA
:0E1A380092B2A2B013D2B4C2B492B2A2B01352
:0E1A4600D2B4C2B40586F00586D9AFDAADD0B1
:031A540002D001BC
:011A5700226C
:0A1A5800C001C002A908AA09E96054
:021A6200010A77
:031A640090E67C8D
:0E1A6700A2B0D2B4C2B413A2B0D2B4C2B413AF
:0E1A7500A2B0D2B4C2B413A2B0D2B4C2B413A1
:0E1A8300A2B0D2B4C2B413A2B0D2B4C2B41393
:0E1A9100A2B0D2B4C2B413A2B0D2B4C2B41385
:091A9F00F0D9C2DAC0D002D00176
:011AA800221B
:0A1AA900C001C002A908AA09E96003
:021AB300010A26
:031AB50090E67B3D
:0E1AB800E01392B3D2B4C2B41392B3D2B4C24C
:0E1AC600B41392B3D2B4C2B41392B3D2B4C26A
:0E1AD400B41392B3D2B4C2B41392B3D2B4C25C
:0E1AE200B41392B3D2B4C2B41392B3D2B4C24E
:091AF000B4D9C5DAC3D002D0015B
:011AF90022CA
:0A1AFA00C001C002A908AA09E960B2
:021B0400010AD4
:0A1B060090E67B058690E67C0586DC
:0E1B1000E01392B3A2B013D2B4C2B492B3A247
:0E1B1E00B013D2B4C2B492B3A2B013D2B4C208
:0E1B2C00B492B3A2B013D2B4C2B492B3A2B0BA
:0E1B3A0013D2B4C2B492B3A2B013D2B4C2B4E8
:0E1B480092B3A2B013D2B4C2B492B3A2B0133F
:0E1B5600D2B4C2B40586F00586D9AFDAADD0A0
:031B640002D001AB
:011B6700225B
:0A1B6800C001C002A908AA09E96043
:021B7200010A66
:031B740090E67B7D
:0E1B7700E01392B21392B3D2B4C2B41392B27E
:0E1B85001392B3D2B4C2B41392B21392B3D27D
:0E1B9300B4C2B41392B21392B3D2B4C2B4D996
:071BA100D5DAD3D002D00118
:011BA800221A
:0A1BA900C001C002A908AA09E96002
:021BB300010A25
:0A1BB50090E67B058690E67C05862D
:021BBF007C02A6
:0E1BC100E01392B21392B3FBE8A2B013F8EB5C
:0E1BCF00D2B4C2B41392B21392B3FBE8A2B028
:0E1BDD0013F8EBD2B4C2B41392B21392B3FB5E
:0E1BEB00E8A2B013F8EBD2B4C2B41392B21356
:0E1BF90092B3FBE8A2B013F8EBD2B4C2B4DC96
:0E1C0700B9E80586F0058619D9AEDAACD00230
:021C1500D001FC
:011C170022AA
:071C1800752900752B007512
:071C1F002C0078B0B6082A82
:081C260075290190E67BE0F551
:081C2E002890E67BE0FE600453
:041C3600D2B38002A3
:021C3A00C2B333
:041C3C00E52860082F
:041C4000752DEA759F
:041C44002E19805A7B
:041C4800752D9975E8
:041C4C002E1980527B
:051C500078B0B6092583
:0A1C550075280190E67BE0FC6004B6
:041C5F00D2B380027A
:021C6300C2B30A
:071C650090E67BE0FC600447
:041C6C00D2B280026E
:021C7000C2B2FE
:041C7200752D5875FF
:041C76002E1A80287A
:081C7A0075290190E67BE0F5FD
:081C82002890E67BE0FC600401
:041C8A00D2B2800250
:021C8E00C2B2E0
:041C9000E5286008DB
:041C9400752DFA753B
:041C98002E1A80067A
:041C9C00752DA97584
:021CA0002E1AFA
:0D1CA20075820412085B1208797582001229
:041CAF000882850B17
:031CB3002F850C6E
:031CB60030850D69
:031CB90031850E64
:031CBC0032852F3F
:031CBF000F85305E
:031CC20010853159
:031CC50011853254
:0A1CC800127407552FFD7A007B000F
:071CD2007C008D2AAA2FE51A
:0C1CD90030C423CAC423541F6ACA541F1D
:0C1CE500CA6ACAFBE531C42354E04BFB83
:0A1CF100AC31E532C423CCC4235407
:0C1CFB001F6CCC541FCC6CCCFE8A0B8BF1
:041D07000C8C0D8EA5
:051D0B000EE52A601D39
:051D1000AA0BAB0CACB6
:0A1D15000DAE0E0ABA00090BBB0068
:061D1F00050CBC00010EE2
:051D25008A0B8B0C8C01
:031D2A000D8E0E0D
:051D2D00E50F45104523
:051D32001145127003D1
:031D3700752B0108
:021D3A00C2B431
:041D3C00E52B60072C
:071D4000E52C6003021F32D5
:071D47001207EDE50A602C14
:051D4E007401B50A0C50
:041D5300E52C700803
:081D5700752C01120879801BB4
:051D5F007402B50A103A
:071D6400120879E52B700F56
:091D6B0078B27602752B018006A6
:061D7400752C00021F3275
:041D7A00E5296005F2
:051D7E00E5AA20E0B918
:041D8300E5286005EA
:051D8700E5AA20E5B013
:041D8C00E52B70AC27
:041D9000E529600ED3
:071D94007A007BF08B9A7AC4
:071D9B00007BF07B008A9B36
:041DA200E528600EC2
:071DA6007A007BF88B9D7AA7
:071DAD00007BF87B008A9E19
:041DB400E5296019A4
:0E1DB80090E690E0FA8A037A0090E691E0FC53
:0A1DC6007E004AF508EE4BF5098097
:011DD00054BE
:041DD100850B3385C6
:031DD5000C348546
:031DD8000D358541
:031DDB000E369031
:071DDE00E680E0FF30E7069C
:061DE5007A007B0280047D
:041DEB007A407B00BF
:0C1DEF008A07EBFD3395E0FAFBC3EF958B
:061DFB0033ED9534EA957A
:061E010035EB9536501888
:081E070090E680E0FA30E706E6
:061E0F007A007B02800452
:041E15007A407B0094
:061E19008A088B09800617
:041E1F00853308857A
:021E2300340980
:081E2500AA08AB09E4FCFDE58D
:091E2D000BC39AFAE50C9BFBE5DE
:081E36000D9CFCE50E9DFD8AE8
:041E3E000B8B0C8C72
:041E42000D8D0EE50F
:031E46002A6013FC
:051E4900E50B450C450E
:051E4E000D450E7009B6
:081E5300150874FFB508021523
:011E5B00097D
:061E5C00E50845096009DC
:071E6200852D82852E8312FD
:021E6900006B0C
:071E6B00E52A7003021EFCD2
:051E7200E50B450C45E5
:061E77000D450E600302A0
:021E7D001EFC49
:061E7F00AA2AE529700B00
:031E850030B20474
:041E88007BFF80025A
:021E8C007B00D9
:021E8E008005CD
:051E900090E67BE0FB81
:051E950078B0B60B1D42
:021E9A008A04B8
:0B1E9C00EBA2E092B3C313FB30B005D3
:051EA7004303808003ED
:031EAC0053037F5E
:061EAF00D2B4C2B4DCE76E
:021EB500801992
:0B1EB700EBA2E092B2C313FB30B005B9
:051EC2004303808003D2
:031EC70053037F43
:061ECA00D2B4C2B4DAE755
:041ED000E528601D84
:0C1ED400AD2A7A007408C39DFDE49AFA60
:071EE0008DF005F0EB80021C
:021EE700C31323
:081EE900D5F0FBFB90E67CF054
:071EF100752A000508E4B5A5
:041EF80008020509CE
:041EFC00E52960096B
:091F000090E6497482F000000033
:041F0900E528601255
:0A1F0D0090E698E509F0000000904E
:081F1700E699E508F000000066
:051F1F00E50B450C4537
:061F24000D450E600302F2
:021F2A001D3C5C
:061F2C00752B01021D3CB3
:071F32001209751209ADE56B
:041F39002C700122E5
:041F3D00E52A601D14
:051F4100AA0BAB0CAC83
:0A1F46000DAD0E1ABAFF091BBBFF18
:061F5000051CBCFF011D91
:051F56008A0B8B0C8CCE
:031F5B000D8D0EDB
:041F5E00850D35E5D3
:0A1F62000EC40354F8C535C403C5CE
:041F6C00356535C5DD
:061F70003554F8C535658B
:041F760035F536E522
:081F7A000CC40354074535F5C2
:031F820035850B97
:081F850033E50CC40354F8C558
:061F8D0033C403C53365F7
:061F930033C53354F8C50C
:041F9900336533F584
:031F9D0034853355
:031FA0000B85347A
:031FA3000C853575
:031FA6000D853670
:091FA9000EAE2AE4FFFAFBEE255E
:081FB20033FEEF3534FFEA3580
:071FBA0035FAEB3536FB8E12
:041FC1000B8F0C8AEC
:041FC5000D8B0EE58D
:091FC9000FC39EFEE5109FFFE529
:081FD200119AFAE5129BFB8E47
:041FDA000F8F108ACB
:041FDE00118B128EC3
:041FE2000B8F0C8ACB
:041FE6000D8B0EE56C
:031FEA0029600467
:041FED007A80800274
:021FF1007A0074
:041FF300E528600479
:041FF7007B408002A9
:021FFB007B0069
:0A1FFD00EB4A78B246F6E5296004CD
:042007007A048002D5
:02200B007A0059
:04200D00E52860045E
:042011007B048002CA
:022015007B004E
:07201700EB2AF582020882AA
:01201E00229F
:07201F0075380075390075EA
:072026003A0090E67BE0F5B3
:08202D003775820412085B12F2
:0920350008797582001208828509
:03203E000B3D85D2
:032041000C3E85CD
:032044000D3F85C8
:032047000E4085C3
:03204A003D0F85C2
:03204D003E1085BD
:032050003F1185B8
:032053004012E553
:042056003D453E4581
:05205A003F454070034A
:03205F00753901CF
:0C2062007407553DFAE4FDFBFC740325F7
:08206E003DFBE4353EFCE435C6
:072076003FFDE43540FE8B45
:04207D000B8C0C8D2F
:0A2081000DEEF50EC313FEED13FD86
:0E208B00EC13FCEB13FBEEC313FEED13FDECA8
:0A20990013FCEB13FB8B0B8C0C8D7A
:0420A3000D8E0EE5AB
:0320A70037600897
:0420AA00753BA97564
:0420AE003C1B800651
:0420B200753B68759D
:0220B6003C1BD1
:0220B800C2B4B0
:0420BA00E53960079D
:0720BE00E53A60030222BBBA
:0B20C500C0021207EDD002E50A6034F3
:0520D0007401B50A10C7
:0420D500E53A700C6C
:0C20D900753A01C002120879D002801F85
:0520E5007402B50A14AD
:0B20EA00C002120879D002E539700F27
:0920F50078B2760275390180060B
:0620FE00753A000222BB4E
:05210400E5AA20E0B196
:04210900E537600551
:05210D00E5AA20E5A891
:04211200E53970A497
:072116007D007EF08E9A7D32
:08211D00007EF07E008D9BE5C1
:032125003760120E
:04212800E538700E18
:07212C007D007EF88E9D7D11
:07213300007EF87E008D9E86
:0E213A0090E690E0FD8D067D0090E691E0FFBE
:0A2148007B002DF508EB3EF509AB16
:0721520008AC09E4FDFEE505
:092159000BC39BFBE50C9CFCE5AB
:082162000D9DFDE50E9EFE8BB4
:04216A000B8C0C8D41
:06216E000D8E0EEA602C4C
:05217400E50B450C45E0
:052179000D450E70226F
:0E217E008A03FC74032BFBE43CFCA2E713CBAA
:0C218C0013CBA2E713CB13CBFCE508C378
:072198009BF508E5099CF529
:01219F000936
:0621A000E5084509600D91
:0921A600C002853B82853C8312D6
:0421AF00006BD002EF
:0621B300EA70030222386D
:0521B900E50B450C459B
:0521BE000D450E7075D7
:0921C3007B0090E67BE0FC7D004E
:0521CC00C3ED9A502351
:0321D100BD040545
:0521D40090E67BE0FC39
:0E21D900ECA2E092B2C313FCA2E092B3C313D7
:0621E700FCEBA2B013FBAB
:0721ED00D2B4C2B40D80D88A
:0421F400E537601C4F
:0E21F8008A047D007408C39CFCE49DFD8CF0FD
:0522060005F0EB800271
:02220B00C313FB
:07220D00D5F0FB90E67CF028
:0E2214008A037C0074032BFBE43CFCA2E7135E
:0C222200CB13CBA2E713CB13CBFCEB25B6
:05222E0008F508EC3585
:0522330009F5097A0025
:04223800E5376063C3
:05223C00E50B450C4517
:052241000D450E6004D4
:04224600E5386052C5
:07224A000508E4B5080205D8
:012251000983
:08225200E509C313C50813C51B
:04225A0008F509E595
:03225E00386024C1
:0822610090E680E0FB30E70687
:062269007B007C028004F2
:04226F007B407C0034
:0C227300ECA2E713CB13CBFCEB2508F525
:05227F0008EC3509F533
:012284000950
:0A22850090E698E509F000000090D3
:09228F00E699E508F00000007575
:042298003800800387
:03229C0075380191
:0C229F0090E6497482F0000000E50B4559
:0422AB000C450D458C
:0622AF000E60030220BADC
:0622B5007539010220BA98
:0C22BB00C002120975001209ADD002E546
:0422C7003A70012246
:0A22CB00E50B25E0FBE50C33FCE514
:0A22D5000D33FDE50E33FEEB2BFB8D
:0C22DF00EC33FCED33FDEE33FE8B0B8C7A
:0422EB000C8D0D8EBB
:0422EF000EEA603D56
:0422F300EA30E21DCE
:0522F700AB0BAC0CADC7
:0A22FC000DAE0E1BBBFF091CBCFF5A
:06230600051DBDFF011ED4
:05230C008B0B8C0C8D11
:032311000D8E0E20
:0A231400E4FBFCFDEA250BFAEB35B3
:08231E000CFBEC350DFCED3564
:052326000EFD8A0B8B87
:04232B000C8C0D8D7C
:01232F000E9F
:07233000E50FC3950BFAE570
:0523370010950CFBE510
:05233C0011950DFCE508
:0523410012950EFD8A5B
:042346000F8B108C5D
:04234A00118D128A55
:04234E000B8B0C8C5D
:042352000D8D0EE5FA
:03235600377008D5
:05235900F50FF510F581
:03235E0011F51264
:0C23610078B2E644C0F6758208020882DB
:01236D00224D
:05330A000102000000BB
:05330F000100000000B8
:053314000100000000B3
:0A236E00C28CC28D78B3868A78B362
:0323780008868C48
:01237B00223F
:07237C0078B0B60202806098
:0723830078B1B600028011E1
:0B238A0012087978B2760C7582001200
:062395000882758201229E
:05239B0078B0E6701FA0
:0623A00078A5E630E21111
:0B23A60012087978B2760375820012ED
:0623B10008827582012282
:0823B70078A5E64404F6802439
:0523BF0078B0B6010832
:0823C40078A5E654FBF6801732
:0623CC0078A5E620E211F5
:0B23D20012087978B2760475820012C0
:0623DD0008827582012256
:0A23E30078B0E624F850030224CD80
:0A23ED0078B0E625E0269023F77390
:0723F70002240F02240F0273
:0623FE00242102242E023E
:0624040024B30224BB0218
:05240A0024C30224C8F8
:0C240F0012087978B3E4F608F675820034
:06241B001208820224D128
:0D24210090331E75F08012091175820122A2
:0A242E0075820412085B120879752C
:0624380053FAE4F554F52F
:04243E0055F5568575
:062442000B82850C83856E
:052448000DF0E50E128D
:0C244D003197AA82AB83ACF0FD8A0B8BA8
:042459000C8C0D8D4D
:07245D000EEC7003ED600CB2
:07246400750BFF750CFF75FD
:05246B000D00750E00DC
:09247000E50BF4FAE50CF4FBE5C0
:082479000DF4FCE50EF4FD7802
:08248100B3A60208A603850BB7
:0324890053850C6C
:03248C0054850D67
:03248F0055850E62
:0C249200569000FAE4F5F0123215AA8210
:0A249E00AB83ACF0FD8A0B8B0C8CB5
:0724A8000D8D0E7582041278
:0424AF000882801E01
:0824B3007582011228898016D0
:0824BB00758200122889800ED1
:0524C30012254580090F
:0524C8001226C480048F
:0424CD0075820022F2
:0324D10075820110
:0124D40022E5
:0E24D50090E6F3E0FA4480F000000090E67B11
:0C24E300E0FA90E6F1F000000002252570
:0E24EF0090E6F3E0FA547FF000000090E67BE8
:0C24FD00E0FA90E6F1F000000002252556
:0B25090090E6F1E0122525E582600D50
:0D25140090E6F2E0FA90E67CF0758201227C
:03252100758200C0
:012524002294
:0525250012236ED28CB0
:05252A00E5BB20E70302
:03252F00308DF8F4
:05253200E5BB30E704E9
:042537007582012286
:09253B0090E6F574FFF0758200D2
:012544002274
:0A254500E4FAFBF508F509758204BD
:0D254F00C002C00312085BD00300C00312DD
:0D255C000879758200120882D003D002AC0D
:042569000BAD0CAEFC
:04256D000DAF0E8C14
:042571000F8D108E2C
:09257500118F12EC4D4E4F700263
:02257E007B01DF
:03258000EB600607
:06258300EA60030226904D
:0D258900C002C0031207EDD003D002E4B57C
:042596000A02804075
:05259A007401B50A12F6
:03259F00EA700FD0
:0E25A2007A01C002C003120879D003D0028073
:0125B0002901
:0525B1007402B50A1FD1
:0E25B600C002C003120879D003D002EB7016E9
:0C25C40090E6A37401F00000007B017899
:0525D000B27602800557
:0525D5007A00022690CF
:0325DA00EB70A300
:0625DD00E5084509702A23
:0525E300E5AA20E0253F
:0725E8007C007DF08D9A7C60
:0825EF00007DF07D008C9B9043
:0E25F700E690E0FC8C057C0090E691E0FE7F13
:08260500002CF508EF3DF5097A
:07260D00E508450970030216
:0226140025801F
:0E261600C002C0031224D5E582D003D00270AA
:0126240006AF
:0626250078B27605805238
:0E262B00C002C0031224EFE582D003D002707B
:01263900069A
:06263A0078B27606803D37
:07264000E50824FEF508E5A2
:062647000934FFF509ACA7
:04264D000BAD0CAE17
:0A2651000DAF0E1CBCFF091DBDFFFC
:06265B00051EBEFF011F79
:052661008C0B8D0C8EB6
:092666000D8F0EEC4D4E4F700279
:02266F007B01ED
:06267100E50845097006B2
:0626770090E6497482F0B8
:08267D0078B2B60003022580CB
:0B2685007B0190E6A37401F0022580A9
:0A269000C002120975D002EA6029A9
:07269A00E50FC3950BFAE503
:0526A10010950CFBE5A3
:0526A60011950DFCE59B
:0526AB0012950EFD8AEE
:0426B0000B8B0C8CF8
:0426B4000D8D0E7802
:0B26B800B2E64480F67582040208823E
:0126C30022F4
:0A26C400E4FAFBF508F5097582043D
:0D26CE00C002C00312085BD00300C003125D
:0D26DB000879758200120882D003D002AC8D
:0426E8000BAD0CAE7C
:0426EC000DAF0E8C94
:0426F0000F8D108EAC
:0926F400118F12EC4D4E4F7002E3
:0226FD007B015F
:0326FF00EB600687
:06270200EA600302284911
:0D270800C002C0031207EDD003D002E4B5FB
:042715000A028046EE
:052719007401B50A1275
:03271E00EA700F4F
:0E2721007A01C002C003120879D003D00280F2
:01272F002F7A
:052730007402B50A254A
:0E273500C002C003120879D003D002EB701C62
:0E27430090E6A37401F000000090E6A574017A
:09275100F07B0178B276028005EC
:05275A007A000228498D
:03275F00EB709D7F
:06276200E5084509703D89
:05276800E5AA20E038A5
:05276D00E5AA20E533A0
:072772007C007DF08D9A7CD4
:08277900007DF07D008C9B7CCB
:06278100007DF88D9D7C37
:08278700007DF87D008C9E909E
:0E278F00E690E0FC8C057C0090E691E0FE7F79
:08279D00002CF508EF3DF509E1
:0727A500E50845097003027D
:0227AC0026FF06
:0E27AE00C002C0031224D5E582D003D0027011
:0127BC000616
:0627BD0078B27605806A87
:0E27C300C002C003122509E582D003D00270C7
:0127D1000601
:0627D20078B27606805586
:0827D800150874FFB508021595
:0127E00009EF
:0527E100AC0BAD0CAED5
:0A27E6000DAF0E1CBCFF091DBDFF66
:0627F000051EBEFF011FE3
:0527F6008C0B8D0C8E20
:0927FB000D8F0EEC4D4E4F7002E3
:022804007B0156
:06280600E5084509702100
:0D280C0090E690E0FC90E698F0000000904F
:0C281900E691E0FC90E699F000000090D1
:08282500E6497482F000000096
:08282D0078B2B600030226FF99
:0E28350090E6A37401F000000090E6A5740187
:06284300F07B010226FFFC
:0E284900C002120975001209ADD002EA60311A
:07285700E50FC3950BFAE544
:05285E0010950CFBE5E4
:0528630011950DFCE5DC
:0528680012950EFD8A2F
:04286D000F8B108C31
:04287100118D128A29
:042875000B8B0C8C31
:042879000D8D0E783B
:0B287D00B2E644C0F675820802088233
:01288800222D
:0C2889008582417B007C00C003C004126B
:0A28950024D5E582D004D003700DB5
:0B289F0012087978B2760575820002FD
:0228AA000882A2
:0E28AC00758204C003C00412085BD00400C093
:0B28BA0004120879D004D003E50B45A0
:0428C5000C450D456C
:0328C9000E70028C
:0228CC007C018D
:0A28CE0090E6F574FFF090E6CEE509
:0928D8000EF000000090E6CFE5CF
:0928E1000DF000000090E6D0E5C6
:0928EA000CF000000090E6D1E5BD
:0C28F3000BF0C003C00412236ED004D010
:0A28FF000390E6D1E0FDE541601C06
:0E29090090E6187410F000000090E6D2740101
:07291700F0000000EC70313C
:07291E00F5BB000000802A58
:0E292500C003C004C0051209D8D005D004D0EC
:0E2933000390E61A7408F000000090E6E274CB
:0829410002F0000000EC70063A
:0629490075BB0600000052
:0E294F00758200C003C004C005120882D005C6
:04295D00D004D003CF
:03296100EC600621
:06296400EB6003022A5F94
:0E296A00C003C004C0051207EDD005D004D094
:0729780003E4B50A028066CA
:05297F007401B50A1609
:03298400EB7013E2
:0E2987007B01C003C004C005120879D005D042
:0529950004D003804B9B
:05299A007402B50A42C1
:0E299F00C003C004C005120879D005D004D0D2
:0429AD0003EC703493
:0529B10078B2E670049D
:0429B60078B276027B
:0429BA00E54160088B
:0829BE0090E6A37401F080060D
:0629C60090E6A57401F08B
:0829CC00000000E5BB20E70953
:0929D40000000090E6F574FFF02C
:0429DD007C018004F5
:0429E1007B00807A7D
:0529E500E5BB20E75DE9
:0A29EA0090E6D1E0FEB50502801270
:0E29F400C003C00412236ED004D00390E6D1BD
:042A0200E0FD80244F
:032A0600308D21EF
:082A090078B27606E541600891
:082A110090E6A37401F08006B9
:062A190090E6A57401F037
:0B2A1F007C0100000090E6F574FFF061
:042A2A00E54160051D
:052A2E00E5AA30E00FF5
:072A3300E541600302296187
:082A3A00E5AA30E50302296161
:052A4200D28C022961A5
:062A4700EC6003022961AE
:042A4D00E5417009E6
:092A510090E6487406F000000054
:052A5A007C010229616E
:0E2A5F00C003120975001209ADD003EB70011F
:012A6D002246
:0C2A6E0090E6CEE0FB7C007D007E008B3B
:052A7A004575420075E6
:062A7F00430075440090C5
:0E2A8500E6CFE0FF7A007B008A048F03E4FABC
:082A9300FF4242EA4243EB421C
:052A9B0044EC424590EF
:0E2AA000E6D0E0FD7E007A008A038E028D06ED
:092AAE00E4FD4242EE4243EA421B
:052AB70044EB424590D4
:0C2ABC00E6D1E0FCE4FFFAFBE542420436
:092AC800E5434207E5444202E542
:092AD100454203E50BC39CFCE542
:082ADA000C9FFFE50D9AFAE5DF
:062AE2000E9BFB8C0B8F24
:042AE8000C8A0D8BBC
:052AEC000EE54160044D
:042AF1007A80800265
:022AF5007A4025
:0B2AF70078B2EA46F6758204020882FD
:012B020022B0
:053319000102000000AC
:05331E000100000000A9
:053323000100000000A4
:0D2B030090E60174FAF090E6F574FFF09092
:0A2B100033CCE493FA90E6F3F09062
:0A2B1A0033CDE493FA90E6C3F09087
:0A2B240033CEE493FA90E6C1F0907E
:0A2B2E0033CFE493FA90E6C2F09072
:0A2B380033D1E493FA90E6C0F09068
:0D2B420033D2E493FA90E6F4F075AF077A11
:062B4F00287B338B9A7A0B
:0A2B5500287B337B008A9B759DE40A
:052B5F00759E007A00E4
:032B6400BA800034
:022B6700500C10
:0C2B690090E67BE0FB90E67CF00A80EF39
:0E2B750090E67174FFF075B4FF90E672E0FA1E
:0E2B83004480F043B68000000090E6C4E4F009
:0E2B910000000090E6C5E4F09033A8E493FA4B
:0B2B9F0090E6C6F09033A9E493FA9092
:0A2BAA00E6C7F09033AAE493FA9016
:0A2BB400E6C8F09033ABE493FA900A
:0A2BBE00E6C9F09033ACE493FA90FE
:0A2BC800E6CAF09033ADE493FA90F2
:0A2BD200E6CBF09033AEE493FA90E6
:0A2BDC00E6CCF09033AFE493FA90DA
:032BE600E6CDF049
:012BE90022C9
:0E33280081B901010101010723030202020223
:0E3336000200F7F5F5F5F5F5F5F700000000DB
:0E3344000000003F0C8A9A3FA5B53F07210309
:0E335200030103030500F3F3F2F3F3F1F3F7C5
:0E3360003F0000000000003F81913801010194
:0E336E0001070101070202020200F7F5F7F75E
:0E337C00F7F7F7F7000075000000003F8191A1
:0E338A003801010101070303050000000000E7
:0E339800F3F1F3F3F3F3F3F700006E0000001F
:0233A600003FE6
:0E33A800000000000000000000000000000017
:0E33B600000000000000000000000000000009
:0833C400000000000000000001
:0733CC00E08000F7FA4E005B
:072BEA0078B0B60202806022
:072BF10078B1B6000280116B
:0B2BF80012087978B2760C758200128A
:062C030008827582012227
:052C090078B0E6701F29
:062C0E0078A5E630E31199
:0B2C140012087978B276037582001276
:062C1F000882758201220B
:082C250078A5E64408F68024BE
:052C2D0078B0B60108BB
:082C320078A5E654F7F68017BF
:062C3A0078A5E620E3117D
:0B2C400012087978B276047582001249
:062C4B00088275820122DF
:072C510078B0E624FB403BD4
:0A2C580078B0E625E026902C6273A8
:072C6200022C71022C71022B
:062C69002C7C022C890204
:022C6F002C8EA9
:0B2C7100120879758200120882801B97
:0D2C7C009033DD75F0801209117582012280
:052C8900122C9B8009E4
:052C8E00122FB48004C8
:042C93007582002224
:032C970075820142
:012C9A002217
:072C9B007546007547007546
:092CA200480075820812085B125B
:0B2CAB000879758200120882C2809038
:0E2CB600E618E4F000000090E61AE4F00000DA
:0E2CC4000090E6027468F000000090E630E434
:0E2CD200F000000090E631E4F090E680E0FDB6
:032CE00030E706D4
:062CE3007D007E0280046A
:042CE9007D407E00AC
:052CED008D498E4AAF85
:042CF2000FAB10AA6A
:042CF60011AC128586
:032CFA00494B85BE
:032CFD004A4C75C9
:082D00004D00754E00C3EF9574
:062D08004BEB954CEA952F
:062D0E004DEC954E502C27
:052D14008F498B4AAD60
:0C2D19004A90E63474C04DF000000090B9
:072D2500E635E549F0E4F595
:042D2C0008F5097528
:062D30004701750F00755C
:062D36001000751100758C
:042D3C00120080728F
:082D400090E680E0FD30E7138E
:0E2D480090E63474C8F000000090E635E4F028
:052D56000000008012E6
:0E2D5B0090E63474C0F000000090E63574403D
:042D6900F000000076
:0A2D6D00EFC3954BFFEB954CFBEA1A
:082D7700954DFAEC954EFC8F1E
:042D7F000F8B108A1C
:042D8300118C128518
:032D87000F4F8566
:032D8A0010508561
:032D8D001151855C
:052D90001252C3EF9593
:062D95004BEB954CEA95A2
:062D9B004DEC954E500BBB
:042DA100854F0885CD
:032DA5005009755D
:042DA8004701800659
:042DAC0085490885C8
:022DB0004A09CE
:0A2DB20090E601E0FA4403F0D28736
:042DBC00E54860077F
:072DC000E5466003022F321B
:072DC7001207EDE50A602E82
:052DCE007401B50A0CC0
:042DD300E546700859
:082DD700120879754601801D08
:052DDF007402B50A12A8
:072DE400120879E5487011A7
:0A2DEB00C28778B2760275480180B5
:012DF50006D7
:062DF600754600022F32B9
:042DFC00E54870BC7A
:052E0000E5AA20E058E6
:0E2E050090E690E0FA8A037A00EB3395E0FC49
:082E1300FDE50BC39AF54FE544
:052E1B000C9BF550E5E1
:052E20000D9CF551E5D9
:052E25000E9DF5528531
:032E2A004F0B85C6
:032E2D00500C85C1
:032E3000510D85BC
:032E3300520E90AC
:0C2E3600E691E0FEE4FFFAFBE54FC39ECE
:0A2E4200FEE5509FFFE5519AFAE506
:062E4C00529BFB8E0B8F70
:042E52000C8A0D8B4E
:072E56000E90E6497402F042
:0B2E5D0090E6A9E0FA20E203022F0932
:0E2E680090E6A5E0FA530270BA3003022F097B
:042E7600E5476015B7
:0C2E7A00AA0990E63474C04AF000000081
:092E860090E635E508F0000000BB
:0A2E8F0090E698E54AF0000000907C
:092E9900E699E549F0000000850E
:032EA20008498557
:032EA500094AE5F2
:052EA800084509605C13
:082EAD00AA08AB09E4FCFDE5F5
:092EB5000FC39AFAE5109BFBE53E
:082EBE00119CFCE5129DFD8A48
:042EC6000F8B108CD2
:042ECA00118D1285CF
:032ECE000F4F851E
:032ED10010508519
:032ED40011518514
:032ED70012529004
:072EDA00E680E0FE30E70690
:062EE1007E007F02800468
:042EE7007E407F00AA
:0B2EEB00EF3395E0FAFBC3E54F9EE5D6
:062EF600509FE5519AE532
:042EFC00529B50098C
:042F0000850F0885AC
:032F04001009753C
:022F0700470180
:072F0900E549454A6003029F
:022F10002DBCD6
:0B2F120090E6A7E0FA20E203022DBCCD
:052F1D00E50B450C4529
:062F22000D450E600302E4
:022F28002DBCBE
:082F2A00754801C287022DBCAD
:0E2F3200C28790E601E054FEF0E0FA4402F09F
:072F40001209751209ADE54D
:032F47004660677A
:052F4A0078B2E6705CA6
:072F4F0090E6ACE0FA7011FE
:072F560090E6ABE0FA700AFF
:052F5D00E50B450C45E9
:052F62000D450E602684
:062F6700E549454A600641
:062F6D0078B2760A8038FC
:072F730090E6B0E0FA7007E0
:072F7A0090E6AFE0FA6006EB
:062F810078B2760B8024FB
:062F870078B27607801EFF
:062F8D00E549454A60061B
:062F930078B276088012FE
:072F990090E6AFE0FA7007BB
:072FA00090E6B0E0FA6004C6
:042FA70078B276097D
:062FAB007582001208828D
:022FB100D280CC
:012FB30022FB
:0D2FB4007A007B007C00C002C003C0041244
:0E2FC1000879758200120882D004D003D00275
:0E2FCF00C28090E6187410F000000090E61A20
:0D2FDD007408F0000000C002C003C0041220
:0E2FEA0009D8D004D003D00290E60274E8F0BB
:0E2FF80000000090E601E0FD4403F0D2879057
:0C300600E630E4F000000090E631E4F059
:03301200EA60036E
:03301500EB7063FA
:0E301800C002C003C0041207EDD004D003D0E4
:0530260002E50A603C18
:05302B007401B50A1656
:03303000EA701330
:0E3033007A01C002C003C004120879D004D094
:0530410003D002802114
:053046007402B50A1838
:0E304B00C002C003C004120879D004D003D024
:0430590002EB700A0C
:06305D007C017B018004F0
:043063007A0080145B
:03306700EB70A863
:03306A00EA60A574
:08306D0090E6A7E0FD30E29DB2
:063075007B01C287809779
:0E307B00C28790E601E054FEF0E0FB4402F054
:0D308900C002C004120975D00400C004127A
:0930960009ADD004D002EA601B70
:03309F00EC7012C0
:0730A20090E6ABE0FA7007B5
:0730A90090E6ACE0FA6004C0
:0430B00078B2760775
:0630B40075820012088283
:0230BA00D280C2
:0130BC0022F1
:0533D3000102000000F2
:0533D8000100000000EF
:0533DD000100000000EA
:0730BD00120879750B017583
:0630C4000C00750D007503
:0830CA000E0075820402088269
:0A30D20075820112085B120879E50F
:0330DC000B600A7C
:0A30DF0078B2760C758200020882B8
:0B30E9007582101208D2750810E4F583
:0130F40009D2
:0A30F50090E67CE4F0150874FFB5C6
:0430FF0008021509A5
:06310300E508450970EC2F
:033109000208F6C3
:0A310C0075820112085B120879E5D4
:033116000B600A41
:0A31190078B2760C7582000208827D
:0B3123007582201208D2750810E4F538
:04312E00097AC07BDF
:09313200E78A828B83A3A37513C5
:03313B00F1751417
:05313E0033120B310209
:0231430008F68C
:0A31450075820112085B120879E59B
:03314F000B600A08
:0A31520078B2760C75820002088244
:0B315C007582141208D2750810E4F50B
:01316700095E
:0A31680090E67CE4F0150874FFB552
:043172000802150931
:06317600E508450970ECBC
:06317C00750B0120B506F1
:063182007402450BF50B81
:0C31880090E67CE50BF0E4F0E4F0E4F0ED
:033194000208F638
:0533E2000102000000E3
:0533E7000100000000E0
:0533EC000100000000DB
:0E33F100504F57455220474F4F4400000000F8
:0233FF0000FDCF
:0EE1000012010002000000404314070001005D
:04E10E000102000109
:0AE112000A060002000000400100B0
:0EE11C0009022E0001010080FA09040000042F
:0EE12A00FF000000070501020002000705814A
:0EE13800020002000705020200020007058631
:04E1460002000200D1
:0EE14A0009022E0001010080FA090400000401
:0EE15800FF00000007050102400000070581DE
:0EE16600024000000705020240000007058687
:04E174000240000065
:04E17800040309048F
:0EE17C00120344006900670069006C00650032
:04E18A006E007400AF
:0EE18E001A0344006900670069006C00650018
:0CE19C006E00740020005500530042008B
:093F00000206230002065700022C
:083F09000641000206BB0002A4
:083F1100066D000206D9000252
:083F1900073300020733000228
:083F2100073300020733000220
:083F2900073300020733000218
:083F3100073300020733000210
:083F3900073300020733000208
:083F4100073300020733000200
:083F49000733000207330002F8
:083F51000733000207330002F0
:083F59000733000207330002E8
:083F61000733000207330002E0
:083F69000733000207330002D8
:083F71000733000207330002D0
:083F79000733000207330002C8
:083F81000733000207330002C0
:083F89000733000207330002B8
:083F91000733000207330002B0
:083F99000733000207330002A8
:083FA1000733000207330002A0
:083FA900073300020733000298
:073FB1000733000207330093
:08319700FB7A20E4FCFDFEFFC1
:0E319F00E5822582F582E58333F583E5F03382
:0B31AD00F5F0EB33FB4017DAE980423D
:0E31B800E5822582F582E58333F583E5F03369
:0531C600F5F0EB33FB06
:0E31CB00EC33FCED33FDEE33FEEF33FFEC95FD
:0631D90053ED9554EE9544
:0831DF0055EF95564013EC95E5
:0831E70053FCED9554FDEE953B
:0931EF0055FEEF9556FF438201E5
:0231F800DABE3D
:0231FA00EB22C6
:06009C00E478FFF6D8FD38
:08007A007900E94400601B7AE3
:0500820000903401783C
:030087000075A061
:0A008A00E0E493F2A308B8000205B9
:08009400A0D9F4DAF275A0FF17
:0E31FC0020F71030F6118883A88220F507F620
:05320A00A8837583009C
:01320F00229C
:03321000F280F752
:02321300F022A7
:0C321500AAF0FBE5828553F0A4FCADF0AC
:0C322100E5838553F0A42DFDE435F0FE9C
:0C322D00E5828554F0A42DFDE5F03EFE86
:0C323900E433FFEA8553F0A42EFEE5F01C
:0C3245003FFFE5838554F0A42EFEE5F069
:0C3251003FFFE5828555F0A42EFEE5F05D
:0B325D003FFFEB8553F0A42FFFEA8534
:0A32680054F0A42FFFE5838555F014
:0C327200A42FFFE5828556F0A42F8EF0FB
:05327E008D838C82220B
:0400A20075A00078CD
:0700A60000E8440060077947
:0600AD0000E4F309D8FC99
:0800B3007800E84400600C79BC
:0B00BB000090E000E4F0A3D8FCD9FAAC
:02006B00E4733C
:03006D0075815644
:0A00700012329FE582600302006671
:0E32830020F71430F6148883A88220F507E6A1
:06329100A88375830022F2
:03329700E280F7DB
:03329A00E4932298
:02329D00E0222D
:04329F007582002212
:00000001FF
