:0400000002006D325B
:01000B0032C2
:0100130032BA
:01001B0032B2
:0100230032AA
:01002B0032A2
:030033000206B40E
:01003B003292
:03004300023F0079
:01004B003282
:03005300023F0069
:01005B003272
:030063000206B8DA
:0300E400020066B1
:050066001200E780FE1E
:0900E700788176007880760090A3
:0E00F000E60B7403F000000000000090E60034
:0E00FE007410F075800075B20675900075B331
:0E010C00FF75B03E75B53F90E67AE0FA44010B
:0B011A00F012251F90E60174E2F012C5
:0E012500027290E6097403F000000075890173
:09013300000000788276000876D5
:04013C00E17884766C
:05014000120876E178D1
:0501450086761C08761F
:04014A00E17888765A
:0A014E004A0876E1D2E843D8209079
:0E015800E668E0FA4409F090E65CE0FA443D07
:0E016600F090E682E4F0D2AF90E680E0FA542A
:05017400F7F0538EF8C6
:080179001201BB789EE660074D
:07018100120197789E760041
:050188007881E660042F
:04018D0078817600FF
:050191001206B880E336
:010196002246
:0A01970090E680E0FA440AF07A00D6
:0201A100DAFE84
:0E01A30090E65D74FFF090E65F74FFF05391FC
:0901B100EF90E680E0FA54F7F04B
:0101BA002222
:0601BB007880E6700122CD
:0501C100AA08AB09785B
:0901C60096A60208A603788EA695
:0601CF000B08A60C08A6B7
:0501D5000D08A60E78E4
:0501DA0092A60F08A62B
:0601DF001008A61108A69D
:0601E500127898A69B7839
:0801EB0099A69A789AA69E7865
:0A01F3009BA69D1202F4E58270083D
:0801FD0090E6A0E0FA4401F0D5
:0C02050090E6A0E0FA4480F078807600DB
:06021100789686080886BD
:0A02170009788E8602088603088627
:09022100040886058A0B8B0C8C85
:04022A000D8D0E78B0
:0C022E00928602088603088604088605F4
:05023A008A0F8B108CFF
:04023F00118D127893
:0802430098869B7899869A7851
:07024B009A869E789B869DB8
:010252002289
:0E02530090E6837401F07421F07411F07431A0
:0E026100F090E6837402F07422F07416F074CC
:02026F0036F067
:01027100226A
:0E02720090E610E4F000000090E611E4F000C9
:0E028000000090E612E4F000000090E613E4A7
:0D028E00F000000090E614E4F00000009085
:0E029B00E615E4F000000090E618E4F0000024
:0E02A9000090E619E4F000000090E61AE4F080
:0E02B70000000090E61BE4F000000090E6104E
:0E02C50074A0F000000090E61174A0F000009C
:0E02D3000090E61274A0F000000090E6147493
:0E02E100E0F000000090E68DE4F00000001256
:0502EF00092C0208F4D7
:0C02F40090E6B9E0FA24F450030205A1E2
:07030000EA2A2A90030773AB
:070307000203EE020478027C
:06030E0005A10205260214
:0603140005A10205A10293
:06031A00032B0205A10205
:0603200003D90203C7022D
:0503260003A00203B575
:0A032B0090E6BBE0FABA0102800F71
:05033500BA0202802065
:05033A00BA060280314B
:05033F00BA075A8042DC
:09034400788290E6B308E6F07837
:0B034D008286027B0090E6B4EAF0021A
:0203580005A4FA
:09035A00788A90E6B308E6F07819
:0B0363008A86027B0090E6B4EAF002FC
:02036E0005A4E4
:09037000788490E6B308E6F07809
:0B0379008486027B0090E6B4EAF002EC
:0203840005A4CE
:09038600788C90E6B308E6F078EB
:0B038F008C86027B0090E6B4EAF002CE
:02039A0005A4B8
:04039C007582002244
:0803A00090E740789DE6F09023
:0B03A800E68AE4F090E68B7401F0029E
:0203B30005A49F
:0A03B50090E6BAE0FA789DA6021265
:0603BF000272120253025B
:0203C50005A48D
:0A03C70090E6BAE0FA789CA6021254
:0603D10002721202530249
:0203D70005A47B
:0803D90090E740789CE6F090EB
:0B03E100E68AE4F090E68B7401F00265
:0203EC0005A466
:0A03EE0090E6B8E0FABA8002800A37
:0503F800BA8102801B28
:0503FD00BA8274802C9F
:0A04020090E740E4F090E741F0902D
:0A040C00E68AF090E68B7402F0021D
:0204160005A43B
:0A04180090E740E4F090E741F09017
:0A042200E68AF090E68B7402F00207
:02042C0005A425
:0E042E0090E6BCE0FA53027E90E6BCE0FBC311
:0E043C0074809BE433FB4A90271C93FA33959F
:0E044A00E0FB74A12AFA74E63BFB8A828B83E6
:0E045800E0FA53020190E740EAF090E741E439
:0C046600F090E68AF090E68B7402F00241
:0204720005A4DF
:04047400758200226B
:0704780090E6B8E0FA60080D
:05047F00BA0202801228
:030484000205224C
:0B04870090E6BAE0FABA01030205A4F7
:04049200758200224D
:0904960090E6BAE0600302051EC5
:0E049F0090E6BCE0FA53027E90E6BCE0FBC3A0
:0E04AD0074809BE433FB4A90271C93FA33952E
:0E04BB00E0FB74A12AFA74E63BFB90E6BCE07D
:0E04C900FC53047E90E6BCE0FDC374809DE40D
:0E04D70033FD4C90271C93FC3395E0FD74A17F
:0E04E5002CFC74E63DFD8C828D83E0FC5304FC
:0E04F300FE8A828B83ECF090E6BCE05480FA27
:0E050100C423541FFA90E6BCE0FB740F5B901D
:0D050F00E6832AF090E683E0FA4420F00233
:02051C0005A434
:04051E0075820022C0
:0405220075820022BC
:0705260090E6B8E0FA600561
:05052D00BA026D800E12
:0A05320090E6BAE0FABA020280680F
:04053C0075820022A2
:0E05400090E6BCE0FA53027E90E6BCE0FBC3FE
:0E054E0074809BE433FB4A90271C93FA33958C
:0E055C00E0FB74A12AFA74E63BFB90E6BCE0DB
:0E056A00FC53047E90E6BCE0FDC374809DE46B
:0E05780033FD4C90271C93FC3395E0FD74A1DD
:0E0586002CFC74E63DFD8C828D83E0FC43046A
:09059400018A828B83ECF08007E0
:04059D007582002241
:0305A100020A83C8
:0305A4007582015C
:0105A7002231
:0C05A800C0E0C082C083C00078807601F3
:0905B4005391EF90E65D7401F033
:0905BD00D000D083D082D0E032DE
:0E05C600C0E0C082C0835391EF90E65D7404E4
:0105D400F036
:0705D500D083D082D0E03298
:0E05DC00C0E0C082C0835391EF90E65D7402D0
:0105EA00F020
:0705EB00D083D082D0E03282
:0D05F200C0E0C082C083C002C003C000781A
:0A05FF00888602088603788AA602A7
:0C06090008A6038A828B83A37402F07899
:0A061500868602088603788CA60290
:0E061F0008A6038A828B83A37407F05391EF21
:06062D0090E65D7410F080
:0D063300D000D003D002D083D082D0E032BE
:0C064000C0E0C082C083C0007881760159
:09064C005391EF90E65D7408F093
:09065500D000D083D082D0E03245
:0D065E00C0E0C082C083C002C003C0009095
:07066B00E680E0FA30E72C05
:0A06720078868602088603788AA6BF
:0D067C000208A6038A828B83A37402F07823
:0A068900888602088603788CA6021A
:0B06930008A6038A828B83A37407F083
:09069E005391EF90E65D7420F029
:0D06A700D000D003D002D083D082D0E0324A
:0306B40053D8EF29
:0106B7003210
:052712000102000000BF
:052717000100000000BC
:0A271C000001020203030404050596
:0A00C600789E7600789FE4F608F6B5
:0C00D00008F608F678A3E4F608F608F637
:0800DC0008F678A7E4F608F627
:0706B800120704E58260183F
:0906BF00C2B11206D8E582700DEB
:0B06C8001207F878AC76017582001272
:0206D30008011C
:0206D500D2B1A0
:0106D7002200
:0706D80078A9B600028015AD
:0706DF0078A9B601028011A9
:0706E60078A9B60202800DA5
:0706ED0078A9B6040E800994
:0306F40002098C6C
:0306F7000209F005
:0306FA0002110AE0
:0306FD00021D9843
:03070000758200FF
:0107030022D3
:05070400E5BA30E1043C
:0407090075820022D3
:07070D0078AC76007A807BD6
:06071400E78B9A7A807B5E
:0C071A00E77B008A9B90E67BE0FA7B0006
:050726000ABA00010BFE
:0E072B0090E68DE0FC7D00EAB50406EBB50516
:030739000280112A
:0B073C001207F878AC760175820012FD
:060747000801758200228A
:0A074D0090E67BE0FA78A9A602907E
:09075700E67BE0FA78AAA6029004
:0B076000E67BE0FA78ABA60275820190
:01076B00226B
:08076C001201BBE5BA30E10403
:04077400750A0022E0
:0C07780090E780E0FA7B000ABA00010B59
:0E07840090E68DE0FC7D00EAB50406EBB505BD
:03079200028011D1
:0B0795001207F878AC760175820012A4
:0607A0000801750AFF22AA
:0B07A60090E781E0FA78A9E6B50213A5
:0C07B10090E782E0FA78AA748046FBEA28
:0307BD00B503047D
:0407C000750A012293
:0607C40090E781E0700CDB
:0807CA0090E782E0FABA020494
:0407D200750A022280
:0307D600750AFFA2
:0107D90022FD
:0807DA00AA827B0B7C007D402C
:0E07E20090E67BE0FE8B828C838DF012266BFE
:0707F000A3AB82AC83DAEB3E
:0107F70022DF
:0807F80090E68DE4F000000022
:0108000022D5
:07080100AA82E5BA30E20112
:0108080022CD
:070809007BC07CE78C9D7BA6
:08081000C07CE77C008B9E9088
:08081800E67CEA04F078AC90E4
:07082000E67CE6F07B0B7C97
:05082700007D408A067F
:03082C00EE601764
:0E082F008B828C838DF01226F2FFA3AB82AC7D
:09083D008390E67CEFF01E80E6DA
:0A08460090E68F74022AF000000013
:010850002285
:07085100AA82E5BA30E201C2
:01085800227D
:070859007BC07CE78C9D7B56
:08086000C07CE77C008B9E9038
:08086800E67CEA04F078AC9094
:04087000E67CE6F04C
:010874002261
:05087500E5BA30E201CC
:01087A00225B
:08087B0090E7C178ACE6F090B3
:0C088300E7C0E0FA90E68F04F0000000EF
:01088F002246
:0E089000AA82AB83ACF090E67BE0FDC002C014
:0E089E0003C004C0051207F8D005D004D00333
:0708AC00D002E5BA30E201C1
:0108B3002222
:0708B4007EC07FE78F9D7EEF
:0808BB00C07FE77F008E9E90D4
:0C08C300E67CED04F090E67CE4F08D068D
:0308CF00EE6017C1
:0E08D2008A828B838CF01226F2FFA3AA82ABDF
:0908E0008390E67CEFF01E80E637
:0A08E90090E68F74022DF00000006D
:0108F30022E2
:0E08F40090E618E4F000000090E6047480F036
:0E09020000000090E6047402F00000007A0489
:0B09100090E6497482F0000000DAF568
:0E091B0090E604E4F000000090E6A3E4F00093
:020929000000CC
:01092B0022A9
:0E092C0090E61AE4F000000090E6047480F0FB
:0D093A0000000090E6047406F0000000903C
:0E094700E604E4F000000090E6A5E4F00000F5
:0109550000A1
:01095600227E
:0809570090E680E0FA30E706AB
:06095F007A007B02800417
:040965007A407B0059
:0E09690090E624EBF000000090E680E0FA300B
:02097700E70691
:060979007A007B028004FD
:04097F007A407B003F
:0809830090E625EAF0000000F7
:01098B002249
:07098C0078AAB60202800701
:0709930078AAB603508005AD
:05099A001207F8804D7A
:0A099F007582041207DA1207F8E56A
:0809A9000BF4FAE50CF4FBE588
:0A09B1000DF4FCE50EF4FD747B2A42
:0C09BB00FAE43BFBE43CFCE43DFD8A0B4D
:0509C7008B0C8C0D8D6E
:0509CC000E1212777805
:0C09D1009FE4F608F608F608F612092C60
:0B09DD001208F4758204120801800467
:0409E80075820022F2
:0309EC0075820110
:0109EF0022E5
:0509F00078AAB6021711
:0709F5001207F8750B0075F5
:0609FC000C00750D0075F2
:0A0A02000E00758204120801800442
:040A0C0075820022CD
:030A1000758201EB
:010A130022C0
:0A0A1400AA82AB83E50845097001D2
:010A1E0022B5
:070A1F00AC14BCE6028005E7
:050A26008B05BDE63167
:080A2B008A068B07AC13AD1421
:0E0A33008E028F038C828D83E0F88A828B8383
:060A4100F00EBE00010FE3
:050A47000CBC00010DD4
:080A4C00150874FFB50802153E
:010A54000998
:060A5500E508450970D818
:010A5B002278
:0C0A5C008C9AAC137E008C9B8D9D7B005F
:050A68008A9E020A6EE7
:010A6D002266
:080A6E00A90890E67B058690C3
:040A7600E67C05868F
:080A7A00E00586F00586D9F8BD
:010A82002251
:0A0A830090E6B9E0FABAA202804A38
:050A8D00BAA302804540
:060A9200BAE103020D5859
:060A9800BAE203020D3872
:060A9E00BAE303020D386B
:060AA400BAE403020D1884
:060AAA00BAE503020D187D
:060AB000BAE603020C236C
:060AB600BAE703020C5038
:060ABC00BAE803020C98E9
:060AC200BAE903020CF882
:060AC800BAEA03020CC7AC
:060ACE00BAEB03020D78F3
:030AD400020D9878
:0B0AD70090E6BAE0FAA3E0FB8A0B8B6C
:0A0AE2000C90E6BEE0FAA3E0FB90E2
:090AEC00E6B8E0FCBCC002800386
:030AF500020B8869
:070AF800EA4B7003020D9CA4
:080AFF0090E6A0E0FC20E1F804
:080B070090E6B9E0FCBCA2116C
:0A0B0F00750D00750E00C002C00352
:070B1900121036D003D002D8
:090B2000C3EA9440EB9400500676
:060B29008A0D8B0E800610
:060B2F00750D40750E007B
:080B350090E6B9E0FCBCA20D42
:0D0B3D00C002C003120F89D003D002801A3D
:040B4A00850D088588
:030B4E000E0990FD
:040B5100E740850BE9
:030B550013850CF9
:0C0B580014C002C003120A14D003D00223
:080B640090E68AE4F0AC0DAD4F
:080B6C000E90E68BECF0EC2585
:070B74000BFEED350CFF8EB6
:0A0B7B000B8F0CEAC39CFAEB9DFB04
:030B8500020AF869
:0A0B880078A7E608467003020C1F70
:0C0B920090E6BCE0FCA3E0FD78A7E6B50F
:090B9E00040708E6B50502800217
:020BA700807656
:080BA90090E6B8E0FCBC406ED0
:070BB100EA4B7003020D9CEA
:090BB80090E68AE4F090E68BF06F
:080BC10090E6A0E0FC20E1F841
:0A0BC90090E68BE0FC7D008C0D8DA2
:090BD3000E90E6B9E0FCBCA31F82
:040BDC00850D0885F6
:030BE0000E098576
:060BE3000B82850C8375F6
:030BE90013407541
:070BEC0014E7C002C0031270
:080BF3000A14D003D002800BAC
:0B0BFB00C002C003121036D003D0026D
:060C0600AC0DAD0EEC2563
:070C0C000BFEED350CFF8E1D
:0A0C13000B8F0CEAC39CFAEB9DFB6B
:020C1D008092C3
:040C1F0075820022B8
:0A0C230090E6B8E0FABAC0028003C0
:030C2D00020D9C19
:080C300090E6A0E0FA20E1F8D3
:0E0C380090E740740AF0A37403F090E68AE49B
:0A0C4600F090E68B7402F0020D9CA2
:0A0C500090E6B8E0FABAC002800393
:030C5A00020D9CEC
:080C5D0090E6A0E0FA20E1F8A6
:0E0C650090E7407405F0A3E4F0A3F0A3F09034
:0B0C7300E744E4F5F012266BA3E41246
:0A0C7E00266BA3E412266BA3E41218
:080C8800266B90E68AE4F0906F
:080C9000E68B7408F0020D9CD4
:080C980090E6B8E0FABA40232F
:090CA00090E68AE4F090E68BF086
:080CA90090E6A0E0FA20E1F85A
:0C0CB10090E740E0FAA3E0FB78A7A60261
:060CBD0008A603020D9CD5
:040CC3007582002214
:080CC70090E6B8E0FABA4025FE
:070CCF0078A7E60846601E4D
:0C0CD60090E6BCE0FAA3E0FB78A7E6B5CE
:090CE200020708E6B503028002D6
:020CEB00800780
:070CED00789E7601020D9CC8
:040CF40075820022E3
:070CF800750BF0750C3F7550
:060CFF000D04750E0075E6
:060D05000FCD7510AB904C
:070D0B00E6B8E0FABAC003EC
:030D1200020DA02F
:030D1500020EB912
:070D1800750BE0750C3F753F
:060D1F000D0C750E0075BD
:060D25000F7875105690D6
:070D2B00E6B9E0FABAE403A7
:030D3200020DA00F
:030D3500020EB9F2
:070D3800750BC0750C3F753F
:060D3F000D10750E007599
:060D45000FCD7510AB900C
:070D4B00E6B9E0FABAE20389
:030D5200020DA0EF
:030D5500020EB9D2
:070D5800750BA0750C3F753F
:060D5F000D1C750E00756D
:060D65000FCD7510AB90EC
:070D6B00E6B8E0FABAC0038C
:030D7200020DA0CF
:030D7500020EB9B2
:070D7800750BF8750C3F75C7
:060D7F000D02750E007567
:060D85000FCD7510AB90CC
:070D8B00E6B8E0FABAC0036C
:030D9200020DA0AF
:030D9500020EB992
:040D9800758200223E
:030D9C007582015C
:010D9F002231
:0C0DA0007AFF90E6B8E0FBBBC0028004C4
:040DAC00758200222A
:050DB000AB0DAC0E7557
:0A0DB5000D00750E00C002C003C05F
:0E0DBF0004121036D004D003D00274032BFBB4
:0A0DCD00E43CFC8B0D8C0EC00212FA
:0A0DD7000F89D002E50D24FDFBE5B5
:070DE1000E34FFFC8B0D8CAA
:0B0DE8000E90E740E0FBA3E0FCEBB541
:060DF3000F48ECB51044AE
:040DF9007A007B0001
:0A0DFD007403250DFCE4350EFD8B98
:0A0E0700067F00C3EE9CEF9D502C07
:0A0E1100EB2440F582E434E7F5839A
:0A0E1B00E0FC2AFAEB2440FCE4346A
:0A0E2500E7FD74022B2440F582E47F
:0C0E2F0034E7F583E0FE8C828D83F00B2D
:020E3B0080C075
:030E3D00EA606404
:040E4000850D08858F
:030E44000E099004
:090E4700E6B9E0FABAE1028034D8
:050E5000BAE202803D42
:050E5500BAE402800573
:050E5A00BAE943801716
:020E5F007A0017
:030E6100BA0C00C8
:020E6400503EFE
:0A0E6600EA2440F582E434E7F58346
:060E70007430F00A80EB73
:050E760090E740751338
:030E7B00307514BB
:060E7E0027120A14802077
:050E840090E74075132A
:030E8900347514A9
:060E8C0027120A14801277
:050E920090E74075131C
:030E97005075147F
:060E9A0027120A14800477
:040EA0007582002235
:0C0EA40090E68AE4F000000090E68BE588
:080EB0000DF000000075820145
:010EB8002217
:080EB90090E6B8E0FABA401C13
:070EC10078A7E60846601562
:0C0EC80090E6BCE0FAA3E0FB78A7E6B5DA
:090ED400020708E6B503028004E0
:040EDD0075820022F8
:090EE10090E68AE4F090E68BF043
:080EEA0090E6A0E0FA20E1F817
:070EF20090E68AE0FA70149B
:050EF900AA0DAB0E90F4
:0E0EFE00E68BE0FC7D00B50206EDB503028038
:010F0C0004E0
:040F0D0075820022C7
:060F11008A15AD158D06E6
:060F17008E071EEF6025AD
:0C0F1D00C002C00374022E2440FFE43424
:090F2900E7FCEE2440F582E434FB
:0C0F3200E7F583E0FA8F828C83F0D00397
:040F3E00D00280D588
:080F420090E740E50FF0A3E584
:050F4A0010F07C407E68
:0A0F4F00E78E9A759B407C00740247
:030F59002515FD5E
:090F5C0090E67BE0FE2CFCDDF7C1
:0A0F6500740225152440F582E434DF
:0C0F6F00E7F583C3E49CFCF074032AFA4D
:080F7B00E43BFB8A0D8B0E1212
:050F830010367582012B
:010F88002246
:050F8900E50DFA700403
:040F8E007582012245
:080F920090E678E0FB20E6F890
:0C0F9A0090E6787480F090E67974A3F083
:080FA60090E678E0FB30E0F872
:080FAE0090E678E0FB20E274FC
:080FB60090E678E0FB30E16CED
:030FBE00BA01086D
:080FC10090E678E0FB4420F00B
:070FC90090E679E07B407C1B
:060FD000E78C9A7B407CD7
:050FD600E77C008B9B8D
:040FDB00DA02802690
:080FDF0090E678E0FB30E0F839
:080FE70090E678E0FB20E23BFC
:030FEF00BA01083C
:080FF20090E678E0FB4420F0DA
:0B0FFA0090E679E0FB90E67BF080D6EB
:0810050090E678E0FA30E0F813
:08100D0090E678E0FA20E215FC
:0E10150090E678E0FA4440F090E679E0FA9038
:07102300E67BF0758201225B
:0B102A0090E678E0FA4440F075820088
:011035002298
:02103600AA0D01
:0810380090E678E0FB20E6F8E9
:0C10400090E6787480F090E67974A2F0DD
:08104C0090E678E0FB30E0F8CB
:0810540090E678E0FB20E26B5E
:08105C0090E678E0FB30E1634F
:03106400EA600E31
:071067007B407CE78C9A7BC3
:07106E00407CE77C008B9B36
:021075007B02FC
:03107700EA700319
:03107A00EB603BED
:03107D00EB601411
:03108000BB0208A8
:0810830090E679E50CF080060F
:06108B0090E679E50BF090
:031091001B800AB7
:0A10940090E67BE0FC90E679F01A8C
:08109E0090E678E0FC30E0F878
:0810A60090E678E0FC20E2195D
:0810AE0090E678E0FC20E1C1AE
:0210B600800FA9
:0E10B80090E678E0FA4440F01210D375820101
:0110C6002207
:0B10C70090E678E0FA4440F0758200EB
:0110D20022FB
:0810D30090E678E0FA20E6F84F
:0E10DB0090E678E0FA4480F090E67974A2F096
:0810E90090E678E0FA30E0F82F
:0810F10090E678E0FA4440F0BB
:0810F90090E678E0FA20E6F829
:0811010090E678E0FA30E1D23B
:0111090022C3
:052726000102000000AB
:05272B000100000000A8
:04273000040220304F
:0E27340055534232204D6F64756C65000000F5
:0E274200FDFDFDFD000000000000C441170376
:0E275000444D6F62557362000000FDFDFDFDFB
:02275E00000079
:07110A0078AAB60202806022
:0711110078ABB6000280116B
:0B1118001207F878AC760C758200120C
:06112300080175820122A3
:0511290078AAE6701F2A
:06112E00789FE630E0119D
:0B1134001207F878AC760375820012F9
:06113F0008017582012287
:08114500789FE64401F68024C6
:05114D0078AAB60108BC
:08115200789FE654FEF68017B9
:06115A00789FE620E01181
:0B1160001207F878AC760475820012CC
:06116B000801758201225B
:0A11710078AAE624F450030212618C
:0A117B0078AAE625E026901185739E
:071185000211A90211B902D9
:06118C0011C9021261020C
:0611920011D60211EF026C
:06119800122302125A02AC
:06119E00124C02124C028B
:0511A400125302124C81
:0A11A9001212651207F87582001299
:0611B30008017582012213
:0A11B9001212771207F87582001277
:0611C30008017582012203
:0D11C90090276075F0801208907582012259
:0711D6001207F8750B00750C
:0611DD000C6A750D187587
:0C11E3000E0075820412080175820122C2
:0711EF0090E67BE0FA6004CA
:0411F600D28580021C
:0211FA00C285AC
:0711FC0090E67BE0FA6004BD
:04120300D283800210
:02120700C283A0
:0712090090E67BE0FA6004AF
:04121000D286800200
:02121400C28690
:0D1216001207F8758200120801758201228E
:0C1223001207F8A285E433FA8A0BA283BC
:0B122F00E433FA8A0CA284E433FA8A4C
:0A123A000DA286E433FA8A0E7582D5
:08124400041208017582012269
:07124C001216347582012225
:07125300121A3B7582012213
:07125A0012128375820122CC
:0312610075820093
:011264002267
:0E12650043B20843B22043B240D282C283D2C9
:0312730085C286AB
:011276002255
:0B127700C28253B297C283D285C286A8
:011282002249
:05276000010200000071
:0527650001000000006E
:0B1283007A007B0090E67BE0FC60043A
:04128E00D285800283
:02129200C28513
:0712940090E67BE0FC600422
:04129B00D283800278
:02129F00C28308
:0E12A100C286758204C002C0031207DAD003B1
:0E12AF0000C0031207F8758200120801D00378
:0712BD00D002AC0BAD0CAE3A
:0412C4000DAF0E8CD0
:0412C8000F8D108EE8
:0912CC00118F12EC4D4E4F70021F
:0212D5007B019B
:0312D700EB6006C3
:0612DA00EA600302138824
:0D12E000C002C00312076CD003D002E4B5B9
:0412ED000A02803140
:0512F1007401B50A0FB5
:0E12F6007A01C002C0031207F8D003D00280B4
:011304001DCB
:051305007402B50A139B
:0B130A007B0178AC7602C002C0031229
:0813150007F8D003D0028005A7
:05131D007A00021388B4
:03132200EB70B2BB
:05132500AC0BAD0CAEA5
:0A132A000DAF0EC3ED94FEEE94002B
:05133400EF94005006DB
:061339008C088D098006FE
:06133F007508007509FEAF
:08134500AC08AD09E4FEFFE570
:09134D000BC39CFCE50C9DFDE5C1
:081356000D9EFEE50E9FFF8CC9
:04135E000B8D0C8E59
:081362000D8F0EC000C001A8B0
:04136A0008A90909BC
:0E136E00D286C286D8FAD9F8D001D000EC4D54
:07137C004E4F60030212D77F
:051383007B010212D7FE
:03138800EA6029EF
:07138B00E50FC3950BFAE525
:0513920010950CFBE5C5
:0513970011950DFCE5BD
:05139C0012950EFD8A10
:0413A1000B8B0C8C1A
:0413A5000D8D0E7824
:0B13A900ACE64480F6758204020801E7
:0113B4002216
:0A13B500C001C002A908AA09E960FE
:0213BF00010A21
:0313C10090E67B38
:0E13C400E0139283D286C286139283D286C231
:0E13D20086139283D286C286139283D286C27D
:0E13E00086139283D286C286139283D286C26F
:0E13EE0086139283D286C286139283D286C261
:0913FC0086D9C5DAC3D002D00184
:0114050022C4
:0A140600C001C002A908AA09E960AC
:02141000010ACF
:0A14120090E67B058690E67C0586D7
:0E141C00E0139283A28413D286C2869283A22A
:0E142A008413D286C2869283A28413D286C215
:0E143800869283A28413D286C2869283A284F7
:0E14460013D286C2869283A28413D286C286F7
:0E1454009283A28413D286C2869283A284134E
:0E146200D286C2860586F00586D9AFDAADD0F7
:0314700002D001A6
:011473002256
:0A147400C001C002A908AA09E9603E
:02147E00010A61
:0314800090E67C77
:0E148300A284D286C28613A284D286C28613A9
:0E149100A284D286C28613A284D286C286139B
:0E149F00A284D286C28613A284D286C286138D
:0E14AD00A284D286C28613A284D286C286137F
:0914BB00F0D9C2DAC0D002D00160
:0114C4002205
:0A14C500C001C002A908AA09E960ED
:0214CF00010A10
:0314D10090E67B27
:0E14D400E0139285D286C286139285D286C21C
:0E14E20086139285D286C286139285D286C268
:0E14F00086139285D286C286139285D286C25A
:0E14FE0086139285D286C286139285D286C24C
:09150C0086D9C5DAC3D002D00172
:0115150022B3
:0A151600C001C002A908AA09E9609B
:02152000010ABE
:0A15220090E67B058690E67C0586C6
:0E152C00E0139285A28413D286C2869285A215
:0E153A008413D286C2869285A28413D286C202
:0E154800869285A28413D286C2869285A284E2
:0E15560013D286C2869285A28413D286C286E4
:0E1564009285A28413D286C2869285A2841339
:0E157200D286C2860586F00586D9AFDAADD0E6
:0315800002D00195
:011583002245
:0A158400C001C002A908AA09E9602D
:02158E00010A50
:0315900090E67B67
:0E159300E0139283139285D286C28613928350
:0E15A100139285D286C286139283139285D24E
:0E15AF0086C286139283139285D286C286D995
:0715BD00D5DAD3D002D00102
:0115C4002204
:0A15C500C001C002A908AA09E960EC
:0215CF00010A0F
:0A15D10090E67B058690E67C058617
:0215DB007C0290
:0E15DD00E0139283139285FBE8A28413F8EBCF
:0E15EB00D286C286139283139285FBE8A284F7
:0E15F90013F8EBD286C286139283139285FB01
:0E160700E8A28413F8EBD286C28613928313F6
:0E1615009285FBE8A28413F8EBD286C286DC35
:0E162300B9E80586F0058619D9AEDAACD0021A
:02163100D001E6
:011633002294
:071634007517007519007520
:07163B001A0078AAB6082A84
:0816420075170190E67BE0F54D
:08164A001690E67BE0FE60044F
:04165200D2858002BB
:02165600C2854B
:04165800E51660082B
:04165C00751B06757F
:041660001C14805A7C
:04166400751BB575C8
:041668001C1380527D
:05166C0078AAB6092573
:0A16710075160190E67BE0FC6004B2
:04167B00D285800292
:02167F00C28522
:0716810090E67BE0FC600431
:04168800D283800287
:02168C00C28317
:04168E00751B7475DF
:041692001C1480287C
:0816960075170190E67BE0F5F9
:08169E001690E67BE0FC6004FD
:0416A600D283800269
:0216AA00C283F9
:0416AC00E5166008D7
:0416B000751B16751B
:0416B4001C1580067B
:0416B800751BC57564
:0216BC001C14FC
:0D16BE007582041207DA1207F87582001217
:0416CB000801850B82
:0316CF001D850C6A
:0316D2001E850D65
:0316D5001F850E60
:0316D80020851D4D
:0316DB000F851E5A
:0316DE0010851F55
:0316E10011852050
:0A16E400127407551DFD7A007B000B
:0716EE007C008D18AA1DE528
:0C16F5001EC423CAC423541F6ACA541F19
:0C170100CA6ACAFBE51FC42354E04BFB7E
:0A170D00AC1FE520C423CCC4235414
:0C1717001F6CCC541FCC6CCCFE8A0B8BDA
:041723000C8C0D8E8F
:051727000EE518601D35
:05172C00AA0BAB0CACA0
:0A1731000DAE0E0ABA00090BBB0052
:06173B00050CBC00010ECC
:051741008A0B8B0C8CEB
:031746000D8E0EF7
:05174900E50F4510450D
:05174E001145127003BB
:0317530075190104
:02175600C28649
:04175800E519600728
:07175C00E51A600302194EBB
:0717630012076CE50A602C7F
:05176A007401B50A0C3A
:04176F00E51A7008FF
:08177300751A011207F8801B32
:05177B007402B50A1024
:071780001207F8E519700FD4
:0917870078AC76027519018006A8
:06179000751A0002194E5B
:04179600E5176005EE
:05179A00E5AA20E0B902
:04179F00E5166005E6
:0517A300E5AA20E5B0FD
:0417A800E51970AC23
:0417AC00E517600ECF
:0717B0007A007BF08B9A7AAE
:0717B700007BF07B008A9B20
:0417BE00E516600EBE
:0717C2007A007BF88B9D7A91
:0717C900007BF87B008A9E03
:0417D000E5176019A0
:0E17D40090E690E0FA8A037A0090E691E0FC3D
:0A17E2007E004AF508EE4BF5098081
:0117EC0054A8
:0417ED00850B2185C2
:0317F1000C228542
:0317F4000D23853D
:0317F7000E24902D
:0717FA00E680E0FF30E70686
:061801007A007B02800466
:041807007A407B00A8
:0C180B008A07EBFD3395E0FAFBC3EF9574
:0618170021ED9522EA9587
:06181D0023EB9524501896
:0818230090E680E0FA30E706D0
:06182B007A007B0280043C
:041831007A407B007E
:061835008A088B09800601
:04183B008521088576
:02183F0022097C
:08184100AA08AB09E4FCFDE577
:091849000BC39AFAE50C9BFBE5C8
:081852000D9CFCE50E9DFD8AD2
:04185A000B8B0C8C5C
:04185E000D8D0EE5F9
:03186200186013F8
:05186500E50B450C45F8
:05186A000D450E7009A0
:08186F00150874FFB50802150D
:011877000967
:06187800E50845096009C6
:07187E00851B82851C83120B
:02188500006BF6
:07188700E5187003021918B7
:05188E00E50B450C45CF
:061893000D450E6003028A
:0218990019181C
:06189B00AA18E517700B0E
:0318A1003083048D
:0418A4007BFF800244
:0218A8007B00C3
:0218AA008005B7
:0518AC0090E67BE0FB6B
:0518B10078AAB60B1D32
:0218B6008A04A2
:0B18B800EBA2E09285C313FB30840517
:0518C3004303808003D7
:0318C80053037F48
:0618CB00D286C286DCE7B4
:0218D10080197C
:0B18D300EBA2E09283C313FB308405FE
:0518DE004303808003BC
:0318E30053037F2D
:0618E600D286C286DAE79B
:0418EC00E516601D80
:0C18F000AD187A007408C39DFDE49AFA5C
:0718FC008DF005F0EB800206
:02190300C3130C
:08190500D5F0FBFB90E67CF03D
:07190D007518000508E4B5A0
:0419140008020509B7
:04191800E517600966
:09191C0090E6497482F00000001D
:04192500E516601251
:0A19290090E698E509F00000009038
:08193300E699E508F000000050
:05193B00E50B450C4521
:061940000D450E600302DC
:02194600175830
:0619480075190102175899
:07194E001208F412092CE558
:041955001A700122E1
:04195900E518601D10
:05195D00AA0BAB0CAC6D
:0A1962000DAD0E1ABAFF091BBBFF02
:06196C00051CBCFF011D7B
:051972008A0B8B0C8CB8
:031977000D8D0EC5
:04197A00850D23E5CF
:0A197E000EC40354F8C523C403C5CA
:04198800236523C5EB
:06198C002354F8C5236599
:0419920023F524E530
:081996000CC40354074523F5BE
:03199E0023850B93
:0819A10021E50CC40354F8C554
:0619A90021C403C5216505
:0619AF0021C52154F8C51A
:0419B500216521F592
:0319B90022852163
:0319BC000B852276
:0319BF000C852371
:0319C2000D85246C
:0919C5000EAE18E4FFFAFBEE255A
:0819CE0021FEEF3522FFEA358E
:0719D60023FAEB3524FB8E20
:0419DD000B8F0C8AD6
:0419E1000D8B0EE577
:0919E5000FC39EFEE5109FFFE513
:0819EE00119AFAE5129BFB8E31
:0419F6000F8F108AB5
:0419FA00118B128EAD
:0419FE000B8F0C8AB5
:041A02000D8B0EE555
:031A060017600462
:041A09007A8080025D
:021A0D007A005D
:041A0F00E516600474
:041A13007B40800292
:021A17007B0052
:0A1A1900EB4A78AC46F6E5176004CE
:041A23007A048002BF
:021A27007A0043
:041A2900E51660045A
:041A2D007B048002B4
:021A31007B0038
:071A3300EB2AF58202080115
:011A3A002289
:071A3B0075260075270075F8
:071A4200280090E67BE0F5AF
:081A4900257582041207DA1270
:091A510007F875820012080185F6
:031A5A000B2B85CE
:031A5D000C2C85C9
:031A60000D2D85C4
:031A63000E2E85BF
:031A66002B0F85BE
:031A69002C1085B9
:031A6C002D1185B4
:031A6F002E12E54F
:041A72002B452C458F
:051A76002D452E700358
:031A7B00752701CB
:0C1A7E007407552BFAE4FDFBFC740325F3
:081A8A002BFBE4352CFCE435D4
:071A92002DFDE4352EFE8B53
:041A99000B8C0C8D19
:0A1A9D000DEEF50EC313FEED13FD70
:0E1AA700EC13FCEB13FBEEC313FEED13FDEC92
:0A1AB50013FCEB13FB8B0B8C0C8D64
:041ABF000D8E0EE595
:031AC30025600893
:041AC6007529C57544
:041ACA002A15800653
:041ACE00752984757D
:021AD2002A15D3
:021AD400C286C8
:041AD600E527600799
:071ADA00E5286003021CD7A0
:0B1AE100C00212076CD002E50A60345E
:051AEC007401B50A10B1
:041AF100E528700C68
:0C1AF500752801C0021207F8D002801F03
:051B01007402B50A1496
:0B1B0600C0021207F8D002E527700FA4
:091B110078AC760275270180060C
:061B1A00752800021CD733
:051B2000E5AA20E0B180
:041B2500E52560054D
:051B2900E5AA20E5A87B
:041B2E00E52770A493
:071B32007D007EF08E9A7D1C
:081B3900007EF07E008D9BE5AB
:031B41002560120A
:041B4400E526700E14
:071B48007D007EF88E9D7DFB
:071B4F00007EF87E008D9E70
:0E1B560090E690E0FD8D067D0090E691E0FFA8
:0A1B64007B002DF508EB3EF509AB00
:071B6E0008AC09E4FDFEE5EF
:091B75000BC39BFBE50C9CFCE595
:081B7E000D9DFDE50E9EFE8B9E
:041B86000B8C0C8D2B
:061B8A000D8E0EEA602C36
:051B9000E50B450C45CA
:051B95000D450E702259
:0E1B9A008A03FC74032BFBE43CFCA2E713CB94
:0C1BA80013CBA2E713CB13CBFCE508C362
:071BB4009BF508E5099CF513
:011BBB000920
:061BBC00E5084509600D7B
:091BC200C002852982852A8312E4
:041BCB00006BD002D9
:061BCF00EA7003021C5441
:051BD500E50B450C4585
:051BDA000D450E7075C1
:091BDF007B0090E67BE0FC7D0038
:051BE800C3ED9A50233B
:031BED00BD04052F
:051BF00090E67BE0FC23
:0E1BF500ECA2E09283C313FCA2E09285C3131E
:061C0300FCEBA28413FBC0
:071C0900D286C2860D80D8CF
:041C1000E525601C4A
:0E1C14008A047D007408C39CFCE49DFD8CF0E6
:051C220005F0EB80025B
:021C2700C313E5
:071C2900D5F0FB90E67CF012
:0E1C30008A037C0074032BFBE43CFCA2E71348
:0C1C3E00CB13CBA2E713CB13CBFCEB25A0
:051C4A0008F508EC356F
:051C4F0009F5097A000F
:041C5400E5256063BF
:051C5800E50B450C4501
:051C5D000D450E6004BE
:041C6200E5266052C1
:071C66000508E4B5080205C2
:011C6D00096D
:081C6E00E509C313C50813C505
:041C760008F509E57F
:031C7A00266024BD
:081C7D0090E680E0FB30E70671
:061C85007B007C028004DC
:041C8B007B407C001E
:0C1C8F00ECA2E713CB13CBFCEB2508F50F
:051C9B0008EC3509F51D
:011CA000093A
:0A1CA10090E698E509F000000090BD
:091CAB00E699E508F0000000755F
:041CB4002600800383
:031CB8007526018D
:0C1CBB0090E6497482F0000000E50B4543
:041CC7000C450D4576
:061CCB000E6003021AD6B0
:061CD100752701021AD67E
:0C1CD700C0021208F40012092CD002E533
:041CE3002870012242
:0A1CE700E50B25E0FBE50C33FCE5FE
:0A1CF1000D33FDE50E33FEEB2BFB77
:0C1CFB00EC33FCED33FDEE33FE8B0B8C64
:041D07000C8D0D8EA4
:041D0B000EEA603D3F
:041D0F00EA30E21DB7
:051D1300AB0BAC0CADB0
:0A1D18000DAE0E1BBBFF091CBCFF43
:061D2200051DBDFF011EBE
:051D28008B0B8C0C8DFB
:031D2D000D8E0E0A
:0A1D3000E4FBFCFDEA250BFAEB359D
:081D3A000CFBEC350DFCED354E
:051D42000EFD8A0B8B71
:041D47000C8C0D8D66
:011D4B000E89
:071D4C00E50FC3950BFAE55A
:051D530010950CFBE5FA
:051D580011950DFCE5F2
:051D5D0012950EFD8A45
:041D62000F8B108C47
:041D6600118D128A3F
:041D6A000B8B0C8C47
:041D6E000D8D0EE5E4
:031D7200257008D1
:051D7500F50FF510F56B
:031D7A0011F5124E
:0C1D7D0078ACE644C0F67582080208014C
:011D89002237
:05276A00010200000067
:05276F00010000000064
:0A1D8A00C28CC28D78AD868A78AD58
:031D940008868C32
:011D97002229
:071D980078AAB60202806088
:071D9F0078ABB600028011D1
:0B1DA6001207F878AC760C7582001272
:061DB10008017582012209
:051DB70078AAE6701F90
:061DBC00789FE630E21101
:0B1DC2001207F878AC7603758200125F
:061DCD00080175820122ED
:081DD300789FE64404F6802429
:051DDB0078AAB6010822
:081DE000789FE654FBF6801722
:061DE800789FE620E211E5
:0B1DEE001207F878AC76047582001232
:061DF900080175820122C1
:0A1DFF0078AAE624F85003021EE95A
:0A1E090078AAE625E026901E137368
:071E1300021E2B021E2B0230
:061E1A001E3D021E4A02FB
:061E20001ECF021ED702D6
:051E26001EDF021EE4B6
:0C1E2B001207F878ADE4F608F6758200A6
:061E3700120801021EED7D
:0D1E3D0090277975F08012089075820122BF
:0A1E4A007582041207DA1207F8751A
:061E540034FAE4F535F557
:041E5A0036F537859D
:061E5E000B82850C838558
:051E64000DF0E50E1277
:0C1E69002606AA82AB83ACF0FD8A0B8B2E
:041E75000C8C0D8D37
:071E79000EEC7003ED600C9C
:071E8000750BFF750CFF75E7
:051E87000D00750E00C6
:091E8C00E50BF4FAE50CF4FBE5AA
:081E95000DF4FCE50EF4FD78EC
:081E9D00ADA60208A603850BA7
:031EA50034850C75
:031EA80035850D70
:031EAB0036850E6B
:0C1EAE00379000FAE4F5F0122684AA82B6
:0A1EBA00AB83ACF0FD8A0B8B0C8C9F
:071EC4000D8D0E7582041262
:041ECB000801801E6C
:081ECF007582011222A58016A4
:081ED7007582001222A5800EA5
:051EDF00121F618009E3
:051EE4001220E0800463
:041EE90075820022DC
:031EED00758201FA
:011EF00022CF
:0E1EF10090E6F3E0FA4480F000000090E67BFB
:0C1EFF00E0FA90E6F1F0000000021F4144
:0E1F0B0090E6F3E0FA547FF000000090E67BD1
:0C1F1900E0FA90E6F1F0000000021F4129
:0B1F250090E6F1E0121F41E582600D24
:0D1F300090E6F2E0FA90E67CF07582012266
:031F3D00758200AA
:011F4000227E
:051F4100121D8AD28C84
:051F4600E5BB20E703EC
:031F4B00308DF8DE
:051F4E00E5BB30E704D3
:041F53007582012270
:091F570090E6F574FFF0758200BC
:011F6000225E
:0A1F6100E4FAFBF508F509758204A7
:0D1F6B00C002C0031207DAD00300C0031249
:0D1F780007F8758200120801D003D002ACFA
:041F85000BAD0CAEE6
:041F89000DAF0E8CFE
:041F8D000F8D108E16
:091F9100118F12EC4D4E4F70024D
:021F9A007B01C9
:031F9C00EB6006F1
:061F9F00EA60030220AC21
:0D1FA500C002C00312076CD003D002E4B5E7
:041FB2000A0280405F
:051FB6007401B50A12E0
:031FBB00EA700FBA
:0E1FBE007A01C002C0031207F8D003D00280DF
:011FCC0029EB
:051FCD007402B50A1FBB
:0E1FD200C002C0031207F8D003D002EB701655
:0C1FE00090E6A37401F00000007B017883
:051FEC00AC7602800547
:051FF1007A000220ACA3
:031FF600EB70A3EA
:061FF900E5084509702A0D
:051FFF00E5AA20E02529
:072004007C007DF08D9A7C49
:08200B00007DF07D008C9B902C
:0E201300E690E0FC8C057C0090E691E0FE7FFC
:08202100002CF508EF3DF50964
:07202900E508450970030200
:022030001F9CF3
:0E203200C002C003121EF1E582D003D002707E
:012040000699
:0620410078AC7605805228
:0E204700C002C003121F0BE582D003D002704E
:012055000684
:0620560078AC7606803D27
:07205C00E50824FEF508E58C
:062063000934FFF509AC91
:042069000BAD0CAE01
:0A206D000DAF0E1CBCFF091DBDFFE6
:06207700051EBEFF011F63
:05207D008C0B8D0C8EA0
:092082000D8F0EEC4D4E4F700263
:02208B007B01D7
:06208D00E508450970069C
:0620930090E6497482F0A2
:0820990078ACB60003021F9CA5
:0B20A1007B0190E6A37401F0021F9C7D
:0A20AC00C0021208F4D002EA602915
:0720B600E50FC3950BFAE5ED
:0520BD0010950CFBE58D
:0520C20011950DFCE585
:0520C70012950EFD8AD8
:0420CC000B8B0C8CE2
:0420D0000D8D0E78EC
:0B20D400ACE64480F6758204020801AF
:0120DF0022DE
:0A20E000E4FAFBF508F50975820427
:0D20EA00C002C0031207DAD00300C00312C9
:0D20F70007F8758200120801D003D002AC7A
:042104000BAD0CAE65
:042108000DAF0E8C7D
:04210C000F8D108E95
:09211000118F12EC4D4E4F7002CC
:022119007B0148
:03211B00EB600670
:06211E00EA6003022265E5
:0D212400C002C00312076CD003D002E4B566
:042131000A028046D8
:052135007401B50A125F
:03213A00EA700F39
:0E213D007A01C002C0031207F8D003D002805E
:01214B002F64
:05214C007402B50A2534
:0E215100C002C0031207F8D003D002EB701CCE
:0E215F0090E6A37401F000000090E6A5740164
:09216D00F07B0178AC76028005DC
:052176007A0002226561
:03217B00EB709D69
:06217E00E5084509703D73
:05218400E5AA20E0388F
:05218900E5AA20E5338A
:07218E007C007DF08D9A7CBE
:08219500007DF07D008C9B7CB5
:06219D00007DF88D9D7C21
:0821A300007DF87D008C9E9088
:0E21AB00E690E0FC8C057C0090E691E0FE7F63
:0821B900002CF508EF3DF509CB
:0721C100E508450970030267
:0221C800211BD9
:0E21CA00C002C003121EF1E582D003D00270E5
:0121D8000600
:0621D90078AC7605806A77
:0E21DF00C002C003121F25E582D003D002709B
:0121ED0006EB
:0621EE0078AC7606805576
:0821F400150874FFB50802157F
:0121FC0009D9
:0521FD00AC0BAD0CAEBF
:0A2202000DAF0E1CBCFF091DBDFF4F
:06220C00051EBEFF011FCC
:052212008C0B8D0C8E09
:092217000D8F0EEC4D4E4F7002CC
:022220007B0140
:06222200E50845097021EA
:0D22280090E690E0FC90E698F00000009039
:0C223500E691E0FC90E699F000000090BB
:08224100E6497482F000000080
:0822490078ACB6000302211B72
:0E22510090E6A37401F000000090E6A5740171
:06225F00F07B0102211BCF
:0E226500C0021208F40012092CD002EA603107
:07227300E50FC3950BFAE52E
:05227A0010950CFBE5CE
:05227F0011950DFCE5C6
:0522840012950EFD8A19
:042289000F8B108C1B
:04228D00118D128A13
:042291000B8B0C8C1B
:042295000D8D0E7825
:0B229900ACE644C0F6758208020801A4
:0122A4002217
:0C22A50085822F7B007C00C003C0041267
:0A22B1001EF1E582D004D003700D89
:0B22BB001207F878AC7605758200026F
:0222C60008010D
:0E22C800758204C003C0041207DAD00400C0FF
:0B22D600041207F8D004D003E50B450C
:0422E1000C450D4556
:0322E5000E700276
:0222E8007C0177
:0A22EA0090E6F574FFF090E6CEE5F3
:0922F4000EF000000090E6CFE5B9
:0922FD000DF000000090E6D0E5B0
:092306000CF000000090E6D1E5A6
:0C230F000BF0C003C004121D8AD004D0E3
:0A231B000390E6D1E0FDE52F601C01
:0E23250090E6187410F000000090E6D27401EB
:07233300F0000000EC703126
:07233A00F5BB000000802A42
:0E234100C003C004C005120957D005D004D057
:0E234F000390E61A7408F000000090E6E274B5
:08235D0002F0000000EC700624
:0623650075BB060000003C
:0E236B00758200C003C004C005120801D00531
:04237900D004D003B9
:03237D00EC60060B
:06238000EB600302247B68
:0E238600C003C004C00512076CD005D004D0FF
:0723940003E4B50A028066B4
:05239B007401B50A16F3
:0323A000EB7013CC
:0E23A3007B01C003C004C0051207F8D005D0AE
:0523B10004D003804B85
:0523B6007402B50A42AB
:0E23BB00C003C004C0051207F8D005D004D03E
:0423C90003EC70347D
:0523CD0078ACE670048D
:0423D20078AC76026B
:0423D600E52F600887
:0823DA0090E6A37401F08006F7
:0623E20090E6A57401F075
:0823E800000000E5BB20E7093D
:0923F00000000090E6F574FFF016
:0423F9007C018004DF
:0423FD007B00807A67
:05240100E5BB20E75DD2
:0A24060090E6D1E0FEB50502801259
:0E241000C003C004121D8AD004D00390E6D190
:04241E00E0FD802439
:03242200308D21D9
:0824250078AC7606E52F600893
:08242D0090E6A37401F08006A3
:0624350090E6A57401F021
:0B243B007C0100000090E6F574FFF04B
:04244600E52F600519
:05244A00E5AA30E00FDF
:07244F00E52F600302237D6D
:08245600E5AA30E50302237D35
:05245E00D28C02237D79
:06246300EC600302237D82
:04246900E52F7009E2
:09246D0090E6487406F00000003E
:052476007C0102237D42
:0E247B00C0031208F40012092CD003EB70010C
:012489002230
:0C248A0090E6CEE0FB7C007D007E008B25
:052496003375300075F4
:06249B00310075320090D3
:0E24A100E6CFE0FF7A007B008A048F03E4FAA6
:0824AF00FF4230EA4231EB422A
:0524B70032EC423390FD
:0E24BC00E6D0E0FD7E007A008A038E028D06D7
:0924CA00E4FD4230EE4231EA4229
:0524D30032EB423390E2
:0C24D800E6D1E0FCE4FFFAFBE530420432
:0924E400E5314207E5324202E550
:0924ED00334203E50BC39CFCE53E
:0824F6000C9FFFE50D9AFAE5C9
:0624FE000E9BFB8C0B8F0E
:042504000C8A0D8BA5
:052508000EE52F600448
:04250D007A8080024E
:022511007A400E
:0B25130078ACEA46F67582040208016D
:01251E00229A
:0527740001020000005D
:0527790001000000005A
:0D251F0090E60174FAF090E6F574FFF0907C
:0A252C002822E493FA90E6F3F09001
:0A2536002823E493FA90E6C3F09026
:0A2540002824E493FA90E6C1F0901D
:0A254A002825E493FA90E6C2F09011
:0A2554002827E493FA90E6C0F09007
:0D255E002828E493FA90E6F4F075AF077AB0
:06256B007E7B278B9A7AAB
:0A2571007E7B277B008A9B759DE4AA
:05257B00759E007A00CE
:03258000BA80001E
:02258300500CFA
:0C25850090E67BE0FB90E67CF00A80EF23
:0E25910090E67174FFF075B4FF90E672E0FA08
:0E259F004480F043B68000000090E6C4E4F0F3
:0E25AD0000000090E6C5E4F09027FEE493FAEB
:0B25BB0090E6C6F09027FFE493FA9032
:0A25C600E6C7F0902800E493FA90B5
:0A25D000E6C8F0902801E493FA90A9
:0A25DA00E6C9F0902802E493FA909D
:0A25E400E6CAF0902803E493FA9091
:0A25EE00E6CBF0902804E493FA9085
:0A25F800E6CCF0902805E493FA9079
:03260200E6CDF032
:0126050022B2
:0E277E0081B9010101010107230302020202D9
:0E278C000200F7F5F5F5F5F5F5F70000000091
:0E279A000000003F0C8A9A3FA5B53F072103BF
:0E27A800030103030500F3F3F2F3F3F1F3F77B
:0E27B6003F0000000000003F8191380101014A
:0E27C40001070101070202020200F7F5F7F714
:0E27D200F7F7F7F7000075000000003F819157
:0E27E00038010101010703030500000000009D
:0E27EE00F3F1F3F3F3F3F3F700006E000000D5
:0227FC00003F9C
:0E27FE000000000000000000000000000000CD
:0E280C000000000000000000000000000000BE
:08281A000000000000000000B6
:07282200E08000F7FA4E0010
:0EE10000120100020000004043140300000062
:04E10E000102000109
:0AE112000A060002000000400100B0
:0EE11C0009022E0001010080FA09040000042F
:0EE12A00FF000000070501024000000705810C
:0EE138000240000007050202000200070586F3
:04E1460002000200D1
:0EE14A0009022E0001010080FA090400000401
:0EE15800FF00000007050102400000070581DE
:0EE16600024000000705020240000007058687
:04E174000240000065
:093F00000205A8000205DC000224
:083F090005C60002064000029B
:083F110005F20002065E000249
:083F190006B8000206B8000220
:083F210006B8000206B8000218
:083F290006B8000206B8000210
:083F310006B8000206B8000208
:083F390006B8000206B8000200
:083F410006B8000206B80002F8
:083F490006B8000206B80002F0
:083F510006B8000206B80002E8
:083F590006B8000206B80002E0
:083F610006B8000206B80002D8
:083F690006B8000206B80002D0
:083F710006B8000206B80002C8
:083F790006B8000206B80002C0
:083F810006B8000206B80002B8
:083F890006B8000206B80002B0
:083F910006B8000206B80002A8
:083F990006B8000206B80002A0
:083FA10006B8000206B8000298
:083FA90006B8000206B8000290
:073FB10006B8000206B8008B
:08260600FB7A20E4FCFDFEFF5D
:0E260E00E5822582F582E58333F583E5F0331E
:0B261C00F5F0EB33FB4017DAE98042D9
:0E262700E5822582F582E58333F583E5F03305
:05263500F5F0EB33FBA2
:0E263A00EC33FCED33FDEE33FEEF33FFEC9599
:0626480034ED9535EE951E
:08264E0036EF95374013EC95BF
:0826560034FCED9535FDEE9515
:09265E0036FEEF9537FF438201BF
:02266700DABED9
:02266900EB2262
:06009C00E478FFF6D8FD38
:08007A007900E94400601B7AE3
:05008200009028297820
:030087000075A061
:0A008A00E0E493F2A308B8000205B9
:08009400A0D9F4DAF275A0FF17
:0E266B0020F71030F6118883A88220F507F6BC
:05267900A88375830039
:01267E002239
:03267F00F280F7EF
:02268200F02244
:0C268400AAF0FBE5828534F0A4FCADF068
:0C269000E5838534F0A42DFDE435F0FE58
:0C269C00E5828535F0A42DFDE5F03EFE42
:0C26A800E433FFEA8534F0A42EFEE5F0D8
:0C26B4003FFFE5838535F0A42EFEE5F025
:0C26C0003FFFE5828536F0A42EFEE5F019
:0B26CC003FFFEB8534F0A42FFFEA85F0
:0A26D70035F0A42FFFE5838536F0EF
:0C26E100A42FFFE5828537F0A42F8EF0B7
:0526ED008D838C8222A8
:0400A20075A00078CD
:0700A60000E8440060077947
:0600AD0000E4F309D8FC99
:0800B3007800E84400600C79BC
:0B00BB000090E000E4F0A3D8FCD9FAAC
:02006B00E4733C
:03006D0075813763
:0A00700012270EE58260030200660D
:0E26F20020F71430F6148883A88220F507E63E
:06270000A883758300228E
:03270600E280F777
:03270900E4932234
:02270C00E022C9
:04270E0075820022AE
:00000001FF
